{
	"contracts/CrowdTank.sol": {
		"CrowdTank": {
			"abi": [
				{
					"inputs": [],
					"stateMutability": "nonpayable",
					"type": "constructor"
				},
				{
					"inputs": [],
					"name": "ReentrancyGuardReentrantCall",
					"type": "error"
				},
				{
					"anonymous": false,
					"inputs": [
						{
							"indexed": true,
							"internalType": "uint256",
							"name": "projectID",
							"type": "uint256"
						},
						{
							"indexed": true,
							"internalType": "address",
							"name": "creator",
							"type": "address"
						},
						{
							"indexed": false,
							"internalType": "string",
							"name": "name",
							"type": "string"
						},
						{
							"indexed": false,
							"internalType": "string",
							"name": "description",
							"type": "string"
						},
						{
							"indexed": false,
							"internalType": "uint256",
							"name": "fundingGoal",
							"type": "uint256"
						},
						{
							"indexed": false,
							"internalType": "uint256",
							"name": "deadline",
							"type": "uint256"
						}
					],
					"name": "ProjectCreated",
					"type": "event"
				},
				{
					"anonymous": false,
					"inputs": [
						{
							"indexed": true,
							"internalType": "address",
							"name": "user",
							"type": "address"
						},
						{
							"indexed": true,
							"internalType": "uint256",
							"name": "_projectID",
							"type": "uint256"
						},
						{
							"indexed": false,
							"internalType": "uint256",
							"name": "amount",
							"type": "uint256"
						}
					],
					"name": "UserEarlyWithdraw",
					"type": "event"
				},
				{
					"anonymous": false,
					"inputs": [
						{
							"indexed": true,
							"internalType": "address",
							"name": "creator",
							"type": "address"
						}
					],
					"name": "addedCreator",
					"type": "event"
				},
				{
					"anonymous": false,
					"inputs": [
						{
							"indexed": true,
							"internalType": "uint256",
							"name": "projectID",
							"type": "uint256"
						},
						{
							"indexed": false,
							"internalType": "address",
							"name": "withdrawer",
							"type": "address"
						},
						{
							"indexed": false,
							"internalType": "uint256",
							"name": "amount",
							"type": "uint256"
						}
					],
					"name": "creatorWithdrawn",
					"type": "event"
				},
				{
					"anonymous": false,
					"inputs": [
						{
							"indexed": true,
							"internalType": "uint256",
							"name": "projectID",
							"type": "uint256"
						},
						{
							"indexed": false,
							"internalType": "address",
							"name": "contributor",
							"type": "address"
						},
						{
							"indexed": false,
							"internalType": "uint256",
							"name": "amount",
							"type": "uint256"
						},
						{
							"indexed": false,
							"internalType": "uint256",
							"name": "refund",
							"type": "uint256"
						}
					],
					"name": "funded",
					"type": "event"
				},
				{
					"anonymous": false,
					"inputs": [
						{
							"indexed": true,
							"internalType": "address",
							"name": "creator",
							"type": "address"
						}
					],
					"name": "removedCreator",
					"type": "event"
				},
				{
					"anonymous": false,
					"inputs": [
						{
							"indexed": true,
							"internalType": "uint256",
							"name": "projectID",
							"type": "uint256"
						},
						{
							"indexed": false,
							"internalType": "address",
							"name": "withdrawer",
							"type": "address"
						},
						{
							"indexed": false,
							"internalType": "uint256",
							"name": "amount",
							"type": "uint256"
						}
					],
					"name": "userWithdrawn",
					"type": "event"
				},
				{
					"inputs": [
						{
							"internalType": "address",
							"name": "_creator",
							"type": "address"
						}
					],
					"name": "Add_Creators",
					"outputs": [],
					"stateMutability": "nonpayable",
					"type": "function"
				},
				{
					"inputs": [],
					"name": "AdminWithdrawCommission",
					"outputs": [],
					"stateMutability": "nonpayable",
					"type": "function"
				},
				{
					"inputs": [
						{
							"internalType": "address",
							"name": "",
							"type": "address"
						}
					],
					"name": "AuthorizedCreators",
					"outputs": [
						{
							"internalType": "bool",
							"name": "",
							"type": "bool"
						}
					],
					"stateMutability": "view",
					"type": "function"
				},
				{
					"inputs": [
						{
							"internalType": "uint256",
							"name": "_projectID",
							"type": "uint256"
						},
						{
							"internalType": "uint256",
							"name": "Change_Goal",
							"type": "uint256"
						}
					],
					"name": "Change_FundingGoal",
					"outputs": [],
					"stateMutability": "nonpayable",
					"type": "function"
				},
				{
					"inputs": [
						{
							"internalType": "uint256",
							"name": "",
							"type": "uint256"
						},
						{
							"internalType": "address",
							"name": "",
							"type": "address"
						}
					],
					"name": "Contributions",
					"outputs": [
						{
							"internalType": "uint256",
							"name": "",
							"type": "uint256"
						}
					],
					"stateMutability": "view",
					"type": "function"
				},
				{
					"inputs": [
						{
							"internalType": "uint256",
							"name": "_projectID",
							"type": "uint256"
						},
						{
							"internalType": "uint256",
							"name": "_deadline",
							"type": "uint256"
						}
					],
					"name": "Extend_Deadline",
					"outputs": [],
					"stateMutability": "nonpayable",
					"type": "function"
				},
				{
					"inputs": [
						{
							"internalType": "uint256",
							"name": "_projectID",
							"type": "uint256"
						}
					],
					"name": "Funding_Raised_Percentage",
					"outputs": [
						{
							"internalType": "uint256",
							"name": "",
							"type": "uint256"
						}
					],
					"stateMutability": "view",
					"type": "function"
				},
				{
					"inputs": [],
					"name": "GetProjectStatus",
					"outputs": [
						{
							"internalType": "uint256",
							"name": "Successfully_Funded_Projects",
							"type": "uint256"
						},
						{
							"internalType": "uint256",
							"name": "Failed_To_Fund_Projects",
							"type": "uint256"
						}
					],
					"stateMutability": "view",
					"type": "function"
				},
				{
					"inputs": [],
					"name": "Get_Total_Raised_Funding",
					"outputs": [
						{
							"internalType": "uint256",
							"name": "",
							"type": "uint256"
						}
					],
					"stateMutability": "view",
					"type": "function"
				},
				{
					"inputs": [],
					"name": "ProjectStatistics",
					"outputs": [
						{
							"internalType": "uint256",
							"name": "totalProjects",
							"type": "uint256"
						},
						{
							"internalType": "uint256",
							"name": "successfulProjects",
							"type": "uint256"
						},
						{
							"internalType": "uint256",
							"name": "failedProjects",
							"type": "uint256"
						},
						{
							"internalType": "uint256",
							"name": "activeProjects",
							"type": "uint256"
						},
						{
							"internalType": "uint256",
							"name": "totalFundsRaised",
							"type": "uint256"
						}
					],
					"stateMutability": "view",
					"type": "function"
				},
				{
					"inputs": [
						{
							"internalType": "uint256",
							"name": "",
							"type": "uint256"
						}
					],
					"name": "Projects",
					"outputs": [
						{
							"internalType": "address",
							"name": "creator",
							"type": "address"
						},
						{
							"internalType": "string",
							"name": "name",
							"type": "string"
						},
						{
							"internalType": "string",
							"name": "description",
							"type": "string"
						},
						{
							"internalType": "uint256",
							"name": "fundingGoal",
							"type": "uint256"
						},
						{
							"internalType": "uint256",
							"name": "deadline",
							"type": "uint256"
						},
						{
							"internalType": "uint256",
							"name": "amountRaised",
							"type": "uint256"
						},
						{
							"internalType": "bool",
							"name": "funded",
							"type": "bool"
						},
						{
							"internalType": "address",
							"name": "highest_Funder",
							"type": "address"
						},
						{
							"internalType": "uint256",
							"name": "highest_contribution",
							"type": "uint256"
						},
						{
							"internalType": "bool",
							"name": "failed_projects",
							"type": "bool"
						},
						{
							"internalType": "bool",
							"name": "status_processed",
							"type": "bool"
						}
					],
					"stateMutability": "view",
					"type": "function"
				},
				{
					"inputs": [
						{
							"internalType": "uint256",
							"name": "projectID",
							"type": "uint256"
						}
					],
					"name": "Remaining_Fund",
					"outputs": [
						{
							"internalType": "uint256",
							"name": "fundingGoal",
							"type": "uint256"
						},
						{
							"internalType": "uint256",
							"name": "remainingFund",
							"type": "uint256"
						}
					],
					"stateMutability": "view",
					"type": "function"
				},
				{
					"inputs": [
						{
							"internalType": "address",
							"name": "_creator",
							"type": "address"
						}
					],
					"name": "Remove_Creators",
					"outputs": [],
					"stateMutability": "nonpayable",
					"type": "function"
				},
				{
					"inputs": [
						{
							"internalType": "uint256",
							"name": "projectID",
							"type": "uint256"
						}
					],
					"name": "Time_Left",
					"outputs": [
						{
							"internalType": "uint256",
							"name": "",
							"type": "uint256"
						}
					],
					"stateMutability": "view",
					"type": "function"
				},
				{
					"inputs": [],
					"name": "TotalProjects",
					"outputs": [
						{
							"internalType": "uint256",
							"name": "",
							"type": "uint256"
						}
					],
					"stateMutability": "view",
					"type": "function"
				},
				{
					"inputs": [],
					"name": "UpdateProjectStatus",
					"outputs": [],
					"stateMutability": "nonpayable",
					"type": "function"
				},
				{
					"inputs": [],
					"name": "admin",
					"outputs": [
						{
							"internalType": "address",
							"name": "",
							"type": "address"
						}
					],
					"stateMutability": "view",
					"type": "function"
				},
				{
					"inputs": [
						{
							"internalType": "string",
							"name": "_name",
							"type": "string"
						},
						{
							"internalType": "string",
							"name": "_description",
							"type": "string"
						},
						{
							"internalType": "uint256",
							"name": "_fundingGoal",
							"type": "uint256"
						},
						{
							"internalType": "uint256",
							"name": "_durationSeconds",
							"type": "uint256"
						},
						{
							"internalType": "uint256",
							"name": "_id",
							"type": "uint256"
						}
					],
					"name": "createProject",
					"outputs": [],
					"stateMutability": "nonpayable",
					"type": "function"
				},
				{
					"inputs": [
						{
							"internalType": "uint256",
							"name": "_projectID",
							"type": "uint256"
						}
					],
					"name": "creatorWithdraw",
					"outputs": [],
					"stateMutability": "payable",
					"type": "function"
				},
				{
					"inputs": [
						{
							"internalType": "uint256",
							"name": "_projectID",
							"type": "uint256"
						}
					],
					"name": "fundProject",
					"outputs": [],
					"stateMutability": "payable",
					"type": "function"
				},
				{
					"inputs": [],
					"name": "systemCommission",
					"outputs": [
						{
							"internalType": "uint256",
							"name": "",
							"type": "uint256"
						}
					],
					"stateMutability": "view",
					"type": "function"
				},
				{
					"inputs": [
						{
							"internalType": "uint256",
							"name": "_projectID",
							"type": "uint256"
						},
						{
							"internalType": "uint256",
							"name": "withdrawn_amount",
							"type": "uint256"
						}
					],
					"name": "userEarlyWithdraw",
					"outputs": [],
					"stateMutability": "payable",
					"type": "function"
				},
				{
					"inputs": [
						{
							"internalType": "uint256",
							"name": "_projectID",
							"type": "uint256"
						}
					],
					"name": "userWithdraw",
					"outputs": [],
					"stateMutability": "payable",
					"type": "function"
				}
			],
			"devdoc": {
				"errors": {
					"ReentrancyGuardReentrantCall()": [
						{
							"details": "Unauthorized reentrant call."
						}
					]
				},
				"kind": "dev",
				"methods": {},
				"version": 1
			},
			"evm": {
				"assembly": "    /* \"contracts/CrowdTank.sol\":237:13191  contract CrowdTank is ReentrancyGuard {... */\n  mstore(0x40, 0x80)\n    /* \"contracts/CrowdTank.sol\":748:798  constructor() {... */\n  callvalue\n  dup1\n  iszero\n  tag_1\n  jumpi\n  revert(0x00, 0x00)\ntag_1:\n  pop\n    /* \"@openzeppelin/contracts/utils/ReentrancyGuard.sol\":1857:1858  1 */\n  0x01\n    /* \"@openzeppelin/contracts/utils/ReentrancyGuard.sol\":2061:2068  _status */\n  0x00\n    /* \"@openzeppelin/contracts/utils/ReentrancyGuard.sol\":2061:2082  _status = NOT_ENTERED */\n  dup2\n  swap1\n  sstore\n  pop\n    /* \"contracts/CrowdTank.sol\":781:791  msg.sender */\n  caller\n    /* \"contracts/CrowdTank.sol\":773:778  admin */\n  0x03\n  0x00\n    /* \"contracts/CrowdTank.sol\":773:791  admin = msg.sender */\n  0x0100\n  exp\n  dup2\n  sload\n  dup2\n  0xffffffffffffffffffffffffffffffffffffffff\n  mul\n  not\n  and\n  swap1\n  dup4\n  0xffffffffffffffffffffffffffffffffffffffff\n  and\n  mul\n  or\n  swap1\n  sstore\n  pop\n    /* \"contracts/CrowdTank.sol\":237:13191  contract CrowdTank is ReentrancyGuard {... */\n  dataSize(sub_0)\n  dup1\n  dataOffset(sub_0)\n  0x00\n  codecopy\n  0x00\n  return\nstop\n\nsub_0: assembly {\n        /* \"contracts/CrowdTank.sol\":237:13191  contract CrowdTank is ReentrancyGuard {... */\n      mstore(0x40, 0x80)\n      jumpi(tag_1, lt(calldatasize, 0x04))\n      shr(0xe0, calldataload(0x00))\n      dup1\n      0x71eb89f3\n      gt\n      tag_25\n      jumpi\n      dup1\n      0xcd4ac98c\n      gt\n      tag_26\n      jumpi\n      dup1\n      0xcd4ac98c\n      eq\n      tag_19\n      jumpi\n      dup1\n      0xe81a6786\n      eq\n      tag_20\n      jumpi\n      dup1\n      0xf81bf601\n      eq\n      tag_21\n      jumpi\n      dup1\n      0xf851a440\n      eq\n      tag_22\n      jumpi\n      dup1\n      0xfcdf1238\n      eq\n      tag_23\n      jumpi\n      dup1\n      0xfee2f1c9\n      eq\n      tag_24\n      jumpi\n      jump(tag_1)\n    tag_26:\n      dup1\n      0x71eb89f3\n      eq\n      tag_13\n      jumpi\n      dup1\n      0x7299baeb\n      eq\n      tag_14\n      jumpi\n      dup1\n      0x85f24ee6\n      eq\n      tag_15\n      jumpi\n      dup1\n      0x88283c0f\n      eq\n      tag_16\n      jumpi\n      dup1\n      0x9ab761c7\n      eq\n      tag_17\n      jumpi\n      dup1\n      0xc49f597b\n      eq\n      tag_18\n      jumpi\n      jump(tag_1)\n    tag_25:\n      dup1\n      0x42d844a5\n      gt\n      tag_27\n      jumpi\n      dup1\n      0x42d844a5\n      eq\n      tag_7\n      jumpi\n      dup1\n      0x520f45b7\n      eq\n      tag_8\n      jumpi\n      dup1\n      0x54a5bcc5\n      eq\n      tag_9\n      jumpi\n      dup1\n      0x5d4e5d78\n      eq\n      tag_10\n      jumpi\n      dup1\n      0x629b2647\n      eq\n      tag_11\n      jumpi\n      dup1\n      0x6c563abe\n      eq\n      tag_12\n      jumpi\n      jump(tag_1)\n    tag_27:\n      dup1\n      0x0dbac135\n      eq\n      tag_2\n      jumpi\n      dup1\n      0x1392ebfe\n      eq\n      tag_3\n      jumpi\n      dup1\n      0x21b2416c\n      eq\n      tag_4\n      jumpi\n      dup1\n      0x370c36b4\n      eq\n      tag_5\n      jumpi\n      dup1\n      0x3b9056bf\n      eq\n      tag_6\n      jumpi\n    tag_1:\n      revert(0x00, 0x00)\n        /* \"contracts/CrowdTank.sol\":9854:10343  function Remaining_Fund(uint projectID) public view returns(uint fundingGoal , uint remainingFund) {... */\n    tag_2:\n      callvalue\n      dup1\n      iszero\n      tag_28\n      jumpi\n      revert(0x00, 0x00)\n    tag_28:\n      pop\n      tag_29\n      0x04\n      dup1\n      calldatasize\n      sub\n      dup2\n      add\n      swap1\n      tag_30\n      swap2\n      swap1\n      tag_31\n      jump\t// in\n    tag_30:\n      tag_32\n      jump\t// in\n    tag_29:\n      mload(0x40)\n      tag_33\n      swap3\n      swap2\n      swap1\n      tag_34\n      jump\t// in\n    tag_33:\n      mload(0x40)\n      dup1\n      swap2\n      sub\n      swap1\n      return\n        /* \"contracts/CrowdTank.sol\":10709:11117  function Change_FundingGoal( uint _projectID , uint Change_Goal) external {... */\n    tag_3:\n      callvalue\n      dup1\n      iszero\n      tag_35\n      jumpi\n      revert(0x00, 0x00)\n    tag_35:\n      pop\n      tag_36\n      0x04\n      dup1\n      calldatasize\n      sub\n      dup2\n      add\n      swap1\n      tag_37\n      swap2\n      swap1\n      tag_38\n      jump\t// in\n    tag_37:\n      tag_39\n      jump\t// in\n    tag_36:\n      stop\n        /* \"contracts/CrowdTank.sol\":1807:1848  mapping (uint => project) public Projects */\n    tag_4:\n      callvalue\n      dup1\n      iszero\n      tag_40\n      jumpi\n      revert(0x00, 0x00)\n    tag_40:\n      pop\n      tag_41\n      0x04\n      dup1\n      calldatasize\n      sub\n      dup2\n      add\n      swap1\n      tag_42\n      swap2\n      swap1\n      tag_31\n      jump\t// in\n    tag_42:\n      tag_43\n      jump\t// in\n    tag_41:\n      mload(0x40)\n      tag_44\n      swap12\n      swap11\n      swap10\n      swap9\n      swap8\n      swap7\n      swap6\n      swap5\n      swap4\n      swap3\n      swap2\n      swap1\n      tag_45\n      jump\t// in\n    tag_44:\n      mload(0x40)\n      dup1\n      swap2\n      sub\n      swap1\n      return\n        /* \"contracts/CrowdTank.sol\":9496:9786  function Time_Left(uint projectID) view public returns(uint) {... */\n    tag_5:\n      callvalue\n      dup1\n      iszero\n      tag_46\n      jumpi\n      revert(0x00, 0x00)\n    tag_46:\n      pop\n      tag_47\n      0x04\n      dup1\n      calldatasize\n      sub\n      dup2\n      add\n      swap1\n      tag_48\n      swap2\n      swap1\n      tag_31\n      jump\t// in\n    tag_48:\n      tag_49\n      jump\t// in\n    tag_47:\n      mload(0x40)\n      tag_50\n      swap2\n      swap1\n      tag_51\n      jump\t// in\n    tag_50:\n      mload(0x40)\n      dup1\n      swap2\n      sub\n      swap1\n      return\n        /* \"contracts/CrowdTank.sol\":7625:8773  function userWithdraw(uint _projectID) external payable {... */\n    tag_6:\n      tag_52\n      0x04\n      dup1\n      calldatasize\n      sub\n      dup2\n      add\n      swap1\n      tag_53\n      swap2\n      swap1\n      tag_31\n      jump\t// in\n    tag_53:\n      tag_54\n      jump\t// in\n    tag_52:\n      stop\n        /* \"contracts/CrowdTank.sol\":11165:11432  function Funding_Raised_Percentage( uint _projectID ) public view  returns(uint) {... */\n    tag_7:\n      callvalue\n      dup1\n      iszero\n      tag_55\n      jumpi\n      revert(0x00, 0x00)\n    tag_55:\n      pop\n      tag_56\n      0x04\n      dup1\n      calldatasize\n      sub\n      dup2\n      add\n      swap1\n      tag_57\n      swap2\n      swap1\n      tag_31\n      jump\t// in\n    tag_57:\n      tag_58\n      jump\t// in\n    tag_56:\n      mload(0x40)\n      tag_59\n      swap2\n      swap1\n      tag_51\n      jump\t// in\n    tag_59:\n      mload(0x40)\n      dup1\n      swap2\n      sub\n      swap1\n      return\n        /* \"contracts/CrowdTank.sol\":6673:6873  function GetProjectStatus() view public returns(uint Successfully_Funded_Projects , uint Failed_To_Fund_Projects) {... */\n    tag_8:\n      callvalue\n      dup1\n      iszero\n      tag_60\n      jumpi\n      revert(0x00, 0x00)\n    tag_60:\n      pop\n      tag_61\n      tag_62\n      jump\t// in\n    tag_61:\n      mload(0x40)\n      tag_63\n      swap3\n      swap2\n      swap1\n      tag_34\n      jump\t// in\n    tag_63:\n      mload(0x40)\n      dup1\n      swap2\n      sub\n      swap1\n      return\n        /* \"contracts/CrowdTank.sol\":6934:7048  function Get_Total_Raised_Funding() view public returns(uint) {... */\n    tag_9:\n      callvalue\n      dup1\n      iszero\n      tag_64\n      jumpi\n      revert(0x00, 0x00)\n    tag_64:\n      pop\n      tag_65\n      tag_66\n      jump\t// in\n    tag_65:\n      mload(0x40)\n      tag_67\n      swap2\n      swap1\n      tag_51\n      jump\t// in\n    tag_67:\n      mload(0x40)\n      dup1\n      swap2\n      sub\n      swap1\n      return\n        /* \"contracts/CrowdTank.sol\":1907:1971  mapping (uint => mapping (address => uint)) public Contributions */\n    tag_10:\n      callvalue\n      dup1\n      iszero\n      tag_68\n      jumpi\n      revert(0x00, 0x00)\n    tag_68:\n      pop\n      tag_69\n      0x04\n      dup1\n      calldatasize\n      sub\n      dup2\n      add\n      swap1\n      tag_70\n      swap2\n      swap1\n      tag_71\n      jump\t// in\n    tag_70:\n      tag_72\n      jump\t// in\n    tag_69:\n      mload(0x40)\n      tag_73\n      swap2\n      swap1\n      tag_51\n      jump\t// in\n    tag_73:\n      mload(0x40)\n      dup1\n      swap2\n      sub\n      swap1\n      return\n        /* \"contracts/CrowdTank.sol\":10389:10662  function Extend_Deadline(uint _projectID , uint _deadline) external {... */\n    tag_11:\n      callvalue\n      dup1\n      iszero\n      tag_74\n      jumpi\n      revert(0x00, 0x00)\n    tag_74:\n      pop\n      tag_75\n      0x04\n      dup1\n      calldatasize\n      sub\n      dup2\n      add\n      swap1\n      tag_76\n      swap2\n      swap1\n      tag_38\n      jump\t// in\n    tag_76:\n      tag_77\n      jump\t// in\n    tag_75:\n      stop\n        /* \"contracts/CrowdTank.sol\":3765:5791  function fundProject(uint _projectID) external payable nonReentrant {... */\n    tag_12:\n      tag_78\n      0x04\n      dup1\n      calldatasize\n      sub\n      dup2\n      add\n      swap1\n      tag_79\n      swap2\n      swap1\n      tag_31\n      jump\t// in\n    tag_79:\n      tag_80\n      jump\t// in\n    tag_78:\n      stop\n        /* \"contracts/CrowdTank.sol\":8825:9426  function creatorWithdraw(uint _projectID) external payable {... */\n    tag_13:\n      tag_81\n      0x04\n      dup1\n      calldatasize\n      sub\n      dup2\n      add\n      swap1\n      tag_82\n      swap2\n      swap1\n      tag_31\n      jump\t// in\n    tag_82:\n      tag_83\n      jump\t// in\n    tag_81:\n      stop\n        /* \"contracts/CrowdTank.sol\":1168:1329  function Remove_Creators( address _creator ) external OnlyAdmin {... */\n    tag_14:\n      callvalue\n      dup1\n      iszero\n      tag_84\n      jumpi\n      revert(0x00, 0x00)\n    tag_84:\n      pop\n      tag_85\n      0x04\n      dup1\n      calldatasize\n      sub\n      dup2\n      add\n      swap1\n      tag_86\n      swap2\n      swap1\n      tag_87\n      jump\t// in\n    tag_86:\n      tag_88\n      jump\t// in\n    tag_85:\n      stop\n        /* \"contracts/CrowdTank.sol\":12865:13188  function AdminWithdrawCommission() external OnlyAdmin {... */\n    tag_15:\n      callvalue\n      dup1\n      iszero\n      tag_89\n      jumpi\n      revert(0x00, 0x00)\n    tag_89:\n      pop\n      tag_90\n      tag_91\n      jump\t// in\n    tag_90:\n      stop\n        /* \"contracts/CrowdTank.sol\":941:992  mapping (address => bool) public AuthorizedCreators */\n    tag_16:\n      callvalue\n      dup1\n      iszero\n      tag_92\n      jumpi\n      revert(0x00, 0x00)\n    tag_92:\n      pop\n      tag_93\n      0x04\n      dup1\n      calldatasize\n      sub\n      dup2\n      add\n      swap1\n      tag_94\n      swap2\n      swap1\n      tag_87\n      jump\t// in\n    tag_94:\n      tag_95\n      jump\t// in\n    tag_93:\n      mload(0x40)\n      tag_96\n      swap2\n      swap1\n      tag_97\n      jump\t// in\n    tag_96:\n      mload(0x40)\n      dup1\n      swap2\n      sub\n      swap1\n      return\n        /* \"contracts/CrowdTank.sol\":394:419  uint public TotalProjects */\n    tag_17:\n      callvalue\n      dup1\n      iszero\n      tag_98\n      jumpi\n      revert(0x00, 0x00)\n    tag_98:\n      pop\n      tag_99\n      tag_100\n      jump\t// in\n    tag_99:\n      mload(0x40)\n      tag_101\n      swap2\n      swap1\n      tag_51\n      jump\t// in\n    tag_101:\n      mload(0x40)\n      dup1\n      swap2\n      sub\n      swap1\n      return\n        /* \"contracts/CrowdTank.sol\":536:564  uint public systemCommission */\n    tag_18:\n      callvalue\n      dup1\n      iszero\n      tag_102\n      jumpi\n      revert(0x00, 0x00)\n    tag_102:\n      pop\n      tag_103\n      tag_104\n      jump\t// in\n    tag_103:\n      mload(0x40)\n      tag_105\n      swap2\n      swap1\n      tag_51\n      jump\t// in\n    tag_105:\n      mload(0x40)\n      dup1\n      swap2\n      sub\n      swap1\n      return\n        /* \"contracts/CrowdTank.sol\":11481:12816  function userEarlyWithdraw( uint _projectID , uint withdrawn_amount) external payable {... */\n    tag_19:\n      tag_106\n      0x04\n      dup1\n      calldatasize\n      sub\n      dup2\n      add\n      swap1\n      tag_107\n      swap2\n      swap1\n      tag_38\n      jump\t// in\n    tag_107:\n      tag_108\n      jump\t// in\n    tag_106:\n      stop\n        /* \"contracts/CrowdTank.sol\":5803:6661  function UpdateProjectStatus() public {... */\n    tag_20:\n      callvalue\n      dup1\n      iszero\n      tag_109\n      jumpi\n      revert(0x00, 0x00)\n    tag_109:\n      pop\n      tag_110\n      tag_111\n      jump\t// in\n    tag_110:\n      stop\n        /* \"contracts/CrowdTank.sol\":2732:3704  function createProject(string memory _name , string memory _description , uint _fundingGoal , uint _durationSeconds , uint _id) external {... */\n    tag_21:\n      callvalue\n      dup1\n      iszero\n      tag_112\n      jumpi\n      revert(0x00, 0x00)\n    tag_112:\n      pop\n      tag_113\n      0x04\n      dup1\n      calldatasize\n      sub\n      dup2\n      add\n      swap1\n      tag_114\n      swap2\n      swap1\n      tag_115\n      jump\t// in\n    tag_114:\n      tag_116\n      jump\t// in\n    tag_113:\n      stop\n        /* \"contracts/CrowdTank.sol\":468:488  address public admin */\n    tag_22:\n      callvalue\n      dup1\n      iszero\n      tag_117\n      jumpi\n      revert(0x00, 0x00)\n    tag_117:\n      pop\n      tag_118\n      tag_119\n      jump\t// in\n    tag_118:\n      mload(0x40)\n      tag_120\n      swap2\n      swap1\n      tag_121\n      jump\t// in\n    tag_120:\n      mload(0x40)\n      dup1\n      swap2\n      sub\n      swap1\n      return\n        /* \"contracts/CrowdTank.sol\":7116:7585  function ProjectStatistics() public view returns(... */\n    tag_23:\n      callvalue\n      dup1\n      iszero\n      tag_122\n      jumpi\n      revert(0x00, 0x00)\n    tag_122:\n      pop\n      tag_123\n      tag_124\n      jump\t// in\n    tag_123:\n      mload(0x40)\n      tag_125\n      swap6\n      swap5\n      swap4\n      swap3\n      swap2\n      swap1\n      tag_126\n      jump\t// in\n    tag_125:\n      mload(0x40)\n      dup1\n      swap2\n      sub\n      swap1\n      return\n        /* \"contracts/CrowdTank.sol\":1001:1156  function Add_Creators( address _creator ) external OnlyAdmin {... */\n    tag_24:\n      callvalue\n      dup1\n      iszero\n      tag_127\n      jumpi\n      revert(0x00, 0x00)\n    tag_127:\n      pop\n      tag_128\n      0x04\n      dup1\n      calldatasize\n      sub\n      dup2\n      add\n      swap1\n      tag_129\n      swap2\n      swap1\n      tag_87\n      jump\t// in\n    tag_129:\n      tag_130\n      jump\t// in\n    tag_128:\n      stop\n        /* \"contracts/CrowdTank.sol\":9854:10343  function Remaining_Fund(uint projectID) public view returns(uint fundingGoal , uint remainingFund) {... */\n    tag_32:\n        /* \"contracts/CrowdTank.sol\":9914:9930  uint fundingGoal */\n      0x00\n        /* \"contracts/CrowdTank.sol\":9933:9951  uint remainingFund */\n      0x00\n        /* \"contracts/CrowdTank.sol\":9965:9988  project storage Project */\n      0x00\n        /* \"contracts/CrowdTank.sol\":9991:9999  Projects */\n      0x09\n        /* \"contracts/CrowdTank.sol\":9991:10010  Projects[projectID] */\n      0x00\n        /* \"contracts/CrowdTank.sol\":10000:10009  projectID */\n      dup6\n        /* \"contracts/CrowdTank.sol\":9991:10010  Projects[projectID] */\n      dup2\n      mstore\n      0x20\n      add\n      swap1\n      dup2\n      mstore\n      0x20\n      add\n      0x00\n      keccak256\n        /* \"contracts/CrowdTank.sol\":9965:10010  project storage Project = Projects[projectID] */\n      swap1\n      pop\n        /* \"contracts/CrowdTank.sol\":10035:10042  Project */\n      dup1\n        /* \"contracts/CrowdTank.sol\":10035:10054  Project.fundingGoal */\n      0x03\n      add\n      sload\n        /* \"contracts/CrowdTank.sol\":10021:10054  fundingGoal = Project.fundingGoal */\n      swap3\n      pop\n        /* \"contracts/CrowdTank.sol\":10100:10101  0 */\n      0x00\n        /* \"contracts/CrowdTank.sol\":10073:10102  Project.creator != address(0) */\n      0xffffffffffffffffffffffffffffffffffffffff\n      and\n        /* \"contracts/CrowdTank.sol\":10073:10080  Project */\n      dup2\n        /* \"contracts/CrowdTank.sol\":10073:10088  Project.creator */\n      0x00\n      add\n      0x00\n      swap1\n      sload\n      swap1\n      0x0100\n      exp\n      swap1\n      div\n      0xffffffffffffffffffffffffffffffffffffffff\n      and\n        /* \"contracts/CrowdTank.sol\":10073:10102  Project.creator != address(0) */\n      0xffffffffffffffffffffffffffffffffffffffff\n      and\n      sub\n        /* \"contracts/CrowdTank.sol\":10065:10140  require(Project.creator != address(0), \"project has not been created yet!\") */\n      tag_132\n      jumpi\n      mload(0x40)\n      0x08c379a000000000000000000000000000000000000000000000000000000000\n      dup2\n      mstore\n      0x04\n      add\n      tag_133\n      swap1\n      tag_134\n      jump\t// in\n    tag_133:\n      mload(0x40)\n      dup1\n      swap2\n      sub\n      swap1\n      revert\n    tag_132:\n        /* \"contracts/CrowdTank.sol\":10179:10186  Project */\n      dup1\n        /* \"contracts/CrowdTank.sol\":10179:10198  Project.fundingGoal */\n      0x03\n      add\n      sload\n        /* \"contracts/CrowdTank.sol\":10155:10162  Project */\n      dup2\n        /* \"contracts/CrowdTank.sol\":10155:10175  Project.amountRaised */\n      0x05\n      add\n      sload\n        /* \"contracts/CrowdTank.sol\":10155:10198  Project.amountRaised >= Project.fundingGoal */\n      lt\n        /* \"contracts/CrowdTank.sol\":10151:10336  if (Project.amountRaised >= Project.fundingGoal) {... */\n      tag_135\n      jumpi\n        /* \"contracts/CrowdTank.sol\":10232:10233  0 */\n      0x00\n        /* \"contracts/CrowdTank.sol\":10216:10233  remainingFund = 0 */\n      swap2\n      pop\n        /* \"contracts/CrowdTank.sol\":10151:10336  if (Project.amountRaised >= Project.fundingGoal) {... */\n      jump(tag_136)\n    tag_135:\n        /* \"contracts/CrowdTank.sol\":10304:10311  Project */\n      dup1\n        /* \"contracts/CrowdTank.sol\":10304:10324  Project.amountRaised */\n      0x05\n      add\n      sload\n        /* \"contracts/CrowdTank.sol\":10282:10289  Project */\n      dup2\n        /* \"contracts/CrowdTank.sol\":10282:10301  Project.fundingGoal */\n      0x03\n      add\n      sload\n        /* \"contracts/CrowdTank.sol\":10282:10324  Project.fundingGoal - Project.amountRaised */\n      tag_137\n      swap2\n      swap1\n      tag_138\n      jump\t// in\n    tag_137:\n        /* \"contracts/CrowdTank.sol\":10266:10324  remainingFund = Project.fundingGoal - Project.amountRaised */\n      swap2\n      pop\n        /* \"contracts/CrowdTank.sol\":10151:10336  if (Project.amountRaised >= Project.fundingGoal) {... */\n    tag_136:\n        /* \"contracts/CrowdTank.sol\":9953:10343  {... */\n      pop\n        /* \"contracts/CrowdTank.sol\":9854:10343  function Remaining_Fund(uint projectID) public view returns(uint fundingGoal , uint remainingFund) {... */\n      swap2\n      pop\n      swap2\n      jump\t// out\n        /* \"contracts/CrowdTank.sol\":10709:11117  function Change_FundingGoal( uint _projectID , uint Change_Goal) external {... */\n    tag_39:\n        /* \"contracts/CrowdTank.sol\":10795:10818  project storage Project */\n      0x00\n        /* \"contracts/CrowdTank.sol\":10821:10829  Projects */\n      0x09\n        /* \"contracts/CrowdTank.sol\":10821:10841  Projects[_projectID] */\n      0x00\n        /* \"contracts/CrowdTank.sol\":10830:10840  _projectID */\n      dup5\n        /* \"contracts/CrowdTank.sol\":10821:10841  Projects[_projectID] */\n      dup2\n      mstore\n      0x20\n      add\n      swap1\n      dup2\n      mstore\n      0x20\n      add\n      0x00\n      keccak256\n        /* \"contracts/CrowdTank.sol\":10795:10841  project storage Project = Projects[_projectID] */\n      swap1\n      pop\n        /* \"contracts/CrowdTank.sol\":10879:10880  0 */\n      0x00\n        /* \"contracts/CrowdTank.sol\":10860:10867  Project */\n      dup2\n        /* \"contracts/CrowdTank.sol\":10860:10876  Project.deadline */\n      0x04\n      add\n      sload\n        /* \"contracts/CrowdTank.sol\":10860:10880  Project.deadline > 0 */\n      gt\n        /* \"contracts/CrowdTank.sol\":10852:10941  require(Project.deadline > 0 , \"Deadline is over , you Can't change the funding goal !!\") */\n      tag_140\n      jumpi\n      mload(0x40)\n      0x08c379a000000000000000000000000000000000000000000000000000000000\n      dup2\n      mstore\n      0x04\n      add\n      tag_141\n      swap1\n      tag_142\n      jump\t// in\n    tag_141:\n      mload(0x40)\n      dup1\n      swap2\n      sub\n      swap1\n      revert\n    tag_140:\n        /* \"contracts/CrowdTank.sol\":10979:10989  msg.sender */\n      caller\n        /* \"contracts/CrowdTank.sol\":10960:10989  Project.creator == msg.sender */\n      0xffffffffffffffffffffffffffffffffffffffff\n      and\n        /* \"contracts/CrowdTank.sol\":10960:10967  Project */\n      dup2\n        /* \"contracts/CrowdTank.sol\":10960:10975  Project.creator */\n      0x00\n      add\n      0x00\n      swap1\n      sload\n      swap1\n      0x0100\n      exp\n      swap1\n      div\n      0xffffffffffffffffffffffffffffffffffffffff\n      and\n        /* \"contracts/CrowdTank.sol\":10960:10989  Project.creator == msg.sender */\n      0xffffffffffffffffffffffffffffffffffffffff\n      and\n      eq\n        /* \"contracts/CrowdTank.sol\":10952:11063  require(Project.creator == msg.sender , \"You are not the project creator , Only Porject creator can Change !!\") */\n      tag_143\n      jumpi\n      mload(0x40)\n      0x08c379a000000000000000000000000000000000000000000000000000000000\n      dup2\n      mstore\n      0x04\n      add\n      tag_144\n      swap1\n      tag_145\n      jump\t// in\n    tag_144:\n      mload(0x40)\n      dup1\n      swap2\n      sub\n      swap1\n      revert\n    tag_143:\n        /* \"contracts/CrowdTank.sol\":11098:11109  Change_Goal */\n      dup2\n        /* \"contracts/CrowdTank.sol\":11076:11083  Project */\n      dup2\n        /* \"contracts/CrowdTank.sol\":11076:11095  Project.fundingGoal */\n      0x03\n      add\n        /* \"contracts/CrowdTank.sol\":11076:11109  Project.fundingGoal = Change_Goal */\n      dup2\n      swap1\n      sstore\n      pop\n        /* \"contracts/CrowdTank.sol\":10783:11117  {... */\n      pop\n        /* \"contracts/CrowdTank.sol\":10709:11117  function Change_FundingGoal( uint _projectID , uint Change_Goal) external {... */\n      pop\n      pop\n      jump\t// out\n        /* \"contracts/CrowdTank.sol\":1807:1848  mapping (uint => project) public Projects */\n    tag_43:\n      mstore(0x20, 0x09)\n      dup1\n      0x00\n      mstore\n      keccak256(0x00, 0x40)\n      0x00\n      swap2\n      pop\n      swap1\n      pop\n      dup1\n      0x00\n      add\n      0x00\n      swap1\n      sload\n      swap1\n      0x0100\n      exp\n      swap1\n      div\n      0xffffffffffffffffffffffffffffffffffffffff\n      and\n      swap1\n      dup1\n      0x01\n      add\n      dup1\n      sload\n      tag_146\n      swap1\n      tag_147\n      jump\t// in\n    tag_146:\n      dup1\n      0x1f\n      add\n      0x20\n      dup1\n      swap2\n      div\n      mul\n      0x20\n      add\n      mload(0x40)\n      swap1\n      dup2\n      add\n      0x40\n      mstore\n      dup1\n      swap3\n      swap2\n      swap1\n      dup2\n      dup2\n      mstore\n      0x20\n      add\n      dup3\n      dup1\n      sload\n      tag_148\n      swap1\n      tag_147\n      jump\t// in\n    tag_148:\n      dup1\n      iszero\n      tag_149\n      jumpi\n      dup1\n      0x1f\n      lt\n      tag_150\n      jumpi\n      0x0100\n      dup1\n      dup4\n      sload\n      div\n      mul\n      dup4\n      mstore\n      swap2\n      0x20\n      add\n      swap2\n      jump(tag_149)\n    tag_150:\n      dup3\n      add\n      swap2\n      swap1\n      0x00\n      mstore\n      keccak256(0x00, 0x20)\n      swap1\n    tag_151:\n      dup2\n      sload\n      dup2\n      mstore\n      swap1\n      0x01\n      add\n      swap1\n      0x20\n      add\n      dup1\n      dup4\n      gt\n      tag_151\n      jumpi\n      dup3\n      swap1\n      sub\n      0x1f\n      and\n      dup3\n      add\n      swap2\n    tag_149:\n      pop\n      pop\n      pop\n      pop\n      pop\n      swap1\n      dup1\n      0x02\n      add\n      dup1\n      sload\n      tag_152\n      swap1\n      tag_147\n      jump\t// in\n    tag_152:\n      dup1\n      0x1f\n      add\n      0x20\n      dup1\n      swap2\n      div\n      mul\n      0x20\n      add\n      mload(0x40)\n      swap1\n      dup2\n      add\n      0x40\n      mstore\n      dup1\n      swap3\n      swap2\n      swap1\n      dup2\n      dup2\n      mstore\n      0x20\n      add\n      dup3\n      dup1\n      sload\n      tag_153\n      swap1\n      tag_147\n      jump\t// in\n    tag_153:\n      dup1\n      iszero\n      tag_154\n      jumpi\n      dup1\n      0x1f\n      lt\n      tag_155\n      jumpi\n      0x0100\n      dup1\n      dup4\n      sload\n      div\n      mul\n      dup4\n      mstore\n      swap2\n      0x20\n      add\n      swap2\n      jump(tag_154)\n    tag_155:\n      dup3\n      add\n      swap2\n      swap1\n      0x00\n      mstore\n      keccak256(0x00, 0x20)\n      swap1\n    tag_156:\n      dup2\n      sload\n      dup2\n      mstore\n      swap1\n      0x01\n      add\n      swap1\n      0x20\n      add\n      dup1\n      dup4\n      gt\n      tag_156\n      jumpi\n      dup3\n      swap1\n      sub\n      0x1f\n      and\n      dup3\n      add\n      swap2\n    tag_154:\n      pop\n      pop\n      pop\n      pop\n      pop\n      swap1\n      dup1\n      0x03\n      add\n      sload\n      swap1\n      dup1\n      0x04\n      add\n      sload\n      swap1\n      dup1\n      0x05\n      add\n      sload\n      swap1\n      dup1\n      0x06\n      add\n      0x00\n      swap1\n      sload\n      swap1\n      0x0100\n      exp\n      swap1\n      div\n      0xff\n      and\n      swap1\n      dup1\n      0x06\n      add\n      0x01\n      swap1\n      sload\n      swap1\n      0x0100\n      exp\n      swap1\n      div\n      0xffffffffffffffffffffffffffffffffffffffff\n      and\n      swap1\n      dup1\n      0x07\n      add\n      sload\n      swap1\n      dup1\n      0x08\n      add\n      0x00\n      swap1\n      sload\n      swap1\n      0x0100\n      exp\n      swap1\n      div\n      0xff\n      and\n      swap1\n      dup1\n      0x08\n      add\n      0x01\n      swap1\n      sload\n      swap1\n      0x0100\n      exp\n      swap1\n      div\n      0xff\n      and\n      swap1\n      pop\n      dup12\n      jump\t// out\n        /* \"contracts/CrowdTank.sol\":9496:9786  function Time_Left(uint projectID) view public returns(uint) {... */\n    tag_49:\n        /* \"contracts/CrowdTank.sol\":9551:9555  uint */\n      0x00\n        /* \"contracts/CrowdTank.sol\":9568:9591  project storage Project */\n      0x00\n        /* \"contracts/CrowdTank.sol\":9594:9602  Projects */\n      0x09\n        /* \"contracts/CrowdTank.sol\":9594:9613  Projects[projectID] */\n      0x00\n        /* \"contracts/CrowdTank.sol\":9603:9612  projectID */\n      dup5\n        /* \"contracts/CrowdTank.sol\":9594:9613  Projects[projectID] */\n      dup2\n      mstore\n      0x20\n      add\n      swap1\n      dup2\n      mstore\n      0x20\n      add\n      0x00\n      keccak256\n        /* \"contracts/CrowdTank.sol\":9568:9613  project storage Project = Projects[projectID] */\n      swap1\n      pop\n        /* \"contracts/CrowdTank.sol\":9647:9654  Project */\n      dup1\n        /* \"contracts/CrowdTank.sol\":9647:9663  Project.deadline */\n      0x04\n      add\n      sload\n        /* \"contracts/CrowdTank.sol\":9628:9643  block.timestamp */\n      timestamp\n        /* \"contracts/CrowdTank.sol\":9628:9663  block.timestamp >= Project.deadline */\n      lt\n        /* \"contracts/CrowdTank.sol\":9624:9775  if (block.timestamp >= Project.deadline) {... */\n      tag_158\n      jumpi\n        /* \"contracts/CrowdTank.sol\":9687:9688  0 */\n      0x00\n        /* \"contracts/CrowdTank.sol\":9680:9688  return 0 */\n      swap2\n      pop\n      pop\n      jump(tag_157)\n        /* \"contracts/CrowdTank.sol\":9624:9775  if (block.timestamp >= Project.deadline) {... */\n    tag_158:\n        /* \"contracts/CrowdTank.sol\":9747:9762  block.timestamp */\n      timestamp\n        /* \"contracts/CrowdTank.sol\":9728:9735  Project */\n      dup2\n        /* \"contracts/CrowdTank.sol\":9728:9744  Project.deadline */\n      0x04\n      add\n      sload\n        /* \"contracts/CrowdTank.sol\":9728:9762  Project.deadline - block.timestamp */\n      tag_160\n      swap2\n      swap1\n      tag_138\n      jump\t// in\n    tag_160:\n        /* \"contracts/CrowdTank.sol\":9721:9763  return(Project.deadline - block.timestamp) */\n      swap2\n      pop\n      pop\n        /* \"contracts/CrowdTank.sol\":9496:9786  function Time_Left(uint projectID) view public returns(uint) {... */\n    tag_157:\n      swap2\n      swap1\n      pop\n      jump\t// out\n        /* \"contracts/CrowdTank.sol\":7625:8773  function userWithdraw(uint _projectID) external payable {... */\n    tag_54:\n        /* \"contracts/CrowdTank.sol\":7692:7715  project storage Project */\n      0x00\n        /* \"contracts/CrowdTank.sol\":7718:7726  Projects */\n      0x09\n        /* \"contracts/CrowdTank.sol\":7718:7738  Projects[_projectID] */\n      0x00\n        /* \"contracts/CrowdTank.sol\":7727:7737  _projectID */\n      dup4\n        /* \"contracts/CrowdTank.sol\":7718:7738  Projects[_projectID] */\n      dup2\n      mstore\n      0x20\n      add\n      swap1\n      dup2\n      mstore\n      0x20\n      add\n      0x00\n      keccak256\n        /* \"contracts/CrowdTank.sol\":7692:7738  project storage Project = Projects[_projectID] */\n      swap1\n      pop\n        /* \"contracts/CrowdTank.sol\":7778:7785  Project */\n      dup1\n        /* \"contracts/CrowdTank.sol\":7778:7797  Project.fundingGoal */\n      0x03\n      add\n      sload\n        /* \"contracts/CrowdTank.sol\":7757:7764  Project */\n      dup2\n        /* \"contracts/CrowdTank.sol\":7757:7777  Project.amountRaised */\n      0x05\n      add\n      sload\n        /* \"contracts/CrowdTank.sol\":7757:7797  Project.amountRaised<Project.fundingGoal */\n      lt\n        /* \"contracts/CrowdTank.sol\":7749:7849  require(Project.amountRaised<Project.fundingGoal , \"Funding goal has reached , user can't withdraw\") */\n      tag_162\n      jumpi\n      mload(0x40)\n      0x08c379a000000000000000000000000000000000000000000000000000000000\n      dup2\n      mstore\n      0x04\n      add\n      tag_163\n      swap1\n      tag_164\n      jump\t// in\n    tag_163:\n      mload(0x40)\n      dup1\n      swap2\n      sub\n      swap1\n      revert\n    tag_162:\n        /* \"contracts/CrowdTank.sol\":7860:7881  uint fundsContributed */\n      0x00\n        /* \"contracts/CrowdTank.sol\":7884:7897  Contributions */\n      0x0a\n        /* \"contracts/CrowdTank.sol\":7884:7909  Contributions[_projectID] */\n      0x00\n        /* \"contracts/CrowdTank.sol\":7898:7908  _projectID */\n      dup5\n        /* \"contracts/CrowdTank.sol\":7884:7909  Contributions[_projectID] */\n      dup2\n      mstore\n      0x20\n      add\n      swap1\n      dup2\n      mstore\n      0x20\n      add\n      0x00\n      keccak256\n        /* \"contracts/CrowdTank.sol\":7884:7921  Contributions[_projectID][msg.sender] */\n      0x00\n        /* \"contracts/CrowdTank.sol\":7910:7920  msg.sender */\n      caller\n        /* \"contracts/CrowdTank.sol\":7884:7921  Contributions[_projectID][msg.sender] */\n      0xffffffffffffffffffffffffffffffffffffffff\n      and\n      0xffffffffffffffffffffffffffffffffffffffff\n      and\n      dup2\n      mstore\n      0x20\n      add\n      swap1\n      dup2\n      mstore\n      0x20\n      add\n      0x00\n      keccak256\n      sload\n        /* \"contracts/CrowdTank.sol\":7860:7921  uint fundsContributed = Contributions[_projectID][msg.sender] */\n      swap1\n      pop\n        /* \"contracts/CrowdTank.sol\":7959:7960  0 */\n      0x00\n        /* \"contracts/CrowdTank.sol\":7940:7956  fundsContributed */\n      dup2\n        /* \"contracts/CrowdTank.sol\":7940:7960  fundsContributed > 0 */\n      gt\n        /* \"contracts/CrowdTank.sol\":7932:7985  require(fundsContributed > 0, \"No funds to withdraw\") */\n      tag_165\n      jumpi\n      mload(0x40)\n      0x08c379a000000000000000000000000000000000000000000000000000000000\n      dup2\n      mstore\n      0x04\n      add\n      tag_166\n      swap1\n      tag_167\n      jump\t// in\n    tag_166:\n      mload(0x40)\n      dup1\n      swap2\n      sub\n      swap1\n      revert\n    tag_165:\n        /* \"contracts/CrowdTank.sol\":7998:8022  bool wasPreviouslyFunded */\n      0x00\n        /* \"contracts/CrowdTank.sol\":8025:8032  Project */\n      dup3\n        /* \"contracts/CrowdTank.sol\":8025:8039  Project.funded */\n      0x06\n      add\n      0x00\n      swap1\n      sload\n      swap1\n      0x0100\n      exp\n      swap1\n      div\n      0xff\n      and\n        /* \"contracts/CrowdTank.sol\":7998:8039  bool wasPreviouslyFunded = Project.funded */\n      swap1\n      pop\n        /* \"contracts/CrowdTank.sol\":8076:8092  fundsContributed */\n      dup2\n        /* \"contracts/CrowdTank.sol\":8052:8059  Project */\n      dup4\n        /* \"contracts/CrowdTank.sol\":8052:8072  Project.amountRaised */\n      0x05\n      add\n      0x00\n        /* \"contracts/CrowdTank.sol\":8052:8092  Project.amountRaised -= fundsContributed */\n      dup3\n      dup3\n      sload\n      tag_168\n      swap2\n      swap1\n      tag_138\n      jump\t// in\n    tag_168:\n      swap3\n      pop\n      pop\n      dup2\n      swap1\n      sstore\n      pop\n        /* \"contracts/CrowdTank.sol\":8144:8160  fundsContributed */\n      dup2\n        /* \"contracts/CrowdTank.sol\":8103:8116  Contributions */\n      0x0a\n        /* \"contracts/CrowdTank.sol\":8103:8128  Contributions[_projectID] */\n      0x00\n        /* \"contracts/CrowdTank.sol\":8117:8127  _projectID */\n      dup7\n        /* \"contracts/CrowdTank.sol\":8103:8128  Contributions[_projectID] */\n      dup2\n      mstore\n      0x20\n      add\n      swap1\n      dup2\n      mstore\n      0x20\n      add\n      0x00\n      keccak256\n        /* \"contracts/CrowdTank.sol\":8103:8140  Contributions[_projectID][msg.sender] */\n      0x00\n        /* \"contracts/CrowdTank.sol\":8129:8139  msg.sender */\n      caller\n        /* \"contracts/CrowdTank.sol\":8103:8140  Contributions[_projectID][msg.sender] */\n      0xffffffffffffffffffffffffffffffffffffffff\n      and\n      0xffffffffffffffffffffffffffffffffffffffff\n      and\n      dup2\n      mstore\n      0x20\n      add\n      swap1\n      dup2\n      mstore\n      0x20\n      add\n      0x00\n      keccak256\n      0x00\n        /* \"contracts/CrowdTank.sol\":8103:8160  Contributions[_projectID][msg.sender] -= fundsContributed */\n      dup3\n      dup3\n      sload\n      tag_169\n      swap2\n      swap1\n      tag_138\n      jump\t// in\n    tag_169:\n      swap3\n      pop\n      pop\n      dup2\n      swap1\n      sstore\n      pop\n        /* \"contracts/CrowdTank.sol\":8193:8209  fundsContributed */\n      dup2\n        /* \"contracts/CrowdTank.sol\":8171:8189  TotalRaisedFunding */\n      0x01\n      0x00\n        /* \"contracts/CrowdTank.sol\":8171:8209  TotalRaisedFunding -= fundsContributed */\n      dup3\n      dup3\n      sload\n      tag_170\n      swap2\n      swap1\n      tag_138\n      jump\t// in\n    tag_170:\n      swap3\n      pop\n      pop\n      dup2\n      swap1\n      sstore\n      pop\n        /* \"contracts/CrowdTank.sol\":8226:8245  wasPreviouslyFunded */\n      dup1\n        /* \"contracts/CrowdTank.sol\":8226:8291  wasPreviouslyFunded && Project.amountRaised < Project.fundingGoal */\n      dup1\n      iszero\n      tag_171\n      jumpi\n      pop\n        /* \"contracts/CrowdTank.sol\":8272:8279  Project */\n      dup3\n        /* \"contracts/CrowdTank.sol\":8272:8291  Project.fundingGoal */\n      0x03\n      add\n      sload\n        /* \"contracts/CrowdTank.sol\":8249:8256  Project */\n      dup4\n        /* \"contracts/CrowdTank.sol\":8249:8269  Project.amountRaised */\n      0x05\n      add\n      sload\n        /* \"contracts/CrowdTank.sol\":8249:8291  Project.amountRaised < Project.fundingGoal */\n      lt\n        /* \"contracts/CrowdTank.sol\":8226:8291  wasPreviouslyFunded && Project.amountRaised < Project.fundingGoal */\n    tag_171:\n        /* \"contracts/CrowdTank.sol\":8222:8537  if (wasPreviouslyFunded && Project.amountRaised < Project.fundingGoal) {... */\n      iszero\n      tag_172\n      jumpi\n        /* \"contracts/CrowdTank.sol\":8325:8330  false */\n      0x00\n        /* \"contracts/CrowdTank.sol\":8308:8315  Project */\n      dup4\n        /* \"contracts/CrowdTank.sol\":8308:8322  Project.funded */\n      0x06\n      add\n      0x00\n        /* \"contracts/CrowdTank.sol\":8308:8330  Project.funded = false */\n      0x0100\n      exp\n      dup2\n      sload\n      dup2\n      0xff\n      mul\n      not\n      and\n      swap1\n      dup4\n      iszero\n      iszero\n      mul\n      or\n      swap1\n      sstore\n      pop\n        /* \"contracts/CrowdTank.sol\":8372:8377  false */\n      0x00\n        /* \"contracts/CrowdTank.sol\":8345:8352  Project */\n      dup4\n        /* \"contracts/CrowdTank.sol\":8345:8369  Project.status_processed */\n      0x08\n      add\n      0x01\n        /* \"contracts/CrowdTank.sol\":8345:8377  Project.status_processed = false */\n      0x0100\n      exp\n      dup2\n      sload\n      dup2\n      0xff\n      mul\n      not\n      and\n      swap1\n      dup4\n      iszero\n      iszero\n      mul\n      or\n      swap1\n      sstore\n      pop\n        /* \"contracts/CrowdTank.sol\":8460:8461  0 */\n      0x00\n        /* \"contracts/CrowdTank.sol\":8431:8457  Successful_Funded_Projects */\n      sload(0x05)\n        /* \"contracts/CrowdTank.sol\":8431:8461  Successful_Funded_Projects > 0 */\n      gt\n        /* \"contracts/CrowdTank.sol\":8427:8526  if (Successful_Funded_Projects > 0) {... */\n      iszero\n      tag_173\n      jumpi\n        /* \"contracts/CrowdTank.sol\":8482:8508  Successful_Funded_Projects */\n      0x05\n      0x00\n        /* \"contracts/CrowdTank.sol\":8482:8510  Successful_Funded_Projects-- */\n      dup2\n      sload\n      dup1\n      swap3\n      swap2\n      swap1\n      tag_174\n      swap1\n      tag_175\n      jump\t// in\n    tag_174:\n      swap2\n      swap1\n      pop\n      sstore\n      pop\n        /* \"contracts/CrowdTank.sol\":8427:8526  if (Successful_Funded_Projects > 0) {... */\n    tag_173:\n        /* \"contracts/CrowdTank.sol\":8222:8537  if (wasPreviouslyFunded && Project.amountRaised < Project.fundingGoal) {... */\n    tag_172:\n        /* \"contracts/CrowdTank.sol\":8550:8559  bool sent */\n      0x00\n        /* \"contracts/CrowdTank.sol\":8573:8583  msg.sender */\n      caller\n        /* \"contracts/CrowdTank.sol\":8565:8589  payable(msg.sender).call */\n      0xffffffffffffffffffffffffffffffffffffffff\n      and\n        /* \"contracts/CrowdTank.sol\":8597:8613  fundsContributed */\n      dup4\n        /* \"contracts/CrowdTank.sol\":8565:8618  payable(msg.sender).call{value: fundsContributed}(\"\") */\n      mload(0x40)\n      tag_176\n      swap1\n      tag_177\n      jump\t// in\n    tag_176:\n      0x00\n      mload(0x40)\n      dup1\n      dup4\n      sub\n      dup2\n      dup6\n      dup8\n      gas\n      call\n      swap3\n      pop\n      pop\n      pop\n      returndatasize\n      dup1\n      0x00\n      dup2\n      eq\n      tag_180\n      jumpi\n      mload(0x40)\n      swap2\n      pop\n      and(add(returndatasize, 0x3f), not(0x1f))\n      dup3\n      add\n      0x40\n      mstore\n      returndatasize\n      dup3\n      mstore\n      returndatasize\n      0x00\n      0x20\n      dup5\n      add\n      returndatacopy\n      jump(tag_179)\n    tag_180:\n      0x60\n      swap2\n      pop\n    tag_179:\n      pop\n        /* \"contracts/CrowdTank.sol\":8549:8618  (bool sent, ) = payable(msg.sender).call{value: fundsContributed}(\"\") */\n      pop\n      swap1\n      pop\n        /* \"contracts/CrowdTank.sol\":8637:8641  sent */\n      dup1\n        /* \"contracts/CrowdTank.sol\":8629:8664  require(sent , \"Withdrawal Failed\") */\n      tag_181\n      jumpi\n      mload(0x40)\n      0x08c379a000000000000000000000000000000000000000000000000000000000\n      dup2\n      mstore\n      0x04\n      add\n      tag_182\n      swap1\n      tag_183\n      jump\t// in\n    tag_182:\n      mload(0x40)\n      dup1\n      swap2\n      sub\n      swap1\n      revert\n    tag_181:\n        /* \"contracts/CrowdTank.sol\":8714:8724  _projectID */\n      dup5\n        /* \"contracts/CrowdTank.sol\":8700:8755  userWithdrawn(_projectID, msg.sender, fundsContributed) */\n      0xb6e4e293b6c7c5cf68fbb52edfaca6173710fcccbcecac03c32e62327fc000c6\n        /* \"contracts/CrowdTank.sol\":8726:8736  msg.sender */\n      caller\n        /* \"contracts/CrowdTank.sol\":8738:8754  fundsContributed */\n      dup6\n        /* \"contracts/CrowdTank.sol\":8700:8755  userWithdrawn(_projectID, msg.sender, fundsContributed) */\n      mload(0x40)\n      tag_184\n      swap3\n      swap2\n      swap1\n      tag_185\n      jump\t// in\n    tag_184:\n      mload(0x40)\n      dup1\n      swap2\n      sub\n      swap1\n      log2\n        /* \"contracts/CrowdTank.sol\":7681:8773  {... */\n      pop\n      pop\n      pop\n      pop\n        /* \"contracts/CrowdTank.sol\":7625:8773  function userWithdraw(uint _projectID) external payable {... */\n      pop\n      jump\t// out\n        /* \"contracts/CrowdTank.sol\":11165:11432  function Funding_Raised_Percentage( uint _projectID ) public view  returns(uint) {... */\n    tag_58:\n        /* \"contracts/CrowdTank.sol\":11240:11244  uint */\n      0x00\n        /* \"contracts/CrowdTank.sol\":11257:11280  project storage Project */\n      0x00\n        /* \"contracts/CrowdTank.sol\":11283:11291  Projects */\n      0x09\n        /* \"contracts/CrowdTank.sol\":11283:11303  Projects[_projectID] */\n      0x00\n        /* \"contracts/CrowdTank.sol\":11292:11302  _projectID */\n      dup5\n        /* \"contracts/CrowdTank.sol\":11283:11303  Projects[_projectID] */\n      dup2\n      mstore\n      0x20\n      add\n      swap1\n      dup2\n      mstore\n      0x20\n      add\n      0x00\n      keccak256\n        /* \"contracts/CrowdTank.sol\":11257:11303  project storage Project = Projects[_projectID] */\n      swap1\n      pop\n        /* \"contracts/CrowdTank.sol\":11314:11336  uint Raised_Percentage */\n      0x00\n        /* \"contracts/CrowdTank.sol\":11370:11377  Project */\n      dup2\n        /* \"contracts/CrowdTank.sol\":11370:11389  Project.fundingGoal */\n      0x03\n      add\n      sload\n        /* \"contracts/CrowdTank.sol\":11362:11365  100 */\n      0x64\n        /* \"contracts/CrowdTank.sol\":11341:11348  Project */\n      dup4\n        /* \"contracts/CrowdTank.sol\":11341:11361  Project.amountRaised */\n      0x05\n      add\n      sload\n        /* \"contracts/CrowdTank.sol\":11341:11365  Project.amountRaised*100 */\n      tag_187\n      swap2\n      swap1\n      tag_188\n      jump\t// in\n    tag_187:\n        /* \"contracts/CrowdTank.sol\":11339:11389  ( Project.amountRaised*100 ) / Project.fundingGoal */\n      tag_189\n      swap2\n      swap1\n      tag_190\n      jump\t// in\n    tag_189:\n        /* \"contracts/CrowdTank.sol\":11314:11389  uint Raised_Percentage = ( Project.amountRaised*100 ) / Project.fundingGoal */\n      swap1\n      pop\n        /* \"contracts/CrowdTank.sol\":11407:11424  Raised_Percentage */\n      dup1\n        /* \"contracts/CrowdTank.sol\":11400:11424  return Raised_Percentage */\n      swap3\n      pop\n      pop\n      pop\n        /* \"contracts/CrowdTank.sol\":11165:11432  function Funding_Raised_Percentage( uint _projectID ) public view  returns(uint) {... */\n      swap2\n      swap1\n      pop\n      jump\t// out\n        /* \"contracts/CrowdTank.sol\":6673:6873  function GetProjectStatus() view public returns(uint Successfully_Funded_Projects , uint Failed_To_Fund_Projects) {... */\n    tag_62:\n        /* \"contracts/CrowdTank.sol\":6721:6754  uint Successfully_Funded_Projects */\n      0x00\n        /* \"contracts/CrowdTank.sol\":6757:6785  uint Failed_To_Fund_Projects */\n      0x00\n        /* \"contracts/CrowdTank.sol\":6810:6836  Successful_Funded_Projects */\n      sload(0x05)\n        /* \"contracts/CrowdTank.sol\":6838:6860  Failed_Funded_Projects */\n      sload(0x06)\n        /* \"contracts/CrowdTank.sol\":6802:6861  return (Successful_Funded_Projects, Failed_Funded_Projects) */\n      swap2\n      pop\n      swap2\n      pop\n        /* \"contracts/CrowdTank.sol\":6673:6873  function GetProjectStatus() view public returns(uint Successfully_Funded_Projects , uint Failed_To_Fund_Projects) {... */\n      swap1\n      swap2\n      jump\t// out\n        /* \"contracts/CrowdTank.sol\":6934:7048  function Get_Total_Raised_Funding() view public returns(uint) {... */\n    tag_66:\n        /* \"contracts/CrowdTank.sol\":6990:6994  uint */\n      0x00\n        /* \"contracts/CrowdTank.sol\":7018:7036  TotalRaisedFunding */\n      sload(0x01)\n        /* \"contracts/CrowdTank.sol\":7011:7036  return TotalRaisedFunding */\n      swap1\n      pop\n        /* \"contracts/CrowdTank.sol\":6934:7048  function Get_Total_Raised_Funding() view public returns(uint) {... */\n      swap1\n      jump\t// out\n        /* \"contracts/CrowdTank.sol\":1907:1971  mapping (uint => mapping (address => uint)) public Contributions */\n    tag_72:\n      mstore(0x20, 0x0a)\n      dup2\n      0x00\n      mstore\n      mstore(0x20, keccak256(0x00, 0x40))\n      dup1\n      0x00\n      mstore\n      keccak256(0x00, 0x40)\n      0x00\n      swap2\n      pop\n      swap2\n      pop\n      pop\n      sload\n      dup2\n      jump\t// out\n        /* \"contracts/CrowdTank.sol\":10389:10662  function Extend_Deadline(uint _projectID , uint _deadline) external {... */\n    tag_77:\n        /* \"contracts/CrowdTank.sol\":10468:10491  project storage Project */\n      0x00\n        /* \"contracts/CrowdTank.sol\":10494:10502  Projects */\n      0x09\n        /* \"contracts/CrowdTank.sol\":10494:10514  Projects[_projectID] */\n      0x00\n        /* \"contracts/CrowdTank.sol\":10503:10513  _projectID */\n      dup5\n        /* \"contracts/CrowdTank.sol\":10494:10514  Projects[_projectID] */\n      dup2\n      mstore\n      0x20\n      add\n      swap1\n      dup2\n      mstore\n      0x20\n      add\n      0x00\n      keccak256\n        /* \"contracts/CrowdTank.sol\":10468:10514  project storage Project = Projects[_projectID] */\n      swap1\n      pop\n        /* \"contracts/CrowdTank.sol\":10552:10562  msg.sender */\n      caller\n        /* \"contracts/CrowdTank.sol\":10533:10562  Project.creator == msg.sender */\n      0xffffffffffffffffffffffffffffffffffffffff\n      and\n        /* \"contracts/CrowdTank.sol\":10533:10540  Project */\n      dup2\n        /* \"contracts/CrowdTank.sol\":10533:10548  Project.creator */\n      0x00\n      add\n      0x00\n      swap1\n      sload\n      swap1\n      0x0100\n      exp\n      swap1\n      div\n      0xffffffffffffffffffffffffffffffffffffffff\n      and\n        /* \"contracts/CrowdTank.sol\":10533:10562  Project.creator == msg.sender */\n      0xffffffffffffffffffffffffffffffffffffffff\n      and\n      eq\n        /* \"contracts/CrowdTank.sol\":10525:10614  require(Project.creator == msg.sender , \"Only Project creator can extend the deadline!!\") */\n      tag_194\n      jumpi\n      mload(0x40)\n      0x08c379a000000000000000000000000000000000000000000000000000000000\n      dup2\n      mstore\n      0x04\n      add\n      tag_195\n      swap1\n      tag_196\n      jump\t// in\n    tag_195:\n      mload(0x40)\n      dup1\n      swap2\n      sub\n      swap1\n      revert\n    tag_194:\n        /* \"contracts/CrowdTank.sol\":10645:10654  _deadline */\n      dup2\n        /* \"contracts/CrowdTank.sol\":10625:10632  Project */\n      dup2\n        /* \"contracts/CrowdTank.sol\":10625:10641  Project.deadline */\n      0x04\n      add\n      0x00\n        /* \"contracts/CrowdTank.sol\":10625:10654  Project.deadline += _deadline */\n      dup3\n      dup3\n      sload\n      tag_197\n      swap2\n      swap1\n      tag_198\n      jump\t// in\n    tag_197:\n      swap3\n      pop\n      pop\n      dup2\n      swap1\n      sstore\n      pop\n        /* \"contracts/CrowdTank.sol\":10457:10662  {... */\n      pop\n        /* \"contracts/CrowdTank.sol\":10389:10662  function Extend_Deadline(uint _projectID , uint _deadline) external {... */\n      pop\n      pop\n      jump\t// out\n        /* \"contracts/CrowdTank.sol\":3765:5791  function fundProject(uint _projectID) external payable nonReentrant {... */\n    tag_80:\n        /* \"@openzeppelin/contracts/utils/ReentrancyGuard.sol\":2500:2521  _nonReentrantBefore() */\n      tag_200\n        /* \"@openzeppelin/contracts/utils/ReentrancyGuard.sol\":2500:2519  _nonReentrantBefore */\n      tag_201\n        /* \"@openzeppelin/contracts/utils/ReentrancyGuard.sol\":2500:2521  _nonReentrantBefore() */\n      jump\t// in\n    tag_200:\n        /* \"contracts/CrowdTank.sol\":3848:3871  project storage Project */\n      0x00\n        /* \"contracts/CrowdTank.sol\":3874:3882  Projects */\n      0x09\n        /* \"contracts/CrowdTank.sol\":3874:3894  Projects[_projectID] */\n      0x00\n        /* \"contracts/CrowdTank.sol\":3883:3893  _projectID */\n      dup4\n        /* \"contracts/CrowdTank.sol\":3874:3894  Projects[_projectID] */\n      dup2\n      mstore\n      0x20\n      add\n      swap1\n      dup2\n      mstore\n      0x20\n      add\n      0x00\n      keccak256\n        /* \"contracts/CrowdTank.sol\":3848:3894  project storage Project = Projects[_projectID] */\n      swap1\n      pop\n        /* \"contracts/CrowdTank.sol\":3934:3941  Project */\n      dup1\n        /* \"contracts/CrowdTank.sol\":3934:3950  Project.deadline */\n      0x04\n      add\n      sload\n        /* \"contracts/CrowdTank.sol\":3917:3932  block.timestamp */\n      timestamp\n        /* \"contracts/CrowdTank.sol\":3917:3950  block.timestamp<=Project.deadline */\n      gt\n      iszero\n        /* \"contracts/CrowdTank.sol\":3909:3981  require(block.timestamp<=Project.deadline , \"Project deadline is over!\") */\n      tag_203\n      jumpi\n      mload(0x40)\n      0x08c379a000000000000000000000000000000000000000000000000000000000\n      dup2\n      mstore\n      0x04\n      add\n      tag_204\n      swap1\n      tag_205\n      jump\t// in\n    tag_204:\n      mload(0x40)\n      dup1\n      swap2\n      sub\n      swap1\n      revert\n    tag_203:\n        /* \"contracts/CrowdTank.sol\":4005:4012  Project */\n      dup1\n        /* \"contracts/CrowdTank.sol\":4005:4019  Project.funded */\n      0x06\n      add\n      0x00\n      swap1\n      sload\n      swap1\n      0x0100\n      exp\n      swap1\n      div\n      0xff\n      and\n        /* \"contracts/CrowdTank.sol\":4004:4019  !Project.funded */\n      iszero\n        /* \"contracts/CrowdTank.sol\":3996:4064  require(!Project.funded , \"Project Reached its Funding requirement\") */\n      tag_206\n      jumpi\n      mload(0x40)\n      0x08c379a000000000000000000000000000000000000000000000000000000000\n      dup2\n      mstore\n      0x04\n      add\n      tag_207\n      swap1\n      tag_208\n      jump\t// in\n    tag_207:\n      mload(0x40)\n      dup1\n      swap2\n      sub\n      swap1\n      revert\n    tag_206:\n        /* \"contracts/CrowdTank.sol\":4097:4098  0 */\n      0x00\n        /* \"contracts/CrowdTank.sol\":4087:4096  msg.value */\n      callvalue\n        /* \"contracts/CrowdTank.sol\":4087:4098  msg.value>0 */\n      gt\n        /* \"contracts/CrowdTank.sol\":4079:4148  require(msg.value>0 , \"send some ether to contribute in the project\") */\n      tag_209\n      jumpi\n      mload(0x40)\n      0x08c379a000000000000000000000000000000000000000000000000000000000\n      dup2\n      mstore\n      0x04\n      add\n      tag_210\n      swap1\n      tag_211\n      jump\t// in\n    tag_210:\n      mload(0x40)\n      dup1\n      swap2\n      sub\n      swap1\n      revert\n    tag_209:\n        /* \"contracts/CrowdTank.sol\":4184:4191  Project */\n      dup1\n        /* \"contracts/CrowdTank.sol\":4184:4203  Project.fundingGoal */\n      0x03\n      add\n      sload\n        /* \"contracts/CrowdTank.sol\":4171:4180  msg.value */\n      callvalue\n        /* \"contracts/CrowdTank.sol\":4171:4203  msg.value <= Project.fundingGoal */\n      gt\n      iszero\n        /* \"contracts/CrowdTank.sol\":4163:4244  require(msg.value <= Project.fundingGoal, \"Amount Contributed is more than Goal\") */\n      tag_212\n      jumpi\n      mload(0x40)\n      0x08c379a000000000000000000000000000000000000000000000000000000000\n      dup2\n      mstore\n      0x04\n      add\n      tag_213\n      swap1\n      tag_214\n      jump\t// in\n    tag_213:\n      mload(0x40)\n      dup1\n      swap2\n      sub\n      swap1\n      revert\n    tag_212:\n        /* \"contracts/CrowdTank.sol\":4259:4273  uint remaining */\n      0x00\n        /* \"contracts/CrowdTank.sol\":4298:4305  Project */\n      dup2\n        /* \"contracts/CrowdTank.sol\":4298:4318  Project.amountRaised */\n      0x05\n      add\n      sload\n        /* \"contracts/CrowdTank.sol\":4276:4283  Project */\n      dup3\n        /* \"contracts/CrowdTank.sol\":4276:4295  Project.fundingGoal */\n      0x03\n      add\n      sload\n        /* \"contracts/CrowdTank.sol\":4276:4318  Project.fundingGoal - Project.amountRaised */\n      tag_215\n      swap2\n      swap1\n      tag_138\n      jump\t// in\n    tag_215:\n        /* \"contracts/CrowdTank.sol\":4259:4318  uint remaining = Project.fundingGoal - Project.amountRaised */\n      swap1\n      pop\n        /* \"contracts/CrowdTank.sol\":4333:4352  uint amountToAccept */\n      0x00\n        /* \"contracts/CrowdTank.sol\":4367:4378  uint refund */\n      0x00\n        /* \"contracts/CrowdTank.sol\":4408:4417  remaining */\n      dup3\n        /* \"contracts/CrowdTank.sol\":4396:4405  msg.value */\n      callvalue\n        /* \"contracts/CrowdTank.sol\":4396:4417  msg.value > remaining */\n      gt\n        /* \"contracts/CrowdTank.sol\":4393:4625  if(msg.value > remaining) {... */\n      iszero\n      tag_216\n      jumpi\n        /* \"contracts/CrowdTank.sol\":4455:4464  remaining */\n      dup3\n        /* \"contracts/CrowdTank.sol\":4438:4464  amountToAccept = remaining */\n      swap2\n      pop\n        /* \"contracts/CrowdTank.sol\":4504:4513  remaining */\n      dup3\n        /* \"contracts/CrowdTank.sol\":4492:4501  msg.value */\n      callvalue\n        /* \"contracts/CrowdTank.sol\":4492:4513  msg.value - remaining */\n      tag_217\n      swap2\n      swap1\n      tag_138\n      jump\t// in\n    tag_217:\n        /* \"contracts/CrowdTank.sol\":4483:4513  refund = msg.value - remaining */\n      swap1\n      pop\n        /* \"contracts/CrowdTank.sol\":4393:4625  if(msg.value > remaining) {... */\n      jump(tag_218)\n    tag_216:\n        /* \"contracts/CrowdTank.sol\":4571:4580  msg.value */\n      callvalue\n        /* \"contracts/CrowdTank.sol\":4554:4580  amountToAccept = msg.value */\n      swap2\n      pop\n        /* \"contracts/CrowdTank.sol\":4608:4609  0 */\n      0x00\n        /* \"contracts/CrowdTank.sol\":4599:4609  refund = 0 */\n      swap1\n      pop\n        /* \"contracts/CrowdTank.sol\":4393:4625  if(msg.value > remaining) {... */\n    tag_218:\n        /* \"contracts/CrowdTank.sol\":4639:4654  uint commission */\n      0x00\n        /* \"contracts/CrowdTank.sol\":4680:4683  100 */\n      0x64\n        /* \"contracts/CrowdTank.sol\":4675:4676  5 */\n      0x05\n        /* \"contracts/CrowdTank.sol\":4658:4672  amountToAccept */\n      dup5\n        /* \"contracts/CrowdTank.sol\":4658:4676  amountToAccept * 5 */\n      tag_219\n      swap2\n      swap1\n      tag_188\n      jump\t// in\n    tag_219:\n        /* \"contracts/CrowdTank.sol\":4657:4683  (amountToAccept * 5) / 100 */\n      tag_220\n      swap2\n      swap1\n      tag_190\n      jump\t// in\n    tag_220:\n        /* \"contracts/CrowdTank.sol\":4639:4683  uint commission = (amountToAccept * 5) / 100 */\n      swap1\n      pop\n        /* \"contracts/CrowdTank.sol\":4698:4712  uint netAmount */\n      0x00\n        /* \"contracts/CrowdTank.sol\":4732:4742  commission */\n      dup2\n        /* \"contracts/CrowdTank.sol\":4715:4729  amountToAccept */\n      dup5\n        /* \"contracts/CrowdTank.sol\":4715:4742  amountToAccept - commission */\n      tag_221\n      swap2\n      swap1\n      tag_138\n      jump\t// in\n    tag_221:\n        /* \"contracts/CrowdTank.sol\":4698:4742  uint netAmount = amountToAccept - commission */\n      swap1\n      pop\n        /* \"contracts/CrowdTank.sol\":4777:4787  commission */\n      dup2\n        /* \"contracts/CrowdTank.sol\":4757:4773  systemCommission */\n      0x04\n      0x00\n        /* \"contracts/CrowdTank.sol\":4757:4787  systemCommission += commission */\n      dup3\n      dup3\n      sload\n      tag_222\n      swap2\n      swap1\n      tag_198\n      jump\t// in\n    tag_222:\n      swap3\n      pop\n      pop\n      dup2\n      swap1\n      sstore\n      pop\n        /* \"contracts/CrowdTank.sol\":4826:4835  netAmount */\n      dup1\n        /* \"contracts/CrowdTank.sol\":4802:4809  Project */\n      dup7\n        /* \"contracts/CrowdTank.sol\":4802:4822  Project.amountRaised */\n      0x05\n      add\n      0x00\n        /* \"contracts/CrowdTank.sol\":4802:4835  Project.amountRaised += netAmount */\n      dup3\n      dup3\n      sload\n      tag_223\n      swap2\n      swap1\n      tag_198\n      jump\t// in\n    tag_223:\n      swap3\n      pop\n      pop\n      dup2\n      swap1\n      sstore\n      pop\n        /* \"contracts/CrowdTank.sol\":4890:4899  netAmount */\n      dup1\n        /* \"contracts/CrowdTank.sol\":4850:4863  Contributions */\n      0x0a\n        /* \"contracts/CrowdTank.sol\":4850:4875  Contributions[_projectID] */\n      0x00\n        /* \"contracts/CrowdTank.sol\":4864:4874  _projectID */\n      dup10\n        /* \"contracts/CrowdTank.sol\":4850:4875  Contributions[_projectID] */\n      dup2\n      mstore\n      0x20\n      add\n      swap1\n      dup2\n      mstore\n      0x20\n      add\n      0x00\n      keccak256\n        /* \"contracts/CrowdTank.sol\":4850:4887  Contributions[_projectID][msg.sender] */\n      0x00\n        /* \"contracts/CrowdTank.sol\":4876:4886  msg.sender */\n      caller\n        /* \"contracts/CrowdTank.sol\":4850:4887  Contributions[_projectID][msg.sender] */\n      0xffffffffffffffffffffffffffffffffffffffff\n      and\n      0xffffffffffffffffffffffffffffffffffffffff\n      and\n      dup2\n      mstore\n      0x20\n      add\n      swap1\n      dup2\n      mstore\n      0x20\n      add\n      0x00\n      keccak256\n        /* \"contracts/CrowdTank.sol\":4850:4899  Contributions[_projectID][msg.sender] = netAmount */\n      dup2\n      swap1\n      sstore\n      pop\n        /* \"contracts/CrowdTank.sol\":4967:4976  netAmount */\n      dup1\n        /* \"contracts/CrowdTank.sol\":4947:4965  TotalRaisedFunding */\n      0x01\n      0x00\n        /* \"contracts/CrowdTank.sol\":4947:4976  TotalRaisedFunding+=netAmount */\n      dup3\n      dup3\n      sload\n      tag_224\n      swap2\n      swap1\n      tag_198\n      jump\t// in\n    tag_224:\n      swap3\n      pop\n      pop\n      dup2\n      swap1\n      sstore\n      pop\n        /* \"contracts/CrowdTank.sol\":5004:5005  0 */\n      0x00\n        /* \"contracts/CrowdTank.sol\":4995:5001  refund */\n      dup4\n        /* \"contracts/CrowdTank.sol\":4995:5005  refund > 0 */\n      gt\n        /* \"contracts/CrowdTank.sol\":4991:5151  if (refund > 0) {... */\n      iszero\n      tag_225\n      jumpi\n        /* \"contracts/CrowdTank.sol\":5027:5036  bool sent */\n      0x00\n        /* \"contracts/CrowdTank.sol\":5050:5060  msg.sender */\n      caller\n        /* \"contracts/CrowdTank.sol\":5042:5066  payable(msg.sender).call */\n      0xffffffffffffffffffffffffffffffffffffffff\n      and\n        /* \"contracts/CrowdTank.sol\":5074:5080  refund */\n      dup5\n        /* \"contracts/CrowdTank.sol\":5042:5085  payable(msg.sender).call{value: refund}(\"\") */\n      mload(0x40)\n      tag_226\n      swap1\n      tag_177\n      jump\t// in\n    tag_226:\n      0x00\n      mload(0x40)\n      dup1\n      dup4\n      sub\n      dup2\n      dup6\n      dup8\n      gas\n      call\n      swap3\n      pop\n      pop\n      pop\n      returndatasize\n      dup1\n      0x00\n      dup2\n      eq\n      tag_229\n      jumpi\n      mload(0x40)\n      swap2\n      pop\n      and(add(returndatasize, 0x3f), not(0x1f))\n      dup3\n      add\n      0x40\n      mstore\n      returndatasize\n      dup3\n      mstore\n      returndatasize\n      0x00\n      0x20\n      dup5\n      add\n      returndatacopy\n      jump(tag_228)\n    tag_229:\n      0x60\n      swap2\n      pop\n    tag_228:\n      pop\n        /* \"contracts/CrowdTank.sol\":5026:5085  (bool sent, ) = payable(msg.sender).call{value: refund}(\"\") */\n      pop\n      swap1\n      pop\n        /* \"contracts/CrowdTank.sol\":5112:5116  sent */\n      dup1\n        /* \"contracts/CrowdTank.sol\":5104:5135  require(sent , \"Refund Failed\") */\n      tag_230\n      jumpi\n      mload(0x40)\n      0x08c379a000000000000000000000000000000000000000000000000000000000\n      dup2\n      mstore\n      0x04\n      add\n      tag_231\n      swap1\n      tag_232\n      jump\t// in\n    tag_231:\n      mload(0x40)\n      dup1\n      swap2\n      sub\n      swap1\n      revert\n    tag_230:\n        /* \"contracts/CrowdTank.sol\":5007:5151  {... */\n      pop\n        /* \"contracts/CrowdTank.sol\":4991:5151  if (refund > 0) {... */\n    tag_225:\n        /* \"contracts/CrowdTank.sol\":5214:5228  uint userTotal */\n      0x00\n        /* \"contracts/CrowdTank.sol\":5231:5244  Contributions */\n      0x0a\n        /* \"contracts/CrowdTank.sol\":5231:5256  Contributions[_projectID] */\n      0x00\n        /* \"contracts/CrowdTank.sol\":5245:5255  _projectID */\n      dup10\n        /* \"contracts/CrowdTank.sol\":5231:5256  Contributions[_projectID] */\n      dup2\n      mstore\n      0x20\n      add\n      swap1\n      dup2\n      mstore\n      0x20\n      add\n      0x00\n      keccak256\n        /* \"contracts/CrowdTank.sol\":5231:5268  Contributions[_projectID][msg.sender] */\n      0x00\n        /* \"contracts/CrowdTank.sol\":5257:5267  msg.sender */\n      caller\n        /* \"contracts/CrowdTank.sol\":5231:5268  Contributions[_projectID][msg.sender] */\n      0xffffffffffffffffffffffffffffffffffffffff\n      and\n      0xffffffffffffffffffffffffffffffffffffffff\n      and\n      dup2\n      mstore\n      0x20\n      add\n      swap1\n      dup2\n      mstore\n      0x20\n      add\n      0x00\n      keccak256\n      sload\n        /* \"contracts/CrowdTank.sol\":5214:5268  uint userTotal = Contributions[_projectID][msg.sender] */\n      swap1\n      pop\n        /* \"contracts/CrowdTank.sol\":5299:5306  Project */\n      dup7\n        /* \"contracts/CrowdTank.sol\":5299:5327  Project.highest_contribution */\n      0x07\n      add\n      sload\n        /* \"contracts/CrowdTank.sol\":5287:5296  userTotal */\n      dup2\n        /* \"contracts/CrowdTank.sol\":5287:5327  userTotal > Project.highest_contribution */\n      gt\n        /* \"contracts/CrowdTank.sol\":5283:5458  if (userTotal > Project.highest_contribution) {... */\n      iszero\n      tag_233\n      jumpi\n        /* \"contracts/CrowdTank.sol\":5379:5388  userTotal */\n      dup1\n        /* \"contracts/CrowdTank.sol\":5348:5355  Project */\n      dup8\n        /* \"contracts/CrowdTank.sol\":5348:5376  Project.highest_contribution */\n      0x07\n      add\n        /* \"contracts/CrowdTank.sol\":5348:5388  Project.highest_contribution = userTotal */\n      dup2\n      swap1\n      sstore\n      pop\n        /* \"contracts/CrowdTank.sol\":5432:5442  msg.sender */\n      caller\n        /* \"contracts/CrowdTank.sol\":5407:5414  Project */\n      dup8\n        /* \"contracts/CrowdTank.sol\":5407:5429  Project.highest_Funder */\n      0x06\n      add\n      0x01\n        /* \"contracts/CrowdTank.sol\":5407:5442  Project.highest_Funder = msg.sender */\n      0x0100\n      exp\n      dup2\n      sload\n      dup2\n      0xffffffffffffffffffffffffffffffffffffffff\n      mul\n      not\n      and\n      swap1\n      dup4\n      0xffffffffffffffffffffffffffffffffffffffff\n      and\n      mul\n      or\n      swap1\n      sstore\n      pop\n        /* \"contracts/CrowdTank.sol\":5283:5458  if (userTotal > Project.highest_contribution) {... */\n    tag_233:\n        /* \"contracts/CrowdTank.sol\":5486:5496  _projectID */\n      dup8\n        /* \"contracts/CrowdTank.sol\":5479:5534  funded(_projectID, msg.sender, amountToAccept , refund) */\n      0x7dd983e9d08b449d571f3583275e98423857f3ffbe9ef56f927eb02b1c8ab599\n        /* \"contracts/CrowdTank.sol\":5498:5508  msg.sender */\n      caller\n        /* \"contracts/CrowdTank.sol\":5510:5524  amountToAccept */\n      dup8\n        /* \"contracts/CrowdTank.sol\":5527:5533  refund */\n      dup8\n        /* \"contracts/CrowdTank.sol\":5479:5534  funded(_projectID, msg.sender, amountToAccept , refund) */\n      mload(0x40)\n      tag_234\n      swap4\n      swap3\n      swap2\n      swap1\n      tag_235\n      jump\t// in\n    tag_234:\n      mload(0x40)\n      dup1\n      swap2\n      sub\n      swap1\n      log2\n        /* \"contracts/CrowdTank.sol\":5577:5584  Project */\n      dup7\n        /* \"contracts/CrowdTank.sol\":5577:5596  Project.fundingGoal */\n      0x03\n      add\n      sload\n        /* \"contracts/CrowdTank.sol\":5555:5562  Project */\n      dup8\n        /* \"contracts/CrowdTank.sol\":5555:5575  Project.amountRaised */\n      0x05\n      add\n      sload\n        /* \"contracts/CrowdTank.sol\":5555:5596  Project.amountRaised>=Project.fundingGoal */\n      lt\n      iszero\n        /* \"contracts/CrowdTank.sol\":5555:5625  Project.amountRaised>=Project.fundingGoal && !Project.status_processed */\n      dup1\n      iszero\n      tag_236\n      jumpi\n      pop\n        /* \"contracts/CrowdTank.sol\":5601:5608  Project */\n      dup7\n        /* \"contracts/CrowdTank.sol\":5601:5625  Project.status_processed */\n      0x08\n      add\n      0x01\n      swap1\n      sload\n      swap1\n      0x0100\n      exp\n      swap1\n      div\n      0xff\n      and\n        /* \"contracts/CrowdTank.sol\":5600:5625  !Project.status_processed */\n      iszero\n        /* \"contracts/CrowdTank.sol\":5555:5625  Project.amountRaised>=Project.fundingGoal && !Project.status_processed */\n    tag_236:\n        /* \"contracts/CrowdTank.sol\":5551:5780  if (Project.amountRaised>=Project.fundingGoal && !Project.status_processed) {... */\n      iszero\n      tag_237\n      jumpi\n        /* \"contracts/CrowdTank.sol\":5663:5667  true */\n      0x01\n        /* \"contracts/CrowdTank.sol\":5646:5653  Project */\n      dup8\n        /* \"contracts/CrowdTank.sol\":5646:5660  Project.funded */\n      0x06\n      add\n      0x00\n        /* \"contracts/CrowdTank.sol\":5646:5667  Project.funded = true */\n      0x0100\n      exp\n      dup2\n      sload\n      dup2\n      0xff\n      mul\n      not\n      and\n      swap1\n      dup4\n      iszero\n      iszero\n      mul\n      or\n      swap1\n      sstore\n      pop\n        /* \"contracts/CrowdTank.sol\":5713:5717  true */\n      0x01\n        /* \"contracts/CrowdTank.sol\":5686:5693  Project */\n      dup8\n        /* \"contracts/CrowdTank.sol\":5686:5710  Project.status_processed */\n      0x08\n      add\n      0x01\n        /* \"contracts/CrowdTank.sol\":5686:5717  Project.status_processed = true */\n      0x0100\n      exp\n      dup2\n      sload\n      dup2\n      0xff\n      mul\n      not\n      and\n      swap1\n      dup4\n      iszero\n      iszero\n      mul\n      or\n      swap1\n      sstore\n      pop\n        /* \"contracts/CrowdTank.sol\":5736:5762  Successful_Funded_Projects */\n      0x05\n      0x00\n        /* \"contracts/CrowdTank.sol\":5736:5764  Successful_Funded_Projects++ */\n      dup2\n      sload\n      dup1\n      swap3\n      swap2\n      swap1\n      tag_238\n      swap1\n      tag_239\n      jump\t// in\n    tag_238:\n      swap2\n      swap1\n      pop\n      sstore\n      pop\n        /* \"contracts/CrowdTank.sol\":5551:5780  if (Project.amountRaised>=Project.fundingGoal && !Project.status_processed) {... */\n    tag_237:\n        /* \"contracts/CrowdTank.sol\":3833:5791  {... */\n      pop\n      pop\n      pop\n      pop\n      pop\n      pop\n      pop\n        /* \"@openzeppelin/contracts/utils/ReentrancyGuard.sol\":2542:2562  _nonReentrantAfter() */\n      tag_240\n        /* \"@openzeppelin/contracts/utils/ReentrancyGuard.sol\":2542:2560  _nonReentrantAfter */\n      tag_241\n        /* \"@openzeppelin/contracts/utils/ReentrancyGuard.sol\":2542:2562  _nonReentrantAfter() */\n      jump\t// in\n    tag_240:\n        /* \"contracts/CrowdTank.sol\":3765:5791  function fundProject(uint _projectID) external payable nonReentrant {... */\n      pop\n      jump\t// out\n        /* \"contracts/CrowdTank.sol\":8825:9426  function creatorWithdraw(uint _projectID) external payable {... */\n    tag_83:\n        /* \"contracts/CrowdTank.sol\":8895:8918  project storage Project */\n      0x00\n        /* \"contracts/CrowdTank.sol\":8921:8929  Projects */\n      0x09\n        /* \"contracts/CrowdTank.sol\":8921:8941  Projects[_projectID] */\n      0x00\n        /* \"contracts/CrowdTank.sol\":8930:8940  _projectID */\n      dup4\n        /* \"contracts/CrowdTank.sol\":8921:8941  Projects[_projectID] */\n      dup2\n      mstore\n      0x20\n      add\n      swap1\n      dup2\n      mstore\n      0x20\n      add\n      0x00\n      keccak256\n        /* \"contracts/CrowdTank.sol\":8895:8941  project storage Project = Projects[_projectID] */\n      swap1\n      pop\n        /* \"contracts/CrowdTank.sol\":8952:8969  uint totalfunding */\n      0x00\n        /* \"contracts/CrowdTank.sol\":8972:8979  Project */\n      dup2\n        /* \"contracts/CrowdTank.sol\":8972:8992  Project.amountRaised */\n      0x05\n      add\n      sload\n        /* \"contracts/CrowdTank.sol\":8952:8992  uint totalfunding = Project.amountRaised */\n      swap1\n      pop\n        /* \"contracts/CrowdTank.sol\":9011:9018  Project */\n      dup2\n        /* \"contracts/CrowdTank.sol\":9011:9025  Project.funded */\n      0x06\n      add\n      0x00\n      swap1\n      sload\n      swap1\n      0x0100\n      exp\n      swap1\n      div\n      0xff\n      and\n        /* \"contracts/CrowdTank.sol\":9003:9082  require(Project.funded , \"funding goal has not reached , admin can't withdraw\") */\n      tag_243\n      jumpi\n      mload(0x40)\n      0x08c379a000000000000000000000000000000000000000000000000000000000\n      dup2\n      mstore\n      0x04\n      add\n      tag_244\n      swap1\n      tag_245\n      jump\t// in\n    tag_244:\n      mload(0x40)\n      dup1\n      swap2\n      sub\n      swap1\n      revert\n    tag_243:\n        /* \"contracts/CrowdTank.sol\":9120:9130  msg.sender */\n      caller\n        /* \"contracts/CrowdTank.sol\":9101:9130  Project.creator == msg.sender */\n      0xffffffffffffffffffffffffffffffffffffffff\n      and\n        /* \"contracts/CrowdTank.sol\":9101:9108  Project */\n      dup3\n        /* \"contracts/CrowdTank.sol\":9101:9116  Project.creator */\n      0x00\n      add\n      0x00\n      swap1\n      sload\n      swap1\n      0x0100\n      exp\n      swap1\n      div\n      0xffffffffffffffffffffffffffffffffffffffff\n      and\n        /* \"contracts/CrowdTank.sol\":9101:9130  Project.creator == msg.sender */\n      0xffffffffffffffffffffffffffffffffffffffff\n      and\n      eq\n        /* \"contracts/CrowdTank.sol\":9093:9159  require(Project.creator == msg.sender , \"only admin can withdraw\") */\n      tag_246\n      jumpi\n      mload(0x40)\n      0x08c379a000000000000000000000000000000000000000000000000000000000\n      dup2\n      mstore\n      0x04\n      add\n      tag_247\n      swap1\n      tag_248\n      jump\t// in\n    tag_247:\n      mload(0x40)\n      dup1\n      swap2\n      sub\n      swap1\n      revert\n    tag_246:\n        /* \"contracts/CrowdTank.sol\":9196:9211  block.timestamp */\n      timestamp\n        /* \"contracts/CrowdTank.sol\":9178:9185  Project */\n      dup3\n        /* \"contracts/CrowdTank.sol\":9178:9194  Project.deadline */\n      0x04\n      add\n      sload\n        /* \"contracts/CrowdTank.sol\":9178:9211  Project.deadline<=block.timestamp */\n      gt\n      iszero\n        /* \"contracts/CrowdTank.sol\":9170:9264  require(Project.deadline<=block.timestamp , \"deadline has not reached , admin can't withdraw\") */\n      tag_249\n      jumpi\n      mload(0x40)\n      0x08c379a000000000000000000000000000000000000000000000000000000000\n      dup2\n      mstore\n      0x04\n      add\n      tag_250\n      swap1\n      tag_251\n      jump\t// in\n    tag_250:\n      mload(0x40)\n      dup1\n      swap2\n      sub\n      swap1\n      revert\n    tag_249:\n        /* \"contracts/CrowdTank.sol\":9283:9293  msg.sender */\n      caller\n        /* \"contracts/CrowdTank.sol\":9275:9303  payable(msg.sender).transfer */\n      0xffffffffffffffffffffffffffffffffffffffff\n      and\n        /* \"contracts/CrowdTank.sol\":9275:9317  payable(msg.sender).transfer(totalfunding) */\n      0x08fc\n        /* \"contracts/CrowdTank.sol\":9304:9316  totalfunding */\n      dup3\n        /* \"contracts/CrowdTank.sol\":9275:9317  payable(msg.sender).transfer(totalfunding) */\n      swap1\n      dup2\n      iszero\n      mul\n      swap1\n      mload(0x40)\n      0x00\n      mload(0x40)\n      dup1\n      dup4\n      sub\n      dup2\n      dup6\n      dup9\n      dup9\n      call\n      swap4\n      pop\n      pop\n      pop\n      pop\n      iszero\n      dup1\n      iszero\n      tag_253\n      jumpi\n      returndatacopy(0x00, 0x00, returndatasize)\n      revert(0x00, returndatasize)\n    tag_253:\n      pop\n        /* \"contracts/CrowdTank.sol\":9384:9394  _projectID */\n      dup3\n        /* \"contracts/CrowdTank.sol\":9367:9418  creatorWithdrawn(_projectID, msg.sender, msg.value) */\n      0xcae030e1a3c6b0011e7009bd65734e2e1e330528f6983497631fabd47fa7a281\n        /* \"contracts/CrowdTank.sol\":9396:9406  msg.sender */\n      caller\n        /* \"contracts/CrowdTank.sol\":9408:9417  msg.value */\n      callvalue\n        /* \"contracts/CrowdTank.sol\":9367:9418  creatorWithdrawn(_projectID, msg.sender, msg.value) */\n      mload(0x40)\n      tag_254\n      swap3\n      swap2\n      swap1\n      tag_185\n      jump\t// in\n    tag_254:\n      mload(0x40)\n      dup1\n      swap2\n      sub\n      swap1\n      log2\n        /* \"contracts/CrowdTank.sol\":8884:9426  {... */\n      pop\n      pop\n        /* \"contracts/CrowdTank.sol\":8825:9426  function creatorWithdraw(uint _projectID) external payable {... */\n      pop\n      jump\t// out\n        /* \"contracts/CrowdTank.sol\":1168:1329  function Remove_Creators( address _creator ) external OnlyAdmin {... */\n    tag_88:\n        /* \"contracts/CrowdTank.sol\":850:860  msg.sender */\n      caller\n        /* \"contracts/CrowdTank.sol\":841:860  admin == msg.sender */\n      0xffffffffffffffffffffffffffffffffffffffff\n      and\n        /* \"contracts/CrowdTank.sol\":841:846  admin */\n      0x03\n      0x00\n      swap1\n      sload\n      swap1\n      0x0100\n      exp\n      swap1\n      div\n      0xffffffffffffffffffffffffffffffffffffffff\n      and\n        /* \"contracts/CrowdTank.sol\":841:860  admin == msg.sender */\n      0xffffffffffffffffffffffffffffffffffffffff\n      and\n      eq\n        /* \"contracts/CrowdTank.sol\":833:887  require(admin == msg.sender , \"Only Admin can access\") */\n      tag_256\n      jumpi\n      mload(0x40)\n      0x08c379a000000000000000000000000000000000000000000000000000000000\n      dup2\n      mstore\n      0x04\n      add\n      tag_257\n      swap1\n      tag_258\n      jump\t// in\n    tag_257:\n      mload(0x40)\n      dup1\n      swap2\n      sub\n      swap1\n      revert\n    tag_256:\n        /* \"contracts/CrowdTank.sol\":1274:1279  false */\n      0x00\n        /* \"contracts/CrowdTank.sol\":1243:1261  AuthorizedCreators */\n      0x07\n        /* \"contracts/CrowdTank.sol\":1243:1271  AuthorizedCreators[_creator] */\n      0x00\n        /* \"contracts/CrowdTank.sol\":1262:1270  _creator */\n      dup4\n        /* \"contracts/CrowdTank.sol\":1243:1271  AuthorizedCreators[_creator] */\n      0xffffffffffffffffffffffffffffffffffffffff\n      and\n      0xffffffffffffffffffffffffffffffffffffffff\n      and\n      dup2\n      mstore\n      0x20\n      add\n      swap1\n      dup2\n      mstore\n      0x20\n      add\n      0x00\n      keccak256\n      0x00\n        /* \"contracts/CrowdTank.sol\":1243:1279  AuthorizedCreators[_creator] = false */\n      0x0100\n      exp\n      dup2\n      sload\n      dup2\n      0xff\n      mul\n      not\n      and\n      swap1\n      dup4\n      iszero\n      iszero\n      mul\n      or\n      swap1\n      sstore\n      pop\n        /* \"contracts/CrowdTank.sol\":1312:1320  _creator */\n      dup1\n        /* \"contracts/CrowdTank.sol\":1297:1321  removedCreator(_creator) */\n      0xffffffffffffffffffffffffffffffffffffffff\n      and\n      0x0925d0e195cc39b7ade3fd58fdf494022e37bfd6242c2be09c0b2863977c1879\n      mload(0x40)\n      mload(0x40)\n      dup1\n      swap2\n      sub\n      swap1\n      log2\n        /* \"contracts/CrowdTank.sol\":1168:1329  function Remove_Creators( address _creator ) external OnlyAdmin {... */\n      pop\n      jump\t// out\n        /* \"contracts/CrowdTank.sol\":12865:13188  function AdminWithdrawCommission() external OnlyAdmin {... */\n    tag_91:\n        /* \"contracts/CrowdTank.sol\":850:860  msg.sender */\n      caller\n        /* \"contracts/CrowdTank.sol\":841:860  admin == msg.sender */\n      0xffffffffffffffffffffffffffffffffffffffff\n      and\n        /* \"contracts/CrowdTank.sol\":841:846  admin */\n      0x03\n      0x00\n      swap1\n      sload\n      swap1\n      0x0100\n      exp\n      swap1\n      div\n      0xffffffffffffffffffffffffffffffffffffffff\n      and\n        /* \"contracts/CrowdTank.sol\":841:860  admin == msg.sender */\n      0xffffffffffffffffffffffffffffffffffffffff\n      and\n      eq\n        /* \"contracts/CrowdTank.sol\":833:887  require(admin == msg.sender , \"Only Admin can access\") */\n      tag_261\n      jumpi\n      mload(0x40)\n      0x08c379a000000000000000000000000000000000000000000000000000000000\n      dup2\n      mstore\n      0x04\n      add\n      tag_262\n      swap1\n      tag_258\n      jump\t// in\n    tag_262:\n      mload(0x40)\n      dup1\n      swap2\n      sub\n      swap1\n      revert\n    tag_261:\n        /* \"contracts/CrowdTank.sol\":12957:12958  0 */\n      0x00\n        /* \"contracts/CrowdTank.sol\":12938:12954  systemCommission */\n      sload(0x04)\n        /* \"contracts/CrowdTank.sol\":12938:12958  systemCommission > 0 */\n      gt\n        /* \"contracts/CrowdTank.sol\":12930:12989  require(systemCommission > 0 , \"No commission to withdraw\") */\n      tag_264\n      jumpi\n      mload(0x40)\n      0x08c379a000000000000000000000000000000000000000000000000000000000\n      dup2\n      mstore\n      0x04\n      add\n      tag_265\n      swap1\n      tag_266\n      jump\t// in\n    tag_265:\n      mload(0x40)\n      dup1\n      swap2\n      sub\n      swap1\n      revert\n    tag_264:\n        /* \"contracts/CrowdTank.sol\":13000:13011  uint amount */\n      0x00\n        /* \"contracts/CrowdTank.sol\":13014:13030  systemCommission */\n      sload(0x04)\n        /* \"contracts/CrowdTank.sol\":13000:13030  uint amount = systemCommission */\n      swap1\n      pop\n        /* \"contracts/CrowdTank.sol\":13060:13061  0 */\n      0x00\n        /* \"contracts/CrowdTank.sol\":13041:13057  systemCommission */\n      0x04\n        /* \"contracts/CrowdTank.sol\":13041:13061  systemCommission = 0 */\n      dup2\n      swap1\n      sstore\n      pop\n        /* \"contracts/CrowdTank.sol\":13075:13084  bool sent */\n      0x00\n        /* \"contracts/CrowdTank.sol\":13098:13108  msg.sender */\n      caller\n        /* \"contracts/CrowdTank.sol\":13090:13114  payable(msg.sender).call */\n      0xffffffffffffffffffffffffffffffffffffffff\n      and\n        /* \"contracts/CrowdTank.sol\":13122:13128  amount */\n      dup3\n        /* \"contracts/CrowdTank.sol\":13090:13133  payable(msg.sender).call{value: amount}(\"\") */\n      mload(0x40)\n      tag_267\n      swap1\n      tag_177\n      jump\t// in\n    tag_267:\n      0x00\n      mload(0x40)\n      dup1\n      dup4\n      sub\n      dup2\n      dup6\n      dup8\n      gas\n      call\n      swap3\n      pop\n      pop\n      pop\n      returndatasize\n      dup1\n      0x00\n      dup2\n      eq\n      tag_270\n      jumpi\n      mload(0x40)\n      swap2\n      pop\n      and(add(returndatasize, 0x3f), not(0x1f))\n      dup3\n      add\n      0x40\n      mstore\n      returndatasize\n      dup3\n      mstore\n      returndatasize\n      0x00\n      0x20\n      dup5\n      add\n      returndatacopy\n      jump(tag_269)\n    tag_270:\n      0x60\n      swap2\n      pop\n    tag_269:\n      pop\n        /* \"contracts/CrowdTank.sol\":13074:13133  (bool sent, ) = payable(msg.sender).call{value: amount}(\"\") */\n      pop\n      swap1\n      pop\n        /* \"contracts/CrowdTank.sol\":13152:13156  sent */\n      dup1\n        /* \"contracts/CrowdTank.sol\":13144:13180  require(sent , \"Withdrawal Failed!\") */\n      tag_271\n      jumpi\n      mload(0x40)\n      0x08c379a000000000000000000000000000000000000000000000000000000000\n      dup2\n      mstore\n      0x04\n      add\n      tag_272\n      swap1\n      tag_273\n      jump\t// in\n    tag_272:\n      mload(0x40)\n      dup1\n      swap2\n      sub\n      swap1\n      revert\n    tag_271:\n        /* \"contracts/CrowdTank.sol\":12919:13188  {... */\n      pop\n      pop\n        /* \"contracts/CrowdTank.sol\":12865:13188  function AdminWithdrawCommission() external OnlyAdmin {... */\n      jump\t// out\n        /* \"contracts/CrowdTank.sol\":941:992  mapping (address => bool) public AuthorizedCreators */\n    tag_95:\n      mstore(0x20, 0x07)\n      dup1\n      0x00\n      mstore\n      keccak256(0x00, 0x40)\n      0x00\n      swap2\n      pop\n      sload\n      swap1\n      0x0100\n      exp\n      swap1\n      div\n      0xff\n      and\n      dup2\n      jump\t// out\n        /* \"contracts/CrowdTank.sol\":394:419  uint public TotalProjects */\n    tag_100:\n      sload(0x02)\n      dup2\n      jump\t// out\n        /* \"contracts/CrowdTank.sol\":536:564  uint public systemCommission */\n    tag_104:\n      sload(0x04)\n      dup2\n      jump\t// out\n        /* \"contracts/CrowdTank.sol\":11481:12816  function userEarlyWithdraw( uint _projectID , uint withdrawn_amount) external payable {... */\n    tag_108:\n        /* \"contracts/CrowdTank.sol\":11578:11601  project storage Project */\n      0x00\n        /* \"contracts/CrowdTank.sol\":11604:11612  Projects */\n      0x09\n        /* \"contracts/CrowdTank.sol\":11604:11624  Projects[_projectID] */\n      0x00\n        /* \"contracts/CrowdTank.sol\":11613:11623  _projectID */\n      dup5\n        /* \"contracts/CrowdTank.sol\":11604:11624  Projects[_projectID] */\n      dup2\n      mstore\n      0x20\n      add\n      swap1\n      dup2\n      mstore\n      0x20\n      add\n      0x00\n      keccak256\n        /* \"contracts/CrowdTank.sol\":11578:11624  project storage Project = Projects[_projectID] */\n      swap1\n      pop\n        /* \"contracts/CrowdTank.sol\":11661:11668  Project */\n      dup1\n        /* \"contracts/CrowdTank.sol\":11661:11677  Project.deadline */\n      0x04\n      add\n      sload\n        /* \"contracts/CrowdTank.sol\":11643:11658  block.timestamp */\n      timestamp\n        /* \"contracts/CrowdTank.sol\":11643:11677  block.timestamp < Project.deadline */\n      lt\n        /* \"contracts/CrowdTank.sol\":11635:11712  require(block.timestamp < Project.deadline, \"Cannot withdraw after deadline\") */\n      tag_275\n      jumpi\n      mload(0x40)\n      0x08c379a000000000000000000000000000000000000000000000000000000000\n      dup2\n      mstore\n      0x04\n      add\n      tag_276\n      swap1\n      tag_277\n      jump\t// in\n    tag_276:\n      mload(0x40)\n      dup1\n      swap2\n      sub\n      swap1\n      revert\n    tag_275:\n        /* \"contracts/CrowdTank.sol\":11723:11746  uint contributed_amount */\n      0x00\n        /* \"contracts/CrowdTank.sol\":11749:11762  Contributions */\n      0x0a\n        /* \"contracts/CrowdTank.sol\":11749:11774  Contributions[_projectID] */\n      0x00\n        /* \"contracts/CrowdTank.sol\":11763:11773  _projectID */\n      dup6\n        /* \"contracts/CrowdTank.sol\":11749:11774  Contributions[_projectID] */\n      dup2\n      mstore\n      0x20\n      add\n      swap1\n      dup2\n      mstore\n      0x20\n      add\n      0x00\n      keccak256\n        /* \"contracts/CrowdTank.sol\":11749:11786  Contributions[_projectID][msg.sender] */\n      0x00\n        /* \"contracts/CrowdTank.sol\":11775:11785  msg.sender */\n      caller\n        /* \"contracts/CrowdTank.sol\":11749:11786  Contributions[_projectID][msg.sender] */\n      0xffffffffffffffffffffffffffffffffffffffff\n      and\n      0xffffffffffffffffffffffffffffffffffffffff\n      and\n      dup2\n      mstore\n      0x20\n      add\n      swap1\n      dup2\n      mstore\n      0x20\n      add\n      0x00\n      keccak256\n      sload\n        /* \"contracts/CrowdTank.sol\":11723:11786  uint contributed_amount = Contributions[_projectID][msg.sender] */\n      swap1\n      pop\n        /* \"contracts/CrowdTank.sol\":11826:11827  0 */\n      0x00\n        /* \"contracts/CrowdTank.sol\":11805:11823  contributed_amount */\n      dup2\n        /* \"contracts/CrowdTank.sol\":11805:11827  contributed_amount > 0 */\n      gt\n        /* \"contracts/CrowdTank.sol\":11797:11855  require(contributed_amount > 0 , \"No Funds to withdraw!!\") */\n      tag_278\n      jumpi\n      mload(0x40)\n      0x08c379a000000000000000000000000000000000000000000000000000000000\n      dup2\n      mstore\n      0x04\n      add\n      tag_279\n      swap1\n      tag_280\n      jump\t// in\n    tag_279:\n      mload(0x40)\n      dup1\n      swap2\n      sub\n      swap1\n      revert\n    tag_278:\n        /* \"contracts/CrowdTank.sol\":11894:11912  contributed_amount */\n      dup1\n        /* \"contracts/CrowdTank.sol\":11874:11890  withdrawn_amount */\n      dup4\n        /* \"contracts/CrowdTank.sol\":11874:11912  withdrawn_amount <= contributed_amount */\n      gt\n      iszero\n        /* \"contracts/CrowdTank.sol\":11866:11959  require(withdrawn_amount <= contributed_amount , \"Withdraw amount exceeds your contribution\") */\n      tag_281\n      jumpi\n      mload(0x40)\n      0x08c379a000000000000000000000000000000000000000000000000000000000\n      dup2\n      mstore\n      0x04\n      add\n      tag_282\n      swap1\n      tag_283\n      jump\t// in\n    tag_282:\n      mload(0x40)\n      dup1\n      swap2\n      sub\n      swap1\n      revert\n    tag_281:\n        /* \"contracts/CrowdTank.sol\":11972:11996  bool wasPreviouslyFunded */\n      0x00\n        /* \"contracts/CrowdTank.sol\":11999:12006  Project */\n      dup3\n        /* \"contracts/CrowdTank.sol\":11999:12013  Project.funded */\n      0x06\n      add\n      0x00\n      swap1\n      sload\n      swap1\n      0x0100\n      exp\n      swap1\n      div\n      0xff\n      and\n        /* \"contracts/CrowdTank.sol\":11972:12013  bool wasPreviouslyFunded = Project.funded */\n      swap1\n      pop\n        /* \"contracts/CrowdTank.sol\":12106:12122  withdrawn_amount */\n      dup4\n        /* \"contracts/CrowdTank.sol\":12082:12089  Project */\n      dup4\n        /* \"contracts/CrowdTank.sol\":12082:12102  Project.amountRaised */\n      0x05\n      add\n      0x00\n        /* \"contracts/CrowdTank.sol\":12082:12122  Project.amountRaised -= withdrawn_amount */\n      dup3\n      dup3\n      sload\n      tag_284\n      swap2\n      swap1\n      tag_138\n      jump\t// in\n    tag_284:\n      swap3\n      pop\n      pop\n      dup2\n      swap1\n      sstore\n      pop\n        /* \"contracts/CrowdTank.sol\":12174:12190  withdrawn_amount */\n      dup4\n        /* \"contracts/CrowdTank.sol\":12133:12146  Contributions */\n      0x0a\n        /* \"contracts/CrowdTank.sol\":12133:12158  Contributions[_projectID] */\n      0x00\n        /* \"contracts/CrowdTank.sol\":12147:12157  _projectID */\n      dup8\n        /* \"contracts/CrowdTank.sol\":12133:12158  Contributions[_projectID] */\n      dup2\n      mstore\n      0x20\n      add\n      swap1\n      dup2\n      mstore\n      0x20\n      add\n      0x00\n      keccak256\n        /* \"contracts/CrowdTank.sol\":12133:12170  Contributions[_projectID][msg.sender] */\n      0x00\n        /* \"contracts/CrowdTank.sol\":12159:12169  msg.sender */\n      caller\n        /* \"contracts/CrowdTank.sol\":12133:12170  Contributions[_projectID][msg.sender] */\n      0xffffffffffffffffffffffffffffffffffffffff\n      and\n      0xffffffffffffffffffffffffffffffffffffffff\n      and\n      dup2\n      mstore\n      0x20\n      add\n      swap1\n      dup2\n      mstore\n      0x20\n      add\n      0x00\n      keccak256\n      0x00\n        /* \"contracts/CrowdTank.sol\":12133:12190  Contributions[_projectID][msg.sender] -= withdrawn_amount */\n      dup3\n      dup3\n      sload\n      tag_285\n      swap2\n      swap1\n      tag_138\n      jump\t// in\n    tag_285:\n      swap3\n      pop\n      pop\n      dup2\n      swap1\n      sstore\n      pop\n        /* \"contracts/CrowdTank.sol\":12223:12239  withdrawn_amount */\n      dup4\n        /* \"contracts/CrowdTank.sol\":12201:12219  TotalRaisedFunding */\n      0x01\n      0x00\n        /* \"contracts/CrowdTank.sol\":12201:12239  TotalRaisedFunding -= withdrawn_amount */\n      dup3\n      dup3\n      sload\n      tag_286\n      swap2\n      swap1\n      tag_138\n      jump\t// in\n    tag_286:\n      swap3\n      pop\n      pop\n      dup2\n      swap1\n      sstore\n      pop\n        /* \"contracts/CrowdTank.sol\":12256:12275  wasPreviouslyFunded */\n      dup1\n        /* \"contracts/CrowdTank.sol\":12256:12321  wasPreviouslyFunded && Project.amountRaised < Project.fundingGoal */\n      dup1\n      iszero\n      tag_287\n      jumpi\n      pop\n        /* \"contracts/CrowdTank.sol\":12302:12309  Project */\n      dup3\n        /* \"contracts/CrowdTank.sol\":12302:12321  Project.fundingGoal */\n      0x03\n      add\n      sload\n        /* \"contracts/CrowdTank.sol\":12279:12286  Project */\n      dup4\n        /* \"contracts/CrowdTank.sol\":12279:12299  Project.amountRaised */\n      0x05\n      add\n      sload\n        /* \"contracts/CrowdTank.sol\":12279:12321  Project.amountRaised < Project.fundingGoal */\n      lt\n        /* \"contracts/CrowdTank.sol\":12256:12321  wasPreviouslyFunded && Project.amountRaised < Project.fundingGoal */\n    tag_287:\n        /* \"contracts/CrowdTank.sol\":12252:12567  if (wasPreviouslyFunded && Project.amountRaised < Project.fundingGoal) {... */\n      iszero\n      tag_288\n      jumpi\n        /* \"contracts/CrowdTank.sol\":12355:12360  false */\n      0x00\n        /* \"contracts/CrowdTank.sol\":12338:12345  Project */\n      dup4\n        /* \"contracts/CrowdTank.sol\":12338:12352  Project.funded */\n      0x06\n      add\n      0x00\n        /* \"contracts/CrowdTank.sol\":12338:12360  Project.funded = false */\n      0x0100\n      exp\n      dup2\n      sload\n      dup2\n      0xff\n      mul\n      not\n      and\n      swap1\n      dup4\n      iszero\n      iszero\n      mul\n      or\n      swap1\n      sstore\n      pop\n        /* \"contracts/CrowdTank.sol\":12402:12407  false */\n      0x00\n        /* \"contracts/CrowdTank.sol\":12375:12382  Project */\n      dup4\n        /* \"contracts/CrowdTank.sol\":12375:12399  Project.status_processed */\n      0x08\n      add\n      0x01\n        /* \"contracts/CrowdTank.sol\":12375:12407  Project.status_processed = false */\n      0x0100\n      exp\n      dup2\n      sload\n      dup2\n      0xff\n      mul\n      not\n      and\n      swap1\n      dup4\n      iszero\n      iszero\n      mul\n      or\n      swap1\n      sstore\n      pop\n        /* \"contracts/CrowdTank.sol\":12490:12491  0 */\n      0x00\n        /* \"contracts/CrowdTank.sol\":12461:12487  Successful_Funded_Projects */\n      sload(0x05)\n        /* \"contracts/CrowdTank.sol\":12461:12491  Successful_Funded_Projects > 0 */\n      gt\n        /* \"contracts/CrowdTank.sol\":12457:12556  if (Successful_Funded_Projects > 0) {... */\n      iszero\n      tag_289\n      jumpi\n        /* \"contracts/CrowdTank.sol\":12512:12538  Successful_Funded_Projects */\n      0x05\n      0x00\n        /* \"contracts/CrowdTank.sol\":12512:12540  Successful_Funded_Projects-- */\n      dup2\n      sload\n      dup1\n      swap3\n      swap2\n      swap1\n      tag_290\n      swap1\n      tag_175\n      jump\t// in\n    tag_290:\n      swap2\n      swap1\n      pop\n      sstore\n      pop\n        /* \"contracts/CrowdTank.sol\":12457:12556  if (Successful_Funded_Projects > 0) {... */\n    tag_289:\n        /* \"contracts/CrowdTank.sol\":12252:12567  if (wasPreviouslyFunded && Project.amountRaised < Project.fundingGoal) {... */\n    tag_288:\n        /* \"contracts/CrowdTank.sol\":12614:12623  bool sent */\n      0x00\n        /* \"contracts/CrowdTank.sol\":12637:12647  msg.sender */\n      caller\n        /* \"contracts/CrowdTank.sol\":12629:12653  payable(msg.sender).call */\n      0xffffffffffffffffffffffffffffffffffffffff\n      and\n        /* \"contracts/CrowdTank.sol\":12662:12678  withdrawn_amount */\n      dup6\n        /* \"contracts/CrowdTank.sol\":12629:12683  payable(msg.sender).call{value : withdrawn_amount}(\"\") */\n      mload(0x40)\n      tag_291\n      swap1\n      tag_177\n      jump\t// in\n    tag_291:\n      0x00\n      mload(0x40)\n      dup1\n      dup4\n      sub\n      dup2\n      dup6\n      dup8\n      gas\n      call\n      swap3\n      pop\n      pop\n      pop\n      returndatasize\n      dup1\n      0x00\n      dup2\n      eq\n      tag_294\n      jumpi\n      mload(0x40)\n      swap2\n      pop\n      and(add(returndatasize, 0x3f), not(0x1f))\n      dup3\n      add\n      0x40\n      mstore\n      returndatasize\n      dup3\n      mstore\n      returndatasize\n      0x00\n      0x20\n      dup5\n      add\n      returndatacopy\n      jump(tag_293)\n    tag_294:\n      0x60\n      swap2\n      pop\n    tag_293:\n      pop\n        /* \"contracts/CrowdTank.sol\":12613:12683  (bool sent, ) = payable(msg.sender).call{value : withdrawn_amount}(\"\") */\n      pop\n      swap1\n      pop\n        /* \"contracts/CrowdTank.sol\":12702:12706  sent */\n      dup1\n        /* \"contracts/CrowdTank.sol\":12694:12731  require(sent , \"withdraw failed!!!!\") */\n      tag_295\n      jumpi\n      mload(0x40)\n      0x08c379a000000000000000000000000000000000000000000000000000000000\n      dup2\n      mstore\n      0x04\n      add\n      tag_296\n      swap1\n      tag_297\n      jump\t// in\n    tag_296:\n      mload(0x40)\n      dup1\n      swap2\n      sub\n      swap1\n      revert\n    tag_295:\n        /* \"contracts/CrowdTank.sol\":12779:12789  _projectID */\n      dup6\n        /* \"contracts/CrowdTank.sol\":12767:12777  msg.sender */\n      caller\n        /* \"contracts/CrowdTank.sol\":12749:12808  UserEarlyWithdraw(msg.sender, _projectID, withdrawn_amount) */\n      0xffffffffffffffffffffffffffffffffffffffff\n      and\n      0xb37480540ffb97ff520a59b38ea1a83aefbfd3d2a956d958a00214b8b6551f28\n        /* \"contracts/CrowdTank.sol\":12791:12807  withdrawn_amount */\n      dup8\n        /* \"contracts/CrowdTank.sol\":12749:12808  UserEarlyWithdraw(msg.sender, _projectID, withdrawn_amount) */\n      mload(0x40)\n      tag_298\n      swap2\n      swap1\n      tag_51\n      jump\t// in\n    tag_298:\n      mload(0x40)\n      dup1\n      swap2\n      sub\n      swap1\n      log3\n        /* \"contracts/CrowdTank.sol\":11567:12816  {... */\n      pop\n      pop\n      pop\n      pop\n        /* \"contracts/CrowdTank.sol\":11481:12816  function userEarlyWithdraw( uint _projectID , uint withdrawn_amount) external payable {... */\n      pop\n      pop\n      jump\t// out\n        /* \"contracts/CrowdTank.sol\":5803:6661  function UpdateProjectStatus() public {... */\n    tag_111:\n        /* \"contracts/CrowdTank.sol\":5861:5867  uint i */\n      0x00\n        /* \"contracts/CrowdTank.sol\":5870:5871  0 */\n      0x00\n        /* \"contracts/CrowdTank.sol\":5861:5871  uint i = 0 */\n      swap1\n      pop\n        /* \"contracts/CrowdTank.sol\":5856:6650  for (uint i = 0; i < projectIDs.length; i++) {... */\n    tag_300:\n        /* \"contracts/CrowdTank.sol\":5877:5887  projectIDs */\n      0x0c\n        /* \"contracts/CrowdTank.sol\":5877:5894  projectIDs.length */\n      dup1\n      sload\n      swap1\n      pop\n        /* \"contracts/CrowdTank.sol\":5873:5874  i */\n      dup2\n        /* \"contracts/CrowdTank.sol\":5873:5894  i < projectIDs.length */\n      lt\n        /* \"contracts/CrowdTank.sol\":5856:6650  for (uint i = 0; i < projectIDs.length; i++) {... */\n      iszero\n      tag_301\n      jumpi\n        /* \"contracts/CrowdTank.sol\":5920:5934  uint projectID */\n      0x00\n        /* \"contracts/CrowdTank.sol\":5937:5947  projectIDs */\n      0x0c\n        /* \"contracts/CrowdTank.sol\":5948:5949  i */\n      dup3\n        /* \"contracts/CrowdTank.sol\":5937:5950  projectIDs[i] */\n      dup2\n      sload\n      dup2\n      lt\n      tag_303\n      jumpi\n      tag_304\n      tag_305\n      jump\t// in\n    tag_304:\n    tag_303:\n      swap1\n      0x00\n      mstore\n      keccak256(0x00, 0x20)\n      add\n      sload\n        /* \"contracts/CrowdTank.sol\":5920:5950  uint projectID = projectIDs[i] */\n      swap1\n      pop\n        /* \"contracts/CrowdTank.sol\":5969:5992  project storage Project */\n      0x00\n        /* \"contracts/CrowdTank.sol\":5995:6003  Projects */\n      0x09\n        /* \"contracts/CrowdTank.sol\":5995:6014  Projects[projectID] */\n      0x00\n        /* \"contracts/CrowdTank.sol\":6004:6013  projectID */\n      dup4\n        /* \"contracts/CrowdTank.sol\":5995:6014  Projects[projectID] */\n      dup2\n      mstore\n      0x20\n      add\n      swap1\n      dup2\n      mstore\n      0x20\n      add\n      0x00\n      keccak256\n        /* \"contracts/CrowdTank.sol\":5969:6014  project storage Project = Projects[projectID] */\n      swap1\n      pop\n        /* \"contracts/CrowdTank.sol\":6038:6045  Project */\n      dup1\n        /* \"contracts/CrowdTank.sol\":6038:6062  Project.status_processed */\n      0x08\n      add\n      0x01\n      swap1\n      sload\n      swap1\n      0x0100\n      exp\n      swap1\n      div\n      0xff\n      and\n        /* \"contracts/CrowdTank.sol\":6037:6062  !Project.status_processed */\n      iszero\n        /* \"contracts/CrowdTank.sol\":6037:6101  !Project.status_processed && block.timestamp >= Project.deadline */\n      dup1\n      iszero\n      tag_307\n      jumpi\n      pop\n        /* \"contracts/CrowdTank.sol\":6085:6092  Project */\n      dup1\n        /* \"contracts/CrowdTank.sol\":6085:6101  Project.deadline */\n      0x04\n      add\n      sload\n        /* \"contracts/CrowdTank.sol\":6066:6081  block.timestamp */\n      timestamp\n        /* \"contracts/CrowdTank.sol\":6066:6101  block.timestamp >= Project.deadline */\n      lt\n      iszero\n        /* \"contracts/CrowdTank.sol\":6037:6101  !Project.status_processed && block.timestamp >= Project.deadline */\n    tag_307:\n        /* \"contracts/CrowdTank.sol\":6033:6635  if (!Project.status_processed && block.timestamp >= Project.deadline) {... */\n      iszero\n      tag_308\n      jumpi\n        /* \"contracts/CrowdTank.sol\":6153:6157  true */\n      0x01\n        /* \"contracts/CrowdTank.sol\":6126:6133  Project */\n      dup2\n        /* \"contracts/CrowdTank.sol\":6126:6150  Project.status_processed */\n      0x08\n      add\n      0x01\n        /* \"contracts/CrowdTank.sol\":6126:6157  Project.status_processed = true */\n      0x0100\n      exp\n      dup2\n      sload\n      dup2\n      0xff\n      mul\n      not\n      and\n      swap1\n      dup4\n      iszero\n      iszero\n      mul\n      or\n      swap1\n      sstore\n      pop\n        /* \"contracts/CrowdTank.sol\":6208:6215  Project */\n      dup1\n        /* \"contracts/CrowdTank.sol\":6208:6227  Project.fundingGoal */\n      0x03\n      add\n      sload\n        /* \"contracts/CrowdTank.sol\":6184:6191  Project */\n      dup2\n        /* \"contracts/CrowdTank.sol\":6184:6204  Project.amountRaised */\n      0x05\n      add\n      sload\n        /* \"contracts/CrowdTank.sol\":6184:6227  Project.amountRaised >= Project.fundingGoal */\n      lt\n      iszero\n        /* \"contracts/CrowdTank.sol\":6184:6266  Project.amountRaised >= Project.fundingGoal && block.timestamp >= Project.deadline */\n      dup1\n      iszero\n      tag_309\n      jumpi\n      pop\n        /* \"contracts/CrowdTank.sol\":6250:6257  Project */\n      dup1\n        /* \"contracts/CrowdTank.sol\":6250:6266  Project.deadline */\n      0x04\n      add\n      sload\n        /* \"contracts/CrowdTank.sol\":6231:6246  block.timestamp */\n      timestamp\n        /* \"contracts/CrowdTank.sol\":6231:6266  block.timestamp >= Project.deadline */\n      lt\n      iszero\n        /* \"contracts/CrowdTank.sol\":6184:6266  Project.amountRaised >= Project.fundingGoal && block.timestamp >= Project.deadline */\n    tag_309:\n        /* \"contracts/CrowdTank.sol\":6180:6616  if (Project.amountRaised >= Project.fundingGoal && block.timestamp >= Project.deadline) {... */\n      iszero\n      tag_310\n      jumpi\n        /* \"contracts/CrowdTank.sol\":6300:6307  Project */\n      dup1\n        /* \"contracts/CrowdTank.sol\":6300:6314  Project.funded */\n      0x06\n      add\n      0x00\n      swap1\n      sload\n      swap1\n      0x0100\n      exp\n      swap1\n      div\n      0xff\n      and\n        /* \"contracts/CrowdTank.sol\":6295:6455  if (!Project.funded) {... */\n      tag_311\n      jumpi\n        /* \"contracts/CrowdTank.sol\":6364:6368  true */\n      0x01\n        /* \"contracts/CrowdTank.sol\":6347:6354  Project */\n      dup2\n        /* \"contracts/CrowdTank.sol\":6347:6361  Project.funded */\n      0x06\n      add\n      0x00\n        /* \"contracts/CrowdTank.sol\":6347:6368  Project.funded = true */\n      0x0100\n      exp\n      dup2\n      sload\n      dup2\n      0xff\n      mul\n      not\n      and\n      swap1\n      dup4\n      iszero\n      iszero\n      mul\n      or\n      swap1\n      sstore\n      pop\n        /* \"contracts/CrowdTank.sol\":6399:6425  Successful_Funded_Projects */\n      0x05\n      0x00\n        /* \"contracts/CrowdTank.sol\":6399:6427  Successful_Funded_Projects++ */\n      dup2\n      sload\n      dup1\n      swap3\n      swap2\n      swap1\n      tag_312\n      swap1\n      tag_239\n      jump\t// in\n    tag_312:\n      swap2\n      swap1\n      pop\n      sstore\n      pop\n        /* \"contracts/CrowdTank.sol\":6295:6455  if (!Project.funded) {... */\n    tag_311:\n        /* \"contracts/CrowdTank.sol\":6180:6616  if (Project.amountRaised >= Project.fundingGoal && block.timestamp >= Project.deadline) {... */\n      jump(tag_313)\n    tag_310:\n        /* \"contracts/CrowdTank.sol\":6537:6541  true */\n      0x01\n        /* \"contracts/CrowdTank.sol\":6511:6518  Project */\n      dup2\n        /* \"contracts/CrowdTank.sol\":6511:6534  Project.failed_projects */\n      0x08\n      add\n      0x00\n        /* \"contracts/CrowdTank.sol\":6511:6541  Project.failed_projects = true */\n      0x0100\n      exp\n      dup2\n      sload\n      dup2\n      0xff\n      mul\n      not\n      and\n      swap1\n      dup4\n      iszero\n      iszero\n      mul\n      or\n      swap1\n      sstore\n      pop\n        /* \"contracts/CrowdTank.sol\":6568:6590  Failed_Funded_Projects */\n      0x06\n      0x00\n        /* \"contracts/CrowdTank.sol\":6568:6592  Failed_Funded_Projects++ */\n      dup2\n      sload\n      dup1\n      swap3\n      swap2\n      swap1\n      tag_314\n      swap1\n      tag_239\n      jump\t// in\n    tag_314:\n      swap2\n      swap1\n      pop\n      sstore\n      pop\n        /* \"contracts/CrowdTank.sol\":6180:6616  if (Project.amountRaised >= Project.fundingGoal && block.timestamp >= Project.deadline) {... */\n    tag_313:\n        /* \"contracts/CrowdTank.sol\":6033:6635  if (!Project.status_processed && block.timestamp >= Project.deadline) {... */\n    tag_308:\n        /* \"contracts/CrowdTank.sol\":5901:6650  {... */\n      pop\n      pop\n        /* \"contracts/CrowdTank.sol\":5896:5899  i++ */\n      dup1\n      dup1\n      0x01\n      add\n      swap2\n      pop\n      pop\n        /* \"contracts/CrowdTank.sol\":5856:6650  for (uint i = 0; i < projectIDs.length; i++) {... */\n      jump(tag_300)\n    tag_301:\n      pop\n        /* \"contracts/CrowdTank.sol\":5803:6661  function UpdateProjectStatus() public {... */\n      jump\t// out\n        /* \"contracts/CrowdTank.sol\":2732:3704  function createProject(string memory _name , string memory _description , uint _fundingGoal , uint _durationSeconds , uint _id) external {... */\n    tag_116:\n        /* \"contracts/CrowdTank.sol\":2889:2897  isIdUsed */\n      0x0b\n        /* \"contracts/CrowdTank.sol\":2889:2902  isIdUsed[_id] */\n      0x00\n        /* \"contracts/CrowdTank.sol\":2898:2901  _id */\n      dup3\n        /* \"contracts/CrowdTank.sol\":2889:2902  isIdUsed[_id] */\n      dup2\n      mstore\n      0x20\n      add\n      swap1\n      dup2\n      mstore\n      0x20\n      add\n      0x00\n      keccak256\n      0x00\n      swap1\n      sload\n      swap1\n      0x0100\n      exp\n      swap1\n      div\n      0xff\n      and\n        /* \"contracts/CrowdTank.sol\":2888:2902  !isIdUsed[_id] */\n      iszero\n        /* \"contracts/CrowdTank.sol\":2880:2937  require(!isIdUsed[_id], \"Project ID is already in use!\" ) */\n      tag_316\n      jumpi\n      mload(0x40)\n      0x08c379a000000000000000000000000000000000000000000000000000000000\n      dup2\n      mstore\n      0x04\n      add\n      tag_317\n      swap1\n      tag_318\n      jump\t// in\n    tag_317:\n      mload(0x40)\n      dup1\n      swap2\n      sub\n      swap1\n      revert\n    tag_316:\n        /* \"contracts/CrowdTank.sol\":2956:2974  AuthorizedCreators */\n      0x07\n        /* \"contracts/CrowdTank.sol\":2956:2986  AuthorizedCreators[msg.sender] */\n      0x00\n        /* \"contracts/CrowdTank.sol\":2975:2985  msg.sender */\n      caller\n        /* \"contracts/CrowdTank.sol\":2956:2986  AuthorizedCreators[msg.sender] */\n      0xffffffffffffffffffffffffffffffffffffffff\n      and\n      0xffffffffffffffffffffffffffffffffffffffff\n      and\n      dup2\n      mstore\n      0x20\n      add\n      swap1\n      dup2\n      mstore\n      0x20\n      add\n      0x00\n      keccak256\n      0x00\n      swap1\n      sload\n      swap1\n      0x0100\n      exp\n      swap1\n      div\n      0xff\n      and\n        /* \"contracts/CrowdTank.sol\":2948:3029  require(AuthorizedCreators[msg.sender] , \"Only Authorized creators can access!!\") */\n      tag_319\n      jumpi\n      mload(0x40)\n      0x08c379a000000000000000000000000000000000000000000000000000000000\n      dup2\n      mstore\n      0x04\n      add\n      tag_320\n      swap1\n      tag_321\n      jump\t// in\n    tag_320:\n      mload(0x40)\n      dup1\n      swap2\n      sub\n      swap1\n      revert\n    tag_319:\n        /* \"contracts/CrowdTank.sol\":3056:3060  true */\n      0x01\n        /* \"contracts/CrowdTank.sol\":3040:3048  isIdUsed */\n      0x0b\n        /* \"contracts/CrowdTank.sol\":3040:3053  isIdUsed[_id] */\n      0x00\n        /* \"contracts/CrowdTank.sol\":3049:3052  _id */\n      dup4\n        /* \"contracts/CrowdTank.sol\":3040:3053  isIdUsed[_id] */\n      dup2\n      mstore\n      0x20\n      add\n      swap1\n      dup2\n      mstore\n      0x20\n      add\n      0x00\n      keccak256\n      0x00\n        /* \"contracts/CrowdTank.sol\":3040:3060  isIdUsed[_id] = true */\n      0x0100\n      exp\n      dup2\n      sload\n      dup2\n      0xff\n      mul\n      not\n      and\n      swap1\n      dup4\n      iszero\n      iszero\n      mul\n      or\n      swap1\n      sstore\n      pop\n        /* \"contracts/CrowdTank.sol\":3087:3518  project({... */\n      mload(0x40)\n      dup1\n      0x0160\n      add\n      0x40\n      mstore\n      dup1\n        /* \"contracts/CrowdTank.sol\":3120:3130  msg.sender */\n      caller\n        /* \"contracts/CrowdTank.sol\":3087:3518  project({... */\n      0xffffffffffffffffffffffffffffffffffffffff\n      and\n      dup2\n      mstore\n      0x20\n      add\n        /* \"contracts/CrowdTank.sol\":3151:3156  _name */\n      dup7\n        /* \"contracts/CrowdTank.sol\":3087:3518  project({... */\n      dup2\n      mstore\n      0x20\n      add\n        /* \"contracts/CrowdTank.sol\":3184:3196  _description */\n      dup6\n        /* \"contracts/CrowdTank.sol\":3087:3518  project({... */\n      dup2\n      mstore\n      0x20\n      add\n        /* \"contracts/CrowdTank.sol\":3224:3236  _fundingGoal */\n      dup5\n        /* \"contracts/CrowdTank.sol\":3087:3518  project({... */\n      dup2\n      mstore\n      0x20\n      add\n        /* \"contracts/CrowdTank.sol\":3279:3295  _durationSeconds */\n      dup4\n        /* \"contracts/CrowdTank.sol\":3261:3276  block.timestamp */\n      timestamp\n        /* \"contracts/CrowdTank.sol\":3261:3295  block.timestamp + _durationSeconds */\n      tag_322\n      swap2\n      swap1\n      tag_198\n      jump\t// in\n    tag_322:\n        /* \"contracts/CrowdTank.sol\":3087:3518  project({... */\n      dup2\n      mstore\n      0x20\n      add\n        /* \"contracts/CrowdTank.sol\":3324:3325  0 */\n      0x00\n        /* \"contracts/CrowdTank.sol\":3087:3518  project({... */\n      dup2\n      mstore\n      0x20\n      add\n        /* \"contracts/CrowdTank.sol\":3348:3353  false */\n      0x00\n        /* \"contracts/CrowdTank.sol\":3087:3518  project({... */\n      iszero\n      iszero\n      dup2\n      mstore\n      0x20\n      add\n        /* \"contracts/CrowdTank.sol\":3392:3393  0 */\n      0x00\n        /* \"contracts/CrowdTank.sol\":3087:3518  project({... */\n      0xffffffffffffffffffffffffffffffffffffffff\n      and\n      dup2\n      mstore\n      0x20\n      add\n        /* \"contracts/CrowdTank.sol\":3430:3431  0 */\n      0x00\n        /* \"contracts/CrowdTank.sol\":3087:3518  project({... */\n      dup2\n      mstore\n      0x20\n      add\n        /* \"contracts/CrowdTank.sol\":3463:3468  false */\n      0x00\n        /* \"contracts/CrowdTank.sol\":3087:3518  project({... */\n      iszero\n      iszero\n      dup2\n      mstore\n      0x20\n      add\n        /* \"contracts/CrowdTank.sol\":3501:3506  false */\n      0x00\n        /* \"contracts/CrowdTank.sol\":3087:3518  project({... */\n      iszero\n      iszero\n      dup2\n      mstore\n      pop\n        /* \"contracts/CrowdTank.sol\":3071:3079  Projects */\n      0x09\n        /* \"contracts/CrowdTank.sol\":3071:3084  Projects[_id] */\n      0x00\n        /* \"contracts/CrowdTank.sol\":3080:3083  _id */\n      dup4\n        /* \"contracts/CrowdTank.sol\":3071:3084  Projects[_id] */\n      dup2\n      mstore\n      0x20\n      add\n      swap1\n      dup2\n      mstore\n      0x20\n      add\n      0x00\n      keccak256\n        /* \"contracts/CrowdTank.sol\":3071:3518  Projects[_id] = project({... */\n      0x00\n      dup3\n      add\n      mload\n      dup2\n      0x00\n      add\n      exp(0x0100, 0x00)\n      dup2\n      sload\n      dup2\n      0xffffffffffffffffffffffffffffffffffffffff\n      mul\n      not\n      and\n      swap1\n      dup4\n      0xffffffffffffffffffffffffffffffffffffffff\n      and\n      mul\n      or\n      swap1\n      sstore\n      pop\n      0x20\n      dup3\n      add\n      mload\n      dup2\n      0x01\n      add\n      swap1\n      dup2\n      tag_323\n      swap2\n      swap1\n      tag_324\n      jump\t// in\n    tag_323:\n      pop\n      0x40\n      dup3\n      add\n      mload\n      dup2\n      0x02\n      add\n      swap1\n      dup2\n      tag_325\n      swap2\n      swap1\n      tag_324\n      jump\t// in\n    tag_325:\n      pop\n      0x60\n      dup3\n      add\n      mload\n      dup2\n      0x03\n      add\n      sstore\n      0x80\n      dup3\n      add\n      mload\n      dup2\n      0x04\n      add\n      sstore\n      0xa0\n      dup3\n      add\n      mload\n      dup2\n      0x05\n      add\n      sstore\n      0xc0\n      dup3\n      add\n      mload\n      dup2\n      0x06\n      add\n      exp(0x0100, 0x00)\n      dup2\n      sload\n      dup2\n      0xff\n      mul\n      not\n      and\n      swap1\n      dup4\n      iszero\n      iszero\n      mul\n      or\n      swap1\n      sstore\n      pop\n      0xe0\n      dup3\n      add\n      mload\n      dup2\n      0x06\n      add\n      exp(0x0100, 0x01)\n      dup2\n      sload\n      dup2\n      0xffffffffffffffffffffffffffffffffffffffff\n      mul\n      not\n      and\n      swap1\n      dup4\n      0xffffffffffffffffffffffffffffffffffffffff\n      and\n      mul\n      or\n      swap1\n      sstore\n      pop\n      0x0100\n      dup3\n      add\n      mload\n      dup2\n      0x07\n      add\n      sstore\n      0x0120\n      dup3\n      add\n      mload\n      dup2\n      0x08\n      add\n      exp(0x0100, 0x00)\n      dup2\n      sload\n      dup2\n      0xff\n      mul\n      not\n      and\n      swap1\n      dup4\n      iszero\n      iszero\n      mul\n      or\n      swap1\n      sstore\n      pop\n      0x0140\n      dup3\n      add\n      mload\n      dup2\n      0x08\n      add\n      exp(0x0100, 0x01)\n      dup2\n      sload\n      dup2\n      0xff\n      mul\n      not\n      and\n      swap1\n      dup4\n      iszero\n      iszero\n      mul\n      or\n      swap1\n      sstore\n      pop\n      swap1\n      pop\n      pop\n        /* \"contracts/CrowdTank.sol\":3529:3542  TotalProjects */\n      0x02\n      0x00\n        /* \"contracts/CrowdTank.sol\":3529:3544  TotalProjects++ */\n      dup2\n      sload\n      dup1\n      swap3\n      swap2\n      swap1\n      tag_326\n      swap1\n      tag_239\n      jump\t// in\n    tag_326:\n      swap2\n      swap1\n      pop\n      sstore\n      pop\n        /* \"contracts/CrowdTank.sol\":3555:3565  projectIDs */\n      0x0c\n        /* \"contracts/CrowdTank.sol\":3571:3574  _id */\n      dup2\n        /* \"contracts/CrowdTank.sol\":3555:3575  projectIDs.push(_id) */\n      swap1\n      dup1\n      0x01\n      dup2\n      sload\n      add\n      dup1\n      dup3\n      sstore\n      dup1\n      swap2\n      pop\n      pop\n      0x01\n      swap1\n      sub\n      swap1\n      0x00\n      mstore\n      keccak256(0x00, 0x20)\n      add\n      0x00\n      swap1\n      swap2\n      swap1\n      swap2\n      swap1\n      swap2\n      pop\n      sstore\n        /* \"contracts/CrowdTank.sol\":3612:3622  msg.sender */\n      caller\n        /* \"contracts/CrowdTank.sol\":3591:3696  ProjectCreated(_id , msg.sender , _name , _description , _fundingGoal , block.timestamp+_durationSeconds) */\n      0xffffffffffffffffffffffffffffffffffffffff\n      and\n        /* \"contracts/CrowdTank.sol\":3606:3609  _id */\n      dup2\n        /* \"contracts/CrowdTank.sol\":3591:3696  ProjectCreated(_id , msg.sender , _name , _description , _fundingGoal , block.timestamp+_durationSeconds) */\n      0xac9b83534845c9e785a6ea70f2d809db1d72ef9a1d981753712d922f5cb55f39\n        /* \"contracts/CrowdTank.sol\":3625:3630  _name */\n      dup8\n        /* \"contracts/CrowdTank.sol\":3633:3645  _description */\n      dup8\n        /* \"contracts/CrowdTank.sol\":3648:3660  _fundingGoal */\n      dup8\n        /* \"contracts/CrowdTank.sol\":3679:3695  _durationSeconds */\n      dup8\n        /* \"contracts/CrowdTank.sol\":3663:3678  block.timestamp */\n      timestamp\n        /* \"contracts/CrowdTank.sol\":3663:3695  block.timestamp+_durationSeconds */\n      tag_328\n      swap2\n      swap1\n      tag_198\n      jump\t// in\n    tag_328:\n        /* \"contracts/CrowdTank.sol\":3591:3696  ProjectCreated(_id , msg.sender , _name , _description , _fundingGoal , block.timestamp+_durationSeconds) */\n      mload(0x40)\n      tag_329\n      swap5\n      swap4\n      swap3\n      swap2\n      swap1\n      tag_330\n      jump\t// in\n    tag_329:\n      mload(0x40)\n      dup1\n      swap2\n      sub\n      swap1\n      log3\n        /* \"contracts/CrowdTank.sol\":2732:3704  function createProject(string memory _name , string memory _description , uint _fundingGoal , uint _durationSeconds , uint _id) external {... */\n      pop\n      pop\n      pop\n      pop\n      pop\n      jump\t// out\n        /* \"contracts/CrowdTank.sol\":468:488  address public admin */\n    tag_119:\n      0x03\n      0x00\n      swap1\n      sload\n      swap1\n      0x0100\n      exp\n      swap1\n      div\n      0xffffffffffffffffffffffffffffffffffffffff\n      and\n      dup2\n      jump\t// out\n        /* \"contracts/CrowdTank.sol\":7116:7585  function ProjectStatistics() public view returns(... */\n    tag_124:\n        /* \"contracts/CrowdTank.sol\":7175:7193  uint totalProjects */\n      0x00\n        /* \"contracts/CrowdTank.sol\":7204:7227  uint successfulProjects */\n      0x00\n        /* \"contracts/CrowdTank.sol\":7238:7257  uint failedProjects */\n      0x00\n        /* \"contracts/CrowdTank.sol\":7268:7287  uint activeProjects */\n      0x00\n        /* \"contracts/CrowdTank.sol\":7298:7319  uint totalFundsRaised */\n      0x00\n        /* \"contracts/CrowdTank.sol\":7360:7373  TotalProjects */\n      sload(0x02)\n        /* \"contracts/CrowdTank.sol\":7388:7414  Successful_Funded_Projects */\n      sload(0x05)\n        /* \"contracts/CrowdTank.sol\":7429:7451  Failed_Funded_Projects */\n      sload(0x06)\n        /* \"contracts/CrowdTank.sol\":7511:7533  Failed_Funded_Projects */\n      sload(0x06)\n        /* \"contracts/CrowdTank.sol\":7482:7508  Successful_Funded_Projects */\n      sload(0x05)\n        /* \"contracts/CrowdTank.sol\":7466:7479  TotalProjects */\n      sload(0x02)\n        /* \"contracts/CrowdTank.sol\":7466:7508  TotalProjects - Successful_Funded_Projects */\n      tag_332\n      swap2\n      swap1\n      tag_138\n      jump\t// in\n    tag_332:\n        /* \"contracts/CrowdTank.sol\":7466:7533  TotalProjects - Successful_Funded_Projects - Failed_Funded_Projects */\n      tag_333\n      swap2\n      swap1\n      tag_138\n      jump\t// in\n    tag_333:\n        /* \"contracts/CrowdTank.sol\":7548:7566  TotalRaisedFunding */\n      sload(0x01)\n        /* \"contracts/CrowdTank.sol\":7338:7577  return (... */\n      swap5\n      pop\n      swap5\n      pop\n      swap5\n      pop\n      swap5\n      pop\n      swap5\n      pop\n        /* \"contracts/CrowdTank.sol\":7116:7585  function ProjectStatistics() public view returns(... */\n      swap1\n      swap2\n      swap3\n      swap4\n      swap5\n      jump\t// out\n        /* \"contracts/CrowdTank.sol\":1001:1156  function Add_Creators( address _creator ) external OnlyAdmin {... */\n    tag_130:\n        /* \"contracts/CrowdTank.sol\":850:860  msg.sender */\n      caller\n        /* \"contracts/CrowdTank.sol\":841:860  admin == msg.sender */\n      0xffffffffffffffffffffffffffffffffffffffff\n      and\n        /* \"contracts/CrowdTank.sol\":841:846  admin */\n      0x03\n      0x00\n      swap1\n      sload\n      swap1\n      0x0100\n      exp\n      swap1\n      div\n      0xffffffffffffffffffffffffffffffffffffffff\n      and\n        /* \"contracts/CrowdTank.sol\":841:860  admin == msg.sender */\n      0xffffffffffffffffffffffffffffffffffffffff\n      and\n      eq\n        /* \"contracts/CrowdTank.sol\":833:887  require(admin == msg.sender , \"Only Admin can access\") */\n      tag_335\n      jumpi\n      mload(0x40)\n      0x08c379a000000000000000000000000000000000000000000000000000000000\n      dup2\n      mstore\n      0x04\n      add\n      tag_336\n      swap1\n      tag_258\n      jump\t// in\n    tag_336:\n      mload(0x40)\n      dup1\n      swap2\n      sub\n      swap1\n      revert\n    tag_335:\n        /* \"contracts/CrowdTank.sol\":1104:1108  true */\n      0x01\n        /* \"contracts/CrowdTank.sol\":1073:1091  AuthorizedCreators */\n      0x07\n        /* \"contracts/CrowdTank.sol\":1073:1101  AuthorizedCreators[_creator] */\n      0x00\n        /* \"contracts/CrowdTank.sol\":1092:1100  _creator */\n      dup4\n        /* \"contracts/CrowdTank.sol\":1073:1101  AuthorizedCreators[_creator] */\n      0xffffffffffffffffffffffffffffffffffffffff\n      and\n      0xffffffffffffffffffffffffffffffffffffffff\n      and\n      dup2\n      mstore\n      0x20\n      add\n      swap1\n      dup2\n      mstore\n      0x20\n      add\n      0x00\n      keccak256\n      0x00\n        /* \"contracts/CrowdTank.sol\":1073:1108  AuthorizedCreators[_creator] = true */\n      0x0100\n      exp\n      dup2\n      sload\n      dup2\n      0xff\n      mul\n      not\n      and\n      swap1\n      dup4\n      iszero\n      iszero\n      mul\n      or\n      swap1\n      sstore\n      pop\n        /* \"contracts/CrowdTank.sol\":1139:1147  _creator */\n      dup1\n        /* \"contracts/CrowdTank.sol\":1126:1148  addedCreator(_creator) */\n      0xffffffffffffffffffffffffffffffffffffffff\n      and\n      0x1f9f86dc4a3ce57ee42e33c59def65713163420d0ab979169ef129299ff2b85e\n      mload(0x40)\n      mload(0x40)\n      dup1\n      swap2\n      sub\n      swap1\n      log2\n        /* \"contracts/CrowdTank.sol\":1001:1156  function Add_Creators( address _creator ) external OnlyAdmin {... */\n      pop\n      jump\t// out\n        /* \"@openzeppelin/contracts/utils/ReentrancyGuard.sol\":2575:2882  function _nonReentrantBefore() private {... */\n    tag_201:\n        /* \"@openzeppelin/contracts/utils/ReentrancyGuard.sol\":1899:1900  2 */\n      0x02\n        /* \"@openzeppelin/contracts/utils/ReentrancyGuard.sol\":2702:2709  _status */\n      sload(0x00)\n        /* \"@openzeppelin/contracts/utils/ReentrancyGuard.sol\":2702:2720  _status == ENTERED */\n      sub\n        /* \"@openzeppelin/contracts/utils/ReentrancyGuard.sol\":2698:2784  if (_status == ENTERED) {... */\n      tag_339\n      jumpi\n        /* \"@openzeppelin/contracts/utils/ReentrancyGuard.sol\":2743:2773  ReentrancyGuardReentrantCall() */\n      mload(0x40)\n      0x3ee5aeb500000000000000000000000000000000000000000000000000000000\n      dup2\n      mstore\n      0x04\n      add\n      mload(0x40)\n      dup1\n      swap2\n      sub\n      swap1\n      revert\n        /* \"@openzeppelin/contracts/utils/ReentrancyGuard.sol\":2698:2784  if (_status == ENTERED) {... */\n    tag_339:\n        /* \"@openzeppelin/contracts/utils/ReentrancyGuard.sol\":1899:1900  2 */\n      0x02\n        /* \"@openzeppelin/contracts/utils/ReentrancyGuard.sol\":2858:2865  _status */\n      0x00\n        /* \"@openzeppelin/contracts/utils/ReentrancyGuard.sol\":2858:2875  _status = ENTERED */\n      dup2\n      swap1\n      sstore\n      pop\n        /* \"@openzeppelin/contracts/utils/ReentrancyGuard.sol\":2575:2882  function _nonReentrantBefore() private {... */\n      jump\t// out\n        /* \"@openzeppelin/contracts/utils/ReentrancyGuard.sol\":2888:3096  function _nonReentrantAfter() private {... */\n    tag_241:\n        /* \"@openzeppelin/contracts/utils/ReentrancyGuard.sol\":1857:1858  1 */\n      0x01\n        /* \"@openzeppelin/contracts/utils/ReentrancyGuard.sol\":3068:3075  _status */\n      0x00\n        /* \"@openzeppelin/contracts/utils/ReentrancyGuard.sol\":3068:3089  _status = NOT_ENTERED */\n      dup2\n      swap1\n      sstore\n      pop\n        /* \"@openzeppelin/contracts/utils/ReentrancyGuard.sol\":2888:3096  function _nonReentrantAfter() private {... */\n      jump\t// out\n        /* \"#utility.yul\":7:82   */\n    tag_341:\n        /* \"#utility.yul\":40:46   */\n      0x00\n        /* \"#utility.yul\":73:75   */\n      0x40\n        /* \"#utility.yul\":67:76   */\n      mload\n        /* \"#utility.yul\":57:76   */\n      swap1\n      pop\n        /* \"#utility.yul\":7:82   */\n      swap1\n      jump\t// out\n        /* \"#utility.yul\":88:205   */\n    tag_342:\n        /* \"#utility.yul\":197:198   */\n      0x00\n        /* \"#utility.yul\":194:195   */\n      0x00\n        /* \"#utility.yul\":187:199   */\n      revert\n        /* \"#utility.yul\":211:328   */\n    tag_343:\n        /* \"#utility.yul\":320:321   */\n      0x00\n        /* \"#utility.yul\":317:318   */\n      0x00\n        /* \"#utility.yul\":310:322   */\n      revert\n        /* \"#utility.yul\":334:411   */\n    tag_344:\n        /* \"#utility.yul\":371:378   */\n      0x00\n        /* \"#utility.yul\":400:405   */\n      dup2\n        /* \"#utility.yul\":389:405   */\n      swap1\n      pop\n        /* \"#utility.yul\":334:411   */\n      swap2\n      swap1\n      pop\n      jump\t// out\n        /* \"#utility.yul\":417:539   */\n    tag_345:\n        /* \"#utility.yul\":490:514   */\n      tag_444\n        /* \"#utility.yul\":508:513   */\n      dup2\n        /* \"#utility.yul\":490:514   */\n      tag_344\n      jump\t// in\n    tag_444:\n        /* \"#utility.yul\":483:488   */\n      dup2\n        /* \"#utility.yul\":480:515   */\n      eq\n        /* \"#utility.yul\":470:533   */\n      tag_445\n      jumpi\n        /* \"#utility.yul\":529:530   */\n      0x00\n        /* \"#utility.yul\":526:527   */\n      0x00\n        /* \"#utility.yul\":519:531   */\n      revert\n        /* \"#utility.yul\":470:533   */\n    tag_445:\n        /* \"#utility.yul\":417:539   */\n      pop\n      jump\t// out\n        /* \"#utility.yul\":545:684   */\n    tag_346:\n        /* \"#utility.yul\":591:596   */\n      0x00\n        /* \"#utility.yul\":629:635   */\n      dup2\n        /* \"#utility.yul\":616:636   */\n      calldataload\n        /* \"#utility.yul\":607:636   */\n      swap1\n      pop\n        /* \"#utility.yul\":645:678   */\n      tag_447\n        /* \"#utility.yul\":672:677   */\n      dup2\n        /* \"#utility.yul\":645:678   */\n      tag_345\n      jump\t// in\n    tag_447:\n        /* \"#utility.yul\":545:684   */\n      swap3\n      swap2\n      pop\n      pop\n      jump\t// out\n        /* \"#utility.yul\":690:1019   */\n    tag_31:\n        /* \"#utility.yul\":749:755   */\n      0x00\n        /* \"#utility.yul\":798:800   */\n      0x20\n        /* \"#utility.yul\":786:795   */\n      dup3\n        /* \"#utility.yul\":777:784   */\n      dup5\n        /* \"#utility.yul\":773:796   */\n      sub\n        /* \"#utility.yul\":769:801   */\n      slt\n        /* \"#utility.yul\":766:885   */\n      iszero\n      tag_449\n      jumpi\n        /* \"#utility.yul\":804:883   */\n      tag_450\n      tag_342\n      jump\t// in\n    tag_450:\n        /* \"#utility.yul\":766:885   */\n    tag_449:\n        /* \"#utility.yul\":924:925   */\n      0x00\n        /* \"#utility.yul\":949:1002   */\n      tag_451\n        /* \"#utility.yul\":994:1001   */\n      dup5\n        /* \"#utility.yul\":985:991   */\n      dup3\n        /* \"#utility.yul\":974:983   */\n      dup6\n        /* \"#utility.yul\":970:992   */\n      add\n        /* \"#utility.yul\":949:1002   */\n      tag_346\n      jump\t// in\n    tag_451:\n        /* \"#utility.yul\":939:1002   */\n      swap2\n      pop\n        /* \"#utility.yul\":895:1012   */\n      pop\n        /* \"#utility.yul\":690:1019   */\n      swap3\n      swap2\n      pop\n      pop\n      jump\t// out\n        /* \"#utility.yul\":1025:1143   */\n    tag_347:\n        /* \"#utility.yul\":1112:1136   */\n      tag_453\n        /* \"#utility.yul\":1130:1135   */\n      dup2\n        /* \"#utility.yul\":1112:1136   */\n      tag_344\n      jump\t// in\n    tag_453:\n        /* \"#utility.yul\":1107:1110   */\n      dup3\n        /* \"#utility.yul\":1100:1137   */\n      mstore\n        /* \"#utility.yul\":1025:1143   */\n      pop\n      pop\n      jump\t// out\n        /* \"#utility.yul\":1149:1481   */\n    tag_34:\n        /* \"#utility.yul\":1270:1274   */\n      0x00\n        /* \"#utility.yul\":1308:1310   */\n      0x40\n        /* \"#utility.yul\":1297:1306   */\n      dup3\n        /* \"#utility.yul\":1293:1311   */\n      add\n        /* \"#utility.yul\":1285:1311   */\n      swap1\n      pop\n        /* \"#utility.yul\":1321:1392   */\n      tag_455\n        /* \"#utility.yul\":1389:1390   */\n      0x00\n        /* \"#utility.yul\":1378:1387   */\n      dup4\n        /* \"#utility.yul\":1374:1391   */\n      add\n        /* \"#utility.yul\":1365:1371   */\n      dup6\n        /* \"#utility.yul\":1321:1392   */\n      tag_347\n      jump\t// in\n    tag_455:\n        /* \"#utility.yul\":1402:1474   */\n      tag_456\n        /* \"#utility.yul\":1470:1472   */\n      0x20\n        /* \"#utility.yul\":1459:1468   */\n      dup4\n        /* \"#utility.yul\":1455:1473   */\n      add\n        /* \"#utility.yul\":1446:1452   */\n      dup5\n        /* \"#utility.yul\":1402:1474   */\n      tag_347\n      jump\t// in\n    tag_456:\n        /* \"#utility.yul\":1149:1481   */\n      swap4\n      swap3\n      pop\n      pop\n      pop\n      jump\t// out\n        /* \"#utility.yul\":1487:1961   */\n    tag_38:\n        /* \"#utility.yul\":1555:1561   */\n      0x00\n        /* \"#utility.yul\":1563:1569   */\n      0x00\n        /* \"#utility.yul\":1612:1614   */\n      0x40\n        /* \"#utility.yul\":1600:1609   */\n      dup4\n        /* \"#utility.yul\":1591:1598   */\n      dup6\n        /* \"#utility.yul\":1587:1610   */\n      sub\n        /* \"#utility.yul\":1583:1615   */\n      slt\n        /* \"#utility.yul\":1580:1699   */\n      iszero\n      tag_458\n      jumpi\n        /* \"#utility.yul\":1618:1697   */\n      tag_459\n      tag_342\n      jump\t// in\n    tag_459:\n        /* \"#utility.yul\":1580:1699   */\n    tag_458:\n        /* \"#utility.yul\":1738:1739   */\n      0x00\n        /* \"#utility.yul\":1763:1816   */\n      tag_460\n        /* \"#utility.yul\":1808:1815   */\n      dup6\n        /* \"#utility.yul\":1799:1805   */\n      dup3\n        /* \"#utility.yul\":1788:1797   */\n      dup7\n        /* \"#utility.yul\":1784:1806   */\n      add\n        /* \"#utility.yul\":1763:1816   */\n      tag_346\n      jump\t// in\n    tag_460:\n        /* \"#utility.yul\":1753:1816   */\n      swap3\n      pop\n        /* \"#utility.yul\":1709:1826   */\n      pop\n        /* \"#utility.yul\":1865:1867   */\n      0x20\n        /* \"#utility.yul\":1891:1944   */\n      tag_461\n        /* \"#utility.yul\":1936:1943   */\n      dup6\n        /* \"#utility.yul\":1927:1933   */\n      dup3\n        /* \"#utility.yul\":1916:1925   */\n      dup7\n        /* \"#utility.yul\":1912:1934   */\n      add\n        /* \"#utility.yul\":1891:1944   */\n      tag_346\n      jump\t// in\n    tag_461:\n        /* \"#utility.yul\":1881:1944   */\n      swap2\n      pop\n        /* \"#utility.yul\":1836:1954   */\n      pop\n        /* \"#utility.yul\":1487:1961   */\n      swap3\n      pop\n      swap3\n      swap1\n      pop\n      jump\t// out\n        /* \"#utility.yul\":1967:2093   */\n    tag_348:\n        /* \"#utility.yul\":2004:2011   */\n      0x00\n        /* \"#utility.yul\":2044:2086   */\n      0xffffffffffffffffffffffffffffffffffffffff\n        /* \"#utility.yul\":2037:2042   */\n      dup3\n        /* \"#utility.yul\":2033:2087   */\n      and\n        /* \"#utility.yul\":2022:2087   */\n      swap1\n      pop\n        /* \"#utility.yul\":1967:2093   */\n      swap2\n      swap1\n      pop\n      jump\t// out\n        /* \"#utility.yul\":2099:2195   */\n    tag_349:\n        /* \"#utility.yul\":2136:2143   */\n      0x00\n        /* \"#utility.yul\":2165:2189   */\n      tag_464\n        /* \"#utility.yul\":2183:2188   */\n      dup3\n        /* \"#utility.yul\":2165:2189   */\n      tag_348\n      jump\t// in\n    tag_464:\n        /* \"#utility.yul\":2154:2189   */\n      swap1\n      pop\n        /* \"#utility.yul\":2099:2195   */\n      swap2\n      swap1\n      pop\n      jump\t// out\n        /* \"#utility.yul\":2201:2319   */\n    tag_350:\n        /* \"#utility.yul\":2288:2312   */\n      tag_466\n        /* \"#utility.yul\":2306:2311   */\n      dup2\n        /* \"#utility.yul\":2288:2312   */\n      tag_349\n      jump\t// in\n    tag_466:\n        /* \"#utility.yul\":2283:2286   */\n      dup3\n        /* \"#utility.yul\":2276:2313   */\n      mstore\n        /* \"#utility.yul\":2201:2319   */\n      pop\n      pop\n      jump\t// out\n        /* \"#utility.yul\":2325:2424   */\n    tag_351:\n        /* \"#utility.yul\":2377:2383   */\n      0x00\n        /* \"#utility.yul\":2411:2416   */\n      dup2\n        /* \"#utility.yul\":2405:2417   */\n      mload\n        /* \"#utility.yul\":2395:2417   */\n      swap1\n      pop\n        /* \"#utility.yul\":2325:2424   */\n      swap2\n      swap1\n      pop\n      jump\t// out\n        /* \"#utility.yul\":2430:2599   */\n    tag_352:\n        /* \"#utility.yul\":2514:2525   */\n      0x00\n        /* \"#utility.yul\":2548:2554   */\n      dup3\n        /* \"#utility.yul\":2543:2546   */\n      dup3\n        /* \"#utility.yul\":2536:2555   */\n      mstore\n        /* \"#utility.yul\":2588:2592   */\n      0x20\n        /* \"#utility.yul\":2583:2586   */\n      dup3\n        /* \"#utility.yul\":2579:2593   */\n      add\n        /* \"#utility.yul\":2564:2593   */\n      swap1\n      pop\n        /* \"#utility.yul\":2430:2599   */\n      swap3\n      swap2\n      pop\n      pop\n      jump\t// out\n        /* \"#utility.yul\":2605:2744   */\n    tag_353:\n        /* \"#utility.yul\":2694:2700   */\n      dup3\n        /* \"#utility.yul\":2689:2692   */\n      dup2\n        /* \"#utility.yul\":2684:2687   */\n      dup4\n        /* \"#utility.yul\":2678:2701   */\n      mcopy\n        /* \"#utility.yul\":2735:2736   */\n      0x00\n        /* \"#utility.yul\":2726:2732   */\n      dup4\n        /* \"#utility.yul\":2721:2724   */\n      dup4\n        /* \"#utility.yul\":2717:2733   */\n      add\n        /* \"#utility.yul\":2710:2737   */\n      mstore\n        /* \"#utility.yul\":2605:2744   */\n      pop\n      pop\n      pop\n      jump\t// out\n        /* \"#utility.yul\":2750:2852   */\n    tag_354:\n        /* \"#utility.yul\":2791:2797   */\n      0x00\n        /* \"#utility.yul\":2842:2844   */\n      0x1f\n        /* \"#utility.yul\":2838:2845   */\n      not\n        /* \"#utility.yul\":2833:2835   */\n      0x1f\n        /* \"#utility.yul\":2826:2831   */\n      dup4\n        /* \"#utility.yul\":2822:2836   */\n      add\n        /* \"#utility.yul\":2818:2846   */\n      and\n        /* \"#utility.yul\":2808:2846   */\n      swap1\n      pop\n        /* \"#utility.yul\":2750:2852   */\n      swap2\n      swap1\n      pop\n      jump\t// out\n        /* \"#utility.yul\":2858:3235   */\n    tag_355:\n        /* \"#utility.yul\":2946:2949   */\n      0x00\n        /* \"#utility.yul\":2974:3013   */\n      tag_472\n        /* \"#utility.yul\":3007:3012   */\n      dup3\n        /* \"#utility.yul\":2974:3013   */\n      tag_351\n      jump\t// in\n    tag_472:\n        /* \"#utility.yul\":3029:3100   */\n      tag_473\n        /* \"#utility.yul\":3093:3099   */\n      dup2\n        /* \"#utility.yul\":3088:3091   */\n      dup6\n        /* \"#utility.yul\":3029:3100   */\n      tag_352\n      jump\t// in\n    tag_473:\n        /* \"#utility.yul\":3022:3100   */\n      swap4\n      pop\n        /* \"#utility.yul\":3109:3174   */\n      tag_474\n        /* \"#utility.yul\":3167:3173   */\n      dup2\n        /* \"#utility.yul\":3162:3165   */\n      dup6\n        /* \"#utility.yul\":3155:3159   */\n      0x20\n        /* \"#utility.yul\":3148:3153   */\n      dup7\n        /* \"#utility.yul\":3144:3160   */\n      add\n        /* \"#utility.yul\":3109:3174   */\n      tag_353\n      jump\t// in\n    tag_474:\n        /* \"#utility.yul\":3199:3228   */\n      tag_475\n        /* \"#utility.yul\":3221:3227   */\n      dup2\n        /* \"#utility.yul\":3199:3228   */\n      tag_354\n      jump\t// in\n    tag_475:\n        /* \"#utility.yul\":3194:3197   */\n      dup5\n        /* \"#utility.yul\":3190:3229   */\n      add\n        /* \"#utility.yul\":3183:3229   */\n      swap2\n      pop\n        /* \"#utility.yul\":2950:3235   */\n      pop\n        /* \"#utility.yul\":2858:3235   */\n      swap3\n      swap2\n      pop\n      pop\n      jump\t// out\n        /* \"#utility.yul\":3241:3331   */\n    tag_356:\n        /* \"#utility.yul\":3275:3282   */\n      0x00\n        /* \"#utility.yul\":3318:3323   */\n      dup2\n        /* \"#utility.yul\":3311:3324   */\n      iszero\n        /* \"#utility.yul\":3304:3325   */\n      iszero\n        /* \"#utility.yul\":3293:3325   */\n      swap1\n      pop\n        /* \"#utility.yul\":3241:3331   */\n      swap2\n      swap1\n      pop\n      jump\t// out\n        /* \"#utility.yul\":3337:3446   */\n    tag_357:\n        /* \"#utility.yul\":3418:3439   */\n      tag_478\n        /* \"#utility.yul\":3433:3438   */\n      dup2\n        /* \"#utility.yul\":3418:3439   */\n      tag_356\n      jump\t// in\n    tag_478:\n        /* \"#utility.yul\":3413:3416   */\n      dup3\n        /* \"#utility.yul\":3406:3440   */\n      mstore\n        /* \"#utility.yul\":3337:3446   */\n      pop\n      pop\n      jump\t// out\n        /* \"#utility.yul\":3452:4930   */\n    tag_45:\n        /* \"#utility.yul\":3848:3852   */\n      0x00\n        /* \"#utility.yul\":3886:3889   */\n      0x0160\n        /* \"#utility.yul\":3875:3884   */\n      dup3\n        /* \"#utility.yul\":3871:3890   */\n      add\n        /* \"#utility.yul\":3863:3890   */\n      swap1\n      pop\n        /* \"#utility.yul\":3900:3971   */\n      tag_480\n        /* \"#utility.yul\":3968:3969   */\n      0x00\n        /* \"#utility.yul\":3957:3966   */\n      dup4\n        /* \"#utility.yul\":3953:3970   */\n      add\n        /* \"#utility.yul\":3944:3950   */\n      dup15\n        /* \"#utility.yul\":3900:3971   */\n      tag_350\n      jump\t// in\n    tag_480:\n        /* \"#utility.yul\":4018:4027   */\n      dup2\n        /* \"#utility.yul\":4012:4016   */\n      dup2\n        /* \"#utility.yul\":4008:4028   */\n      sub\n        /* \"#utility.yul\":4003:4005   */\n      0x20\n        /* \"#utility.yul\":3992:4001   */\n      dup4\n        /* \"#utility.yul\":3988:4006   */\n      add\n        /* \"#utility.yul\":3981:4029   */\n      mstore\n        /* \"#utility.yul\":4046:4124   */\n      tag_481\n        /* \"#utility.yul\":4119:4123   */\n      dup2\n        /* \"#utility.yul\":4110:4116   */\n      dup14\n        /* \"#utility.yul\":4046:4124   */\n      tag_355\n      jump\t// in\n    tag_481:\n        /* \"#utility.yul\":4038:4124   */\n      swap1\n      pop\n        /* \"#utility.yul\":4171:4180   */\n      dup2\n        /* \"#utility.yul\":4165:4169   */\n      dup2\n        /* \"#utility.yul\":4161:4181   */\n      sub\n        /* \"#utility.yul\":4156:4158   */\n      0x40\n        /* \"#utility.yul\":4145:4154   */\n      dup4\n        /* \"#utility.yul\":4141:4159   */\n      add\n        /* \"#utility.yul\":4134:4182   */\n      mstore\n        /* \"#utility.yul\":4199:4277   */\n      tag_482\n        /* \"#utility.yul\":4272:4276   */\n      dup2\n        /* \"#utility.yul\":4263:4269   */\n      dup13\n        /* \"#utility.yul\":4199:4277   */\n      tag_355\n      jump\t// in\n    tag_482:\n        /* \"#utility.yul\":4191:4277   */\n      swap1\n      pop\n        /* \"#utility.yul\":4287:4359   */\n      tag_483\n        /* \"#utility.yul\":4355:4357   */\n      0x60\n        /* \"#utility.yul\":4344:4353   */\n      dup4\n        /* \"#utility.yul\":4340:4358   */\n      add\n        /* \"#utility.yul\":4331:4337   */\n      dup12\n        /* \"#utility.yul\":4287:4359   */\n      tag_347\n      jump\t// in\n    tag_483:\n        /* \"#utility.yul\":4369:4442   */\n      tag_484\n        /* \"#utility.yul\":4437:4440   */\n      0x80\n        /* \"#utility.yul\":4426:4435   */\n      dup4\n        /* \"#utility.yul\":4422:4441   */\n      add\n        /* \"#utility.yul\":4413:4419   */\n      dup11\n        /* \"#utility.yul\":4369:4442   */\n      tag_347\n      jump\t// in\n    tag_484:\n        /* \"#utility.yul\":4452:4525   */\n      tag_485\n        /* \"#utility.yul\":4520:4523   */\n      0xa0\n        /* \"#utility.yul\":4509:4518   */\n      dup4\n        /* \"#utility.yul\":4505:4524   */\n      add\n        /* \"#utility.yul\":4496:4502   */\n      dup10\n        /* \"#utility.yul\":4452:4525   */\n      tag_347\n      jump\t// in\n    tag_485:\n        /* \"#utility.yul\":4535:4602   */\n      tag_486\n        /* \"#utility.yul\":4597:4600   */\n      0xc0\n        /* \"#utility.yul\":4586:4595   */\n      dup4\n        /* \"#utility.yul\":4582:4601   */\n      add\n        /* \"#utility.yul\":4573:4579   */\n      dup9\n        /* \"#utility.yul\":4535:4602   */\n      tag_357\n      jump\t// in\n    tag_486:\n        /* \"#utility.yul\":4612:4685   */\n      tag_487\n        /* \"#utility.yul\":4680:4683   */\n      0xe0\n        /* \"#utility.yul\":4669:4678   */\n      dup4\n        /* \"#utility.yul\":4665:4684   */\n      add\n        /* \"#utility.yul\":4656:4662   */\n      dup8\n        /* \"#utility.yul\":4612:4685   */\n      tag_350\n      jump\t// in\n    tag_487:\n        /* \"#utility.yul\":4695:4768   */\n      tag_488\n        /* \"#utility.yul\":4763:4766   */\n      0x0100\n        /* \"#utility.yul\":4752:4761   */\n      dup4\n        /* \"#utility.yul\":4748:4767   */\n      add\n        /* \"#utility.yul\":4739:4745   */\n      dup7\n        /* \"#utility.yul\":4695:4768   */\n      tag_347\n      jump\t// in\n    tag_488:\n        /* \"#utility.yul\":4778:4845   */\n      tag_489\n        /* \"#utility.yul\":4840:4843   */\n      0x0120\n        /* \"#utility.yul\":4829:4838   */\n      dup4\n        /* \"#utility.yul\":4825:4844   */\n      add\n        /* \"#utility.yul\":4816:4822   */\n      dup6\n        /* \"#utility.yul\":4778:4845   */\n      tag_357\n      jump\t// in\n    tag_489:\n        /* \"#utility.yul\":4855:4923   */\n      tag_490\n        /* \"#utility.yul\":4918:4921   */\n      0x0140\n        /* \"#utility.yul\":4907:4916   */\n      dup4\n        /* \"#utility.yul\":4903:4922   */\n      add\n        /* \"#utility.yul\":4893:4900   */\n      dup5\n        /* \"#utility.yul\":4855:4923   */\n      tag_357\n      jump\t// in\n    tag_490:\n        /* \"#utility.yul\":3452:4930   */\n      swap13\n      swap12\n      pop\n      pop\n      pop\n      pop\n      pop\n      pop\n      pop\n      pop\n      pop\n      pop\n      pop\n      pop\n      jump\t// out\n        /* \"#utility.yul\":4936:5158   */\n    tag_51:\n        /* \"#utility.yul\":5029:5033   */\n      0x00\n        /* \"#utility.yul\":5067:5069   */\n      0x20\n        /* \"#utility.yul\":5056:5065   */\n      dup3\n        /* \"#utility.yul\":5052:5070   */\n      add\n        /* \"#utility.yul\":5044:5070   */\n      swap1\n      pop\n        /* \"#utility.yul\":5080:5151   */\n      tag_492\n        /* \"#utility.yul\":5148:5149   */\n      0x00\n        /* \"#utility.yul\":5137:5146   */\n      dup4\n        /* \"#utility.yul\":5133:5150   */\n      add\n        /* \"#utility.yul\":5124:5130   */\n      dup5\n        /* \"#utility.yul\":5080:5151   */\n      tag_347\n      jump\t// in\n    tag_492:\n        /* \"#utility.yul\":4936:5158   */\n      swap3\n      swap2\n      pop\n      pop\n      jump\t// out\n        /* \"#utility.yul\":5164:5286   */\n    tag_358:\n        /* \"#utility.yul\":5237:5261   */\n      tag_494\n        /* \"#utility.yul\":5255:5260   */\n      dup2\n        /* \"#utility.yul\":5237:5261   */\n      tag_349\n      jump\t// in\n    tag_494:\n        /* \"#utility.yul\":5230:5235   */\n      dup2\n        /* \"#utility.yul\":5227:5262   */\n      eq\n        /* \"#utility.yul\":5217:5280   */\n      tag_495\n      jumpi\n        /* \"#utility.yul\":5276:5277   */\n      0x00\n        /* \"#utility.yul\":5273:5274   */\n      0x00\n        /* \"#utility.yul\":5266:5278   */\n      revert\n        /* \"#utility.yul\":5217:5280   */\n    tag_495:\n        /* \"#utility.yul\":5164:5286   */\n      pop\n      jump\t// out\n        /* \"#utility.yul\":5292:5431   */\n    tag_359:\n        /* \"#utility.yul\":5338:5343   */\n      0x00\n        /* \"#utility.yul\":5376:5382   */\n      dup2\n        /* \"#utility.yul\":5363:5383   */\n      calldataload\n        /* \"#utility.yul\":5354:5383   */\n      swap1\n      pop\n        /* \"#utility.yul\":5392:5425   */\n      tag_497\n        /* \"#utility.yul\":5419:5424   */\n      dup2\n        /* \"#utility.yul\":5392:5425   */\n      tag_358\n      jump\t// in\n    tag_497:\n        /* \"#utility.yul\":5292:5431   */\n      swap3\n      swap2\n      pop\n      pop\n      jump\t// out\n        /* \"#utility.yul\":5437:5911   */\n    tag_71:\n        /* \"#utility.yul\":5505:5511   */\n      0x00\n        /* \"#utility.yul\":5513:5519   */\n      0x00\n        /* \"#utility.yul\":5562:5564   */\n      0x40\n        /* \"#utility.yul\":5550:5559   */\n      dup4\n        /* \"#utility.yul\":5541:5548   */\n      dup6\n        /* \"#utility.yul\":5537:5560   */\n      sub\n        /* \"#utility.yul\":5533:5565   */\n      slt\n        /* \"#utility.yul\":5530:5649   */\n      iszero\n      tag_499\n      jumpi\n        /* \"#utility.yul\":5568:5647   */\n      tag_500\n      tag_342\n      jump\t// in\n    tag_500:\n        /* \"#utility.yul\":5530:5649   */\n    tag_499:\n        /* \"#utility.yul\":5688:5689   */\n      0x00\n        /* \"#utility.yul\":5713:5766   */\n      tag_501\n        /* \"#utility.yul\":5758:5765   */\n      dup6\n        /* \"#utility.yul\":5749:5755   */\n      dup3\n        /* \"#utility.yul\":5738:5747   */\n      dup7\n        /* \"#utility.yul\":5734:5756   */\n      add\n        /* \"#utility.yul\":5713:5766   */\n      tag_346\n      jump\t// in\n    tag_501:\n        /* \"#utility.yul\":5703:5766   */\n      swap3\n      pop\n        /* \"#utility.yul\":5659:5776   */\n      pop\n        /* \"#utility.yul\":5815:5817   */\n      0x20\n        /* \"#utility.yul\":5841:5894   */\n      tag_502\n        /* \"#utility.yul\":5886:5893   */\n      dup6\n        /* \"#utility.yul\":5877:5883   */\n      dup3\n        /* \"#utility.yul\":5866:5875   */\n      dup7\n        /* \"#utility.yul\":5862:5884   */\n      add\n        /* \"#utility.yul\":5841:5894   */\n      tag_359\n      jump\t// in\n    tag_502:\n        /* \"#utility.yul\":5831:5894   */\n      swap2\n      pop\n        /* \"#utility.yul\":5786:5904   */\n      pop\n        /* \"#utility.yul\":5437:5911   */\n      swap3\n      pop\n      swap3\n      swap1\n      pop\n      jump\t// out\n        /* \"#utility.yul\":5917:6246   */\n    tag_87:\n        /* \"#utility.yul\":5976:5982   */\n      0x00\n        /* \"#utility.yul\":6025:6027   */\n      0x20\n        /* \"#utility.yul\":6013:6022   */\n      dup3\n        /* \"#utility.yul\":6004:6011   */\n      dup5\n        /* \"#utility.yul\":6000:6023   */\n      sub\n        /* \"#utility.yul\":5996:6028   */\n      slt\n        /* \"#utility.yul\":5993:6112   */\n      iszero\n      tag_504\n      jumpi\n        /* \"#utility.yul\":6031:6110   */\n      tag_505\n      tag_342\n      jump\t// in\n    tag_505:\n        /* \"#utility.yul\":5993:6112   */\n    tag_504:\n        /* \"#utility.yul\":6151:6152   */\n      0x00\n        /* \"#utility.yul\":6176:6229   */\n      tag_506\n        /* \"#utility.yul\":6221:6228   */\n      dup5\n        /* \"#utility.yul\":6212:6218   */\n      dup3\n        /* \"#utility.yul\":6201:6210   */\n      dup6\n        /* \"#utility.yul\":6197:6219   */\n      add\n        /* \"#utility.yul\":6176:6229   */\n      tag_359\n      jump\t// in\n    tag_506:\n        /* \"#utility.yul\":6166:6229   */\n      swap2\n      pop\n        /* \"#utility.yul\":6122:6239   */\n      pop\n        /* \"#utility.yul\":5917:6246   */\n      swap3\n      swap2\n      pop\n      pop\n      jump\t// out\n        /* \"#utility.yul\":6252:6462   */\n    tag_97:\n        /* \"#utility.yul\":6339:6343   */\n      0x00\n        /* \"#utility.yul\":6377:6379   */\n      0x20\n        /* \"#utility.yul\":6366:6375   */\n      dup3\n        /* \"#utility.yul\":6362:6380   */\n      add\n        /* \"#utility.yul\":6354:6380   */\n      swap1\n      pop\n        /* \"#utility.yul\":6390:6455   */\n      tag_508\n        /* \"#utility.yul\":6452:6453   */\n      0x00\n        /* \"#utility.yul\":6441:6450   */\n      dup4\n        /* \"#utility.yul\":6437:6454   */\n      add\n        /* \"#utility.yul\":6428:6434   */\n      dup5\n        /* \"#utility.yul\":6390:6455   */\n      tag_357\n      jump\t// in\n    tag_508:\n        /* \"#utility.yul\":6252:6462   */\n      swap3\n      swap2\n      pop\n      pop\n      jump\t// out\n        /* \"#utility.yul\":6468:6585   */\n    tag_360:\n        /* \"#utility.yul\":6577:6578   */\n      0x00\n        /* \"#utility.yul\":6574:6575   */\n      0x00\n        /* \"#utility.yul\":6567:6579   */\n      revert\n        /* \"#utility.yul\":6591:6708   */\n    tag_361:\n        /* \"#utility.yul\":6700:6701   */\n      0x00\n        /* \"#utility.yul\":6697:6698   */\n      0x00\n        /* \"#utility.yul\":6690:6702   */\n      revert\n        /* \"#utility.yul\":6714:6894   */\n    tag_362:\n        /* \"#utility.yul\":6762:6839   */\n      0x4e487b7100000000000000000000000000000000000000000000000000000000\n        /* \"#utility.yul\":6759:6760   */\n      0x00\n        /* \"#utility.yul\":6752:6840   */\n      mstore\n        /* \"#utility.yul\":6859:6863   */\n      0x41\n        /* \"#utility.yul\":6856:6857   */\n      0x04\n        /* \"#utility.yul\":6849:6864   */\n      mstore\n        /* \"#utility.yul\":6883:6887   */\n      0x24\n        /* \"#utility.yul\":6880:6881   */\n      0x00\n        /* \"#utility.yul\":6873:6888   */\n      revert\n        /* \"#utility.yul\":6900:7181   */\n    tag_363:\n        /* \"#utility.yul\":6983:7010   */\n      tag_513\n        /* \"#utility.yul\":7005:7009   */\n      dup3\n        /* \"#utility.yul\":6983:7010   */\n      tag_354\n      jump\t// in\n    tag_513:\n        /* \"#utility.yul\":6975:6981   */\n      dup2\n        /* \"#utility.yul\":6971:7011   */\n      add\n        /* \"#utility.yul\":7113:7119   */\n      dup2\n        /* \"#utility.yul\":7101:7111   */\n      dup2\n        /* \"#utility.yul\":7098:7120   */\n      lt\n        /* \"#utility.yul\":7077:7095   */\n      0xffffffffffffffff\n        /* \"#utility.yul\":7065:7075   */\n      dup3\n        /* \"#utility.yul\":7062:7096   */\n      gt\n        /* \"#utility.yul\":7059:7121   */\n      or\n        /* \"#utility.yul\":7056:7144   */\n      iszero\n      tag_514\n      jumpi\n        /* \"#utility.yul\":7124:7142   */\n      tag_515\n      tag_362\n      jump\t// in\n    tag_515:\n        /* \"#utility.yul\":7056:7144   */\n    tag_514:\n        /* \"#utility.yul\":7164:7174   */\n      dup1\n        /* \"#utility.yul\":7160:7162   */\n      0x40\n        /* \"#utility.yul\":7153:7175   */\n      mstore\n        /* \"#utility.yul\":6943:7181   */\n      pop\n        /* \"#utility.yul\":6900:7181   */\n      pop\n      pop\n      jump\t// out\n        /* \"#utility.yul\":7187:7316   */\n    tag_364:\n        /* \"#utility.yul\":7221:7227   */\n      0x00\n        /* \"#utility.yul\":7248:7268   */\n      tag_517\n      tag_341\n      jump\t// in\n    tag_517:\n        /* \"#utility.yul\":7238:7268   */\n      swap1\n      pop\n        /* \"#utility.yul\":7277:7310   */\n      tag_518\n        /* \"#utility.yul\":7305:7309   */\n      dup3\n        /* \"#utility.yul\":7297:7303   */\n      dup3\n        /* \"#utility.yul\":7277:7310   */\n      tag_363\n      jump\t// in\n    tag_518:\n        /* \"#utility.yul\":7187:7316   */\n      swap2\n      swap1\n      pop\n      jump\t// out\n        /* \"#utility.yul\":7322:7630   */\n    tag_365:\n        /* \"#utility.yul\":7384:7388   */\n      0x00\n        /* \"#utility.yul\":7474:7492   */\n      0xffffffffffffffff\n        /* \"#utility.yul\":7466:7472   */\n      dup3\n        /* \"#utility.yul\":7463:7493   */\n      gt\n        /* \"#utility.yul\":7460:7516   */\n      iszero\n      tag_520\n      jumpi\n        /* \"#utility.yul\":7496:7514   */\n      tag_521\n      tag_362\n      jump\t// in\n    tag_521:\n        /* \"#utility.yul\":7460:7516   */\n    tag_520:\n        /* \"#utility.yul\":7534:7563   */\n      tag_522\n        /* \"#utility.yul\":7556:7562   */\n      dup3\n        /* \"#utility.yul\":7534:7563   */\n      tag_354\n      jump\t// in\n    tag_522:\n        /* \"#utility.yul\":7526:7563   */\n      swap1\n      pop\n        /* \"#utility.yul\":7618:7622   */\n      0x20\n        /* \"#utility.yul\":7612:7616   */\n      dup2\n        /* \"#utility.yul\":7608:7623   */\n      add\n        /* \"#utility.yul\":7600:7623   */\n      swap1\n      pop\n        /* \"#utility.yul\":7322:7630   */\n      swap2\n      swap1\n      pop\n      jump\t// out\n        /* \"#utility.yul\":7636:7784   */\n    tag_366:\n        /* \"#utility.yul\":7734:7740   */\n      dup3\n        /* \"#utility.yul\":7729:7732   */\n      dup2\n        /* \"#utility.yul\":7724:7727   */\n      dup4\n        /* \"#utility.yul\":7711:7741   */\n      calldatacopy\n        /* \"#utility.yul\":7775:7776   */\n      0x00\n        /* \"#utility.yul\":7766:7772   */\n      dup4\n        /* \"#utility.yul\":7761:7764   */\n      dup4\n        /* \"#utility.yul\":7757:7773   */\n      add\n        /* \"#utility.yul\":7750:7777   */\n      mstore\n        /* \"#utility.yul\":7636:7784   */\n      pop\n      pop\n      pop\n      jump\t// out\n        /* \"#utility.yul\":7790:8215   */\n    tag_367:\n        /* \"#utility.yul\":7868:7873   */\n      0x00\n        /* \"#utility.yul\":7893:7959   */\n      tag_525\n        /* \"#utility.yul\":7909:7958   */\n      tag_526\n        /* \"#utility.yul\":7951:7957   */\n      dup5\n        /* \"#utility.yul\":7909:7958   */\n      tag_365\n      jump\t// in\n    tag_526:\n        /* \"#utility.yul\":7893:7959   */\n      tag_364\n      jump\t// in\n    tag_525:\n        /* \"#utility.yul\":7884:7959   */\n      swap1\n      pop\n        /* \"#utility.yul\":7982:7988   */\n      dup3\n        /* \"#utility.yul\":7975:7980   */\n      dup2\n        /* \"#utility.yul\":7968:7989   */\n      mstore\n        /* \"#utility.yul\":8020:8024   */\n      0x20\n        /* \"#utility.yul\":8013:8018   */\n      dup2\n        /* \"#utility.yul\":8009:8025   */\n      add\n        /* \"#utility.yul\":8058:8061   */\n      dup5\n        /* \"#utility.yul\":8049:8055   */\n      dup5\n        /* \"#utility.yul\":8044:8047   */\n      dup5\n        /* \"#utility.yul\":8040:8056   */\n      add\n        /* \"#utility.yul\":8037:8062   */\n      gt\n        /* \"#utility.yul\":8034:8146   */\n      iszero\n      tag_527\n      jumpi\n        /* \"#utility.yul\":8065:8144   */\n      tag_528\n      tag_361\n      jump\t// in\n    tag_528:\n        /* \"#utility.yul\":8034:8146   */\n    tag_527:\n        /* \"#utility.yul\":8155:8209   */\n      tag_529\n        /* \"#utility.yul\":8202:8208   */\n      dup5\n        /* \"#utility.yul\":8197:8200   */\n      dup3\n        /* \"#utility.yul\":8192:8195   */\n      dup6\n        /* \"#utility.yul\":8155:8209   */\n      tag_366\n      jump\t// in\n    tag_529:\n        /* \"#utility.yul\":7874:8215   */\n      pop\n        /* \"#utility.yul\":7790:8215   */\n      swap4\n      swap3\n      pop\n      pop\n      pop\n      jump\t// out\n        /* \"#utility.yul\":8235:8575   */\n    tag_368:\n        /* \"#utility.yul\":8291:8296   */\n      0x00\n        /* \"#utility.yul\":8340:8343   */\n      dup3\n        /* \"#utility.yul\":8333:8337   */\n      0x1f\n        /* \"#utility.yul\":8325:8331   */\n      dup4\n        /* \"#utility.yul\":8321:8338   */\n      add\n        /* \"#utility.yul\":8317:8344   */\n      slt\n        /* \"#utility.yul\":8307:8429   */\n      tag_531\n      jumpi\n        /* \"#utility.yul\":8348:8427   */\n      tag_532\n      tag_360\n      jump\t// in\n    tag_532:\n        /* \"#utility.yul\":8307:8429   */\n    tag_531:\n        /* \"#utility.yul\":8465:8471   */\n      dup2\n        /* \"#utility.yul\":8452:8472   */\n      calldataload\n        /* \"#utility.yul\":8490:8569   */\n      tag_533\n        /* \"#utility.yul\":8565:8568   */\n      dup5\n        /* \"#utility.yul\":8557:8563   */\n      dup3\n        /* \"#utility.yul\":8550:8554   */\n      0x20\n        /* \"#utility.yul\":8542:8548   */\n      dup7\n        /* \"#utility.yul\":8538:8555   */\n      add\n        /* \"#utility.yul\":8490:8569   */\n      tag_367\n      jump\t// in\n    tag_533:\n        /* \"#utility.yul\":8481:8569   */\n      swap2\n      pop\n        /* \"#utility.yul\":8297:8575   */\n      pop\n        /* \"#utility.yul\":8235:8575   */\n      swap3\n      swap2\n      pop\n      pop\n      jump\t// out\n        /* \"#utility.yul\":8581:9852   */\n    tag_115:\n        /* \"#utility.yul\":8696:8702   */\n      0x00\n        /* \"#utility.yul\":8704:8710   */\n      0x00\n        /* \"#utility.yul\":8712:8718   */\n      0x00\n        /* \"#utility.yul\":8720:8726   */\n      0x00\n        /* \"#utility.yul\":8728:8734   */\n      0x00\n        /* \"#utility.yul\":8777:8780   */\n      0xa0\n        /* \"#utility.yul\":8765:8774   */\n      dup7\n        /* \"#utility.yul\":8756:8763   */\n      dup9\n        /* \"#utility.yul\":8752:8775   */\n      sub\n        /* \"#utility.yul\":8748:8781   */\n      slt\n        /* \"#utility.yul\":8745:8865   */\n      iszero\n      tag_535\n      jumpi\n        /* \"#utility.yul\":8784:8863   */\n      tag_536\n      tag_342\n      jump\t// in\n    tag_536:\n        /* \"#utility.yul\":8745:8865   */\n    tag_535:\n        /* \"#utility.yul\":8932:8933   */\n      0x00\n        /* \"#utility.yul\":8921:8930   */\n      dup7\n        /* \"#utility.yul\":8917:8934   */\n      add\n        /* \"#utility.yul\":8904:8935   */\n      calldataload\n        /* \"#utility.yul\":8962:8980   */\n      0xffffffffffffffff\n        /* \"#utility.yul\":8954:8960   */\n      dup2\n        /* \"#utility.yul\":8951:8981   */\n      gt\n        /* \"#utility.yul\":8948:9065   */\n      iszero\n      tag_537\n      jumpi\n        /* \"#utility.yul\":8984:9063   */\n      tag_538\n      tag_343\n      jump\t// in\n    tag_538:\n        /* \"#utility.yul\":8948:9065   */\n    tag_537:\n        /* \"#utility.yul\":9089:9152   */\n      tag_539\n        /* \"#utility.yul\":9144:9151   */\n      dup9\n        /* \"#utility.yul\":9135:9141   */\n      dup3\n        /* \"#utility.yul\":9124:9133   */\n      dup10\n        /* \"#utility.yul\":9120:9142   */\n      add\n        /* \"#utility.yul\":9089:9152   */\n      tag_368\n      jump\t// in\n    tag_539:\n        /* \"#utility.yul\":9079:9152   */\n      swap6\n      pop\n        /* \"#utility.yul\":8875:9162   */\n      pop\n        /* \"#utility.yul\":9229:9231   */\n      0x20\n        /* \"#utility.yul\":9218:9227   */\n      dup7\n        /* \"#utility.yul\":9214:9232   */\n      add\n        /* \"#utility.yul\":9201:9233   */\n      calldataload\n        /* \"#utility.yul\":9260:9278   */\n      0xffffffffffffffff\n        /* \"#utility.yul\":9252:9258   */\n      dup2\n        /* \"#utility.yul\":9249:9279   */\n      gt\n        /* \"#utility.yul\":9246:9363   */\n      iszero\n      tag_540\n      jumpi\n        /* \"#utility.yul\":9282:9361   */\n      tag_541\n      tag_343\n      jump\t// in\n    tag_541:\n        /* \"#utility.yul\":9246:9363   */\n    tag_540:\n        /* \"#utility.yul\":9387:9450   */\n      tag_542\n        /* \"#utility.yul\":9442:9449   */\n      dup9\n        /* \"#utility.yul\":9433:9439   */\n      dup3\n        /* \"#utility.yul\":9422:9431   */\n      dup10\n        /* \"#utility.yul\":9418:9440   */\n      add\n        /* \"#utility.yul\":9387:9450   */\n      tag_368\n      jump\t// in\n    tag_542:\n        /* \"#utility.yul\":9377:9450   */\n      swap5\n      pop\n        /* \"#utility.yul\":9172:9460   */\n      pop\n        /* \"#utility.yul\":9499:9501   */\n      0x40\n        /* \"#utility.yul\":9525:9578   */\n      tag_543\n        /* \"#utility.yul\":9570:9577   */\n      dup9\n        /* \"#utility.yul\":9561:9567   */\n      dup3\n        /* \"#utility.yul\":9550:9559   */\n      dup10\n        /* \"#utility.yul\":9546:9568   */\n      add\n        /* \"#utility.yul\":9525:9578   */\n      tag_346\n      jump\t// in\n    tag_543:\n        /* \"#utility.yul\":9515:9578   */\n      swap4\n      pop\n        /* \"#utility.yul\":9470:9588   */\n      pop\n        /* \"#utility.yul\":9627:9629   */\n      0x60\n        /* \"#utility.yul\":9653:9706   */\n      tag_544\n        /* \"#utility.yul\":9698:9705   */\n      dup9\n        /* \"#utility.yul\":9689:9695   */\n      dup3\n        /* \"#utility.yul\":9678:9687   */\n      dup10\n        /* \"#utility.yul\":9674:9696   */\n      add\n        /* \"#utility.yul\":9653:9706   */\n      tag_346\n      jump\t// in\n    tag_544:\n        /* \"#utility.yul\":9643:9706   */\n      swap3\n      pop\n        /* \"#utility.yul\":9598:9716   */\n      pop\n        /* \"#utility.yul\":9755:9758   */\n      0x80\n        /* \"#utility.yul\":9782:9835   */\n      tag_545\n        /* \"#utility.yul\":9827:9834   */\n      dup9\n        /* \"#utility.yul\":9818:9824   */\n      dup3\n        /* \"#utility.yul\":9807:9816   */\n      dup10\n        /* \"#utility.yul\":9803:9825   */\n      add\n        /* \"#utility.yul\":9782:9835   */\n      tag_346\n      jump\t// in\n    tag_545:\n        /* \"#utility.yul\":9772:9835   */\n      swap2\n      pop\n        /* \"#utility.yul\":9726:9845   */\n      pop\n        /* \"#utility.yul\":8581:9852   */\n      swap3\n      swap6\n      pop\n      swap3\n      swap6\n      swap1\n      swap4\n      pop\n      jump\t// out\n        /* \"#utility.yul\":9858:10080   */\n    tag_121:\n        /* \"#utility.yul\":9951:9955   */\n      0x00\n        /* \"#utility.yul\":9989:9991   */\n      0x20\n        /* \"#utility.yul\":9978:9987   */\n      dup3\n        /* \"#utility.yul\":9974:9992   */\n      add\n        /* \"#utility.yul\":9966:9992   */\n      swap1\n      pop\n        /* \"#utility.yul\":10002:10073   */\n      tag_547\n        /* \"#utility.yul\":10070:10071   */\n      0x00\n        /* \"#utility.yul\":10059:10068   */\n      dup4\n        /* \"#utility.yul\":10055:10072   */\n      add\n        /* \"#utility.yul\":10046:10052   */\n      dup5\n        /* \"#utility.yul\":10002:10073   */\n      tag_350\n      jump\t// in\n    tag_547:\n        /* \"#utility.yul\":9858:10080   */\n      swap3\n      swap2\n      pop\n      pop\n      jump\t// out\n        /* \"#utility.yul\":10086:10750   */\n    tag_126:\n        /* \"#utility.yul\":10291:10295   */\n      0x00\n        /* \"#utility.yul\":10329:10332   */\n      0xa0\n        /* \"#utility.yul\":10318:10327   */\n      dup3\n        /* \"#utility.yul\":10314:10333   */\n      add\n        /* \"#utility.yul\":10306:10333   */\n      swap1\n      pop\n        /* \"#utility.yul\":10343:10414   */\n      tag_549\n        /* \"#utility.yul\":10411:10412   */\n      0x00\n        /* \"#utility.yul\":10400:10409   */\n      dup4\n        /* \"#utility.yul\":10396:10413   */\n      add\n        /* \"#utility.yul\":10387:10393   */\n      dup9\n        /* \"#utility.yul\":10343:10414   */\n      tag_347\n      jump\t// in\n    tag_549:\n        /* \"#utility.yul\":10424:10496   */\n      tag_550\n        /* \"#utility.yul\":10492:10494   */\n      0x20\n        /* \"#utility.yul\":10481:10490   */\n      dup4\n        /* \"#utility.yul\":10477:10495   */\n      add\n        /* \"#utility.yul\":10468:10474   */\n      dup8\n        /* \"#utility.yul\":10424:10496   */\n      tag_347\n      jump\t// in\n    tag_550:\n        /* \"#utility.yul\":10506:10578   */\n      tag_551\n        /* \"#utility.yul\":10574:10576   */\n      0x40\n        /* \"#utility.yul\":10563:10572   */\n      dup4\n        /* \"#utility.yul\":10559:10577   */\n      add\n        /* \"#utility.yul\":10550:10556   */\n      dup7\n        /* \"#utility.yul\":10506:10578   */\n      tag_347\n      jump\t// in\n    tag_551:\n        /* \"#utility.yul\":10588:10660   */\n      tag_552\n        /* \"#utility.yul\":10656:10658   */\n      0x60\n        /* \"#utility.yul\":10645:10654   */\n      dup4\n        /* \"#utility.yul\":10641:10659   */\n      add\n        /* \"#utility.yul\":10632:10638   */\n      dup6\n        /* \"#utility.yul\":10588:10660   */\n      tag_347\n      jump\t// in\n    tag_552:\n        /* \"#utility.yul\":10670:10743   */\n      tag_553\n        /* \"#utility.yul\":10738:10741   */\n      0x80\n        /* \"#utility.yul\":10727:10736   */\n      dup4\n        /* \"#utility.yul\":10723:10742   */\n      add\n        /* \"#utility.yul\":10714:10720   */\n      dup5\n        /* \"#utility.yul\":10670:10743   */\n      tag_347\n      jump\t// in\n    tag_553:\n        /* \"#utility.yul\":10086:10750   */\n      swap7\n      swap6\n      pop\n      pop\n      pop\n      pop\n      pop\n      pop\n      jump\t// out\n        /* \"#utility.yul\":10756:10976   */\n    tag_369:\n        /* \"#utility.yul\":10896:10930   */\n      0x70726f6a65637420686173206e6f74206265656e206372656174656420796574\n        /* \"#utility.yul\":10892:10893   */\n      0x00\n        /* \"#utility.yul\":10884:10890   */\n      dup3\n        /* \"#utility.yul\":10880:10894   */\n      add\n        /* \"#utility.yul\":10873:10931   */\n      mstore\n        /* \"#utility.yul\":10965:10968   */\n      0x2100000000000000000000000000000000000000000000000000000000000000\n        /* \"#utility.yul\":10960:10962   */\n      0x20\n        /* \"#utility.yul\":10952:10958   */\n      dup3\n        /* \"#utility.yul\":10948:10963   */\n      add\n        /* \"#utility.yul\":10941:10969   */\n      mstore\n        /* \"#utility.yul\":10756:10976   */\n      pop\n      jump\t// out\n        /* \"#utility.yul\":10982:11348   */\n    tag_370:\n        /* \"#utility.yul\":11124:11127   */\n      0x00\n        /* \"#utility.yul\":11145:11212   */\n      tag_556\n        /* \"#utility.yul\":11209:11211   */\n      0x21\n        /* \"#utility.yul\":11204:11207   */\n      dup4\n        /* \"#utility.yul\":11145:11212   */\n      tag_352\n      jump\t// in\n    tag_556:\n        /* \"#utility.yul\":11138:11212   */\n      swap2\n      pop\n        /* \"#utility.yul\":11221:11314   */\n      tag_557\n        /* \"#utility.yul\":11310:11313   */\n      dup3\n        /* \"#utility.yul\":11221:11314   */\n      tag_369\n      jump\t// in\n    tag_557:\n        /* \"#utility.yul\":11339:11341   */\n      0x40\n        /* \"#utility.yul\":11334:11337   */\n      dup3\n        /* \"#utility.yul\":11330:11342   */\n      add\n        /* \"#utility.yul\":11323:11342   */\n      swap1\n      pop\n        /* \"#utility.yul\":10982:11348   */\n      swap2\n      swap1\n      pop\n      jump\t// out\n        /* \"#utility.yul\":11354:11773   */\n    tag_134:\n        /* \"#utility.yul\":11520:11524   */\n      0x00\n        /* \"#utility.yul\":11558:11560   */\n      0x20\n        /* \"#utility.yul\":11547:11556   */\n      dup3\n        /* \"#utility.yul\":11543:11561   */\n      add\n        /* \"#utility.yul\":11535:11561   */\n      swap1\n      pop\n        /* \"#utility.yul\":11607:11616   */\n      dup2\n        /* \"#utility.yul\":11601:11605   */\n      dup2\n        /* \"#utility.yul\":11597:11617   */\n      sub\n        /* \"#utility.yul\":11593:11594   */\n      0x00\n        /* \"#utility.yul\":11582:11591   */\n      dup4\n        /* \"#utility.yul\":11578:11595   */\n      add\n        /* \"#utility.yul\":11571:11618   */\n      mstore\n        /* \"#utility.yul\":11635:11766   */\n      tag_559\n        /* \"#utility.yul\":11761:11765   */\n      dup2\n        /* \"#utility.yul\":11635:11766   */\n      tag_370\n      jump\t// in\n    tag_559:\n        /* \"#utility.yul\":11627:11766   */\n      swap1\n      pop\n        /* \"#utility.yul\":11354:11773   */\n      swap2\n      swap1\n      pop\n      jump\t// out\n        /* \"#utility.yul\":11779:11959   */\n    tag_371:\n        /* \"#utility.yul\":11827:11904   */\n      0x4e487b7100000000000000000000000000000000000000000000000000000000\n        /* \"#utility.yul\":11824:11825   */\n      0x00\n        /* \"#utility.yul\":11817:11905   */\n      mstore\n        /* \"#utility.yul\":11924:11928   */\n      0x11\n        /* \"#utility.yul\":11921:11922   */\n      0x04\n        /* \"#utility.yul\":11914:11929   */\n      mstore\n        /* \"#utility.yul\":11948:11952   */\n      0x24\n        /* \"#utility.yul\":11945:11946   */\n      0x00\n        /* \"#utility.yul\":11938:11953   */\n      revert\n        /* \"#utility.yul\":11965:12159   */\n    tag_138:\n        /* \"#utility.yul\":12005:12009   */\n      0x00\n        /* \"#utility.yul\":12025:12045   */\n      tag_562\n        /* \"#utility.yul\":12043:12044   */\n      dup3\n        /* \"#utility.yul\":12025:12045   */\n      tag_344\n      jump\t// in\n    tag_562:\n        /* \"#utility.yul\":12020:12045   */\n      swap2\n      pop\n        /* \"#utility.yul\":12059:12079   */\n      tag_563\n        /* \"#utility.yul\":12077:12078   */\n      dup4\n        /* \"#utility.yul\":12059:12079   */\n      tag_344\n      jump\t// in\n    tag_563:\n        /* \"#utility.yul\":12054:12079   */\n      swap3\n      pop\n        /* \"#utility.yul\":12103:12104   */\n      dup3\n        /* \"#utility.yul\":12100:12101   */\n      dup3\n        /* \"#utility.yul\":12096:12105   */\n      sub\n        /* \"#utility.yul\":12088:12105   */\n      swap1\n      pop\n        /* \"#utility.yul\":12127:12128   */\n      dup2\n        /* \"#utility.yul\":12121:12125   */\n      dup2\n        /* \"#utility.yul\":12118:12129   */\n      gt\n        /* \"#utility.yul\":12115:12152   */\n      iszero\n      tag_564\n      jumpi\n        /* \"#utility.yul\":12132:12150   */\n      tag_565\n      tag_371\n      jump\t// in\n    tag_565:\n        /* \"#utility.yul\":12115:12152   */\n    tag_564:\n        /* \"#utility.yul\":11965:12159   */\n      swap3\n      swap2\n      pop\n      pop\n      jump\t// out\n        /* \"#utility.yul\":12165:12407   */\n    tag_372:\n        /* \"#utility.yul\":12305:12339   */\n      0x446561646c696e65206973206f766572202c20796f752043616e277420636861\n        /* \"#utility.yul\":12301:12302   */\n      0x00\n        /* \"#utility.yul\":12293:12299   */\n      dup3\n        /* \"#utility.yul\":12289:12303   */\n      add\n        /* \"#utility.yul\":12282:12340   */\n      mstore\n        /* \"#utility.yul\":12374:12399   */\n      0x6e6765207468652066756e64696e6720676f616c202121000000000000000000\n        /* \"#utility.yul\":12369:12371   */\n      0x20\n        /* \"#utility.yul\":12361:12367   */\n      dup3\n        /* \"#utility.yul\":12357:12372   */\n      add\n        /* \"#utility.yul\":12350:12400   */\n      mstore\n        /* \"#utility.yul\":12165:12407   */\n      pop\n      jump\t// out\n        /* \"#utility.yul\":12413:12779   */\n    tag_373:\n        /* \"#utility.yul\":12555:12558   */\n      0x00\n        /* \"#utility.yul\":12576:12643   */\n      tag_568\n        /* \"#utility.yul\":12640:12642   */\n      0x37\n        /* \"#utility.yul\":12635:12638   */\n      dup4\n        /* \"#utility.yul\":12576:12643   */\n      tag_352\n      jump\t// in\n    tag_568:\n        /* \"#utility.yul\":12569:12643   */\n      swap2\n      pop\n        /* \"#utility.yul\":12652:12745   */\n      tag_569\n        /* \"#utility.yul\":12741:12744   */\n      dup3\n        /* \"#utility.yul\":12652:12745   */\n      tag_372\n      jump\t// in\n    tag_569:\n        /* \"#utility.yul\":12770:12772   */\n      0x40\n        /* \"#utility.yul\":12765:12768   */\n      dup3\n        /* \"#utility.yul\":12761:12773   */\n      add\n        /* \"#utility.yul\":12754:12773   */\n      swap1\n      pop\n        /* \"#utility.yul\":12413:12779   */\n      swap2\n      swap1\n      pop\n      jump\t// out\n        /* \"#utility.yul\":12785:13204   */\n    tag_142:\n        /* \"#utility.yul\":12951:12955   */\n      0x00\n        /* \"#utility.yul\":12989:12991   */\n      0x20\n        /* \"#utility.yul\":12978:12987   */\n      dup3\n        /* \"#utility.yul\":12974:12992   */\n      add\n        /* \"#utility.yul\":12966:12992   */\n      swap1\n      pop\n        /* \"#utility.yul\":13038:13047   */\n      dup2\n        /* \"#utility.yul\":13032:13036   */\n      dup2\n        /* \"#utility.yul\":13028:13048   */\n      sub\n        /* \"#utility.yul\":13024:13025   */\n      0x00\n        /* \"#utility.yul\":13013:13022   */\n      dup4\n        /* \"#utility.yul\":13009:13026   */\n      add\n        /* \"#utility.yul\":13002:13049   */\n      mstore\n        /* \"#utility.yul\":13066:13197   */\n      tag_571\n        /* \"#utility.yul\":13192:13196   */\n      dup2\n        /* \"#utility.yul\":13066:13197   */\n      tag_373\n      jump\t// in\n    tag_571:\n        /* \"#utility.yul\":13058:13197   */\n      swap1\n      pop\n        /* \"#utility.yul\":12785:13204   */\n      swap2\n      swap1\n      pop\n      jump\t// out\n        /* \"#utility.yul\":13210:13502   */\n    tag_374:\n        /* \"#utility.yul\":13350:13384   */\n      0x596f7520617265206e6f74207468652070726f6a6563742063726561746f7220\n        /* \"#utility.yul\":13346:13347   */\n      0x00\n        /* \"#utility.yul\":13338:13344   */\n      dup3\n        /* \"#utility.yul\":13334:13348   */\n      add\n        /* \"#utility.yul\":13327:13385   */\n      mstore\n        /* \"#utility.yul\":13419:13453   */\n      0x2c204f6e6c7920506f726a6563742063726561746f722063616e204368616e67\n        /* \"#utility.yul\":13414:13416   */\n      0x20\n        /* \"#utility.yul\":13406:13412   */\n      dup3\n        /* \"#utility.yul\":13402:13417   */\n      add\n        /* \"#utility.yul\":13395:13454   */\n      mstore\n        /* \"#utility.yul\":13488:13494   */\n      0x6520212100000000000000000000000000000000000000000000000000000000\n        /* \"#utility.yul\":13483:13485   */\n      0x40\n        /* \"#utility.yul\":13475:13481   */\n      dup3\n        /* \"#utility.yul\":13471:13486   */\n      add\n        /* \"#utility.yul\":13464:13495   */\n      mstore\n        /* \"#utility.yul\":13210:13502   */\n      pop\n      jump\t// out\n        /* \"#utility.yul\":13508:13874   */\n    tag_375:\n        /* \"#utility.yul\":13650:13653   */\n      0x00\n        /* \"#utility.yul\":13671:13738   */\n      tag_574\n        /* \"#utility.yul\":13735:13737   */\n      0x44\n        /* \"#utility.yul\":13730:13733   */\n      dup4\n        /* \"#utility.yul\":13671:13738   */\n      tag_352\n      jump\t// in\n    tag_574:\n        /* \"#utility.yul\":13664:13738   */\n      swap2\n      pop\n        /* \"#utility.yul\":13747:13840   */\n      tag_575\n        /* \"#utility.yul\":13836:13839   */\n      dup3\n        /* \"#utility.yul\":13747:13840   */\n      tag_374\n      jump\t// in\n    tag_575:\n        /* \"#utility.yul\":13865:13867   */\n      0x60\n        /* \"#utility.yul\":13860:13863   */\n      dup3\n        /* \"#utility.yul\":13856:13868   */\n      add\n        /* \"#utility.yul\":13849:13868   */\n      swap1\n      pop\n        /* \"#utility.yul\":13508:13874   */\n      swap2\n      swap1\n      pop\n      jump\t// out\n        /* \"#utility.yul\":13880:14299   */\n    tag_145:\n        /* \"#utility.yul\":14046:14050   */\n      0x00\n        /* \"#utility.yul\":14084:14086   */\n      0x20\n        /* \"#utility.yul\":14073:14082   */\n      dup3\n        /* \"#utility.yul\":14069:14087   */\n      add\n        /* \"#utility.yul\":14061:14087   */\n      swap1\n      pop\n        /* \"#utility.yul\":14133:14142   */\n      dup2\n        /* \"#utility.yul\":14127:14131   */\n      dup2\n        /* \"#utility.yul\":14123:14143   */\n      sub\n        /* \"#utility.yul\":14119:14120   */\n      0x00\n        /* \"#utility.yul\":14108:14117   */\n      dup4\n        /* \"#utility.yul\":14104:14121   */\n      add\n        /* \"#utility.yul\":14097:14144   */\n      mstore\n        /* \"#utility.yul\":14161:14292   */\n      tag_577\n        /* \"#utility.yul\":14287:14291   */\n      dup2\n        /* \"#utility.yul\":14161:14292   */\n      tag_375\n      jump\t// in\n    tag_577:\n        /* \"#utility.yul\":14153:14292   */\n      swap1\n      pop\n        /* \"#utility.yul\":13880:14299   */\n      swap2\n      swap1\n      pop\n      jump\t// out\n        /* \"#utility.yul\":14305:14485   */\n    tag_376:\n        /* \"#utility.yul\":14353:14430   */\n      0x4e487b7100000000000000000000000000000000000000000000000000000000\n        /* \"#utility.yul\":14350:14351   */\n      0x00\n        /* \"#utility.yul\":14343:14431   */\n      mstore\n        /* \"#utility.yul\":14450:14454   */\n      0x22\n        /* \"#utility.yul\":14447:14448   */\n      0x04\n        /* \"#utility.yul\":14440:14455   */\n      mstore\n        /* \"#utility.yul\":14474:14478   */\n      0x24\n        /* \"#utility.yul\":14471:14472   */\n      0x00\n        /* \"#utility.yul\":14464:14479   */\n      revert\n        /* \"#utility.yul\":14491:14811   */\n    tag_147:\n        /* \"#utility.yul\":14535:14541   */\n      0x00\n        /* \"#utility.yul\":14572:14573   */\n      0x02\n        /* \"#utility.yul\":14566:14570   */\n      dup3\n        /* \"#utility.yul\":14562:14574   */\n      div\n        /* \"#utility.yul\":14552:14574   */\n      swap1\n      pop\n        /* \"#utility.yul\":14619:14620   */\n      0x01\n        /* \"#utility.yul\":14613:14617   */\n      dup3\n        /* \"#utility.yul\":14609:14621   */\n      and\n        /* \"#utility.yul\":14640:14658   */\n      dup1\n        /* \"#utility.yul\":14630:14711   */\n      tag_580\n      jumpi\n        /* \"#utility.yul\":14696:14700   */\n      0x7f\n        /* \"#utility.yul\":14688:14694   */\n      dup3\n        /* \"#utility.yul\":14684:14701   */\n      and\n        /* \"#utility.yul\":14674:14701   */\n      swap2\n      pop\n        /* \"#utility.yul\":14630:14711   */\n    tag_580:\n        /* \"#utility.yul\":14758:14760   */\n      0x20\n        /* \"#utility.yul\":14750:14756   */\n      dup3\n        /* \"#utility.yul\":14747:14761   */\n      lt\n        /* \"#utility.yul\":14727:14745   */\n      dup2\n        /* \"#utility.yul\":14724:14762   */\n      sub\n        /* \"#utility.yul\":14721:14805   */\n      tag_581\n      jumpi\n        /* \"#utility.yul\":14777:14795   */\n      tag_582\n      tag_376\n      jump\t// in\n    tag_582:\n        /* \"#utility.yul\":14721:14805   */\n    tag_581:\n        /* \"#utility.yul\":14542:14811   */\n      pop\n        /* \"#utility.yul\":14491:14811   */\n      swap2\n      swap1\n      pop\n      jump\t// out\n        /* \"#utility.yul\":14817:15050   */\n    tag_377:\n        /* \"#utility.yul\":14957:14991   */\n      0x46756e64696e6720676f616c206861732072656163686564202c207573657220\n        /* \"#utility.yul\":14953:14954   */\n      0x00\n        /* \"#utility.yul\":14945:14951   */\n      dup3\n        /* \"#utility.yul\":14941:14955   */\n      add\n        /* \"#utility.yul\":14934:14992   */\n      mstore\n        /* \"#utility.yul\":15026:15042   */\n      0x63616e2774207769746864726177000000000000000000000000000000000000\n        /* \"#utility.yul\":15021:15023   */\n      0x20\n        /* \"#utility.yul\":15013:15019   */\n      dup3\n        /* \"#utility.yul\":15009:15024   */\n      add\n        /* \"#utility.yul\":15002:15043   */\n      mstore\n        /* \"#utility.yul\":14817:15050   */\n      pop\n      jump\t// out\n        /* \"#utility.yul\":15056:15422   */\n    tag_378:\n        /* \"#utility.yul\":15198:15201   */\n      0x00\n        /* \"#utility.yul\":15219:15286   */\n      tag_585\n        /* \"#utility.yul\":15283:15285   */\n      0x2e\n        /* \"#utility.yul\":15278:15281   */\n      dup4\n        /* \"#utility.yul\":15219:15286   */\n      tag_352\n      jump\t// in\n    tag_585:\n        /* \"#utility.yul\":15212:15286   */\n      swap2\n      pop\n        /* \"#utility.yul\":15295:15388   */\n      tag_586\n        /* \"#utility.yul\":15384:15387   */\n      dup3\n        /* \"#utility.yul\":15295:15388   */\n      tag_377\n      jump\t// in\n    tag_586:\n        /* \"#utility.yul\":15413:15415   */\n      0x40\n        /* \"#utility.yul\":15408:15411   */\n      dup3\n        /* \"#utility.yul\":15404:15416   */\n      add\n        /* \"#utility.yul\":15397:15416   */\n      swap1\n      pop\n        /* \"#utility.yul\":15056:15422   */\n      swap2\n      swap1\n      pop\n      jump\t// out\n        /* \"#utility.yul\":15428:15847   */\n    tag_164:\n        /* \"#utility.yul\":15594:15598   */\n      0x00\n        /* \"#utility.yul\":15632:15634   */\n      0x20\n        /* \"#utility.yul\":15621:15630   */\n      dup3\n        /* \"#utility.yul\":15617:15635   */\n      add\n        /* \"#utility.yul\":15609:15635   */\n      swap1\n      pop\n        /* \"#utility.yul\":15681:15690   */\n      dup2\n        /* \"#utility.yul\":15675:15679   */\n      dup2\n        /* \"#utility.yul\":15671:15691   */\n      sub\n        /* \"#utility.yul\":15667:15668   */\n      0x00\n        /* \"#utility.yul\":15656:15665   */\n      dup4\n        /* \"#utility.yul\":15652:15669   */\n      add\n        /* \"#utility.yul\":15645:15692   */\n      mstore\n        /* \"#utility.yul\":15709:15840   */\n      tag_588\n        /* \"#utility.yul\":15835:15839   */\n      dup2\n        /* \"#utility.yul\":15709:15840   */\n      tag_378\n      jump\t// in\n    tag_588:\n        /* \"#utility.yul\":15701:15840   */\n      swap1\n      pop\n        /* \"#utility.yul\":15428:15847   */\n      swap2\n      swap1\n      pop\n      jump\t// out\n        /* \"#utility.yul\":15853:16023   */\n    tag_379:\n        /* \"#utility.yul\":15993:16015   */\n      0x4e6f2066756e647320746f207769746864726177000000000000000000000000\n        /* \"#utility.yul\":15989:15990   */\n      0x00\n        /* \"#utility.yul\":15981:15987   */\n      dup3\n        /* \"#utility.yul\":15977:15991   */\n      add\n        /* \"#utility.yul\":15970:16016   */\n      mstore\n        /* \"#utility.yul\":15853:16023   */\n      pop\n      jump\t// out\n        /* \"#utility.yul\":16029:16395   */\n    tag_380:\n        /* \"#utility.yul\":16171:16174   */\n      0x00\n        /* \"#utility.yul\":16192:16259   */\n      tag_591\n        /* \"#utility.yul\":16256:16258   */\n      0x14\n        /* \"#utility.yul\":16251:16254   */\n      dup4\n        /* \"#utility.yul\":16192:16259   */\n      tag_352\n      jump\t// in\n    tag_591:\n        /* \"#utility.yul\":16185:16259   */\n      swap2\n      pop\n        /* \"#utility.yul\":16268:16361   */\n      tag_592\n        /* \"#utility.yul\":16357:16360   */\n      dup3\n        /* \"#utility.yul\":16268:16361   */\n      tag_379\n      jump\t// in\n    tag_592:\n        /* \"#utility.yul\":16386:16388   */\n      0x20\n        /* \"#utility.yul\":16381:16384   */\n      dup3\n        /* \"#utility.yul\":16377:16389   */\n      add\n        /* \"#utility.yul\":16370:16389   */\n      swap1\n      pop\n        /* \"#utility.yul\":16029:16395   */\n      swap2\n      swap1\n      pop\n      jump\t// out\n        /* \"#utility.yul\":16401:16820   */\n    tag_167:\n        /* \"#utility.yul\":16567:16571   */\n      0x00\n        /* \"#utility.yul\":16605:16607   */\n      0x20\n        /* \"#utility.yul\":16594:16603   */\n      dup3\n        /* \"#utility.yul\":16590:16608   */\n      add\n        /* \"#utility.yul\":16582:16608   */\n      swap1\n      pop\n        /* \"#utility.yul\":16654:16663   */\n      dup2\n        /* \"#utility.yul\":16648:16652   */\n      dup2\n        /* \"#utility.yul\":16644:16664   */\n      sub\n        /* \"#utility.yul\":16640:16641   */\n      0x00\n        /* \"#utility.yul\":16629:16638   */\n      dup4\n        /* \"#utility.yul\":16625:16642   */\n      add\n        /* \"#utility.yul\":16618:16665   */\n      mstore\n        /* \"#utility.yul\":16682:16813   */\n      tag_594\n        /* \"#utility.yul\":16808:16812   */\n      dup2\n        /* \"#utility.yul\":16682:16813   */\n      tag_380\n      jump\t// in\n    tag_594:\n        /* \"#utility.yul\":16674:16813   */\n      swap1\n      pop\n        /* \"#utility.yul\":16401:16820   */\n      swap2\n      swap1\n      pop\n      jump\t// out\n        /* \"#utility.yul\":16826:16997   */\n    tag_175:\n        /* \"#utility.yul\":16865:16868   */\n      0x00\n        /* \"#utility.yul\":16888:16912   */\n      tag_596\n        /* \"#utility.yul\":16906:16911   */\n      dup3\n        /* \"#utility.yul\":16888:16912   */\n      tag_344\n      jump\t// in\n    tag_596:\n        /* \"#utility.yul\":16879:16912   */\n      swap2\n      pop\n        /* \"#utility.yul\":16934:16938   */\n      0x00\n        /* \"#utility.yul\":16927:16932   */\n      dup3\n        /* \"#utility.yul\":16924:16939   */\n      sub\n        /* \"#utility.yul\":16921:16962   */\n      tag_597\n      jumpi\n        /* \"#utility.yul\":16942:16960   */\n      tag_598\n      tag_371\n      jump\t// in\n    tag_598:\n        /* \"#utility.yul\":16921:16962   */\n    tag_597:\n        /* \"#utility.yul\":16989:16990   */\n      0x01\n        /* \"#utility.yul\":16982:16987   */\n      dup3\n        /* \"#utility.yul\":16978:16991   */\n      sub\n        /* \"#utility.yul\":16971:16991   */\n      swap1\n      pop\n        /* \"#utility.yul\":16826:16997   */\n      swap2\n      swap1\n      pop\n      jump\t// out\n        /* \"#utility.yul\":17003:17150   */\n    tag_381:\n        /* \"#utility.yul\":17104:17115   */\n      0x00\n        /* \"#utility.yul\":17141:17144   */\n      dup2\n        /* \"#utility.yul\":17126:17144   */\n      swap1\n      pop\n        /* \"#utility.yul\":17003:17150   */\n      swap3\n      swap2\n      pop\n      pop\n      jump\t// out\n        /* \"#utility.yul\":17156:17270   */\n    tag_382:\n      pop\n      jump\t// out\n        /* \"#utility.yul\":17276:17674   */\n    tag_383:\n        /* \"#utility.yul\":17435:17438   */\n      0x00\n        /* \"#utility.yul\":17456:17539   */\n      tag_602\n        /* \"#utility.yul\":17537:17538   */\n      0x00\n        /* \"#utility.yul\":17532:17535   */\n      dup4\n        /* \"#utility.yul\":17456:17539   */\n      tag_381\n      jump\t// in\n    tag_602:\n        /* \"#utility.yul\":17449:17539   */\n      swap2\n      pop\n        /* \"#utility.yul\":17548:17641   */\n      tag_603\n        /* \"#utility.yul\":17637:17640   */\n      dup3\n        /* \"#utility.yul\":17548:17641   */\n      tag_382\n      jump\t// in\n    tag_603:\n        /* \"#utility.yul\":17666:17667   */\n      0x00\n        /* \"#utility.yul\":17661:17664   */\n      dup3\n        /* \"#utility.yul\":17657:17668   */\n      add\n        /* \"#utility.yul\":17650:17668   */\n      swap1\n      pop\n        /* \"#utility.yul\":17276:17674   */\n      swap2\n      swap1\n      pop\n      jump\t// out\n        /* \"#utility.yul\":17680:18059   */\n    tag_177:\n        /* \"#utility.yul\":17864:17867   */\n      0x00\n        /* \"#utility.yul\":17886:18033   */\n      tag_605\n        /* \"#utility.yul\":18029:18032   */\n      dup3\n        /* \"#utility.yul\":17886:18033   */\n      tag_383\n      jump\t// in\n    tag_605:\n        /* \"#utility.yul\":17879:18033   */\n      swap2\n      pop\n        /* \"#utility.yul\":18050:18053   */\n      dup2\n        /* \"#utility.yul\":18043:18053   */\n      swap1\n      pop\n        /* \"#utility.yul\":17680:18059   */\n      swap2\n      swap1\n      pop\n      jump\t// out\n        /* \"#utility.yul\":18065:18232   */\n    tag_384:\n        /* \"#utility.yul\":18205:18224   */\n      0x5769746864726177616c204661696c6564000000000000000000000000000000\n        /* \"#utility.yul\":18201:18202   */\n      0x00\n        /* \"#utility.yul\":18193:18199   */\n      dup3\n        /* \"#utility.yul\":18189:18203   */\n      add\n        /* \"#utility.yul\":18182:18225   */\n      mstore\n        /* \"#utility.yul\":18065:18232   */\n      pop\n      jump\t// out\n        /* \"#utility.yul\":18238:18604   */\n    tag_385:\n        /* \"#utility.yul\":18380:18383   */\n      0x00\n        /* \"#utility.yul\":18401:18468   */\n      tag_608\n        /* \"#utility.yul\":18465:18467   */\n      0x11\n        /* \"#utility.yul\":18460:18463   */\n      dup4\n        /* \"#utility.yul\":18401:18468   */\n      tag_352\n      jump\t// in\n    tag_608:\n        /* \"#utility.yul\":18394:18468   */\n      swap2\n      pop\n        /* \"#utility.yul\":18477:18570   */\n      tag_609\n        /* \"#utility.yul\":18566:18569   */\n      dup3\n        /* \"#utility.yul\":18477:18570   */\n      tag_384\n      jump\t// in\n    tag_609:\n        /* \"#utility.yul\":18595:18597   */\n      0x20\n        /* \"#utility.yul\":18590:18593   */\n      dup3\n        /* \"#utility.yul\":18586:18598   */\n      add\n        /* \"#utility.yul\":18579:18598   */\n      swap1\n      pop\n        /* \"#utility.yul\":18238:18604   */\n      swap2\n      swap1\n      pop\n      jump\t// out\n        /* \"#utility.yul\":18610:19029   */\n    tag_183:\n        /* \"#utility.yul\":18776:18780   */\n      0x00\n        /* \"#utility.yul\":18814:18816   */\n      0x20\n        /* \"#utility.yul\":18803:18812   */\n      dup3\n        /* \"#utility.yul\":18799:18817   */\n      add\n        /* \"#utility.yul\":18791:18817   */\n      swap1\n      pop\n        /* \"#utility.yul\":18863:18872   */\n      dup2\n        /* \"#utility.yul\":18857:18861   */\n      dup2\n        /* \"#utility.yul\":18853:18873   */\n      sub\n        /* \"#utility.yul\":18849:18850   */\n      0x00\n        /* \"#utility.yul\":18838:18847   */\n      dup4\n        /* \"#utility.yul\":18834:18851   */\n      add\n        /* \"#utility.yul\":18827:18874   */\n      mstore\n        /* \"#utility.yul\":18891:19022   */\n      tag_611\n        /* \"#utility.yul\":19017:19021   */\n      dup2\n        /* \"#utility.yul\":18891:19022   */\n      tag_385\n      jump\t// in\n    tag_611:\n        /* \"#utility.yul\":18883:19022   */\n      swap1\n      pop\n        /* \"#utility.yul\":18610:19029   */\n      swap2\n      swap1\n      pop\n      jump\t// out\n        /* \"#utility.yul\":19035:19367   */\n    tag_185:\n        /* \"#utility.yul\":19156:19160   */\n      0x00\n        /* \"#utility.yul\":19194:19196   */\n      0x40\n        /* \"#utility.yul\":19183:19192   */\n      dup3\n        /* \"#utility.yul\":19179:19197   */\n      add\n        /* \"#utility.yul\":19171:19197   */\n      swap1\n      pop\n        /* \"#utility.yul\":19207:19278   */\n      tag_613\n        /* \"#utility.yul\":19275:19276   */\n      0x00\n        /* \"#utility.yul\":19264:19273   */\n      dup4\n        /* \"#utility.yul\":19260:19277   */\n      add\n        /* \"#utility.yul\":19251:19257   */\n      dup6\n        /* \"#utility.yul\":19207:19278   */\n      tag_350\n      jump\t// in\n    tag_613:\n        /* \"#utility.yul\":19288:19360   */\n      tag_614\n        /* \"#utility.yul\":19356:19358   */\n      0x20\n        /* \"#utility.yul\":19345:19354   */\n      dup4\n        /* \"#utility.yul\":19341:19359   */\n      add\n        /* \"#utility.yul\":19332:19338   */\n      dup5\n        /* \"#utility.yul\":19288:19360   */\n      tag_347\n      jump\t// in\n    tag_614:\n        /* \"#utility.yul\":19035:19367   */\n      swap4\n      swap3\n      pop\n      pop\n      pop\n      jump\t// out\n        /* \"#utility.yul\":19373:19783   */\n    tag_188:\n        /* \"#utility.yul\":19413:19420   */\n      0x00\n        /* \"#utility.yul\":19436:19456   */\n      tag_616\n        /* \"#utility.yul\":19454:19455   */\n      dup3\n        /* \"#utility.yul\":19436:19456   */\n      tag_344\n      jump\t// in\n    tag_616:\n        /* \"#utility.yul\":19431:19456   */\n      swap2\n      pop\n        /* \"#utility.yul\":19470:19490   */\n      tag_617\n        /* \"#utility.yul\":19488:19489   */\n      dup4\n        /* \"#utility.yul\":19470:19490   */\n      tag_344\n      jump\t// in\n    tag_617:\n        /* \"#utility.yul\":19465:19490   */\n      swap3\n      pop\n        /* \"#utility.yul\":19525:19526   */\n      dup3\n        /* \"#utility.yul\":19522:19523   */\n      dup3\n        /* \"#utility.yul\":19518:19527   */\n      mul\n        /* \"#utility.yul\":19547:19577   */\n      tag_618\n        /* \"#utility.yul\":19565:19576   */\n      dup2\n        /* \"#utility.yul\":19547:19577   */\n      tag_344\n      jump\t// in\n    tag_618:\n        /* \"#utility.yul\":19536:19577   */\n      swap2\n      pop\n        /* \"#utility.yul\":19726:19727   */\n      dup3\n        /* \"#utility.yul\":19717:19724   */\n      dup3\n        /* \"#utility.yul\":19713:19728   */\n      div\n        /* \"#utility.yul\":19710:19711   */\n      dup5\n        /* \"#utility.yul\":19707:19729   */\n      eq\n        /* \"#utility.yul\":19687:19688   */\n      dup4\n        /* \"#utility.yul\":19680:19689   */\n      iszero\n        /* \"#utility.yul\":19660:19743   */\n      or\n        /* \"#utility.yul\":19637:19776   */\n      tag_619\n      jumpi\n        /* \"#utility.yul\":19756:19774   */\n      tag_620\n      tag_371\n      jump\t// in\n    tag_620:\n        /* \"#utility.yul\":19637:19776   */\n    tag_619:\n        /* \"#utility.yul\":19421:19783   */\n      pop\n        /* \"#utility.yul\":19373:19783   */\n      swap3\n      swap2\n      pop\n      pop\n      jump\t// out\n        /* \"#utility.yul\":19789:19969   */\n    tag_386:\n        /* \"#utility.yul\":19837:19914   */\n      0x4e487b7100000000000000000000000000000000000000000000000000000000\n        /* \"#utility.yul\":19834:19835   */\n      0x00\n        /* \"#utility.yul\":19827:19915   */\n      mstore\n        /* \"#utility.yul\":19934:19938   */\n      0x12\n        /* \"#utility.yul\":19931:19932   */\n      0x04\n        /* \"#utility.yul\":19924:19939   */\n      mstore\n        /* \"#utility.yul\":19958:19962   */\n      0x24\n        /* \"#utility.yul\":19955:19956   */\n      0x00\n        /* \"#utility.yul\":19948:19963   */\n      revert\n        /* \"#utility.yul\":19975:20160   */\n    tag_190:\n        /* \"#utility.yul\":20015:20016   */\n      0x00\n        /* \"#utility.yul\":20032:20052   */\n      tag_623\n        /* \"#utility.yul\":20050:20051   */\n      dup3\n        /* \"#utility.yul\":20032:20052   */\n      tag_344\n      jump\t// in\n    tag_623:\n        /* \"#utility.yul\":20027:20052   */\n      swap2\n      pop\n        /* \"#utility.yul\":20066:20086   */\n      tag_624\n        /* \"#utility.yul\":20084:20085   */\n      dup4\n        /* \"#utility.yul\":20066:20086   */\n      tag_344\n      jump\t// in\n    tag_624:\n        /* \"#utility.yul\":20061:20086   */\n      swap3\n      pop\n        /* \"#utility.yul\":20105:20106   */\n      dup3\n        /* \"#utility.yul\":20095:20130   */\n      tag_625\n      jumpi\n        /* \"#utility.yul\":20110:20128   */\n      tag_626\n      tag_386\n      jump\t// in\n    tag_626:\n        /* \"#utility.yul\":20095:20130   */\n    tag_625:\n        /* \"#utility.yul\":20152:20153   */\n      dup3\n        /* \"#utility.yul\":20149:20150   */\n      dup3\n        /* \"#utility.yul\":20145:20154   */\n      div\n        /* \"#utility.yul\":20140:20154   */\n      swap1\n      pop\n        /* \"#utility.yul\":19975:20160   */\n      swap3\n      swap2\n      pop\n      pop\n      jump\t// out\n        /* \"#utility.yul\":20166:20399   */\n    tag_387:\n        /* \"#utility.yul\":20306:20340   */\n      0x4f6e6c792050726f6a6563742063726561746f722063616e20657874656e6420\n        /* \"#utility.yul\":20302:20303   */\n      0x00\n        /* \"#utility.yul\":20294:20300   */\n      dup3\n        /* \"#utility.yul\":20290:20304   */\n      add\n        /* \"#utility.yul\":20283:20341   */\n      mstore\n        /* \"#utility.yul\":20375:20391   */\n      0x74686520646561646c696e652121000000000000000000000000000000000000\n        /* \"#utility.yul\":20370:20372   */\n      0x20\n        /* \"#utility.yul\":20362:20368   */\n      dup3\n        /* \"#utility.yul\":20358:20373   */\n      add\n        /* \"#utility.yul\":20351:20392   */\n      mstore\n        /* \"#utility.yul\":20166:20399   */\n      pop\n      jump\t// out\n        /* \"#utility.yul\":20405:20771   */\n    tag_388:\n        /* \"#utility.yul\":20547:20550   */\n      0x00\n        /* \"#utility.yul\":20568:20635   */\n      tag_629\n        /* \"#utility.yul\":20632:20634   */\n      0x2e\n        /* \"#utility.yul\":20627:20630   */\n      dup4\n        /* \"#utility.yul\":20568:20635   */\n      tag_352\n      jump\t// in\n    tag_629:\n        /* \"#utility.yul\":20561:20635   */\n      swap2\n      pop\n        /* \"#utility.yul\":20644:20737   */\n      tag_630\n        /* \"#utility.yul\":20733:20736   */\n      dup3\n        /* \"#utility.yul\":20644:20737   */\n      tag_387\n      jump\t// in\n    tag_630:\n        /* \"#utility.yul\":20762:20764   */\n      0x40\n        /* \"#utility.yul\":20757:20760   */\n      dup3\n        /* \"#utility.yul\":20753:20765   */\n      add\n        /* \"#utility.yul\":20746:20765   */\n      swap1\n      pop\n        /* \"#utility.yul\":20405:20771   */\n      swap2\n      swap1\n      pop\n      jump\t// out\n        /* \"#utility.yul\":20777:21196   */\n    tag_196:\n        /* \"#utility.yul\":20943:20947   */\n      0x00\n        /* \"#utility.yul\":20981:20983   */\n      0x20\n        /* \"#utility.yul\":20970:20979   */\n      dup3\n        /* \"#utility.yul\":20966:20984   */\n      add\n        /* \"#utility.yul\":20958:20984   */\n      swap1\n      pop\n        /* \"#utility.yul\":21030:21039   */\n      dup2\n        /* \"#utility.yul\":21024:21028   */\n      dup2\n        /* \"#utility.yul\":21020:21040   */\n      sub\n        /* \"#utility.yul\":21016:21017   */\n      0x00\n        /* \"#utility.yul\":21005:21014   */\n      dup4\n        /* \"#utility.yul\":21001:21018   */\n      add\n        /* \"#utility.yul\":20994:21041   */\n      mstore\n        /* \"#utility.yul\":21058:21189   */\n      tag_632\n        /* \"#utility.yul\":21184:21188   */\n      dup2\n        /* \"#utility.yul\":21058:21189   */\n      tag_388\n      jump\t// in\n    tag_632:\n        /* \"#utility.yul\":21050:21189   */\n      swap1\n      pop\n        /* \"#utility.yul\":20777:21196   */\n      swap2\n      swap1\n      pop\n      jump\t// out\n        /* \"#utility.yul\":21202:21393   */\n    tag_198:\n        /* \"#utility.yul\":21242:21245   */\n      0x00\n        /* \"#utility.yul\":21261:21281   */\n      tag_634\n        /* \"#utility.yul\":21279:21280   */\n      dup3\n        /* \"#utility.yul\":21261:21281   */\n      tag_344\n      jump\t// in\n    tag_634:\n        /* \"#utility.yul\":21256:21281   */\n      swap2\n      pop\n        /* \"#utility.yul\":21295:21315   */\n      tag_635\n        /* \"#utility.yul\":21313:21314   */\n      dup4\n        /* \"#utility.yul\":21295:21315   */\n      tag_344\n      jump\t// in\n    tag_635:\n        /* \"#utility.yul\":21290:21315   */\n      swap3\n      pop\n        /* \"#utility.yul\":21338:21339   */\n      dup3\n        /* \"#utility.yul\":21335:21336   */\n      dup3\n        /* \"#utility.yul\":21331:21340   */\n      add\n        /* \"#utility.yul\":21324:21340   */\n      swap1\n      pop\n        /* \"#utility.yul\":21359:21362   */\n      dup1\n        /* \"#utility.yul\":21356:21357   */\n      dup3\n        /* \"#utility.yul\":21353:21363   */\n      gt\n        /* \"#utility.yul\":21350:21386   */\n      iszero\n      tag_636\n      jumpi\n        /* \"#utility.yul\":21366:21384   */\n      tag_637\n      tag_371\n      jump\t// in\n    tag_637:\n        /* \"#utility.yul\":21350:21386   */\n    tag_636:\n        /* \"#utility.yul\":21202:21393   */\n      swap3\n      swap2\n      pop\n      pop\n      jump\t// out\n        /* \"#utility.yul\":21399:21574   */\n    tag_389:\n        /* \"#utility.yul\":21539:21566   */\n      0x50726f6a65637420646561646c696e65206973206f7665722100000000000000\n        /* \"#utility.yul\":21535:21536   */\n      0x00\n        /* \"#utility.yul\":21527:21533   */\n      dup3\n        /* \"#utility.yul\":21523:21537   */\n      add\n        /* \"#utility.yul\":21516:21567   */\n      mstore\n        /* \"#utility.yul\":21399:21574   */\n      pop\n      jump\t// out\n        /* \"#utility.yul\":21580:21946   */\n    tag_390:\n        /* \"#utility.yul\":21722:21725   */\n      0x00\n        /* \"#utility.yul\":21743:21810   */\n      tag_640\n        /* \"#utility.yul\":21807:21809   */\n      0x19\n        /* \"#utility.yul\":21802:21805   */\n      dup4\n        /* \"#utility.yul\":21743:21810   */\n      tag_352\n      jump\t// in\n    tag_640:\n        /* \"#utility.yul\":21736:21810   */\n      swap2\n      pop\n        /* \"#utility.yul\":21819:21912   */\n      tag_641\n        /* \"#utility.yul\":21908:21911   */\n      dup3\n        /* \"#utility.yul\":21819:21912   */\n      tag_389\n      jump\t// in\n    tag_641:\n        /* \"#utility.yul\":21937:21939   */\n      0x20\n        /* \"#utility.yul\":21932:21935   */\n      dup3\n        /* \"#utility.yul\":21928:21940   */\n      add\n        /* \"#utility.yul\":21921:21940   */\n      swap1\n      pop\n        /* \"#utility.yul\":21580:21946   */\n      swap2\n      swap1\n      pop\n      jump\t// out\n        /* \"#utility.yul\":21952:22371   */\n    tag_205:\n        /* \"#utility.yul\":22118:22122   */\n      0x00\n        /* \"#utility.yul\":22156:22158   */\n      0x20\n        /* \"#utility.yul\":22145:22154   */\n      dup3\n        /* \"#utility.yul\":22141:22159   */\n      add\n        /* \"#utility.yul\":22133:22159   */\n      swap1\n      pop\n        /* \"#utility.yul\":22205:22214   */\n      dup2\n        /* \"#utility.yul\":22199:22203   */\n      dup2\n        /* \"#utility.yul\":22195:22215   */\n      sub\n        /* \"#utility.yul\":22191:22192   */\n      0x00\n        /* \"#utility.yul\":22180:22189   */\n      dup4\n        /* \"#utility.yul\":22176:22193   */\n      add\n        /* \"#utility.yul\":22169:22216   */\n      mstore\n        /* \"#utility.yul\":22233:22364   */\n      tag_643\n        /* \"#utility.yul\":22359:22363   */\n      dup2\n        /* \"#utility.yul\":22233:22364   */\n      tag_390\n      jump\t// in\n    tag_643:\n        /* \"#utility.yul\":22225:22364   */\n      swap1\n      pop\n        /* \"#utility.yul\":21952:22371   */\n      swap2\n      swap1\n      pop\n      jump\t// out\n        /* \"#utility.yul\":22377:22603   */\n    tag_391:\n        /* \"#utility.yul\":22517:22551   */\n      0x50726f6a6563742052656163686564206974732046756e64696e672072657175\n        /* \"#utility.yul\":22513:22514   */\n      0x00\n        /* \"#utility.yul\":22505:22511   */\n      dup3\n        /* \"#utility.yul\":22501:22515   */\n      add\n        /* \"#utility.yul\":22494:22552   */\n      mstore\n        /* \"#utility.yul\":22586:22595   */\n      0x6972656d656e7400000000000000000000000000000000000000000000000000\n        /* \"#utility.yul\":22581:22583   */\n      0x20\n        /* \"#utility.yul\":22573:22579   */\n      dup3\n        /* \"#utility.yul\":22569:22584   */\n      add\n        /* \"#utility.yul\":22562:22596   */\n      mstore\n        /* \"#utility.yul\":22377:22603   */\n      pop\n      jump\t// out\n        /* \"#utility.yul\":22609:22975   */\n    tag_392:\n        /* \"#utility.yul\":22751:22754   */\n      0x00\n        /* \"#utility.yul\":22772:22839   */\n      tag_646\n        /* \"#utility.yul\":22836:22838   */\n      0x27\n        /* \"#utility.yul\":22831:22834   */\n      dup4\n        /* \"#utility.yul\":22772:22839   */\n      tag_352\n      jump\t// in\n    tag_646:\n        /* \"#utility.yul\":22765:22839   */\n      swap2\n      pop\n        /* \"#utility.yul\":22848:22941   */\n      tag_647\n        /* \"#utility.yul\":22937:22940   */\n      dup3\n        /* \"#utility.yul\":22848:22941   */\n      tag_391\n      jump\t// in\n    tag_647:\n        /* \"#utility.yul\":22966:22968   */\n      0x40\n        /* \"#utility.yul\":22961:22964   */\n      dup3\n        /* \"#utility.yul\":22957:22969   */\n      add\n        /* \"#utility.yul\":22950:22969   */\n      swap1\n      pop\n        /* \"#utility.yul\":22609:22975   */\n      swap2\n      swap1\n      pop\n      jump\t// out\n        /* \"#utility.yul\":22981:23400   */\n    tag_208:\n        /* \"#utility.yul\":23147:23151   */\n      0x00\n        /* \"#utility.yul\":23185:23187   */\n      0x20\n        /* \"#utility.yul\":23174:23183   */\n      dup3\n        /* \"#utility.yul\":23170:23188   */\n      add\n        /* \"#utility.yul\":23162:23188   */\n      swap1\n      pop\n        /* \"#utility.yul\":23234:23243   */\n      dup2\n        /* \"#utility.yul\":23228:23232   */\n      dup2\n        /* \"#utility.yul\":23224:23244   */\n      sub\n        /* \"#utility.yul\":23220:23221   */\n      0x00\n        /* \"#utility.yul\":23209:23218   */\n      dup4\n        /* \"#utility.yul\":23205:23222   */\n      add\n        /* \"#utility.yul\":23198:23245   */\n      mstore\n        /* \"#utility.yul\":23262:23393   */\n      tag_649\n        /* \"#utility.yul\":23388:23392   */\n      dup2\n        /* \"#utility.yul\":23262:23393   */\n      tag_392\n      jump\t// in\n    tag_649:\n        /* \"#utility.yul\":23254:23393   */\n      swap1\n      pop\n        /* \"#utility.yul\":22981:23400   */\n      swap2\n      swap1\n      pop\n      jump\t// out\n        /* \"#utility.yul\":23406:23637   */\n    tag_393:\n        /* \"#utility.yul\":23546:23580   */\n      0x73656e6420736f6d6520657468657220746f20636f6e7472696275746520696e\n        /* \"#utility.yul\":23542:23543   */\n      0x00\n        /* \"#utility.yul\":23534:23540   */\n      dup3\n        /* \"#utility.yul\":23530:23544   */\n      add\n        /* \"#utility.yul\":23523:23581   */\n      mstore\n        /* \"#utility.yul\":23615:23629   */\n      0x207468652070726f6a6563740000000000000000000000000000000000000000\n        /* \"#utility.yul\":23610:23612   */\n      0x20\n        /* \"#utility.yul\":23602:23608   */\n      dup3\n        /* \"#utility.yul\":23598:23613   */\n      add\n        /* \"#utility.yul\":23591:23630   */\n      mstore\n        /* \"#utility.yul\":23406:23637   */\n      pop\n      jump\t// out\n        /* \"#utility.yul\":23643:24009   */\n    tag_394:\n        /* \"#utility.yul\":23785:23788   */\n      0x00\n        /* \"#utility.yul\":23806:23873   */\n      tag_652\n        /* \"#utility.yul\":23870:23872   */\n      0x2c\n        /* \"#utility.yul\":23865:23868   */\n      dup4\n        /* \"#utility.yul\":23806:23873   */\n      tag_352\n      jump\t// in\n    tag_652:\n        /* \"#utility.yul\":23799:23873   */\n      swap2\n      pop\n        /* \"#utility.yul\":23882:23975   */\n      tag_653\n        /* \"#utility.yul\":23971:23974   */\n      dup3\n        /* \"#utility.yul\":23882:23975   */\n      tag_393\n      jump\t// in\n    tag_653:\n        /* \"#utility.yul\":24000:24002   */\n      0x40\n        /* \"#utility.yul\":23995:23998   */\n      dup3\n        /* \"#utility.yul\":23991:24003   */\n      add\n        /* \"#utility.yul\":23984:24003   */\n      swap1\n      pop\n        /* \"#utility.yul\":23643:24009   */\n      swap2\n      swap1\n      pop\n      jump\t// out\n        /* \"#utility.yul\":24015:24434   */\n    tag_211:\n        /* \"#utility.yul\":24181:24185   */\n      0x00\n        /* \"#utility.yul\":24219:24221   */\n      0x20\n        /* \"#utility.yul\":24208:24217   */\n      dup3\n        /* \"#utility.yul\":24204:24222   */\n      add\n        /* \"#utility.yul\":24196:24222   */\n      swap1\n      pop\n        /* \"#utility.yul\":24268:24277   */\n      dup2\n        /* \"#utility.yul\":24262:24266   */\n      dup2\n        /* \"#utility.yul\":24258:24278   */\n      sub\n        /* \"#utility.yul\":24254:24255   */\n      0x00\n        /* \"#utility.yul\":24243:24252   */\n      dup4\n        /* \"#utility.yul\":24239:24256   */\n      add\n        /* \"#utility.yul\":24232:24279   */\n      mstore\n        /* \"#utility.yul\":24296:24427   */\n      tag_655\n        /* \"#utility.yul\":24422:24426   */\n      dup2\n        /* \"#utility.yul\":24296:24427   */\n      tag_394\n      jump\t// in\n    tag_655:\n        /* \"#utility.yul\":24288:24427   */\n      swap1\n      pop\n        /* \"#utility.yul\":24015:24434   */\n      swap2\n      swap1\n      pop\n      jump\t// out\n        /* \"#utility.yul\":24440:24663   */\n    tag_395:\n        /* \"#utility.yul\":24580:24614   */\n      0x416d6f756e7420436f6e7472696275746564206973206d6f7265207468616e20\n        /* \"#utility.yul\":24576:24577   */\n      0x00\n        /* \"#utility.yul\":24568:24574   */\n      dup3\n        /* \"#utility.yul\":24564:24578   */\n      add\n        /* \"#utility.yul\":24557:24615   */\n      mstore\n        /* \"#utility.yul\":24649:24655   */\n      0x476f616c00000000000000000000000000000000000000000000000000000000\n        /* \"#utility.yul\":24644:24646   */\n      0x20\n        /* \"#utility.yul\":24636:24642   */\n      dup3\n        /* \"#utility.yul\":24632:24647   */\n      add\n        /* \"#utility.yul\":24625:24656   */\n      mstore\n        /* \"#utility.yul\":24440:24663   */\n      pop\n      jump\t// out\n        /* \"#utility.yul\":24669:25035   */\n    tag_396:\n        /* \"#utility.yul\":24811:24814   */\n      0x00\n        /* \"#utility.yul\":24832:24899   */\n      tag_658\n        /* \"#utility.yul\":24896:24898   */\n      0x24\n        /* \"#utility.yul\":24891:24894   */\n      dup4\n        /* \"#utility.yul\":24832:24899   */\n      tag_352\n      jump\t// in\n    tag_658:\n        /* \"#utility.yul\":24825:24899   */\n      swap2\n      pop\n        /* \"#utility.yul\":24908:25001   */\n      tag_659\n        /* \"#utility.yul\":24997:25000   */\n      dup3\n        /* \"#utility.yul\":24908:25001   */\n      tag_395\n      jump\t// in\n    tag_659:\n        /* \"#utility.yul\":25026:25028   */\n      0x40\n        /* \"#utility.yul\":25021:25024   */\n      dup3\n        /* \"#utility.yul\":25017:25029   */\n      add\n        /* \"#utility.yul\":25010:25029   */\n      swap1\n      pop\n        /* \"#utility.yul\":24669:25035   */\n      swap2\n      swap1\n      pop\n      jump\t// out\n        /* \"#utility.yul\":25041:25460   */\n    tag_214:\n        /* \"#utility.yul\":25207:25211   */\n      0x00\n        /* \"#utility.yul\":25245:25247   */\n      0x20\n        /* \"#utility.yul\":25234:25243   */\n      dup3\n        /* \"#utility.yul\":25230:25248   */\n      add\n        /* \"#utility.yul\":25222:25248   */\n      swap1\n      pop\n        /* \"#utility.yul\":25294:25303   */\n      dup2\n        /* \"#utility.yul\":25288:25292   */\n      dup2\n        /* \"#utility.yul\":25284:25304   */\n      sub\n        /* \"#utility.yul\":25280:25281   */\n      0x00\n        /* \"#utility.yul\":25269:25278   */\n      dup4\n        /* \"#utility.yul\":25265:25282   */\n      add\n        /* \"#utility.yul\":25258:25305   */\n      mstore\n        /* \"#utility.yul\":25322:25453   */\n      tag_661\n        /* \"#utility.yul\":25448:25452   */\n      dup2\n        /* \"#utility.yul\":25322:25453   */\n      tag_396\n      jump\t// in\n    tag_661:\n        /* \"#utility.yul\":25314:25453   */\n      swap1\n      pop\n        /* \"#utility.yul\":25041:25460   */\n      swap2\n      swap1\n      pop\n      jump\t// out\n        /* \"#utility.yul\":25466:25629   */\n    tag_397:\n        /* \"#utility.yul\":25606:25621   */\n      0x526566756e64204661696c656400000000000000000000000000000000000000\n        /* \"#utility.yul\":25602:25603   */\n      0x00\n        /* \"#utility.yul\":25594:25600   */\n      dup3\n        /* \"#utility.yul\":25590:25604   */\n      add\n        /* \"#utility.yul\":25583:25622   */\n      mstore\n        /* \"#utility.yul\":25466:25629   */\n      pop\n      jump\t// out\n        /* \"#utility.yul\":25635:26001   */\n    tag_398:\n        /* \"#utility.yul\":25777:25780   */\n      0x00\n        /* \"#utility.yul\":25798:25865   */\n      tag_664\n        /* \"#utility.yul\":25862:25864   */\n      0x0d\n        /* \"#utility.yul\":25857:25860   */\n      dup4\n        /* \"#utility.yul\":25798:25865   */\n      tag_352\n      jump\t// in\n    tag_664:\n        /* \"#utility.yul\":25791:25865   */\n      swap2\n      pop\n        /* \"#utility.yul\":25874:25967   */\n      tag_665\n        /* \"#utility.yul\":25963:25966   */\n      dup3\n        /* \"#utility.yul\":25874:25967   */\n      tag_397\n      jump\t// in\n    tag_665:\n        /* \"#utility.yul\":25992:25994   */\n      0x20\n        /* \"#utility.yul\":25987:25990   */\n      dup3\n        /* \"#utility.yul\":25983:25995   */\n      add\n        /* \"#utility.yul\":25976:25995   */\n      swap1\n      pop\n        /* \"#utility.yul\":25635:26001   */\n      swap2\n      swap1\n      pop\n      jump\t// out\n        /* \"#utility.yul\":26007:26426   */\n    tag_232:\n        /* \"#utility.yul\":26173:26177   */\n      0x00\n        /* \"#utility.yul\":26211:26213   */\n      0x20\n        /* \"#utility.yul\":26200:26209   */\n      dup3\n        /* \"#utility.yul\":26196:26214   */\n      add\n        /* \"#utility.yul\":26188:26214   */\n      swap1\n      pop\n        /* \"#utility.yul\":26260:26269   */\n      dup2\n        /* \"#utility.yul\":26254:26258   */\n      dup2\n        /* \"#utility.yul\":26250:26270   */\n      sub\n        /* \"#utility.yul\":26246:26247   */\n      0x00\n        /* \"#utility.yul\":26235:26244   */\n      dup4\n        /* \"#utility.yul\":26231:26248   */\n      add\n        /* \"#utility.yul\":26224:26271   */\n      mstore\n        /* \"#utility.yul\":26288:26419   */\n      tag_667\n        /* \"#utility.yul\":26414:26418   */\n      dup2\n        /* \"#utility.yul\":26288:26419   */\n      tag_398\n      jump\t// in\n    tag_667:\n        /* \"#utility.yul\":26280:26419   */\n      swap1\n      pop\n        /* \"#utility.yul\":26007:26426   */\n      swap2\n      swap1\n      pop\n      jump\t// out\n        /* \"#utility.yul\":26432:26874   */\n    tag_235:\n        /* \"#utility.yul\":26581:26585   */\n      0x00\n        /* \"#utility.yul\":26619:26621   */\n      0x60\n        /* \"#utility.yul\":26608:26617   */\n      dup3\n        /* \"#utility.yul\":26604:26622   */\n      add\n        /* \"#utility.yul\":26596:26622   */\n      swap1\n      pop\n        /* \"#utility.yul\":26632:26703   */\n      tag_669\n        /* \"#utility.yul\":26700:26701   */\n      0x00\n        /* \"#utility.yul\":26689:26698   */\n      dup4\n        /* \"#utility.yul\":26685:26702   */\n      add\n        /* \"#utility.yul\":26676:26682   */\n      dup7\n        /* \"#utility.yul\":26632:26703   */\n      tag_350\n      jump\t// in\n    tag_669:\n        /* \"#utility.yul\":26713:26785   */\n      tag_670\n        /* \"#utility.yul\":26781:26783   */\n      0x20\n        /* \"#utility.yul\":26770:26779   */\n      dup4\n        /* \"#utility.yul\":26766:26784   */\n      add\n        /* \"#utility.yul\":26757:26763   */\n      dup6\n        /* \"#utility.yul\":26713:26785   */\n      tag_347\n      jump\t// in\n    tag_670:\n        /* \"#utility.yul\":26795:26867   */\n      tag_671\n        /* \"#utility.yul\":26863:26865   */\n      0x40\n        /* \"#utility.yul\":26852:26861   */\n      dup4\n        /* \"#utility.yul\":26848:26866   */\n      add\n        /* \"#utility.yul\":26839:26845   */\n      dup5\n        /* \"#utility.yul\":26795:26867   */\n      tag_347\n      jump\t// in\n    tag_671:\n        /* \"#utility.yul\":26432:26874   */\n      swap5\n      swap4\n      pop\n      pop\n      pop\n      pop\n      jump\t// out\n        /* \"#utility.yul\":26880:27113   */\n    tag_239:\n        /* \"#utility.yul\":26919:26922   */\n      0x00\n        /* \"#utility.yul\":26942:26966   */\n      tag_673\n        /* \"#utility.yul\":26960:26965   */\n      dup3\n        /* \"#utility.yul\":26942:26966   */\n      tag_344\n      jump\t// in\n    tag_673:\n        /* \"#utility.yul\":26933:26966   */\n      swap2\n      pop\n        /* \"#utility.yul\":26988:27054   */\n      0xffffffffffffffffffffffffffffffffffffffffffffffffffffffffffffffff\n        /* \"#utility.yul\":26981:26986   */\n      dup3\n        /* \"#utility.yul\":26978:27055   */\n      sub\n        /* \"#utility.yul\":26975:27078   */\n      tag_674\n      jumpi\n        /* \"#utility.yul\":27058:27076   */\n      tag_675\n      tag_371\n      jump\t// in\n    tag_675:\n        /* \"#utility.yul\":26975:27078   */\n    tag_674:\n        /* \"#utility.yul\":27105:27106   */\n      0x01\n        /* \"#utility.yul\":27098:27103   */\n      dup3\n        /* \"#utility.yul\":27094:27107   */\n      add\n        /* \"#utility.yul\":27087:27107   */\n      swap1\n      pop\n        /* \"#utility.yul\":26880:27113   */\n      swap2\n      swap1\n      pop\n      jump\t// out\n        /* \"#utility.yul\":27119:27357   */\n    tag_399:\n        /* \"#utility.yul\":27259:27293   */\n      0x66756e64696e6720676f616c20686173206e6f742072656163686564202c2061\n        /* \"#utility.yul\":27255:27256   */\n      0x00\n        /* \"#utility.yul\":27247:27253   */\n      dup3\n        /* \"#utility.yul\":27243:27257   */\n      add\n        /* \"#utility.yul\":27236:27294   */\n      mstore\n        /* \"#utility.yul\":27328:27349   */\n      0x646d696e2063616e277420776974686472617700000000000000000000000000\n        /* \"#utility.yul\":27323:27325   */\n      0x20\n        /* \"#utility.yul\":27315:27321   */\n      dup3\n        /* \"#utility.yul\":27311:27326   */\n      add\n        /* \"#utility.yul\":27304:27350   */\n      mstore\n        /* \"#utility.yul\":27119:27357   */\n      pop\n      jump\t// out\n        /* \"#utility.yul\":27363:27729   */\n    tag_400:\n        /* \"#utility.yul\":27505:27508   */\n      0x00\n        /* \"#utility.yul\":27526:27593   */\n      tag_678\n        /* \"#utility.yul\":27590:27592   */\n      0x33\n        /* \"#utility.yul\":27585:27588   */\n      dup4\n        /* \"#utility.yul\":27526:27593   */\n      tag_352\n      jump\t// in\n    tag_678:\n        /* \"#utility.yul\":27519:27593   */\n      swap2\n      pop\n        /* \"#utility.yul\":27602:27695   */\n      tag_679\n        /* \"#utility.yul\":27691:27694   */\n      dup3\n        /* \"#utility.yul\":27602:27695   */\n      tag_399\n      jump\t// in\n    tag_679:\n        /* \"#utility.yul\":27720:27722   */\n      0x40\n        /* \"#utility.yul\":27715:27718   */\n      dup3\n        /* \"#utility.yul\":27711:27723   */\n      add\n        /* \"#utility.yul\":27704:27723   */\n      swap1\n      pop\n        /* \"#utility.yul\":27363:27729   */\n      swap2\n      swap1\n      pop\n      jump\t// out\n        /* \"#utility.yul\":27735:28154   */\n    tag_245:\n        /* \"#utility.yul\":27901:27905   */\n      0x00\n        /* \"#utility.yul\":27939:27941   */\n      0x20\n        /* \"#utility.yul\":27928:27937   */\n      dup3\n        /* \"#utility.yul\":27924:27942   */\n      add\n        /* \"#utility.yul\":27916:27942   */\n      swap1\n      pop\n        /* \"#utility.yul\":27988:27997   */\n      dup2\n        /* \"#utility.yul\":27982:27986   */\n      dup2\n        /* \"#utility.yul\":27978:27998   */\n      sub\n        /* \"#utility.yul\":27974:27975   */\n      0x00\n        /* \"#utility.yul\":27963:27972   */\n      dup4\n        /* \"#utility.yul\":27959:27976   */\n      add\n        /* \"#utility.yul\":27952:27999   */\n      mstore\n        /* \"#utility.yul\":28016:28147   */\n      tag_681\n        /* \"#utility.yul\":28142:28146   */\n      dup2\n        /* \"#utility.yul\":28016:28147   */\n      tag_400\n      jump\t// in\n    tag_681:\n        /* \"#utility.yul\":28008:28147   */\n      swap1\n      pop\n        /* \"#utility.yul\":27735:28154   */\n      swap2\n      swap1\n      pop\n      jump\t// out\n        /* \"#utility.yul\":28160:28333   */\n    tag_401:\n        /* \"#utility.yul\":28300:28325   */\n      0x6f6e6c792061646d696e2063616e207769746864726177000000000000000000\n        /* \"#utility.yul\":28296:28297   */\n      0x00\n        /* \"#utility.yul\":28288:28294   */\n      dup3\n        /* \"#utility.yul\":28284:28298   */\n      add\n        /* \"#utility.yul\":28277:28326   */\n      mstore\n        /* \"#utility.yul\":28160:28333   */\n      pop\n      jump\t// out\n        /* \"#utility.yul\":28339:28705   */\n    tag_402:\n        /* \"#utility.yul\":28481:28484   */\n      0x00\n        /* \"#utility.yul\":28502:28569   */\n      tag_684\n        /* \"#utility.yul\":28566:28568   */\n      0x17\n        /* \"#utility.yul\":28561:28564   */\n      dup4\n        /* \"#utility.yul\":28502:28569   */\n      tag_352\n      jump\t// in\n    tag_684:\n        /* \"#utility.yul\":28495:28569   */\n      swap2\n      pop\n        /* \"#utility.yul\":28578:28671   */\n      tag_685\n        /* \"#utility.yul\":28667:28670   */\n      dup3\n        /* \"#utility.yul\":28578:28671   */\n      tag_401\n      jump\t// in\n    tag_685:\n        /* \"#utility.yul\":28696:28698   */\n      0x20\n        /* \"#utility.yul\":28691:28694   */\n      dup3\n        /* \"#utility.yul\":28687:28699   */\n      add\n        /* \"#utility.yul\":28680:28699   */\n      swap1\n      pop\n        /* \"#utility.yul\":28339:28705   */\n      swap2\n      swap1\n      pop\n      jump\t// out\n        /* \"#utility.yul\":28711:29130   */\n    tag_248:\n        /* \"#utility.yul\":28877:28881   */\n      0x00\n        /* \"#utility.yul\":28915:28917   */\n      0x20\n        /* \"#utility.yul\":28904:28913   */\n      dup3\n        /* \"#utility.yul\":28900:28918   */\n      add\n        /* \"#utility.yul\":28892:28918   */\n      swap1\n      pop\n        /* \"#utility.yul\":28964:28973   */\n      dup2\n        /* \"#utility.yul\":28958:28962   */\n      dup2\n        /* \"#utility.yul\":28954:28974   */\n      sub\n        /* \"#utility.yul\":28950:28951   */\n      0x00\n        /* \"#utility.yul\":28939:28948   */\n      dup4\n        /* \"#utility.yul\":28935:28952   */\n      add\n        /* \"#utility.yul\":28928:28975   */\n      mstore\n        /* \"#utility.yul\":28992:29123   */\n      tag_687\n        /* \"#utility.yul\":29118:29122   */\n      dup2\n        /* \"#utility.yul\":28992:29123   */\n      tag_402\n      jump\t// in\n    tag_687:\n        /* \"#utility.yul\":28984:29123   */\n      swap1\n      pop\n        /* \"#utility.yul\":28711:29130   */\n      swap2\n      swap1\n      pop\n      jump\t// out\n        /* \"#utility.yul\":29136:29370   */\n    tag_403:\n        /* \"#utility.yul\":29276:29310   */\n      0x646561646c696e6520686173206e6f742072656163686564202c2061646d696e\n        /* \"#utility.yul\":29272:29273   */\n      0x00\n        /* \"#utility.yul\":29264:29270   */\n      dup3\n        /* \"#utility.yul\":29260:29274   */\n      add\n        /* \"#utility.yul\":29253:29311   */\n      mstore\n        /* \"#utility.yul\":29345:29362   */\n      0x2063616e27742077697468647261770000000000000000000000000000000000\n        /* \"#utility.yul\":29340:29342   */\n      0x20\n        /* \"#utility.yul\":29332:29338   */\n      dup3\n        /* \"#utility.yul\":29328:29343   */\n      add\n        /* \"#utility.yul\":29321:29363   */\n      mstore\n        /* \"#utility.yul\":29136:29370   */\n      pop\n      jump\t// out\n        /* \"#utility.yul\":29376:29742   */\n    tag_404:\n        /* \"#utility.yul\":29518:29521   */\n      0x00\n        /* \"#utility.yul\":29539:29606   */\n      tag_690\n        /* \"#utility.yul\":29603:29605   */\n      0x2f\n        /* \"#utility.yul\":29598:29601   */\n      dup4\n        /* \"#utility.yul\":29539:29606   */\n      tag_352\n      jump\t// in\n    tag_690:\n        /* \"#utility.yul\":29532:29606   */\n      swap2\n      pop\n        /* \"#utility.yul\":29615:29708   */\n      tag_691\n        /* \"#utility.yul\":29704:29707   */\n      dup3\n        /* \"#utility.yul\":29615:29708   */\n      tag_403\n      jump\t// in\n    tag_691:\n        /* \"#utility.yul\":29733:29735   */\n      0x40\n        /* \"#utility.yul\":29728:29731   */\n      dup3\n        /* \"#utility.yul\":29724:29736   */\n      add\n        /* \"#utility.yul\":29717:29736   */\n      swap1\n      pop\n        /* \"#utility.yul\":29376:29742   */\n      swap2\n      swap1\n      pop\n      jump\t// out\n        /* \"#utility.yul\":29748:30167   */\n    tag_251:\n        /* \"#utility.yul\":29914:29918   */\n      0x00\n        /* \"#utility.yul\":29952:29954   */\n      0x20\n        /* \"#utility.yul\":29941:29950   */\n      dup3\n        /* \"#utility.yul\":29937:29955   */\n      add\n        /* \"#utility.yul\":29929:29955   */\n      swap1\n      pop\n        /* \"#utility.yul\":30001:30010   */\n      dup2\n        /* \"#utility.yul\":29995:29999   */\n      dup2\n        /* \"#utility.yul\":29991:30011   */\n      sub\n        /* \"#utility.yul\":29987:29988   */\n      0x00\n        /* \"#utility.yul\":29976:29985   */\n      dup4\n        /* \"#utility.yul\":29972:29989   */\n      add\n        /* \"#utility.yul\":29965:30012   */\n      mstore\n        /* \"#utility.yul\":30029:30160   */\n      tag_693\n        /* \"#utility.yul\":30155:30159   */\n      dup2\n        /* \"#utility.yul\":30029:30160   */\n      tag_404\n      jump\t// in\n    tag_693:\n        /* \"#utility.yul\":30021:30160   */\n      swap1\n      pop\n        /* \"#utility.yul\":29748:30167   */\n      swap2\n      swap1\n      pop\n      jump\t// out\n        /* \"#utility.yul\":30173:30344   */\n    tag_405:\n        /* \"#utility.yul\":30313:30336   */\n      0x4f6e6c792041646d696e2063616e206163636573730000000000000000000000\n        /* \"#utility.yul\":30309:30310   */\n      0x00\n        /* \"#utility.yul\":30301:30307   */\n      dup3\n        /* \"#utility.yul\":30297:30311   */\n      add\n        /* \"#utility.yul\":30290:30337   */\n      mstore\n        /* \"#utility.yul\":30173:30344   */\n      pop\n      jump\t// out\n        /* \"#utility.yul\":30350:30716   */\n    tag_406:\n        /* \"#utility.yul\":30492:30495   */\n      0x00\n        /* \"#utility.yul\":30513:30580   */\n      tag_696\n        /* \"#utility.yul\":30577:30579   */\n      0x15\n        /* \"#utility.yul\":30572:30575   */\n      dup4\n        /* \"#utility.yul\":30513:30580   */\n      tag_352\n      jump\t// in\n    tag_696:\n        /* \"#utility.yul\":30506:30580   */\n      swap2\n      pop\n        /* \"#utility.yul\":30589:30682   */\n      tag_697\n        /* \"#utility.yul\":30678:30681   */\n      dup3\n        /* \"#utility.yul\":30589:30682   */\n      tag_405\n      jump\t// in\n    tag_697:\n        /* \"#utility.yul\":30707:30709   */\n      0x20\n        /* \"#utility.yul\":30702:30705   */\n      dup3\n        /* \"#utility.yul\":30698:30710   */\n      add\n        /* \"#utility.yul\":30691:30710   */\n      swap1\n      pop\n        /* \"#utility.yul\":30350:30716   */\n      swap2\n      swap1\n      pop\n      jump\t// out\n        /* \"#utility.yul\":30722:31141   */\n    tag_258:\n        /* \"#utility.yul\":30888:30892   */\n      0x00\n        /* \"#utility.yul\":30926:30928   */\n      0x20\n        /* \"#utility.yul\":30915:30924   */\n      dup3\n        /* \"#utility.yul\":30911:30929   */\n      add\n        /* \"#utility.yul\":30903:30929   */\n      swap1\n      pop\n        /* \"#utility.yul\":30975:30984   */\n      dup2\n        /* \"#utility.yul\":30969:30973   */\n      dup2\n        /* \"#utility.yul\":30965:30985   */\n      sub\n        /* \"#utility.yul\":30961:30962   */\n      0x00\n        /* \"#utility.yul\":30950:30959   */\n      dup4\n        /* \"#utility.yul\":30946:30963   */\n      add\n        /* \"#utility.yul\":30939:30986   */\n      mstore\n        /* \"#utility.yul\":31003:31134   */\n      tag_699\n        /* \"#utility.yul\":31129:31133   */\n      dup2\n        /* \"#utility.yul\":31003:31134   */\n      tag_406\n      jump\t// in\n    tag_699:\n        /* \"#utility.yul\":30995:31134   */\n      swap1\n      pop\n        /* \"#utility.yul\":30722:31141   */\n      swap2\n      swap1\n      pop\n      jump\t// out\n        /* \"#utility.yul\":31147:31322   */\n    tag_407:\n        /* \"#utility.yul\":31287:31314   */\n      0x4e6f20636f6d6d697373696f6e20746f20776974686472617700000000000000\n        /* \"#utility.yul\":31283:31284   */\n      0x00\n        /* \"#utility.yul\":31275:31281   */\n      dup3\n        /* \"#utility.yul\":31271:31285   */\n      add\n        /* \"#utility.yul\":31264:31315   */\n      mstore\n        /* \"#utility.yul\":31147:31322   */\n      pop\n      jump\t// out\n        /* \"#utility.yul\":31328:31694   */\n    tag_408:\n        /* \"#utility.yul\":31470:31473   */\n      0x00\n        /* \"#utility.yul\":31491:31558   */\n      tag_702\n        /* \"#utility.yul\":31555:31557   */\n      0x19\n        /* \"#utility.yul\":31550:31553   */\n      dup4\n        /* \"#utility.yul\":31491:31558   */\n      tag_352\n      jump\t// in\n    tag_702:\n        /* \"#utility.yul\":31484:31558   */\n      swap2\n      pop\n        /* \"#utility.yul\":31567:31660   */\n      tag_703\n        /* \"#utility.yul\":31656:31659   */\n      dup3\n        /* \"#utility.yul\":31567:31660   */\n      tag_407\n      jump\t// in\n    tag_703:\n        /* \"#utility.yul\":31685:31687   */\n      0x20\n        /* \"#utility.yul\":31680:31683   */\n      dup3\n        /* \"#utility.yul\":31676:31688   */\n      add\n        /* \"#utility.yul\":31669:31688   */\n      swap1\n      pop\n        /* \"#utility.yul\":31328:31694   */\n      swap2\n      swap1\n      pop\n      jump\t// out\n        /* \"#utility.yul\":31700:32119   */\n    tag_266:\n        /* \"#utility.yul\":31866:31870   */\n      0x00\n        /* \"#utility.yul\":31904:31906   */\n      0x20\n        /* \"#utility.yul\":31893:31902   */\n      dup3\n        /* \"#utility.yul\":31889:31907   */\n      add\n        /* \"#utility.yul\":31881:31907   */\n      swap1\n      pop\n        /* \"#utility.yul\":31953:31962   */\n      dup2\n        /* \"#utility.yul\":31947:31951   */\n      dup2\n        /* \"#utility.yul\":31943:31963   */\n      sub\n        /* \"#utility.yul\":31939:31940   */\n      0x00\n        /* \"#utility.yul\":31928:31937   */\n      dup4\n        /* \"#utility.yul\":31924:31941   */\n      add\n        /* \"#utility.yul\":31917:31964   */\n      mstore\n        /* \"#utility.yul\":31981:32112   */\n      tag_705\n        /* \"#utility.yul\":32107:32111   */\n      dup2\n        /* \"#utility.yul\":31981:32112   */\n      tag_408\n      jump\t// in\n    tag_705:\n        /* \"#utility.yul\":31973:32112   */\n      swap1\n      pop\n        /* \"#utility.yul\":31700:32119   */\n      swap2\n      swap1\n      pop\n      jump\t// out\n        /* \"#utility.yul\":32125:32293   */\n    tag_409:\n        /* \"#utility.yul\":32265:32285   */\n      0x5769746864726177616c204661696c6564210000000000000000000000000000\n        /* \"#utility.yul\":32261:32262   */\n      0x00\n        /* \"#utility.yul\":32253:32259   */\n      dup3\n        /* \"#utility.yul\":32249:32263   */\n      add\n        /* \"#utility.yul\":32242:32286   */\n      mstore\n        /* \"#utility.yul\":32125:32293   */\n      pop\n      jump\t// out\n        /* \"#utility.yul\":32299:32665   */\n    tag_410:\n        /* \"#utility.yul\":32441:32444   */\n      0x00\n        /* \"#utility.yul\":32462:32529   */\n      tag_708\n        /* \"#utility.yul\":32526:32528   */\n      0x12\n        /* \"#utility.yul\":32521:32524   */\n      dup4\n        /* \"#utility.yul\":32462:32529   */\n      tag_352\n      jump\t// in\n    tag_708:\n        /* \"#utility.yul\":32455:32529   */\n      swap2\n      pop\n        /* \"#utility.yul\":32538:32631   */\n      tag_709\n        /* \"#utility.yul\":32627:32630   */\n      dup3\n        /* \"#utility.yul\":32538:32631   */\n      tag_409\n      jump\t// in\n    tag_709:\n        /* \"#utility.yul\":32656:32658   */\n      0x20\n        /* \"#utility.yul\":32651:32654   */\n      dup3\n        /* \"#utility.yul\":32647:32659   */\n      add\n        /* \"#utility.yul\":32640:32659   */\n      swap1\n      pop\n        /* \"#utility.yul\":32299:32665   */\n      swap2\n      swap1\n      pop\n      jump\t// out\n        /* \"#utility.yul\":32671:33090   */\n    tag_273:\n        /* \"#utility.yul\":32837:32841   */\n      0x00\n        /* \"#utility.yul\":32875:32877   */\n      0x20\n        /* \"#utility.yul\":32864:32873   */\n      dup3\n        /* \"#utility.yul\":32860:32878   */\n      add\n        /* \"#utility.yul\":32852:32878   */\n      swap1\n      pop\n        /* \"#utility.yul\":32924:32933   */\n      dup2\n        /* \"#utility.yul\":32918:32922   */\n      dup2\n        /* \"#utility.yul\":32914:32934   */\n      sub\n        /* \"#utility.yul\":32910:32911   */\n      0x00\n        /* \"#utility.yul\":32899:32908   */\n      dup4\n        /* \"#utility.yul\":32895:32912   */\n      add\n        /* \"#utility.yul\":32888:32935   */\n      mstore\n        /* \"#utility.yul\":32952:33083   */\n      tag_711\n        /* \"#utility.yul\":33078:33082   */\n      dup2\n        /* \"#utility.yul\":32952:33083   */\n      tag_410\n      jump\t// in\n    tag_711:\n        /* \"#utility.yul\":32944:33083   */\n      swap1\n      pop\n        /* \"#utility.yul\":32671:33090   */\n      swap2\n      swap1\n      pop\n      jump\t// out\n        /* \"#utility.yul\":33096:33276   */\n    tag_411:\n        /* \"#utility.yul\":33236:33268   */\n      0x43616e6e6f7420776974686472617720616674657220646561646c696e650000\n        /* \"#utility.yul\":33232:33233   */\n      0x00\n        /* \"#utility.yul\":33224:33230   */\n      dup3\n        /* \"#utility.yul\":33220:33234   */\n      add\n        /* \"#utility.yul\":33213:33269   */\n      mstore\n        /* \"#utility.yul\":33096:33276   */\n      pop\n      jump\t// out\n        /* \"#utility.yul\":33282:33648   */\n    tag_412:\n        /* \"#utility.yul\":33424:33427   */\n      0x00\n        /* \"#utility.yul\":33445:33512   */\n      tag_714\n        /* \"#utility.yul\":33509:33511   */\n      0x1e\n        /* \"#utility.yul\":33504:33507   */\n      dup4\n        /* \"#utility.yul\":33445:33512   */\n      tag_352\n      jump\t// in\n    tag_714:\n        /* \"#utility.yul\":33438:33512   */\n      swap2\n      pop\n        /* \"#utility.yul\":33521:33614   */\n      tag_715\n        /* \"#utility.yul\":33610:33613   */\n      dup3\n        /* \"#utility.yul\":33521:33614   */\n      tag_411\n      jump\t// in\n    tag_715:\n        /* \"#utility.yul\":33639:33641   */\n      0x20\n        /* \"#utility.yul\":33634:33637   */\n      dup3\n        /* \"#utility.yul\":33630:33642   */\n      add\n        /* \"#utility.yul\":33623:33642   */\n      swap1\n      pop\n        /* \"#utility.yul\":33282:33648   */\n      swap2\n      swap1\n      pop\n      jump\t// out\n        /* \"#utility.yul\":33654:34073   */\n    tag_277:\n        /* \"#utility.yul\":33820:33824   */\n      0x00\n        /* \"#utility.yul\":33858:33860   */\n      0x20\n        /* \"#utility.yul\":33847:33856   */\n      dup3\n        /* \"#utility.yul\":33843:33861   */\n      add\n        /* \"#utility.yul\":33835:33861   */\n      swap1\n      pop\n        /* \"#utility.yul\":33907:33916   */\n      dup2\n        /* \"#utility.yul\":33901:33905   */\n      dup2\n        /* \"#utility.yul\":33897:33917   */\n      sub\n        /* \"#utility.yul\":33893:33894   */\n      0x00\n        /* \"#utility.yul\":33882:33891   */\n      dup4\n        /* \"#utility.yul\":33878:33895   */\n      add\n        /* \"#utility.yul\":33871:33918   */\n      mstore\n        /* \"#utility.yul\":33935:34066   */\n      tag_717\n        /* \"#utility.yul\":34061:34065   */\n      dup2\n        /* \"#utility.yul\":33935:34066   */\n      tag_412\n      jump\t// in\n    tag_717:\n        /* \"#utility.yul\":33927:34066   */\n      swap1\n      pop\n        /* \"#utility.yul\":33654:34073   */\n      swap2\n      swap1\n      pop\n      jump\t// out\n        /* \"#utility.yul\":34079:34251   */\n    tag_413:\n        /* \"#utility.yul\":34219:34243   */\n      0x4e6f2046756e647320746f207769746864726177212100000000000000000000\n        /* \"#utility.yul\":34215:34216   */\n      0x00\n        /* \"#utility.yul\":34207:34213   */\n      dup3\n        /* \"#utility.yul\":34203:34217   */\n      add\n        /* \"#utility.yul\":34196:34244   */\n      mstore\n        /* \"#utility.yul\":34079:34251   */\n      pop\n      jump\t// out\n        /* \"#utility.yul\":34257:34623   */\n    tag_414:\n        /* \"#utility.yul\":34399:34402   */\n      0x00\n        /* \"#utility.yul\":34420:34487   */\n      tag_720\n        /* \"#utility.yul\":34484:34486   */\n      0x16\n        /* \"#utility.yul\":34479:34482   */\n      dup4\n        /* \"#utility.yul\":34420:34487   */\n      tag_352\n      jump\t// in\n    tag_720:\n        /* \"#utility.yul\":34413:34487   */\n      swap2\n      pop\n        /* \"#utility.yul\":34496:34589   */\n      tag_721\n        /* \"#utility.yul\":34585:34588   */\n      dup3\n        /* \"#utility.yul\":34496:34589   */\n      tag_413\n      jump\t// in\n    tag_721:\n        /* \"#utility.yul\":34614:34616   */\n      0x20\n        /* \"#utility.yul\":34609:34612   */\n      dup3\n        /* \"#utility.yul\":34605:34617   */\n      add\n        /* \"#utility.yul\":34598:34617   */\n      swap1\n      pop\n        /* \"#utility.yul\":34257:34623   */\n      swap2\n      swap1\n      pop\n      jump\t// out\n        /* \"#utility.yul\":34629:35048   */\n    tag_280:\n        /* \"#utility.yul\":34795:34799   */\n      0x00\n        /* \"#utility.yul\":34833:34835   */\n      0x20\n        /* \"#utility.yul\":34822:34831   */\n      dup3\n        /* \"#utility.yul\":34818:34836   */\n      add\n        /* \"#utility.yul\":34810:34836   */\n      swap1\n      pop\n        /* \"#utility.yul\":34882:34891   */\n      dup2\n        /* \"#utility.yul\":34876:34880   */\n      dup2\n        /* \"#utility.yul\":34872:34892   */\n      sub\n        /* \"#utility.yul\":34868:34869   */\n      0x00\n        /* \"#utility.yul\":34857:34866   */\n      dup4\n        /* \"#utility.yul\":34853:34870   */\n      add\n        /* \"#utility.yul\":34846:34893   */\n      mstore\n        /* \"#utility.yul\":34910:35041   */\n      tag_723\n        /* \"#utility.yul\":35036:35040   */\n      dup2\n        /* \"#utility.yul\":34910:35041   */\n      tag_414\n      jump\t// in\n    tag_723:\n        /* \"#utility.yul\":34902:35041   */\n      swap1\n      pop\n        /* \"#utility.yul\":34629:35048   */\n      swap2\n      swap1\n      pop\n      jump\t// out\n        /* \"#utility.yul\":35054:35282   */\n    tag_415:\n        /* \"#utility.yul\":35194:35228   */\n      0x576974686472617720616d6f756e74206578636565647320796f757220636f6e\n        /* \"#utility.yul\":35190:35191   */\n      0x00\n        /* \"#utility.yul\":35182:35188   */\n      dup3\n        /* \"#utility.yul\":35178:35192   */\n      add\n        /* \"#utility.yul\":35171:35229   */\n      mstore\n        /* \"#utility.yul\":35263:35274   */\n      0x747269627574696f6e0000000000000000000000000000000000000000000000\n        /* \"#utility.yul\":35258:35260   */\n      0x20\n        /* \"#utility.yul\":35250:35256   */\n      dup3\n        /* \"#utility.yul\":35246:35261   */\n      add\n        /* \"#utility.yul\":35239:35275   */\n      mstore\n        /* \"#utility.yul\":35054:35282   */\n      pop\n      jump\t// out\n        /* \"#utility.yul\":35288:35654   */\n    tag_416:\n        /* \"#utility.yul\":35430:35433   */\n      0x00\n        /* \"#utility.yul\":35451:35518   */\n      tag_726\n        /* \"#utility.yul\":35515:35517   */\n      0x29\n        /* \"#utility.yul\":35510:35513   */\n      dup4\n        /* \"#utility.yul\":35451:35518   */\n      tag_352\n      jump\t// in\n    tag_726:\n        /* \"#utility.yul\":35444:35518   */\n      swap2\n      pop\n        /* \"#utility.yul\":35527:35620   */\n      tag_727\n        /* \"#utility.yul\":35616:35619   */\n      dup3\n        /* \"#utility.yul\":35527:35620   */\n      tag_415\n      jump\t// in\n    tag_727:\n        /* \"#utility.yul\":35645:35647   */\n      0x40\n        /* \"#utility.yul\":35640:35643   */\n      dup3\n        /* \"#utility.yul\":35636:35648   */\n      add\n        /* \"#utility.yul\":35629:35648   */\n      swap1\n      pop\n        /* \"#utility.yul\":35288:35654   */\n      swap2\n      swap1\n      pop\n      jump\t// out\n        /* \"#utility.yul\":35660:36079   */\n    tag_283:\n        /* \"#utility.yul\":35826:35830   */\n      0x00\n        /* \"#utility.yul\":35864:35866   */\n      0x20\n        /* \"#utility.yul\":35853:35862   */\n      dup3\n        /* \"#utility.yul\":35849:35867   */\n      add\n        /* \"#utility.yul\":35841:35867   */\n      swap1\n      pop\n        /* \"#utility.yul\":35913:35922   */\n      dup2\n        /* \"#utility.yul\":35907:35911   */\n      dup2\n        /* \"#utility.yul\":35903:35923   */\n      sub\n        /* \"#utility.yul\":35899:35900   */\n      0x00\n        /* \"#utility.yul\":35888:35897   */\n      dup4\n        /* \"#utility.yul\":35884:35901   */\n      add\n        /* \"#utility.yul\":35877:35924   */\n      mstore\n        /* \"#utility.yul\":35941:36072   */\n      tag_729\n        /* \"#utility.yul\":36067:36071   */\n      dup2\n        /* \"#utility.yul\":35941:36072   */\n      tag_416\n      jump\t// in\n    tag_729:\n        /* \"#utility.yul\":35933:36072   */\n      swap1\n      pop\n        /* \"#utility.yul\":35660:36079   */\n      swap2\n      swap1\n      pop\n      jump\t// out\n        /* \"#utility.yul\":36085:36254   */\n    tag_417:\n        /* \"#utility.yul\":36225:36246   */\n      0x7769746864726177206661696c65642121212100000000000000000000000000\n        /* \"#utility.yul\":36221:36222   */\n      0x00\n        /* \"#utility.yul\":36213:36219   */\n      dup3\n        /* \"#utility.yul\":36209:36223   */\n      add\n        /* \"#utility.yul\":36202:36247   */\n      mstore\n        /* \"#utility.yul\":36085:36254   */\n      pop\n      jump\t// out\n        /* \"#utility.yul\":36260:36626   */\n    tag_418:\n        /* \"#utility.yul\":36402:36405   */\n      0x00\n        /* \"#utility.yul\":36423:36490   */\n      tag_732\n        /* \"#utility.yul\":36487:36489   */\n      0x13\n        /* \"#utility.yul\":36482:36485   */\n      dup4\n        /* \"#utility.yul\":36423:36490   */\n      tag_352\n      jump\t// in\n    tag_732:\n        /* \"#utility.yul\":36416:36490   */\n      swap2\n      pop\n        /* \"#utility.yul\":36499:36592   */\n      tag_733\n        /* \"#utility.yul\":36588:36591   */\n      dup3\n        /* \"#utility.yul\":36499:36592   */\n      tag_417\n      jump\t// in\n    tag_733:\n        /* \"#utility.yul\":36617:36619   */\n      0x20\n        /* \"#utility.yul\":36612:36615   */\n      dup3\n        /* \"#utility.yul\":36608:36620   */\n      add\n        /* \"#utility.yul\":36601:36620   */\n      swap1\n      pop\n        /* \"#utility.yul\":36260:36626   */\n      swap2\n      swap1\n      pop\n      jump\t// out\n        /* \"#utility.yul\":36632:37051   */\n    tag_297:\n        /* \"#utility.yul\":36798:36802   */\n      0x00\n        /* \"#utility.yul\":36836:36838   */\n      0x20\n        /* \"#utility.yul\":36825:36834   */\n      dup3\n        /* \"#utility.yul\":36821:36839   */\n      add\n        /* \"#utility.yul\":36813:36839   */\n      swap1\n      pop\n        /* \"#utility.yul\":36885:36894   */\n      dup2\n        /* \"#utility.yul\":36879:36883   */\n      dup2\n        /* \"#utility.yul\":36875:36895   */\n      sub\n        /* \"#utility.yul\":36871:36872   */\n      0x00\n        /* \"#utility.yul\":36860:36869   */\n      dup4\n        /* \"#utility.yul\":36856:36873   */\n      add\n        /* \"#utility.yul\":36849:36896   */\n      mstore\n        /* \"#utility.yul\":36913:37044   */\n      tag_735\n        /* \"#utility.yul\":37039:37043   */\n      dup2\n        /* \"#utility.yul\":36913:37044   */\n      tag_418\n      jump\t// in\n    tag_735:\n        /* \"#utility.yul\":36905:37044   */\n      swap1\n      pop\n        /* \"#utility.yul\":36632:37051   */\n      swap2\n      swap1\n      pop\n      jump\t// out\n        /* \"#utility.yul\":37057:37237   */\n    tag_305:\n        /* \"#utility.yul\":37105:37182   */\n      0x4e487b7100000000000000000000000000000000000000000000000000000000\n        /* \"#utility.yul\":37102:37103   */\n      0x00\n        /* \"#utility.yul\":37095:37183   */\n      mstore\n        /* \"#utility.yul\":37202:37206   */\n      0x32\n        /* \"#utility.yul\":37199:37200   */\n      0x04\n        /* \"#utility.yul\":37192:37207   */\n      mstore\n        /* \"#utility.yul\":37226:37230   */\n      0x24\n        /* \"#utility.yul\":37223:37224   */\n      0x00\n        /* \"#utility.yul\":37216:37231   */\n      revert\n        /* \"#utility.yul\":37243:37422   */\n    tag_419:\n        /* \"#utility.yul\":37383:37414   */\n      0x50726f6a65637420494420697320616c726561647920696e2075736521000000\n        /* \"#utility.yul\":37379:37380   */\n      0x00\n        /* \"#utility.yul\":37371:37377   */\n      dup3\n        /* \"#utility.yul\":37367:37381   */\n      add\n        /* \"#utility.yul\":37360:37415   */\n      mstore\n        /* \"#utility.yul\":37243:37422   */\n      pop\n      jump\t// out\n        /* \"#utility.yul\":37428:37794   */\n    tag_420:\n        /* \"#utility.yul\":37570:37573   */\n      0x00\n        /* \"#utility.yul\":37591:37658   */\n      tag_739\n        /* \"#utility.yul\":37655:37657   */\n      0x1d\n        /* \"#utility.yul\":37650:37653   */\n      dup4\n        /* \"#utility.yul\":37591:37658   */\n      tag_352\n      jump\t// in\n    tag_739:\n        /* \"#utility.yul\":37584:37658   */\n      swap2\n      pop\n        /* \"#utility.yul\":37667:37760   */\n      tag_740\n        /* \"#utility.yul\":37756:37759   */\n      dup3\n        /* \"#utility.yul\":37667:37760   */\n      tag_419\n      jump\t// in\n    tag_740:\n        /* \"#utility.yul\":37785:37787   */\n      0x20\n        /* \"#utility.yul\":37780:37783   */\n      dup3\n        /* \"#utility.yul\":37776:37788   */\n      add\n        /* \"#utility.yul\":37769:37788   */\n      swap1\n      pop\n        /* \"#utility.yul\":37428:37794   */\n      swap2\n      swap1\n      pop\n      jump\t// out\n        /* \"#utility.yul\":37800:38219   */\n    tag_318:\n        /* \"#utility.yul\":37966:37970   */\n      0x00\n        /* \"#utility.yul\":38004:38006   */\n      0x20\n        /* \"#utility.yul\":37993:38002   */\n      dup3\n        /* \"#utility.yul\":37989:38007   */\n      add\n        /* \"#utility.yul\":37981:38007   */\n      swap1\n      pop\n        /* \"#utility.yul\":38053:38062   */\n      dup2\n        /* \"#utility.yul\":38047:38051   */\n      dup2\n        /* \"#utility.yul\":38043:38063   */\n      sub\n        /* \"#utility.yul\":38039:38040   */\n      0x00\n        /* \"#utility.yul\":38028:38037   */\n      dup4\n        /* \"#utility.yul\":38024:38041   */\n      add\n        /* \"#utility.yul\":38017:38064   */\n      mstore\n        /* \"#utility.yul\":38081:38212   */\n      tag_742\n        /* \"#utility.yul\":38207:38211   */\n      dup2\n        /* \"#utility.yul\":38081:38212   */\n      tag_420\n      jump\t// in\n    tag_742:\n        /* \"#utility.yul\":38073:38212   */\n      swap1\n      pop\n        /* \"#utility.yul\":37800:38219   */\n      swap2\n      swap1\n      pop\n      jump\t// out\n        /* \"#utility.yul\":38225:38449   */\n    tag_421:\n        /* \"#utility.yul\":38365:38399   */\n      0x4f6e6c7920417574686f72697a65642063726561746f72732063616e20616363\n        /* \"#utility.yul\":38361:38362   */\n      0x00\n        /* \"#utility.yul\":38353:38359   */\n      dup3\n        /* \"#utility.yul\":38349:38363   */\n      add\n        /* \"#utility.yul\":38342:38400   */\n      mstore\n        /* \"#utility.yul\":38434:38441   */\n      0x6573732121000000000000000000000000000000000000000000000000000000\n        /* \"#utility.yul\":38429:38431   */\n      0x20\n        /* \"#utility.yul\":38421:38427   */\n      dup3\n        /* \"#utility.yul\":38417:38432   */\n      add\n        /* \"#utility.yul\":38410:38442   */\n      mstore\n        /* \"#utility.yul\":38225:38449   */\n      pop\n      jump\t// out\n        /* \"#utility.yul\":38455:38821   */\n    tag_422:\n        /* \"#utility.yul\":38597:38600   */\n      0x00\n        /* \"#utility.yul\":38618:38685   */\n      tag_745\n        /* \"#utility.yul\":38682:38684   */\n      0x25\n        /* \"#utility.yul\":38677:38680   */\n      dup4\n        /* \"#utility.yul\":38618:38685   */\n      tag_352\n      jump\t// in\n    tag_745:\n        /* \"#utility.yul\":38611:38685   */\n      swap2\n      pop\n        /* \"#utility.yul\":38694:38787   */\n      tag_746\n        /* \"#utility.yul\":38783:38786   */\n      dup3\n        /* \"#utility.yul\":38694:38787   */\n      tag_421\n      jump\t// in\n    tag_746:\n        /* \"#utility.yul\":38812:38814   */\n      0x40\n        /* \"#utility.yul\":38807:38810   */\n      dup3\n        /* \"#utility.yul\":38803:38815   */\n      add\n        /* \"#utility.yul\":38796:38815   */\n      swap1\n      pop\n        /* \"#utility.yul\":38455:38821   */\n      swap2\n      swap1\n      pop\n      jump\t// out\n        /* \"#utility.yul\":38827:39246   */\n    tag_321:\n        /* \"#utility.yul\":38993:38997   */\n      0x00\n        /* \"#utility.yul\":39031:39033   */\n      0x20\n        /* \"#utility.yul\":39020:39029   */\n      dup3\n        /* \"#utility.yul\":39016:39034   */\n      add\n        /* \"#utility.yul\":39008:39034   */\n      swap1\n      pop\n        /* \"#utility.yul\":39080:39089   */\n      dup2\n        /* \"#utility.yul\":39074:39078   */\n      dup2\n        /* \"#utility.yul\":39070:39090   */\n      sub\n        /* \"#utility.yul\":39066:39067   */\n      0x00\n        /* \"#utility.yul\":39055:39064   */\n      dup4\n        /* \"#utility.yul\":39051:39068   */\n      add\n        /* \"#utility.yul\":39044:39091   */\n      mstore\n        /* \"#utility.yul\":39108:39239   */\n      tag_748\n        /* \"#utility.yul\":39234:39238   */\n      dup2\n        /* \"#utility.yul\":39108:39239   */\n      tag_422\n      jump\t// in\n    tag_748:\n        /* \"#utility.yul\":39100:39239   */\n      swap1\n      pop\n        /* \"#utility.yul\":38827:39246   */\n      swap2\n      swap1\n      pop\n      jump\t// out\n        /* \"#utility.yul\":39252:39393   */\n    tag_423:\n        /* \"#utility.yul\":39301:39305   */\n      0x00\n        /* \"#utility.yul\":39324:39327   */\n      dup2\n        /* \"#utility.yul\":39316:39327   */\n      swap1\n      pop\n        /* \"#utility.yul\":39347:39350   */\n      dup2\n        /* \"#utility.yul\":39344:39345   */\n      0x00\n        /* \"#utility.yul\":39337:39351   */\n      mstore\n        /* \"#utility.yul\":39381:39385   */\n      0x20\n        /* \"#utility.yul\":39378:39379   */\n      0x00\n        /* \"#utility.yul\":39368:39386   */\n      keccak256\n        /* \"#utility.yul\":39360:39386   */\n      swap1\n      pop\n        /* \"#utility.yul\":39252:39393   */\n      swap2\n      swap1\n      pop\n      jump\t// out\n        /* \"#utility.yul\":39399:39492   */\n    tag_424:\n        /* \"#utility.yul\":39436:39442   */\n      0x00\n        /* \"#utility.yul\":39483:39485   */\n      0x20\n        /* \"#utility.yul\":39478:39480   */\n      0x1f\n        /* \"#utility.yul\":39471:39476   */\n      dup4\n        /* \"#utility.yul\":39467:39481   */\n      add\n        /* \"#utility.yul\":39463:39486   */\n      div\n        /* \"#utility.yul\":39453:39486   */\n      swap1\n      pop\n        /* \"#utility.yul\":39399:39492   */\n      swap2\n      swap1\n      pop\n      jump\t// out\n        /* \"#utility.yul\":39498:39605   */\n    tag_425:\n        /* \"#utility.yul\":39542:39550   */\n      0x00\n        /* \"#utility.yul\":39592:39597   */\n      dup3\n        /* \"#utility.yul\":39586:39590   */\n      dup3\n        /* \"#utility.yul\":39582:39598   */\n      shl\n        /* \"#utility.yul\":39561:39598   */\n      swap1\n      pop\n        /* \"#utility.yul\":39498:39605   */\n      swap3\n      swap2\n      pop\n      pop\n      jump\t// out\n        /* \"#utility.yul\":39611:40004   */\n    tag_426:\n        /* \"#utility.yul\":39680:39686   */\n      0x00\n        /* \"#utility.yul\":39730:39731   */\n      0x08\n        /* \"#utility.yul\":39718:39728   */\n      dup4\n        /* \"#utility.yul\":39714:39732   */\n      mul\n        /* \"#utility.yul\":39753:39850   */\n      tag_753\n        /* \"#utility.yul\":39783:39849   */\n      0xffffffffffffffffffffffffffffffffffffffffffffffffffffffffffffffff\n        /* \"#utility.yul\":39772:39781   */\n      dup3\n        /* \"#utility.yul\":39753:39850   */\n      tag_425\n      jump\t// in\n    tag_753:\n        /* \"#utility.yul\":39871:39910   */\n      tag_754\n        /* \"#utility.yul\":39901:39909   */\n      dup7\n        /* \"#utility.yul\":39890:39899   */\n      dup4\n        /* \"#utility.yul\":39871:39910   */\n      tag_425\n      jump\t// in\n    tag_754:\n        /* \"#utility.yul\":39859:39910   */\n      swap6\n      pop\n        /* \"#utility.yul\":39943:39947   */\n      dup1\n        /* \"#utility.yul\":39939:39948   */\n      not\n        /* \"#utility.yul\":39932:39937   */\n      dup5\n        /* \"#utility.yul\":39928:39949   */\n      and\n        /* \"#utility.yul\":39919:39949   */\n      swap4\n      pop\n        /* \"#utility.yul\":39992:39996   */\n      dup1\n        /* \"#utility.yul\":39982:39990   */\n      dup7\n        /* \"#utility.yul\":39978:39997   */\n      and\n        /* \"#utility.yul\":39971:39976   */\n      dup5\n        /* \"#utility.yul\":39968:39998   */\n      or\n        /* \"#utility.yul\":39958:39998   */\n      swap3\n      pop\n        /* \"#utility.yul\":39687:40004   */\n      pop\n      pop\n        /* \"#utility.yul\":39611:40004   */\n      swap4\n      swap3\n      pop\n      pop\n      pop\n      jump\t// out\n        /* \"#utility.yul\":40010:40070   */\n    tag_427:\n        /* \"#utility.yul\":40038:40041   */\n      0x00\n        /* \"#utility.yul\":40059:40064   */\n      dup2\n        /* \"#utility.yul\":40052:40064   */\n      swap1\n      pop\n        /* \"#utility.yul\":40010:40070   */\n      swap2\n      swap1\n      pop\n      jump\t// out\n        /* \"#utility.yul\":40076:40218   */\n    tag_428:\n        /* \"#utility.yul\":40126:40135   */\n      0x00\n        /* \"#utility.yul\":40159:40212   */\n      tag_757\n        /* \"#utility.yul\":40177:40211   */\n      tag_758\n        /* \"#utility.yul\":40186:40210   */\n      tag_759\n        /* \"#utility.yul\":40204:40209   */\n      dup5\n        /* \"#utility.yul\":40186:40210   */\n      tag_344\n      jump\t// in\n    tag_759:\n        /* \"#utility.yul\":40177:40211   */\n      tag_427\n      jump\t// in\n    tag_758:\n        /* \"#utility.yul\":40159:40212   */\n      tag_344\n      jump\t// in\n    tag_757:\n        /* \"#utility.yul\":40146:40212   */\n      swap1\n      pop\n        /* \"#utility.yul\":40076:40218   */\n      swap2\n      swap1\n      pop\n      jump\t// out\n        /* \"#utility.yul\":40224:40299   */\n    tag_429:\n        /* \"#utility.yul\":40267:40270   */\n      0x00\n        /* \"#utility.yul\":40288:40293   */\n      dup2\n        /* \"#utility.yul\":40281:40293   */\n      swap1\n      pop\n        /* \"#utility.yul\":40224:40299   */\n      swap2\n      swap1\n      pop\n      jump\t// out\n        /* \"#utility.yul\":40305:40574   */\n    tag_430:\n        /* \"#utility.yul\":40415:40454   */\n      tag_762\n        /* \"#utility.yul\":40446:40453   */\n      dup4\n        /* \"#utility.yul\":40415:40454   */\n      tag_428\n      jump\t// in\n    tag_762:\n        /* \"#utility.yul\":40476:40567   */\n      tag_763\n        /* \"#utility.yul\":40525:40566   */\n      tag_764\n        /* \"#utility.yul\":40549:40565   */\n      dup3\n        /* \"#utility.yul\":40525:40566   */\n      tag_429\n      jump\t// in\n    tag_764:\n        /* \"#utility.yul\":40517:40523   */\n      dup5\n        /* \"#utility.yul\":40510:40514   */\n      dup5\n        /* \"#utility.yul\":40504:40515   */\n      sload\n        /* \"#utility.yul\":40476:40567   */\n      tag_426\n      jump\t// in\n    tag_763:\n        /* \"#utility.yul\":40470:40474   */\n      dup3\n        /* \"#utility.yul\":40463:40568   */\n      sstore\n        /* \"#utility.yul\":40381:40574   */\n      pop\n        /* \"#utility.yul\":40305:40574   */\n      pop\n      pop\n      pop\n      jump\t// out\n        /* \"#utility.yul\":40580:40653   */\n    tag_431:\n        /* \"#utility.yul\":40625:40628   */\n      0x00\n        /* \"#utility.yul\":40646:40647   */\n      0x00\n        /* \"#utility.yul\":40639:40647   */\n      swap1\n      pop\n        /* \"#utility.yul\":40580:40653   */\n      swap1\n      jump\t// out\n        /* \"#utility.yul\":40659:40848   */\n    tag_432:\n        /* \"#utility.yul\":40736:40768   */\n      tag_767\n      tag_431\n      jump\t// in\n    tag_767:\n        /* \"#utility.yul\":40777:40842   */\n      tag_768\n        /* \"#utility.yul\":40835:40841   */\n      dup2\n        /* \"#utility.yul\":40827:40833   */\n      dup5\n        /* \"#utility.yul\":40821:40825   */\n      dup5\n        /* \"#utility.yul\":40777:40842   */\n      tag_430\n      jump\t// in\n    tag_768:\n        /* \"#utility.yul\":40712:40848   */\n      pop\n        /* \"#utility.yul\":40659:40848   */\n      pop\n      pop\n      jump\t// out\n        /* \"#utility.yul\":40854:41040   */\n    tag_433:\n        /* \"#utility.yul\":40914:41034   */\n    tag_770:\n        /* \"#utility.yul\":40931:40934   */\n      dup2\n        /* \"#utility.yul\":40924:40929   */\n      dup2\n        /* \"#utility.yul\":40921:40935   */\n      lt\n        /* \"#utility.yul\":40914:41034   */\n      iszero\n      tag_772\n      jumpi\n        /* \"#utility.yul\":40985:41024   */\n      tag_773\n        /* \"#utility.yul\":41022:41023   */\n      0x00\n        /* \"#utility.yul\":41015:41020   */\n      dup3\n        /* \"#utility.yul\":40985:41024   */\n      tag_432\n      jump\t// in\n    tag_773:\n        /* \"#utility.yul\":40958:40959   */\n      0x01\n        /* \"#utility.yul\":40951:40956   */\n      dup2\n        /* \"#utility.yul\":40947:40960   */\n      add\n        /* \"#utility.yul\":40938:40960   */\n      swap1\n      pop\n        /* \"#utility.yul\":40914:41034   */\n      jump(tag_770)\n    tag_772:\n        /* \"#utility.yul\":40854:41040   */\n      pop\n      pop\n      jump\t// out\n        /* \"#utility.yul\":41046:41589   */\n    tag_434:\n        /* \"#utility.yul\":41147:41149   */\n      0x1f\n        /* \"#utility.yul\":41142:41145   */\n      dup3\n        /* \"#utility.yul\":41139:41150   */\n      gt\n        /* \"#utility.yul\":41136:41582   */\n      iszero\n      tag_775\n      jumpi\n        /* \"#utility.yul\":41181:41219   */\n      tag_776\n        /* \"#utility.yul\":41213:41218   */\n      dup2\n        /* \"#utility.yul\":41181:41219   */\n      tag_423\n      jump\t// in\n    tag_776:\n        /* \"#utility.yul\":41265:41294   */\n      tag_777\n        /* \"#utility.yul\":41283:41293   */\n      dup5\n        /* \"#utility.yul\":41265:41294   */\n      tag_424\n      jump\t// in\n    tag_777:\n        /* \"#utility.yul\":41255:41263   */\n      dup2\n        /* \"#utility.yul\":41251:41295   */\n      add\n        /* \"#utility.yul\":41448:41450   */\n      0x20\n        /* \"#utility.yul\":41436:41446   */\n      dup6\n        /* \"#utility.yul\":41433:41451   */\n      lt\n        /* \"#utility.yul\":41430:41479   */\n      iszero\n      tag_778\n      jumpi\n        /* \"#utility.yul\":41469:41477   */\n      dup2\n        /* \"#utility.yul\":41454:41477   */\n      swap1\n      pop\n        /* \"#utility.yul\":41430:41479   */\n    tag_778:\n        /* \"#utility.yul\":41492:41572   */\n      tag_779\n        /* \"#utility.yul\":41548:41570   */\n      tag_780\n        /* \"#utility.yul\":41566:41569   */\n      dup6\n        /* \"#utility.yul\":41548:41570   */\n      tag_424\n      jump\t// in\n    tag_780:\n        /* \"#utility.yul\":41538:41546   */\n      dup4\n        /* \"#utility.yul\":41534:41571   */\n      add\n        /* \"#utility.yul\":41521:41532   */\n      dup3\n        /* \"#utility.yul\":41492:41572   */\n      tag_433\n      jump\t// in\n    tag_779:\n        /* \"#utility.yul\":41151:41582   */\n      pop\n      pop\n        /* \"#utility.yul\":41136:41582   */\n    tag_775:\n        /* \"#utility.yul\":41046:41589   */\n      pop\n      pop\n      pop\n      jump\t// out\n        /* \"#utility.yul\":41595:41712   */\n    tag_435:\n        /* \"#utility.yul\":41649:41657   */\n      0x00\n        /* \"#utility.yul\":41699:41704   */\n      dup3\n        /* \"#utility.yul\":41693:41697   */\n      dup3\n        /* \"#utility.yul\":41689:41705   */\n      shr\n        /* \"#utility.yul\":41668:41705   */\n      swap1\n      pop\n        /* \"#utility.yul\":41595:41712   */\n      swap3\n      swap2\n      pop\n      pop\n      jump\t// out\n        /* \"#utility.yul\":41718:41887   */\n    tag_436:\n        /* \"#utility.yul\":41762:41768   */\n      0x00\n        /* \"#utility.yul\":41795:41846   */\n      tag_783\n        /* \"#utility.yul\":41843:41844   */\n      0x00\n        /* \"#utility.yul\":41839:41845   */\n      not\n        /* \"#utility.yul\":41831:41836   */\n      dup5\n        /* \"#utility.yul\":41828:41829   */\n      0x08\n        /* \"#utility.yul\":41824:41837   */\n      mul\n        /* \"#utility.yul\":41795:41846   */\n      tag_435\n      jump\t// in\n    tag_783:\n        /* \"#utility.yul\":41791:41847   */\n      not\n        /* \"#utility.yul\":41876:41880   */\n      dup1\n        /* \"#utility.yul\":41870:41874   */\n      dup4\n        /* \"#utility.yul\":41866:41881   */\n      and\n        /* \"#utility.yul\":41856:41881   */\n      swap2\n      pop\n        /* \"#utility.yul\":41769:41887   */\n      pop\n        /* \"#utility.yul\":41718:41887   */\n      swap3\n      swap2\n      pop\n      pop\n      jump\t// out\n        /* \"#utility.yul\":41892:42187   */\n    tag_437:\n        /* \"#utility.yul\":41968:41972   */\n      0x00\n        /* \"#utility.yul\":42114:42143   */\n      tag_785\n        /* \"#utility.yul\":42139:42142   */\n      dup4\n        /* \"#utility.yul\":42133:42137   */\n      dup4\n        /* \"#utility.yul\":42114:42143   */\n      tag_436\n      jump\t// in\n    tag_785:\n        /* \"#utility.yul\":42106:42143   */\n      swap2\n      pop\n        /* \"#utility.yul\":42176:42179   */\n      dup3\n        /* \"#utility.yul\":42173:42174   */\n      0x02\n        /* \"#utility.yul\":42169:42180   */\n      mul\n        /* \"#utility.yul\":42163:42167   */\n      dup3\n        /* \"#utility.yul\":42160:42181   */\n      or\n        /* \"#utility.yul\":42152:42181   */\n      swap1\n      pop\n        /* \"#utility.yul\":41892:42187   */\n      swap3\n      swap2\n      pop\n      pop\n      jump\t// out\n        /* \"#utility.yul\":42192:43587   */\n    tag_324:\n        /* \"#utility.yul\":42309:42346   */\n      tag_787\n        /* \"#utility.yul\":42342:42345   */\n      dup3\n        /* \"#utility.yul\":42309:42346   */\n      tag_351\n      jump\t// in\n    tag_787:\n        /* \"#utility.yul\":42411:42429   */\n      0xffffffffffffffff\n        /* \"#utility.yul\":42403:42409   */\n      dup2\n        /* \"#utility.yul\":42400:42430   */\n      gt\n        /* \"#utility.yul\":42397:42453   */\n      iszero\n      tag_788\n      jumpi\n        /* \"#utility.yul\":42433:42451   */\n      tag_789\n      tag_362\n      jump\t// in\n    tag_789:\n        /* \"#utility.yul\":42397:42453   */\n    tag_788:\n        /* \"#utility.yul\":42477:42515   */\n      tag_790\n        /* \"#utility.yul\":42509:42513   */\n      dup3\n        /* \"#utility.yul\":42503:42514   */\n      sload\n        /* \"#utility.yul\":42477:42515   */\n      tag_147\n      jump\t// in\n    tag_790:\n        /* \"#utility.yul\":42562:42629   */\n      tag_791\n        /* \"#utility.yul\":42622:42628   */\n      dup3\n        /* \"#utility.yul\":42614:42620   */\n      dup3\n        /* \"#utility.yul\":42608:42612   */\n      dup6\n        /* \"#utility.yul\":42562:42629   */\n      tag_434\n      jump\t// in\n    tag_791:\n        /* \"#utility.yul\":42656:42657   */\n      0x00\n        /* \"#utility.yul\":42680:42684   */\n      0x20\n        /* \"#utility.yul\":42667:42684   */\n      swap1\n      pop\n        /* \"#utility.yul\":42712:42714   */\n      0x1f\n        /* \"#utility.yul\":42704:42710   */\n      dup4\n        /* \"#utility.yul\":42701:42715   */\n      gt\n        /* \"#utility.yul\":42729:42730   */\n      0x01\n        /* \"#utility.yul\":42724:43342   */\n      dup2\n      eq\n      tag_793\n      jumpi\n        /* \"#utility.yul\":43386:43387   */\n      0x00\n        /* \"#utility.yul\":43403:43409   */\n      dup5\n        /* \"#utility.yul\":43400:43477   */\n      iszero\n      tag_794\n      jumpi\n        /* \"#utility.yul\":43452:43461   */\n      dup3\n        /* \"#utility.yul\":43447:43450   */\n      dup8\n        /* \"#utility.yul\":43443:43462   */\n      add\n        /* \"#utility.yul\":43437:43463   */\n      mload\n        /* \"#utility.yul\":43428:43463   */\n      swap1\n      pop\n        /* \"#utility.yul\":43400:43477   */\n    tag_794:\n        /* \"#utility.yul\":43503:43570   */\n      tag_795\n        /* \"#utility.yul\":43563:43569   */\n      dup6\n        /* \"#utility.yul\":43556:43561   */\n      dup3\n        /* \"#utility.yul\":43503:43570   */\n      tag_437\n      jump\t// in\n    tag_795:\n        /* \"#utility.yul\":43497:43501   */\n      dup7\n        /* \"#utility.yul\":43490:43571   */\n      sstore\n        /* \"#utility.yul\":43359:43581   */\n      pop\n        /* \"#utility.yul\":42694:43581   */\n      jump(tag_792)\n        /* \"#utility.yul\":42724:43342   */\n    tag_793:\n        /* \"#utility.yul\":42776:42780   */\n      0x1f\n        /* \"#utility.yul\":42772:42781   */\n      not\n        /* \"#utility.yul\":42764:42770   */\n      dup5\n        /* \"#utility.yul\":42760:42782   */\n      and\n        /* \"#utility.yul\":42810:42847   */\n      tag_796\n        /* \"#utility.yul\":42842:42846   */\n      dup7\n        /* \"#utility.yul\":42810:42847   */\n      tag_423\n      jump\t// in\n    tag_796:\n        /* \"#utility.yul\":42869:42870   */\n      0x00\n        /* \"#utility.yul\":42883:43091   */\n    tag_797:\n        /* \"#utility.yul\":42897:42904   */\n      dup3\n        /* \"#utility.yul\":42894:42895   */\n      dup2\n        /* \"#utility.yul\":42891:42905   */\n      lt\n        /* \"#utility.yul\":42883:43091   */\n      iszero\n      tag_799\n      jumpi\n        /* \"#utility.yul\":42976:42985   */\n      dup5\n        /* \"#utility.yul\":42971:42974   */\n      dup10\n        /* \"#utility.yul\":42967:42986   */\n      add\n        /* \"#utility.yul\":42961:42987   */\n      mload\n        /* \"#utility.yul\":42953:42959   */\n      dup3\n        /* \"#utility.yul\":42946:42988   */\n      sstore\n        /* \"#utility.yul\":43027:43028   */\n      0x01\n        /* \"#utility.yul\":43019:43025   */\n      dup3\n        /* \"#utility.yul\":43015:43029   */\n      add\n        /* \"#utility.yul\":43005:43029   */\n      swap2\n      pop\n        /* \"#utility.yul\":43074:43076   */\n      0x20\n        /* \"#utility.yul\":43063:43072   */\n      dup6\n        /* \"#utility.yul\":43059:43077   */\n      add\n        /* \"#utility.yul\":43046:43077   */\n      swap5\n      pop\n        /* \"#utility.yul\":42920:42924   */\n      0x20\n        /* \"#utility.yul\":42917:42918   */\n      dup2\n        /* \"#utility.yul\":42913:42925   */\n      add\n        /* \"#utility.yul\":42908:42925   */\n      swap1\n      pop\n        /* \"#utility.yul\":42883:43091   */\n      jump(tag_797)\n    tag_799:\n        /* \"#utility.yul\":43119:43125   */\n      dup7\n        /* \"#utility.yul\":43110:43117   */\n      dup4\n        /* \"#utility.yul\":43107:43126   */\n      lt\n        /* \"#utility.yul\":43104:43283   */\n      iszero\n      tag_800\n      jumpi\n        /* \"#utility.yul\":43177:43186   */\n      dup5\n        /* \"#utility.yul\":43172:43175   */\n      dup10\n        /* \"#utility.yul\":43168:43187   */\n      add\n        /* \"#utility.yul\":43162:43188   */\n      mload\n        /* \"#utility.yul\":43220:43268   */\n      tag_801\n        /* \"#utility.yul\":43262:43266   */\n      0x1f\n        /* \"#utility.yul\":43254:43260   */\n      dup10\n        /* \"#utility.yul\":43250:43267   */\n      and\n        /* \"#utility.yul\":43239:43248   */\n      dup3\n        /* \"#utility.yul\":43220:43268   */\n      tag_436\n      jump\t// in\n    tag_801:\n        /* \"#utility.yul\":43212:43218   */\n      dup4\n        /* \"#utility.yul\":43205:43269   */\n      sstore\n        /* \"#utility.yul\":43127:43283   */\n      pop\n        /* \"#utility.yul\":43104:43283   */\n    tag_800:\n        /* \"#utility.yul\":43329:43330   */\n      0x01\n        /* \"#utility.yul\":43325:43326   */\n      0x02\n        /* \"#utility.yul\":43317:43323   */\n      dup9\n        /* \"#utility.yul\":43313:43327   */\n      mul\n        /* \"#utility.yul\":43309:43331   */\n      add\n        /* \"#utility.yul\":43303:43307   */\n      dup9\n        /* \"#utility.yul\":43296:43332   */\n      sstore\n        /* \"#utility.yul\":42731:43342   */\n      pop\n      pop\n      pop\n        /* \"#utility.yul\":42694:43581   */\n    tag_792:\n      pop\n        /* \"#utility.yul\":42284:43587   */\n      pop\n      pop\n      pop\n        /* \"#utility.yul\":42192:43587   */\n      pop\n      pop\n      jump\t// out\n        /* \"#utility.yul\":43593:44328   */\n    tag_330:\n        /* \"#utility.yul\":43810:43814   */\n      0x00\n        /* \"#utility.yul\":43848:43851   */\n      0x80\n        /* \"#utility.yul\":43837:43846   */\n      dup3\n        /* \"#utility.yul\":43833:43852   */\n      add\n        /* \"#utility.yul\":43825:43852   */\n      swap1\n      pop\n        /* \"#utility.yul\":43898:43907   */\n      dup2\n        /* \"#utility.yul\":43892:43896   */\n      dup2\n        /* \"#utility.yul\":43888:43908   */\n      sub\n        /* \"#utility.yul\":43884:43885   */\n      0x00\n        /* \"#utility.yul\":43873:43882   */\n      dup4\n        /* \"#utility.yul\":43869:43886   */\n      add\n        /* \"#utility.yul\":43862:43909   */\n      mstore\n        /* \"#utility.yul\":43926:44004   */\n      tag_803\n        /* \"#utility.yul\":43999:44003   */\n      dup2\n        /* \"#utility.yul\":43990:43996   */\n      dup8\n        /* \"#utility.yul\":43926:44004   */\n      tag_355\n      jump\t// in\n    tag_803:\n        /* \"#utility.yul\":43918:44004   */\n      swap1\n      pop\n        /* \"#utility.yul\":44051:44060   */\n      dup2\n        /* \"#utility.yul\":44045:44049   */\n      dup2\n        /* \"#utility.yul\":44041:44061   */\n      sub\n        /* \"#utility.yul\":44036:44038   */\n      0x20\n        /* \"#utility.yul\":44025:44034   */\n      dup4\n        /* \"#utility.yul\":44021:44039   */\n      add\n        /* \"#utility.yul\":44014:44062   */\n      mstore\n        /* \"#utility.yul\":44079:44157   */\n      tag_804\n        /* \"#utility.yul\":44152:44156   */\n      dup2\n        /* \"#utility.yul\":44143:44149   */\n      dup7\n        /* \"#utility.yul\":44079:44157   */\n      tag_355\n      jump\t// in\n    tag_804:\n        /* \"#utility.yul\":44071:44157   */\n      swap1\n      pop\n        /* \"#utility.yul\":44167:44239   */\n      tag_805\n        /* \"#utility.yul\":44235:44237   */\n      0x40\n        /* \"#utility.yul\":44224:44233   */\n      dup4\n        /* \"#utility.yul\":44220:44238   */\n      add\n        /* \"#utility.yul\":44211:44217   */\n      dup6\n        /* \"#utility.yul\":44167:44239   */\n      tag_347\n      jump\t// in\n    tag_805:\n        /* \"#utility.yul\":44249:44321   */\n      tag_806\n        /* \"#utility.yul\":44317:44319   */\n      0x60\n        /* \"#utility.yul\":44306:44315   */\n      dup4\n        /* \"#utility.yul\":44302:44320   */\n      add\n        /* \"#utility.yul\":44293:44299   */\n      dup5\n        /* \"#utility.yul\":44249:44321   */\n      tag_347\n      jump\t// in\n    tag_806:\n        /* \"#utility.yul\":43593:44328   */\n      swap6\n      swap5\n      pop\n      pop\n      pop\n      pop\n      pop\n      jump\t// out\n\n    auxdata: 0xa26469706673582212208f3f5bbcaa8db66acccb5208bd1ca5112123366c2ce91b79fa76d69ea91f16cc64736f6c634300081e0033\n}\n",
				"bytecode": {
					"linkReferences": {},
					"object": "6080604052348015600e575f5ffd5b5060015f819055503360035f6101000a81548173ffffffffffffffffffffffffffffffffffffffff021916908373ffffffffffffffffffffffffffffffffffffffff160217905550613706806100635f395ff3fe60806040526004361061013f575f3560e01c806371eb89f3116100b5578063cd4ac98c1161006e578063cd4ac98c14610441578063e81a67861461045d578063f81bf60114610473578063f851a4401461049b578063fcdf1238146104c5578063fee2f1c9146104f35761013f565b806371eb89f3146103575780637299baeb1461037357806385f24ee61461039b57806388283c0f146103b15780639ab761c7146103ed578063c49f597b146104175761013f565b806342d844a51161010757806342d844a514610246578063520f45b71461028257806354a5bcc5146102ad5780635d4e5d78146102d7578063629b2647146103135780636c563abe1461033b5761013f565b80630dbac135146101435780631392ebfe1461018057806321b2416c146101a8578063370c36b4146101ee5780633b9056bf1461022a575b5f5ffd5b34801561014e575f5ffd5b5061016960048036038101906101649190612073565b61051b565b6040516101779291906120ad565b60405180910390f35b34801561018b575f5ffd5b506101a660048036038101906101a191906120d4565b6105fc565b005b3480156101b3575f5ffd5b506101ce60048036038101906101c99190612073565b6106f4565b6040516101e59b9a999897969594939291906121db565b60405180910390f35b3480156101f9575f5ffd5b50610214600480360381019061020f9190612073565b6108ba565b6040516102219190612292565b60405180910390f35b610244600480360381019061023f9190612073565b6108fc565b005b348015610251575f5ffd5b5061026c60048036038101906102679190612073565b610bf0565b6040516102799190612292565b60405180910390f35b34801561028d575f5ffd5b50610296610c32565b6040516102a49291906120ad565b60405180910390f35b3480156102b8575f5ffd5b506102c1610c42565b6040516102ce9190612292565b60405180910390f35b3480156102e2575f5ffd5b506102fd60048036038101906102f891906122d5565b610c4b565b60405161030a9190612292565b60405180910390f35b34801561031e575f5ffd5b50610339600480360381019061033491906120d4565b610c6b565b005b61035560048036038101906103509190612073565b610d2e565b005b610371600480360381019061036c9190612073565b611195565b005b34801561037e575f5ffd5b5061039960048036038101906103949190612313565b61135b565b005b3480156103a6575f5ffd5b506103af611484565b005b3480156103bc575f5ffd5b506103d760048036038101906103d29190612313565b611610565b6040516103e4919061233e565b60405180910390f35b3480156103f8575f5ffd5b5061040161162d565b60405161040e9190612292565b60405180910390f35b348015610422575f5ffd5b5061042b611633565b6040516104389190612292565b60405180910390f35b61045b600480360381019061045691906120d4565b611639565b005b348015610468575f5ffd5b50610471611982565b005b34801561047e575f5ffd5b5061049960048036038101906104949190612483565b611ac3565b005b3480156104a6575f5ffd5b506104af611e54565b6040516104bc9190612532565b60405180910390f35b3480156104d0575f5ffd5b506104d9611e79565b6040516104ea95949392919061254b565b60405180910390f35b3480156104fe575f5ffd5b5061051960048036038101906105149190612313565b611eb8565b005b5f5f5f60095f8581526020019081526020015f209050806003015492505f73ffffffffffffffffffffffffffffffffffffffff16815f015f9054906101000a900473ffffffffffffffffffffffffffffffffffffffff1673ffffffffffffffffffffffffffffffffffffffff16036105c8576040517f08c379a00000000000000000000000000000000000000000000000000000000081526004016105bf9061260c565b60405180910390fd5b80600301548160050154106105df575f91506105f6565b806005015481600301546105f39190612657565b91505b50915091565b5f60095f8481526020019081526020015f2090505f816004015411610656576040517f08c379a000000000000000000000000000000000000000000000000000000000815260040161064d906126fa565b60405180910390fd5b3373ffffffffffffffffffffffffffffffffffffffff16815f015f9054906101000a900473ffffffffffffffffffffffffffffffffffffffff1673ffffffffffffffffffffffffffffffffffffffff16146106e6576040517f08c379a00000000000000000000000000000000000000000000000000000000081526004016106dd906127ae565b60405180910390fd5b818160030181905550505050565b6009602052805f5260405f205f91509050805f015f9054906101000a900473ffffffffffffffffffffffffffffffffffffffff1690806001018054610738906127f9565b80601f0160208091040260200160405190810160405280929190818152602001828054610764906127f9565b80156107af5780601f10610786576101008083540402835291602001916107af565b820191905f5260205f20905b81548152906001019060200180831161079257829003601f168201915b5050505050908060020180546107c4906127f9565b80601f01602080910402602001604051908101604052809291908181526020018280546107f0906127f9565b801561083b5780601f106108125761010080835404028352916020019161083b565b820191905f5260205f20905b81548152906001019060200180831161081e57829003601f168201915b505050505090806003015490806004015490806005015490806006015f9054906101000a900460ff16908060060160019054906101000a900473ffffffffffffffffffffffffffffffffffffffff1690806007015490806008015f9054906101000a900460ff16908060080160019054906101000a900460ff1690508b565b5f5f60095f8481526020019081526020015f209050806004015442106108e3575f9150506108f7565b4281600401546108f39190612657565b9150505b919050565b5f60095f8381526020019081526020015f209050806003015481600501541061095a576040517f08c379a000000000000000000000000000000000000000000000000000000000815260040161095190612899565b60405180910390fd5b5f600a5f8481526020019081526020015f205f3373ffffffffffffffffffffffffffffffffffffffff1673ffffffffffffffffffffffffffffffffffffffff1681526020019081526020015f205490505f81116109ec576040517f08c379a00000000000000000000000000000000000000000000000000000000081526004016109e390612901565b60405180910390fd5b5f826006015f9054906101000a900460ff16905081836005015f828254610a139190612657565b9250508190555081600a5f8681526020019081526020015f205f3373ffffffffffffffffffffffffffffffffffffffff1673ffffffffffffffffffffffffffffffffffffffff1681526020019081526020015f205f828254610a759190612657565b925050819055508160015f828254610a8d9190612657565b92505081905550808015610aa8575082600301548360050154105b15610b07575f836006015f6101000a81548160ff0219169083151502179055505f8360080160016101000a81548160ff0219169083151502179055505f6005541115610b065760055f815480929190610b009061291f565b91905055505b5b5f3373ffffffffffffffffffffffffffffffffffffffff1683604051610b2c90612973565b5f6040518083038185875af1925050503d805f8114610b66576040519150601f19603f3d011682016040523d82523d5f602084013e610b6b565b606091505b5050905080610baf576040517f08c379a0000000000000000000000000000000000000000000000000000000008152600401610ba6906129d1565b60405180910390fd5b847fb6e4e293b6c7c5cf68fbb52edfaca6173710fcccbcecac03c32e62327fc000c63385604051610be19291906129ef565b60405180910390a25050505050565b5f5f60095f8481526020019081526020015f2090505f816003015460648360050154610c1c9190612a16565b610c269190612a84565b90508092505050919050565b5f5f600554600654915091509091565b5f600154905090565b600a602052815f5260405f20602052805f5260405f205f91509150505481565b5f60095f8481526020019081526020015f2090503373ffffffffffffffffffffffffffffffffffffffff16815f015f9054906101000a900473ffffffffffffffffffffffffffffffffffffffff1673ffffffffffffffffffffffffffffffffffffffff1614610d0f576040517f08c379a0000000000000000000000000000000000000000000000000000000008152600401610d0690612b24565b60405180910390fd5b81816004015f828254610d229190612b42565b92505081905550505050565b610d36611fe2565b5f60095f8381526020019081526020015f2090508060040154421115610d91576040517f08c379a0000000000000000000000000000000000000000000000000000000008152600401610d8890612bbf565b60405180910390fd5b806006015f9054906101000a900460ff1615610de2576040517f08c379a0000000000000000000000000000000000000000000000000000000008152600401610dd990612c4d565b60405180910390fd5b5f3411610e24576040517f08c379a0000000000000000000000000000000000000000000000000000000008152600401610e1b90612cdb565b60405180910390fd5b8060030154341115610e6b576040517f08c379a0000000000000000000000000000000000000000000000000000000008152600401610e6290612d69565b60405180910390fd5b5f81600501548260030154610e809190612657565b90505f5f82341115610ea2578291508234610e9b9190612657565b9050610ea9565b3491505f90505b5f6064600584610eb99190612a16565b610ec39190612a84565b90505f8184610ed29190612657565b90508160045f828254610ee59190612b42565b9250508190555080866005015f828254610eff9190612b42565b9250508190555080600a5f8981526020019081526020015f205f3373ffffffffffffffffffffffffffffffffffffffff1673ffffffffffffffffffffffffffffffffffffffff1681526020019081526020015f20819055508060015f828254610f689190612b42565b925050819055505f831115611021575f3373ffffffffffffffffffffffffffffffffffffffff1684604051610f9c90612973565b5f6040518083038185875af1925050503d805f8114610fd6576040519150601f19603f3d011682016040523d82523d5f602084013e610fdb565b606091505b505090508061101f576040517f08c379a000000000000000000000000000000000000000000000000000000000815260040161101690612dd1565b60405180910390fd5b505b5f600a5f8981526020019081526020015f205f3373ffffffffffffffffffffffffffffffffffffffff1673ffffffffffffffffffffffffffffffffffffffff1681526020019081526020015f2054905086600701548111156110ca57808760070181905550338760060160016101000a81548173ffffffffffffffffffffffffffffffffffffffff021916908373ffffffffffffffffffffffffffffffffffffffff1602179055505b877f7dd983e9d08b449d571f3583275e98423857f3ffbe9ef56f927eb02b1c8ab5993387876040516110fe93929190612def565b60405180910390a2866003015487600501541015801561112d57508660080160019054906101000a900460ff16155b15611183576001876006015f6101000a81548160ff02191690831515021790555060018760080160016101000a81548160ff02191690831515021790555060055f81548092919061117d90612e24565b91905055505b50505050505050611192612026565b50565b5f60095f8381526020019081526020015f2090505f81600501549050816006015f9054906101000a900460ff16611201576040517f08c379a00000000000000000000000000000000000000000000000000000000081526004016111f890612edb565b60405180910390fd5b3373ffffffffffffffffffffffffffffffffffffffff16825f015f9054906101000a900473ffffffffffffffffffffffffffffffffffffffff1673ffffffffffffffffffffffffffffffffffffffff1614611291576040517f08c379a000000000000000000000000000000000000000000000000000000000815260040161128890612f43565b60405180910390fd5b42826004015411156112d8576040517f08c379a00000000000000000000000000000000000000000000000000000000081526004016112cf90612fd1565b60405180910390fd5b3373ffffffffffffffffffffffffffffffffffffffff166108fc8290811502906040515f60405180830381858888f1935050505015801561131b573d5f5f3e3d5ffd5b50827fcae030e1a3c6b0011e7009bd65734e2e1e330528f6983497631fabd47fa7a281333460405161134e9291906129ef565b60405180910390a2505050565b3373ffffffffffffffffffffffffffffffffffffffff1660035f9054906101000a900473ffffffffffffffffffffffffffffffffffffffff1673ffffffffffffffffffffffffffffffffffffffff16146113ea576040517f08c379a00000000000000000000000000000000000000000000000000000000081526004016113e190613039565b60405180910390fd5b5f60075f8373ffffffffffffffffffffffffffffffffffffffff1673ffffffffffffffffffffffffffffffffffffffff1681526020019081526020015f205f6101000a81548160ff0219169083151502179055508073ffffffffffffffffffffffffffffffffffffffff167f0925d0e195cc39b7ade3fd58fdf494022e37bfd6242c2be09c0b2863977c187960405160405180910390a250565b3373ffffffffffffffffffffffffffffffffffffffff1660035f9054906101000a900473ffffffffffffffffffffffffffffffffffffffff1673ffffffffffffffffffffffffffffffffffffffff1614611513576040517f08c379a000000000000000000000000000000000000000000000000000000000815260040161150a90613039565b60405180910390fd5b5f60045411611557576040517f08c379a000000000000000000000000000000000000000000000000000000000815260040161154e906130a1565b60405180910390fd5b5f60045490505f6004819055505f3373ffffffffffffffffffffffffffffffffffffffff168260405161158990612973565b5f6040518083038185875af1925050503d805f81146115c3576040519150601f19603f3d011682016040523d82523d5f602084013e6115c8565b606091505b505090508061160c576040517f08c379a000000000000000000000000000000000000000000000000000000000815260040161160390613109565b60405180910390fd5b5050565b6007602052805f5260405f205f915054906101000a900460ff1681565b60025481565b60045481565b5f60095f8481526020019081526020015f20905080600401544210611693576040517f08c379a000000000000000000000000000000000000000000000000000000000815260040161168a90613171565b60405180910390fd5b5f600a5f8581526020019081526020015f205f3373ffffffffffffffffffffffffffffffffffffffff1673ffffffffffffffffffffffffffffffffffffffff1681526020019081526020015f205490505f8111611725576040517f08c379a000000000000000000000000000000000000000000000000000000000815260040161171c906131d9565b60405180910390fd5b80831115611768576040517f08c379a000000000000000000000000000000000000000000000000000000000815260040161175f90613267565b60405180910390fd5b5f826006015f9054906101000a900460ff16905083836005015f82825461178f9190612657565b9250508190555083600a5f8781526020019081526020015f205f3373ffffffffffffffffffffffffffffffffffffffff1673ffffffffffffffffffffffffffffffffffffffff1681526020019081526020015f205f8282546117f19190612657565b925050819055508360015f8282546118099190612657565b92505081905550808015611824575082600301548360050154105b15611883575f836006015f6101000a81548160ff0219169083151502179055505f8360080160016101000a81548160ff0219169083151502179055505f60055411156118825760055f81548092919061187c9061291f565b91905055505b5b5f3373ffffffffffffffffffffffffffffffffffffffff16856040516118a890612973565b5f6040518083038185875af1925050503d805f81146118e2576040519150601f19603f3d011682016040523d82523d5f602084013e6118e7565b606091505b505090508061192b576040517f08c379a0000000000000000000000000000000000000000000000000000000008152600401611922906132cf565b60405180910390fd5b853373ffffffffffffffffffffffffffffffffffffffff167fb37480540ffb97ff520a59b38ea1a83aefbfd3d2a956d958a00214b8b6551f28876040516119729190612292565b60405180910390a3505050505050565b5f5f90505b600c80549050811015611ac0575f600c82815481106119a9576119a86132ed565b5b905f5260205f20015490505f60095f8381526020019081526020015f2090508060080160019054906101000a900460ff161580156119eb575080600401544210155b15611ab15760018160080160016101000a81548160ff0219169083151502179055508060030154816005015410158015611a29575080600401544210155b15611a7c57806006015f9054906101000a900460ff16611a77576001816006015f6101000a81548160ff02191690831515021790555060055f815480929190611a7190612e24565b91905055505b611ab0565b6001816008015f6101000a81548160ff02191690831515021790555060065f815480929190611aaa90612e24565b91905055505b5b50508080600101915050611987565b50565b600b5f8281526020019081526020015f205f9054906101000a900460ff1615611b21576040517f08c379a0000000000000000000000000000000000000000000000000000000008152600401611b1890613364565b60405180910390fd5b60075f3373ffffffffffffffffffffffffffffffffffffffff1673ffffffffffffffffffffffffffffffffffffffff1681526020019081526020015f205f9054906101000a900460ff16611baa576040517f08c379a0000000000000000000000000000000000000000000000000000000008152600401611ba1906133f2565b60405180910390fd5b6001600b5f8381526020019081526020015f205f6101000a81548160ff0219169083151502179055506040518061016001604052803373ffffffffffffffffffffffffffffffffffffffff1681526020018681526020018581526020018481526020018342611c199190612b42565b81526020015f81526020015f151581526020015f73ffffffffffffffffffffffffffffffffffffffff1681526020015f81526020015f151581526020015f151581525060095f8381526020019081526020015f205f820151815f015f6101000a81548173ffffffffffffffffffffffffffffffffffffffff021916908373ffffffffffffffffffffffffffffffffffffffff1602179055506020820151816001019081611cc691906135b0565b506040820151816002019081611cdc91906135b0565b50606082015181600301556080820151816004015560a0820151816005015560c0820151816006015f6101000a81548160ff02191690831515021790555060e08201518160060160016101000a81548173ffffffffffffffffffffffffffffffffffffffff021916908373ffffffffffffffffffffffffffffffffffffffff1602179055506101008201518160070155610120820151816008015f6101000a81548160ff0219169083151502179055506101408201518160080160016101000a81548160ff02191690831515021790555090505060025f815480929190611dc290612e24565b9190505550600c81908060018154018082558091505060019003905f5260205f20015f90919091909150553373ffffffffffffffffffffffffffffffffffffffff16817fac9b83534845c9e785a6ea70f2d809db1d72ef9a1d981753712d922f5cb55f398787878742611e359190612b42565b604051611e45949392919061367f565b60405180910390a35050505050565b60035f9054906101000a900473ffffffffffffffffffffffffffffffffffffffff1681565b5f5f5f5f5f600254600554600654600654600554600254611e9a9190612657565b611ea49190612657565b600154945094509450945094509091929394565b3373ffffffffffffffffffffffffffffffffffffffff1660035f9054906101000a900473ffffffffffffffffffffffffffffffffffffffff1673ffffffffffffffffffffffffffffffffffffffff1614611f47576040517f08c379a0000000000000000000000000000000000000000000000000000000008152600401611f3e90613039565b60405180910390fd5b600160075f8373ffffffffffffffffffffffffffffffffffffffff1673ffffffffffffffffffffffffffffffffffffffff1681526020019081526020015f205f6101000a81548160ff0219169083151502179055508073ffffffffffffffffffffffffffffffffffffffff167f1f9f86dc4a3ce57ee42e33c59def65713163420d0ab979169ef129299ff2b85e60405160405180910390a250565b60025f540361201d576040517f3ee5aeb500000000000000000000000000000000000000000000000000000000815260040160405180910390fd5b60025f81905550565b60015f81905550565b5f604051905090565b5f5ffd5b5f5ffd5b5f819050919050565b61205281612040565b811461205c575f5ffd5b50565b5f8135905061206d81612049565b92915050565b5f6020828403121561208857612087612038565b5b5f6120958482850161205f565b91505092915050565b6120a781612040565b82525050565b5f6040820190506120c05f83018561209e565b6120cd602083018461209e565b9392505050565b5f5f604083850312156120ea576120e9612038565b5b5f6120f78582860161205f565b92505060206121088582860161205f565b9150509250929050565b5f73ffffffffffffffffffffffffffffffffffffffff82169050919050565b5f61213b82612112565b9050919050565b61214b81612131565b82525050565b5f81519050919050565b5f82825260208201905092915050565b8281835e5f83830152505050565b5f601f19601f8301169050919050565b5f61219382612151565b61219d818561215b565b93506121ad81856020860161216b565b6121b681612179565b840191505092915050565b5f8115159050919050565b6121d5816121c1565b82525050565b5f610160820190506121ef5f83018e612142565b8181036020830152612201818d612189565b90508181036040830152612215818c612189565b9050612224606083018b61209e565b612231608083018a61209e565b61223e60a083018961209e565b61224b60c08301886121cc565b61225860e0830187612142565b61226661010083018661209e565b6122746101208301856121cc565b6122826101408301846121cc565b9c9b505050505050505050505050565b5f6020820190506122a55f83018461209e565b92915050565b6122b481612131565b81146122be575f5ffd5b50565b5f813590506122cf816122ab565b92915050565b5f5f604083850312156122eb576122ea612038565b5b5f6122f88582860161205f565b9250506020612309858286016122c1565b9150509250929050565b5f6020828403121561232857612327612038565b5b5f612335848285016122c1565b91505092915050565b5f6020820190506123515f8301846121cc565b92915050565b5f5ffd5b5f5ffd5b7f4e487b71000000000000000000000000000000000000000000000000000000005f52604160045260245ffd5b61239582612179565b810181811067ffffffffffffffff821117156123b4576123b361235f565b5b80604052505050565b5f6123c661202f565b90506123d2828261238c565b919050565b5f67ffffffffffffffff8211156123f1576123f061235f565b5b6123fa82612179565b9050602081019050919050565b828183375f83830152505050565b5f612427612422846123d7565b6123bd565b9050828152602081018484840111156124435761244261235b565b5b61244e848285612407565b509392505050565b5f82601f83011261246a57612469612357565b5b813561247a848260208601612415565b91505092915050565b5f5f5f5f5f60a0868803121561249c5761249b612038565b5b5f86013567ffffffffffffffff8111156124b9576124b861203c565b5b6124c588828901612456565b955050602086013567ffffffffffffffff8111156124e6576124e561203c565b5b6124f288828901612456565b94505060406125038882890161205f565b93505060606125148882890161205f565b92505060806125258882890161205f565b9150509295509295909350565b5f6020820190506125455f830184612142565b92915050565b5f60a08201905061255e5f83018861209e565b61256b602083018761209e565b612578604083018661209e565b612585606083018561209e565b612592608083018461209e565b9695505050505050565b7f70726f6a65637420686173206e6f74206265656e2063726561746564207965745f8201527f2100000000000000000000000000000000000000000000000000000000000000602082015250565b5f6125f660218361215b565b91506126018261259c565b604082019050919050565b5f6020820190508181035f830152612623816125ea565b9050919050565b7f4e487b71000000000000000000000000000000000000000000000000000000005f52601160045260245ffd5b5f61266182612040565b915061266c83612040565b92508282039050818111156126845761268361262a565b5b92915050565b7f446561646c696e65206973206f766572202c20796f752043616e2774206368615f8201527f6e6765207468652066756e64696e6720676f616c202121000000000000000000602082015250565b5f6126e460378361215b565b91506126ef8261268a565b604082019050919050565b5f6020820190508181035f830152612711816126d8565b9050919050565b7f596f7520617265206e6f74207468652070726f6a6563742063726561746f72205f8201527f2c204f6e6c7920506f726a6563742063726561746f722063616e204368616e6760208201527f6520212100000000000000000000000000000000000000000000000000000000604082015250565b5f61279860448361215b565b91506127a382612718565b606082019050919050565b5f6020820190508181035f8301526127c58161278c565b9050919050565b7f4e487b71000000000000000000000000000000000000000000000000000000005f52602260045260245ffd5b5f600282049050600182168061281057607f821691505b602082108103612823576128226127cc565b5b50919050565b7f46756e64696e6720676f616c206861732072656163686564202c2075736572205f8201527f63616e2774207769746864726177000000000000000000000000000000000000602082015250565b5f612883602e8361215b565b915061288e82612829565b604082019050919050565b5f6020820190508181035f8301526128b081612877565b9050919050565b7f4e6f2066756e647320746f2077697468647261770000000000000000000000005f82015250565b5f6128eb60148361215b565b91506128f6826128b7565b602082019050919050565b5f6020820190508181035f830152612918816128df565b9050919050565b5f61292982612040565b91505f820361293b5761293a61262a565b5b600182039050919050565b5f81905092915050565b50565b5f61295e5f83612946565b915061296982612950565b5f82019050919050565b5f61297d82612953565b9150819050919050565b7f5769746864726177616c204661696c65640000000000000000000000000000005f82015250565b5f6129bb60118361215b565b91506129c682612987565b602082019050919050565b5f6020820190508181035f8301526129e8816129af565b9050919050565b5f604082019050612a025f830185612142565b612a0f602083018461209e565b9392505050565b5f612a2082612040565b9150612a2b83612040565b9250828202612a3981612040565b91508282048414831517612a5057612a4f61262a565b5b5092915050565b7f4e487b71000000000000000000000000000000000000000000000000000000005f52601260045260245ffd5b5f612a8e82612040565b9150612a9983612040565b925082612aa957612aa8612a57565b5b828204905092915050565b7f4f6e6c792050726f6a6563742063726561746f722063616e20657874656e64205f8201527f74686520646561646c696e652121000000000000000000000000000000000000602082015250565b5f612b0e602e8361215b565b9150612b1982612ab4565b604082019050919050565b5f6020820190508181035f830152612b3b81612b02565b9050919050565b5f612b4c82612040565b9150612b5783612040565b9250828201905080821115612b6f57612b6e61262a565b5b92915050565b7f50726f6a65637420646561646c696e65206973206f76657221000000000000005f82015250565b5f612ba960198361215b565b9150612bb482612b75565b602082019050919050565b5f6020820190508181035f830152612bd681612b9d565b9050919050565b7f50726f6a6563742052656163686564206974732046756e64696e6720726571755f8201527f6972656d656e7400000000000000000000000000000000000000000000000000602082015250565b5f612c3760278361215b565b9150612c4282612bdd565b604082019050919050565b5f6020820190508181035f830152612c6481612c2b565b9050919050565b7f73656e6420736f6d6520657468657220746f20636f6e7472696275746520696e5f8201527f207468652070726f6a6563740000000000000000000000000000000000000000602082015250565b5f612cc5602c8361215b565b9150612cd082612c6b565b604082019050919050565b5f6020820190508181035f830152612cf281612cb9565b9050919050565b7f416d6f756e7420436f6e7472696275746564206973206d6f7265207468616e205f8201527f476f616c00000000000000000000000000000000000000000000000000000000602082015250565b5f612d5360248361215b565b9150612d5e82612cf9565b604082019050919050565b5f6020820190508181035f830152612d8081612d47565b9050919050565b7f526566756e64204661696c6564000000000000000000000000000000000000005f82015250565b5f612dbb600d8361215b565b9150612dc682612d87565b602082019050919050565b5f6020820190508181035f830152612de881612daf565b9050919050565b5f606082019050612e025f830186612142565b612e0f602083018561209e565b612e1c604083018461209e565b949350505050565b5f612e2e82612040565b91507fffffffffffffffffffffffffffffffffffffffffffffffffffffffffffffffff8203612e6057612e5f61262a565b5b600182019050919050565b7f66756e64696e6720676f616c20686173206e6f742072656163686564202c20615f8201527f646d696e2063616e277420776974686472617700000000000000000000000000602082015250565b5f612ec560338361215b565b9150612ed082612e6b565b604082019050919050565b5f6020820190508181035f830152612ef281612eb9565b9050919050565b7f6f6e6c792061646d696e2063616e2077697468647261770000000000000000005f82015250565b5f612f2d60178361215b565b9150612f3882612ef9565b602082019050919050565b5f6020820190508181035f830152612f5a81612f21565b9050919050565b7f646561646c696e6520686173206e6f742072656163686564202c2061646d696e5f8201527f2063616e27742077697468647261770000000000000000000000000000000000602082015250565b5f612fbb602f8361215b565b9150612fc682612f61565b604082019050919050565b5f6020820190508181035f830152612fe881612faf565b9050919050565b7f4f6e6c792041646d696e2063616e2061636365737300000000000000000000005f82015250565b5f61302360158361215b565b915061302e82612fef565b602082019050919050565b5f6020820190508181035f83015261305081613017565b9050919050565b7f4e6f20636f6d6d697373696f6e20746f207769746864726177000000000000005f82015250565b5f61308b60198361215b565b915061309682613057565b602082019050919050565b5f6020820190508181035f8301526130b88161307f565b9050919050565b7f5769746864726177616c204661696c65642100000000000000000000000000005f82015250565b5f6130f360128361215b565b91506130fe826130bf565b602082019050919050565b5f6020820190508181035f830152613120816130e7565b9050919050565b7f43616e6e6f7420776974686472617720616674657220646561646c696e6500005f82015250565b5f61315b601e8361215b565b915061316682613127565b602082019050919050565b5f6020820190508181035f8301526131888161314f565b9050919050565b7f4e6f2046756e647320746f2077697468647261772121000000000000000000005f82015250565b5f6131c360168361215b565b91506131ce8261318f565b602082019050919050565b5f6020820190508181035f8301526131f0816131b7565b9050919050565b7f576974686472617720616d6f756e74206578636565647320796f757220636f6e5f8201527f747269627574696f6e0000000000000000000000000000000000000000000000602082015250565b5f61325160298361215b565b915061325c826131f7565b604082019050919050565b5f6020820190508181035f83015261327e81613245565b9050919050565b7f7769746864726177206661696c656421212121000000000000000000000000005f82015250565b5f6132b960138361215b565b91506132c482613285565b602082019050919050565b5f6020820190508181035f8301526132e6816132ad565b9050919050565b7f4e487b71000000000000000000000000000000000000000000000000000000005f52603260045260245ffd5b7f50726f6a65637420494420697320616c726561647920696e20757365210000005f82015250565b5f61334e601d8361215b565b91506133598261331a565b602082019050919050565b5f6020820190508181035f83015261337b81613342565b9050919050565b7f4f6e6c7920417574686f72697a65642063726561746f72732063616e206163635f8201527f6573732121000000000000000000000000000000000000000000000000000000602082015250565b5f6133dc60258361215b565b91506133e782613382565b604082019050919050565b5f6020820190508181035f830152613409816133d0565b9050919050565b5f819050815f5260205f209050919050565b5f6020601f8301049050919050565b5f82821b905092915050565b5f6008830261346c7fffffffffffffffffffffffffffffffffffffffffffffffffffffffffffffffff82613431565b6134768683613431565b95508019841693508086168417925050509392505050565b5f819050919050565b5f6134b16134ac6134a784612040565b61348e565b612040565b9050919050565b5f819050919050565b6134ca83613497565b6134de6134d6826134b8565b84845461343d565b825550505050565b5f5f905090565b6134f56134e6565b6135008184846134c1565b505050565b5b81811015613523576135185f826134ed565b600181019050613506565b5050565b601f8211156135685761353981613410565b61354284613422565b81016020851015613551578190505b61356561355d85613422565b830182613505565b50505b505050565b5f82821c905092915050565b5f6135885f198460080261356d565b1980831691505092915050565b5f6135a08383613579565b9150826002028217905092915050565b6135b982612151565b67ffffffffffffffff8111156135d2576135d161235f565b5b6135dc82546127f9565b6135e7828285613527565b5f60209050601f831160018114613618575f8415613606578287015190505b6136108582613595565b865550613677565b601f19841661362686613410565b5f5b8281101561364d57848901518255600182019150602085019450602081019050613628565b8683101561366a5784890151613666601f891682613579565b8355505b6001600288020188555050505b505050505050565b5f6080820190508181035f8301526136978187612189565b905081810360208301526136ab8186612189565b90506136ba604083018561209e565b6136c7606083018461209e565b9594505050505056fea26469706673582212208f3f5bbcaa8db66acccb5208bd1ca5112123366c2ce91b79fa76d69ea91f16cc64736f6c634300081e0033",
					"opcodes": "PUSH1 0x80 PUSH1 0x40 MSTORE CALLVALUE DUP1 ISZERO PUSH1 0xE JUMPI PUSH0 PUSH0 REVERT JUMPDEST POP PUSH1 0x1 PUSH0 DUP2 SWAP1 SSTORE POP CALLER PUSH1 0x3 PUSH0 PUSH2 0x100 EXP DUP2 SLOAD DUP2 PUSH20 0xFFFFFFFFFFFFFFFFFFFFFFFFFFFFFFFFFFFFFFFF MUL NOT AND SWAP1 DUP4 PUSH20 0xFFFFFFFFFFFFFFFFFFFFFFFFFFFFFFFFFFFFFFFF AND MUL OR SWAP1 SSTORE POP PUSH2 0x3706 DUP1 PUSH2 0x63 PUSH0 CODECOPY PUSH0 RETURN INVALID PUSH1 0x80 PUSH1 0x40 MSTORE PUSH1 0x4 CALLDATASIZE LT PUSH2 0x13F JUMPI PUSH0 CALLDATALOAD PUSH1 0xE0 SHR DUP1 PUSH4 0x71EB89F3 GT PUSH2 0xB5 JUMPI DUP1 PUSH4 0xCD4AC98C GT PUSH2 0x6E JUMPI DUP1 PUSH4 0xCD4AC98C EQ PUSH2 0x441 JUMPI DUP1 PUSH4 0xE81A6786 EQ PUSH2 0x45D JUMPI DUP1 PUSH4 0xF81BF601 EQ PUSH2 0x473 JUMPI DUP1 PUSH4 0xF851A440 EQ PUSH2 0x49B JUMPI DUP1 PUSH4 0xFCDF1238 EQ PUSH2 0x4C5 JUMPI DUP1 PUSH4 0xFEE2F1C9 EQ PUSH2 0x4F3 JUMPI PUSH2 0x13F JUMP JUMPDEST DUP1 PUSH4 0x71EB89F3 EQ PUSH2 0x357 JUMPI DUP1 PUSH4 0x7299BAEB EQ PUSH2 0x373 JUMPI DUP1 PUSH4 0x85F24EE6 EQ PUSH2 0x39B JUMPI DUP1 PUSH4 0x88283C0F EQ PUSH2 0x3B1 JUMPI DUP1 PUSH4 0x9AB761C7 EQ PUSH2 0x3ED JUMPI DUP1 PUSH4 0xC49F597B EQ PUSH2 0x417 JUMPI PUSH2 0x13F JUMP JUMPDEST DUP1 PUSH4 0x42D844A5 GT PUSH2 0x107 JUMPI DUP1 PUSH4 0x42D844A5 EQ PUSH2 0x246 JUMPI DUP1 PUSH4 0x520F45B7 EQ PUSH2 0x282 JUMPI DUP1 PUSH4 0x54A5BCC5 EQ PUSH2 0x2AD JUMPI DUP1 PUSH4 0x5D4E5D78 EQ PUSH2 0x2D7 JUMPI DUP1 PUSH4 0x629B2647 EQ PUSH2 0x313 JUMPI DUP1 PUSH4 0x6C563ABE EQ PUSH2 0x33B JUMPI PUSH2 0x13F JUMP JUMPDEST DUP1 PUSH4 0xDBAC135 EQ PUSH2 0x143 JUMPI DUP1 PUSH4 0x1392EBFE EQ PUSH2 0x180 JUMPI DUP1 PUSH4 0x21B2416C EQ PUSH2 0x1A8 JUMPI DUP1 PUSH4 0x370C36B4 EQ PUSH2 0x1EE JUMPI DUP1 PUSH4 0x3B9056BF EQ PUSH2 0x22A JUMPI JUMPDEST PUSH0 PUSH0 REVERT JUMPDEST CALLVALUE DUP1 ISZERO PUSH2 0x14E JUMPI PUSH0 PUSH0 REVERT JUMPDEST POP PUSH2 0x169 PUSH1 0x4 DUP1 CALLDATASIZE SUB DUP2 ADD SWAP1 PUSH2 0x164 SWAP2 SWAP1 PUSH2 0x2073 JUMP JUMPDEST PUSH2 0x51B JUMP JUMPDEST PUSH1 0x40 MLOAD PUSH2 0x177 SWAP3 SWAP2 SWAP1 PUSH2 0x20AD JUMP JUMPDEST PUSH1 0x40 MLOAD DUP1 SWAP2 SUB SWAP1 RETURN JUMPDEST CALLVALUE DUP1 ISZERO PUSH2 0x18B JUMPI PUSH0 PUSH0 REVERT JUMPDEST POP PUSH2 0x1A6 PUSH1 0x4 DUP1 CALLDATASIZE SUB DUP2 ADD SWAP1 PUSH2 0x1A1 SWAP2 SWAP1 PUSH2 0x20D4 JUMP JUMPDEST PUSH2 0x5FC JUMP JUMPDEST STOP JUMPDEST CALLVALUE DUP1 ISZERO PUSH2 0x1B3 JUMPI PUSH0 PUSH0 REVERT JUMPDEST POP PUSH2 0x1CE PUSH1 0x4 DUP1 CALLDATASIZE SUB DUP2 ADD SWAP1 PUSH2 0x1C9 SWAP2 SWAP1 PUSH2 0x2073 JUMP JUMPDEST PUSH2 0x6F4 JUMP JUMPDEST PUSH1 0x40 MLOAD PUSH2 0x1E5 SWAP12 SWAP11 SWAP10 SWAP9 SWAP8 SWAP7 SWAP6 SWAP5 SWAP4 SWAP3 SWAP2 SWAP1 PUSH2 0x21DB JUMP JUMPDEST PUSH1 0x40 MLOAD DUP1 SWAP2 SUB SWAP1 RETURN JUMPDEST CALLVALUE DUP1 ISZERO PUSH2 0x1F9 JUMPI PUSH0 PUSH0 REVERT JUMPDEST POP PUSH2 0x214 PUSH1 0x4 DUP1 CALLDATASIZE SUB DUP2 ADD SWAP1 PUSH2 0x20F SWAP2 SWAP1 PUSH2 0x2073 JUMP JUMPDEST PUSH2 0x8BA JUMP JUMPDEST PUSH1 0x40 MLOAD PUSH2 0x221 SWAP2 SWAP1 PUSH2 0x2292 JUMP JUMPDEST PUSH1 0x40 MLOAD DUP1 SWAP2 SUB SWAP1 RETURN JUMPDEST PUSH2 0x244 PUSH1 0x4 DUP1 CALLDATASIZE SUB DUP2 ADD SWAP1 PUSH2 0x23F SWAP2 SWAP1 PUSH2 0x2073 JUMP JUMPDEST PUSH2 0x8FC JUMP JUMPDEST STOP JUMPDEST CALLVALUE DUP1 ISZERO PUSH2 0x251 JUMPI PUSH0 PUSH0 REVERT JUMPDEST POP PUSH2 0x26C PUSH1 0x4 DUP1 CALLDATASIZE SUB DUP2 ADD SWAP1 PUSH2 0x267 SWAP2 SWAP1 PUSH2 0x2073 JUMP JUMPDEST PUSH2 0xBF0 JUMP JUMPDEST PUSH1 0x40 MLOAD PUSH2 0x279 SWAP2 SWAP1 PUSH2 0x2292 JUMP JUMPDEST PUSH1 0x40 MLOAD DUP1 SWAP2 SUB SWAP1 RETURN JUMPDEST CALLVALUE DUP1 ISZERO PUSH2 0x28D JUMPI PUSH0 PUSH0 REVERT JUMPDEST POP PUSH2 0x296 PUSH2 0xC32 JUMP JUMPDEST PUSH1 0x40 MLOAD PUSH2 0x2A4 SWAP3 SWAP2 SWAP1 PUSH2 0x20AD JUMP JUMPDEST PUSH1 0x40 MLOAD DUP1 SWAP2 SUB SWAP1 RETURN JUMPDEST CALLVALUE DUP1 ISZERO PUSH2 0x2B8 JUMPI PUSH0 PUSH0 REVERT JUMPDEST POP PUSH2 0x2C1 PUSH2 0xC42 JUMP JUMPDEST PUSH1 0x40 MLOAD PUSH2 0x2CE SWAP2 SWAP1 PUSH2 0x2292 JUMP JUMPDEST PUSH1 0x40 MLOAD DUP1 SWAP2 SUB SWAP1 RETURN JUMPDEST CALLVALUE DUP1 ISZERO PUSH2 0x2E2 JUMPI PUSH0 PUSH0 REVERT JUMPDEST POP PUSH2 0x2FD PUSH1 0x4 DUP1 CALLDATASIZE SUB DUP2 ADD SWAP1 PUSH2 0x2F8 SWAP2 SWAP1 PUSH2 0x22D5 JUMP JUMPDEST PUSH2 0xC4B JUMP JUMPDEST PUSH1 0x40 MLOAD PUSH2 0x30A SWAP2 SWAP1 PUSH2 0x2292 JUMP JUMPDEST PUSH1 0x40 MLOAD DUP1 SWAP2 SUB SWAP1 RETURN JUMPDEST CALLVALUE DUP1 ISZERO PUSH2 0x31E JUMPI PUSH0 PUSH0 REVERT JUMPDEST POP PUSH2 0x339 PUSH1 0x4 DUP1 CALLDATASIZE SUB DUP2 ADD SWAP1 PUSH2 0x334 SWAP2 SWAP1 PUSH2 0x20D4 JUMP JUMPDEST PUSH2 0xC6B JUMP JUMPDEST STOP JUMPDEST PUSH2 0x355 PUSH1 0x4 DUP1 CALLDATASIZE SUB DUP2 ADD SWAP1 PUSH2 0x350 SWAP2 SWAP1 PUSH2 0x2073 JUMP JUMPDEST PUSH2 0xD2E JUMP JUMPDEST STOP JUMPDEST PUSH2 0x371 PUSH1 0x4 DUP1 CALLDATASIZE SUB DUP2 ADD SWAP1 PUSH2 0x36C SWAP2 SWAP1 PUSH2 0x2073 JUMP JUMPDEST PUSH2 0x1195 JUMP JUMPDEST STOP JUMPDEST CALLVALUE DUP1 ISZERO PUSH2 0x37E JUMPI PUSH0 PUSH0 REVERT JUMPDEST POP PUSH2 0x399 PUSH1 0x4 DUP1 CALLDATASIZE SUB DUP2 ADD SWAP1 PUSH2 0x394 SWAP2 SWAP1 PUSH2 0x2313 JUMP JUMPDEST PUSH2 0x135B JUMP JUMPDEST STOP JUMPDEST CALLVALUE DUP1 ISZERO PUSH2 0x3A6 JUMPI PUSH0 PUSH0 REVERT JUMPDEST POP PUSH2 0x3AF PUSH2 0x1484 JUMP JUMPDEST STOP JUMPDEST CALLVALUE DUP1 ISZERO PUSH2 0x3BC JUMPI PUSH0 PUSH0 REVERT JUMPDEST POP PUSH2 0x3D7 PUSH1 0x4 DUP1 CALLDATASIZE SUB DUP2 ADD SWAP1 PUSH2 0x3D2 SWAP2 SWAP1 PUSH2 0x2313 JUMP JUMPDEST PUSH2 0x1610 JUMP JUMPDEST PUSH1 0x40 MLOAD PUSH2 0x3E4 SWAP2 SWAP1 PUSH2 0x233E JUMP JUMPDEST PUSH1 0x40 MLOAD DUP1 SWAP2 SUB SWAP1 RETURN JUMPDEST CALLVALUE DUP1 ISZERO PUSH2 0x3F8 JUMPI PUSH0 PUSH0 REVERT JUMPDEST POP PUSH2 0x401 PUSH2 0x162D JUMP JUMPDEST PUSH1 0x40 MLOAD PUSH2 0x40E SWAP2 SWAP1 PUSH2 0x2292 JUMP JUMPDEST PUSH1 0x40 MLOAD DUP1 SWAP2 SUB SWAP1 RETURN JUMPDEST CALLVALUE DUP1 ISZERO PUSH2 0x422 JUMPI PUSH0 PUSH0 REVERT JUMPDEST POP PUSH2 0x42B PUSH2 0x1633 JUMP JUMPDEST PUSH1 0x40 MLOAD PUSH2 0x438 SWAP2 SWAP1 PUSH2 0x2292 JUMP JUMPDEST PUSH1 0x40 MLOAD DUP1 SWAP2 SUB SWAP1 RETURN JUMPDEST PUSH2 0x45B PUSH1 0x4 DUP1 CALLDATASIZE SUB DUP2 ADD SWAP1 PUSH2 0x456 SWAP2 SWAP1 PUSH2 0x20D4 JUMP JUMPDEST PUSH2 0x1639 JUMP JUMPDEST STOP JUMPDEST CALLVALUE DUP1 ISZERO PUSH2 0x468 JUMPI PUSH0 PUSH0 REVERT JUMPDEST POP PUSH2 0x471 PUSH2 0x1982 JUMP JUMPDEST STOP JUMPDEST CALLVALUE DUP1 ISZERO PUSH2 0x47E JUMPI PUSH0 PUSH0 REVERT JUMPDEST POP PUSH2 0x499 PUSH1 0x4 DUP1 CALLDATASIZE SUB DUP2 ADD SWAP1 PUSH2 0x494 SWAP2 SWAP1 PUSH2 0x2483 JUMP JUMPDEST PUSH2 0x1AC3 JUMP JUMPDEST STOP JUMPDEST CALLVALUE DUP1 ISZERO PUSH2 0x4A6 JUMPI PUSH0 PUSH0 REVERT JUMPDEST POP PUSH2 0x4AF PUSH2 0x1E54 JUMP JUMPDEST PUSH1 0x40 MLOAD PUSH2 0x4BC SWAP2 SWAP1 PUSH2 0x2532 JUMP JUMPDEST PUSH1 0x40 MLOAD DUP1 SWAP2 SUB SWAP1 RETURN JUMPDEST CALLVALUE DUP1 ISZERO PUSH2 0x4D0 JUMPI PUSH0 PUSH0 REVERT JUMPDEST POP PUSH2 0x4D9 PUSH2 0x1E79 JUMP JUMPDEST PUSH1 0x40 MLOAD PUSH2 0x4EA SWAP6 SWAP5 SWAP4 SWAP3 SWAP2 SWAP1 PUSH2 0x254B JUMP JUMPDEST PUSH1 0x40 MLOAD DUP1 SWAP2 SUB SWAP1 RETURN JUMPDEST CALLVALUE DUP1 ISZERO PUSH2 0x4FE JUMPI PUSH0 PUSH0 REVERT JUMPDEST POP PUSH2 0x519 PUSH1 0x4 DUP1 CALLDATASIZE SUB DUP2 ADD SWAP1 PUSH2 0x514 SWAP2 SWAP1 PUSH2 0x2313 JUMP JUMPDEST PUSH2 0x1EB8 JUMP JUMPDEST STOP JUMPDEST PUSH0 PUSH0 PUSH0 PUSH1 0x9 PUSH0 DUP6 DUP2 MSTORE PUSH1 0x20 ADD SWAP1 DUP2 MSTORE PUSH1 0x20 ADD PUSH0 KECCAK256 SWAP1 POP DUP1 PUSH1 0x3 ADD SLOAD SWAP3 POP PUSH0 PUSH20 0xFFFFFFFFFFFFFFFFFFFFFFFFFFFFFFFFFFFFFFFF AND DUP2 PUSH0 ADD PUSH0 SWAP1 SLOAD SWAP1 PUSH2 0x100 EXP SWAP1 DIV PUSH20 0xFFFFFFFFFFFFFFFFFFFFFFFFFFFFFFFFFFFFFFFF AND PUSH20 0xFFFFFFFFFFFFFFFFFFFFFFFFFFFFFFFFFFFFFFFF AND SUB PUSH2 0x5C8 JUMPI PUSH1 0x40 MLOAD PUSH32 0x8C379A000000000000000000000000000000000000000000000000000000000 DUP2 MSTORE PUSH1 0x4 ADD PUSH2 0x5BF SWAP1 PUSH2 0x260C JUMP JUMPDEST PUSH1 0x40 MLOAD DUP1 SWAP2 SUB SWAP1 REVERT JUMPDEST DUP1 PUSH1 0x3 ADD SLOAD DUP2 PUSH1 0x5 ADD SLOAD LT PUSH2 0x5DF JUMPI PUSH0 SWAP2 POP PUSH2 0x5F6 JUMP JUMPDEST DUP1 PUSH1 0x5 ADD SLOAD DUP2 PUSH1 0x3 ADD SLOAD PUSH2 0x5F3 SWAP2 SWAP1 PUSH2 0x2657 JUMP JUMPDEST SWAP2 POP JUMPDEST POP SWAP2 POP SWAP2 JUMP JUMPDEST PUSH0 PUSH1 0x9 PUSH0 DUP5 DUP2 MSTORE PUSH1 0x20 ADD SWAP1 DUP2 MSTORE PUSH1 0x20 ADD PUSH0 KECCAK256 SWAP1 POP PUSH0 DUP2 PUSH1 0x4 ADD SLOAD GT PUSH2 0x656 JUMPI PUSH1 0x40 MLOAD PUSH32 0x8C379A000000000000000000000000000000000000000000000000000000000 DUP2 MSTORE PUSH1 0x4 ADD PUSH2 0x64D SWAP1 PUSH2 0x26FA JUMP JUMPDEST PUSH1 0x40 MLOAD DUP1 SWAP2 SUB SWAP1 REVERT JUMPDEST CALLER PUSH20 0xFFFFFFFFFFFFFFFFFFFFFFFFFFFFFFFFFFFFFFFF AND DUP2 PUSH0 ADD PUSH0 SWAP1 SLOAD SWAP1 PUSH2 0x100 EXP SWAP1 DIV PUSH20 0xFFFFFFFFFFFFFFFFFFFFFFFFFFFFFFFFFFFFFFFF AND PUSH20 0xFFFFFFFFFFFFFFFFFFFFFFFFFFFFFFFFFFFFFFFF AND EQ PUSH2 0x6E6 JUMPI PUSH1 0x40 MLOAD PUSH32 0x8C379A000000000000000000000000000000000000000000000000000000000 DUP2 MSTORE PUSH1 0x4 ADD PUSH2 0x6DD SWAP1 PUSH2 0x27AE JUMP JUMPDEST PUSH1 0x40 MLOAD DUP1 SWAP2 SUB SWAP1 REVERT JUMPDEST DUP2 DUP2 PUSH1 0x3 ADD DUP2 SWAP1 SSTORE POP POP POP POP JUMP JUMPDEST PUSH1 0x9 PUSH1 0x20 MSTORE DUP1 PUSH0 MSTORE PUSH1 0x40 PUSH0 KECCAK256 PUSH0 SWAP2 POP SWAP1 POP DUP1 PUSH0 ADD PUSH0 SWAP1 SLOAD SWAP1 PUSH2 0x100 EXP SWAP1 DIV PUSH20 0xFFFFFFFFFFFFFFFFFFFFFFFFFFFFFFFFFFFFFFFF AND SWAP1 DUP1 PUSH1 0x1 ADD DUP1 SLOAD PUSH2 0x738 SWAP1 PUSH2 0x27F9 JUMP JUMPDEST DUP1 PUSH1 0x1F ADD PUSH1 0x20 DUP1 SWAP2 DIV MUL PUSH1 0x20 ADD PUSH1 0x40 MLOAD SWAP1 DUP2 ADD PUSH1 0x40 MSTORE DUP1 SWAP3 SWAP2 SWAP1 DUP2 DUP2 MSTORE PUSH1 0x20 ADD DUP3 DUP1 SLOAD PUSH2 0x764 SWAP1 PUSH2 0x27F9 JUMP JUMPDEST DUP1 ISZERO PUSH2 0x7AF JUMPI DUP1 PUSH1 0x1F LT PUSH2 0x786 JUMPI PUSH2 0x100 DUP1 DUP4 SLOAD DIV MUL DUP4 MSTORE SWAP2 PUSH1 0x20 ADD SWAP2 PUSH2 0x7AF JUMP JUMPDEST DUP3 ADD SWAP2 SWAP1 PUSH0 MSTORE PUSH1 0x20 PUSH0 KECCAK256 SWAP1 JUMPDEST DUP2 SLOAD DUP2 MSTORE SWAP1 PUSH1 0x1 ADD SWAP1 PUSH1 0x20 ADD DUP1 DUP4 GT PUSH2 0x792 JUMPI DUP3 SWAP1 SUB PUSH1 0x1F AND DUP3 ADD SWAP2 JUMPDEST POP POP POP POP POP SWAP1 DUP1 PUSH1 0x2 ADD DUP1 SLOAD PUSH2 0x7C4 SWAP1 PUSH2 0x27F9 JUMP JUMPDEST DUP1 PUSH1 0x1F ADD PUSH1 0x20 DUP1 SWAP2 DIV MUL PUSH1 0x20 ADD PUSH1 0x40 MLOAD SWAP1 DUP2 ADD PUSH1 0x40 MSTORE DUP1 SWAP3 SWAP2 SWAP1 DUP2 DUP2 MSTORE PUSH1 0x20 ADD DUP3 DUP1 SLOAD PUSH2 0x7F0 SWAP1 PUSH2 0x27F9 JUMP JUMPDEST DUP1 ISZERO PUSH2 0x83B JUMPI DUP1 PUSH1 0x1F LT PUSH2 0x812 JUMPI PUSH2 0x100 DUP1 DUP4 SLOAD DIV MUL DUP4 MSTORE SWAP2 PUSH1 0x20 ADD SWAP2 PUSH2 0x83B JUMP JUMPDEST DUP3 ADD SWAP2 SWAP1 PUSH0 MSTORE PUSH1 0x20 PUSH0 KECCAK256 SWAP1 JUMPDEST DUP2 SLOAD DUP2 MSTORE SWAP1 PUSH1 0x1 ADD SWAP1 PUSH1 0x20 ADD DUP1 DUP4 GT PUSH2 0x81E JUMPI DUP3 SWAP1 SUB PUSH1 0x1F AND DUP3 ADD SWAP2 JUMPDEST POP POP POP POP POP SWAP1 DUP1 PUSH1 0x3 ADD SLOAD SWAP1 DUP1 PUSH1 0x4 ADD SLOAD SWAP1 DUP1 PUSH1 0x5 ADD SLOAD SWAP1 DUP1 PUSH1 0x6 ADD PUSH0 SWAP1 SLOAD SWAP1 PUSH2 0x100 EXP SWAP1 DIV PUSH1 0xFF AND SWAP1 DUP1 PUSH1 0x6 ADD PUSH1 0x1 SWAP1 SLOAD SWAP1 PUSH2 0x100 EXP SWAP1 DIV PUSH20 0xFFFFFFFFFFFFFFFFFFFFFFFFFFFFFFFFFFFFFFFF AND SWAP1 DUP1 PUSH1 0x7 ADD SLOAD SWAP1 DUP1 PUSH1 0x8 ADD PUSH0 SWAP1 SLOAD SWAP1 PUSH2 0x100 EXP SWAP1 DIV PUSH1 0xFF AND SWAP1 DUP1 PUSH1 0x8 ADD PUSH1 0x1 SWAP1 SLOAD SWAP1 PUSH2 0x100 EXP SWAP1 DIV PUSH1 0xFF AND SWAP1 POP DUP12 JUMP JUMPDEST PUSH0 PUSH0 PUSH1 0x9 PUSH0 DUP5 DUP2 MSTORE PUSH1 0x20 ADD SWAP1 DUP2 MSTORE PUSH1 0x20 ADD PUSH0 KECCAK256 SWAP1 POP DUP1 PUSH1 0x4 ADD SLOAD TIMESTAMP LT PUSH2 0x8E3 JUMPI PUSH0 SWAP2 POP POP PUSH2 0x8F7 JUMP JUMPDEST TIMESTAMP DUP2 PUSH1 0x4 ADD SLOAD PUSH2 0x8F3 SWAP2 SWAP1 PUSH2 0x2657 JUMP JUMPDEST SWAP2 POP POP JUMPDEST SWAP2 SWAP1 POP JUMP JUMPDEST PUSH0 PUSH1 0x9 PUSH0 DUP4 DUP2 MSTORE PUSH1 0x20 ADD SWAP1 DUP2 MSTORE PUSH1 0x20 ADD PUSH0 KECCAK256 SWAP1 POP DUP1 PUSH1 0x3 ADD SLOAD DUP2 PUSH1 0x5 ADD SLOAD LT PUSH2 0x95A JUMPI PUSH1 0x40 MLOAD PUSH32 0x8C379A000000000000000000000000000000000000000000000000000000000 DUP2 MSTORE PUSH1 0x4 ADD PUSH2 0x951 SWAP1 PUSH2 0x2899 JUMP JUMPDEST PUSH1 0x40 MLOAD DUP1 SWAP2 SUB SWAP1 REVERT JUMPDEST PUSH0 PUSH1 0xA PUSH0 DUP5 DUP2 MSTORE PUSH1 0x20 ADD SWAP1 DUP2 MSTORE PUSH1 0x20 ADD PUSH0 KECCAK256 PUSH0 CALLER PUSH20 0xFFFFFFFFFFFFFFFFFFFFFFFFFFFFFFFFFFFFFFFF AND PUSH20 0xFFFFFFFFFFFFFFFFFFFFFFFFFFFFFFFFFFFFFFFF AND DUP2 MSTORE PUSH1 0x20 ADD SWAP1 DUP2 MSTORE PUSH1 0x20 ADD PUSH0 KECCAK256 SLOAD SWAP1 POP PUSH0 DUP2 GT PUSH2 0x9EC JUMPI PUSH1 0x40 MLOAD PUSH32 0x8C379A000000000000000000000000000000000000000000000000000000000 DUP2 MSTORE PUSH1 0x4 ADD PUSH2 0x9E3 SWAP1 PUSH2 0x2901 JUMP JUMPDEST PUSH1 0x40 MLOAD DUP1 SWAP2 SUB SWAP1 REVERT JUMPDEST PUSH0 DUP3 PUSH1 0x6 ADD PUSH0 SWAP1 SLOAD SWAP1 PUSH2 0x100 EXP SWAP1 DIV PUSH1 0xFF AND SWAP1 POP DUP2 DUP4 PUSH1 0x5 ADD PUSH0 DUP3 DUP3 SLOAD PUSH2 0xA13 SWAP2 SWAP1 PUSH2 0x2657 JUMP JUMPDEST SWAP3 POP POP DUP2 SWAP1 SSTORE POP DUP2 PUSH1 0xA PUSH0 DUP7 DUP2 MSTORE PUSH1 0x20 ADD SWAP1 DUP2 MSTORE PUSH1 0x20 ADD PUSH0 KECCAK256 PUSH0 CALLER PUSH20 0xFFFFFFFFFFFFFFFFFFFFFFFFFFFFFFFFFFFFFFFF AND PUSH20 0xFFFFFFFFFFFFFFFFFFFFFFFFFFFFFFFFFFFFFFFF AND DUP2 MSTORE PUSH1 0x20 ADD SWAP1 DUP2 MSTORE PUSH1 0x20 ADD PUSH0 KECCAK256 PUSH0 DUP3 DUP3 SLOAD PUSH2 0xA75 SWAP2 SWAP1 PUSH2 0x2657 JUMP JUMPDEST SWAP3 POP POP DUP2 SWAP1 SSTORE POP DUP2 PUSH1 0x1 PUSH0 DUP3 DUP3 SLOAD PUSH2 0xA8D SWAP2 SWAP1 PUSH2 0x2657 JUMP JUMPDEST SWAP3 POP POP DUP2 SWAP1 SSTORE POP DUP1 DUP1 ISZERO PUSH2 0xAA8 JUMPI POP DUP3 PUSH1 0x3 ADD SLOAD DUP4 PUSH1 0x5 ADD SLOAD LT JUMPDEST ISZERO PUSH2 0xB07 JUMPI PUSH0 DUP4 PUSH1 0x6 ADD PUSH0 PUSH2 0x100 EXP DUP2 SLOAD DUP2 PUSH1 0xFF MUL NOT AND SWAP1 DUP4 ISZERO ISZERO MUL OR SWAP1 SSTORE POP PUSH0 DUP4 PUSH1 0x8 ADD PUSH1 0x1 PUSH2 0x100 EXP DUP2 SLOAD DUP2 PUSH1 0xFF MUL NOT AND SWAP1 DUP4 ISZERO ISZERO MUL OR SWAP1 SSTORE POP PUSH0 PUSH1 0x5 SLOAD GT ISZERO PUSH2 0xB06 JUMPI PUSH1 0x5 PUSH0 DUP2 SLOAD DUP1 SWAP3 SWAP2 SWAP1 PUSH2 0xB00 SWAP1 PUSH2 0x291F JUMP JUMPDEST SWAP2 SWAP1 POP SSTORE POP JUMPDEST JUMPDEST PUSH0 CALLER PUSH20 0xFFFFFFFFFFFFFFFFFFFFFFFFFFFFFFFFFFFFFFFF AND DUP4 PUSH1 0x40 MLOAD PUSH2 0xB2C SWAP1 PUSH2 0x2973 JUMP JUMPDEST PUSH0 PUSH1 0x40 MLOAD DUP1 DUP4 SUB DUP2 DUP6 DUP8 GAS CALL SWAP3 POP POP POP RETURNDATASIZE DUP1 PUSH0 DUP2 EQ PUSH2 0xB66 JUMPI PUSH1 0x40 MLOAD SWAP2 POP PUSH1 0x1F NOT PUSH1 0x3F RETURNDATASIZE ADD AND DUP3 ADD PUSH1 0x40 MSTORE RETURNDATASIZE DUP3 MSTORE RETURNDATASIZE PUSH0 PUSH1 0x20 DUP5 ADD RETURNDATACOPY PUSH2 0xB6B JUMP JUMPDEST PUSH1 0x60 SWAP2 POP JUMPDEST POP POP SWAP1 POP DUP1 PUSH2 0xBAF JUMPI PUSH1 0x40 MLOAD PUSH32 0x8C379A000000000000000000000000000000000000000000000000000000000 DUP2 MSTORE PUSH1 0x4 ADD PUSH2 0xBA6 SWAP1 PUSH2 0x29D1 JUMP JUMPDEST PUSH1 0x40 MLOAD DUP1 SWAP2 SUB SWAP1 REVERT JUMPDEST DUP5 PUSH32 0xB6E4E293B6C7C5CF68FBB52EDFACA6173710FCCCBCECAC03C32E62327FC000C6 CALLER DUP6 PUSH1 0x40 MLOAD PUSH2 0xBE1 SWAP3 SWAP2 SWAP1 PUSH2 0x29EF JUMP JUMPDEST PUSH1 0x40 MLOAD DUP1 SWAP2 SUB SWAP1 LOG2 POP POP POP POP POP JUMP JUMPDEST PUSH0 PUSH0 PUSH1 0x9 PUSH0 DUP5 DUP2 MSTORE PUSH1 0x20 ADD SWAP1 DUP2 MSTORE PUSH1 0x20 ADD PUSH0 KECCAK256 SWAP1 POP PUSH0 DUP2 PUSH1 0x3 ADD SLOAD PUSH1 0x64 DUP4 PUSH1 0x5 ADD SLOAD PUSH2 0xC1C SWAP2 SWAP1 PUSH2 0x2A16 JUMP JUMPDEST PUSH2 0xC26 SWAP2 SWAP1 PUSH2 0x2A84 JUMP JUMPDEST SWAP1 POP DUP1 SWAP3 POP POP POP SWAP2 SWAP1 POP JUMP JUMPDEST PUSH0 PUSH0 PUSH1 0x5 SLOAD PUSH1 0x6 SLOAD SWAP2 POP SWAP2 POP SWAP1 SWAP2 JUMP JUMPDEST PUSH0 PUSH1 0x1 SLOAD SWAP1 POP SWAP1 JUMP JUMPDEST PUSH1 0xA PUSH1 0x20 MSTORE DUP2 PUSH0 MSTORE PUSH1 0x40 PUSH0 KECCAK256 PUSH1 0x20 MSTORE DUP1 PUSH0 MSTORE PUSH1 0x40 PUSH0 KECCAK256 PUSH0 SWAP2 POP SWAP2 POP POP SLOAD DUP2 JUMP JUMPDEST PUSH0 PUSH1 0x9 PUSH0 DUP5 DUP2 MSTORE PUSH1 0x20 ADD SWAP1 DUP2 MSTORE PUSH1 0x20 ADD PUSH0 KECCAK256 SWAP1 POP CALLER PUSH20 0xFFFFFFFFFFFFFFFFFFFFFFFFFFFFFFFFFFFFFFFF AND DUP2 PUSH0 ADD PUSH0 SWAP1 SLOAD SWAP1 PUSH2 0x100 EXP SWAP1 DIV PUSH20 0xFFFFFFFFFFFFFFFFFFFFFFFFFFFFFFFFFFFFFFFF AND PUSH20 0xFFFFFFFFFFFFFFFFFFFFFFFFFFFFFFFFFFFFFFFF AND EQ PUSH2 0xD0F JUMPI PUSH1 0x40 MLOAD PUSH32 0x8C379A000000000000000000000000000000000000000000000000000000000 DUP2 MSTORE PUSH1 0x4 ADD PUSH2 0xD06 SWAP1 PUSH2 0x2B24 JUMP JUMPDEST PUSH1 0x40 MLOAD DUP1 SWAP2 SUB SWAP1 REVERT JUMPDEST DUP2 DUP2 PUSH1 0x4 ADD PUSH0 DUP3 DUP3 SLOAD PUSH2 0xD22 SWAP2 SWAP1 PUSH2 0x2B42 JUMP JUMPDEST SWAP3 POP POP DUP2 SWAP1 SSTORE POP POP POP POP JUMP JUMPDEST PUSH2 0xD36 PUSH2 0x1FE2 JUMP JUMPDEST PUSH0 PUSH1 0x9 PUSH0 DUP4 DUP2 MSTORE PUSH1 0x20 ADD SWAP1 DUP2 MSTORE PUSH1 0x20 ADD PUSH0 KECCAK256 SWAP1 POP DUP1 PUSH1 0x4 ADD SLOAD TIMESTAMP GT ISZERO PUSH2 0xD91 JUMPI PUSH1 0x40 MLOAD PUSH32 0x8C379A000000000000000000000000000000000000000000000000000000000 DUP2 MSTORE PUSH1 0x4 ADD PUSH2 0xD88 SWAP1 PUSH2 0x2BBF JUMP JUMPDEST PUSH1 0x40 MLOAD DUP1 SWAP2 SUB SWAP1 REVERT JUMPDEST DUP1 PUSH1 0x6 ADD PUSH0 SWAP1 SLOAD SWAP1 PUSH2 0x100 EXP SWAP1 DIV PUSH1 0xFF AND ISZERO PUSH2 0xDE2 JUMPI PUSH1 0x40 MLOAD PUSH32 0x8C379A000000000000000000000000000000000000000000000000000000000 DUP2 MSTORE PUSH1 0x4 ADD PUSH2 0xDD9 SWAP1 PUSH2 0x2C4D JUMP JUMPDEST PUSH1 0x40 MLOAD DUP1 SWAP2 SUB SWAP1 REVERT JUMPDEST PUSH0 CALLVALUE GT PUSH2 0xE24 JUMPI PUSH1 0x40 MLOAD PUSH32 0x8C379A000000000000000000000000000000000000000000000000000000000 DUP2 MSTORE PUSH1 0x4 ADD PUSH2 0xE1B SWAP1 PUSH2 0x2CDB JUMP JUMPDEST PUSH1 0x40 MLOAD DUP1 SWAP2 SUB SWAP1 REVERT JUMPDEST DUP1 PUSH1 0x3 ADD SLOAD CALLVALUE GT ISZERO PUSH2 0xE6B JUMPI PUSH1 0x40 MLOAD PUSH32 0x8C379A000000000000000000000000000000000000000000000000000000000 DUP2 MSTORE PUSH1 0x4 ADD PUSH2 0xE62 SWAP1 PUSH2 0x2D69 JUMP JUMPDEST PUSH1 0x40 MLOAD DUP1 SWAP2 SUB SWAP1 REVERT JUMPDEST PUSH0 DUP2 PUSH1 0x5 ADD SLOAD DUP3 PUSH1 0x3 ADD SLOAD PUSH2 0xE80 SWAP2 SWAP1 PUSH2 0x2657 JUMP JUMPDEST SWAP1 POP PUSH0 PUSH0 DUP3 CALLVALUE GT ISZERO PUSH2 0xEA2 JUMPI DUP3 SWAP2 POP DUP3 CALLVALUE PUSH2 0xE9B SWAP2 SWAP1 PUSH2 0x2657 JUMP JUMPDEST SWAP1 POP PUSH2 0xEA9 JUMP JUMPDEST CALLVALUE SWAP2 POP PUSH0 SWAP1 POP JUMPDEST PUSH0 PUSH1 0x64 PUSH1 0x5 DUP5 PUSH2 0xEB9 SWAP2 SWAP1 PUSH2 0x2A16 JUMP JUMPDEST PUSH2 0xEC3 SWAP2 SWAP1 PUSH2 0x2A84 JUMP JUMPDEST SWAP1 POP PUSH0 DUP2 DUP5 PUSH2 0xED2 SWAP2 SWAP1 PUSH2 0x2657 JUMP JUMPDEST SWAP1 POP DUP2 PUSH1 0x4 PUSH0 DUP3 DUP3 SLOAD PUSH2 0xEE5 SWAP2 SWAP1 PUSH2 0x2B42 JUMP JUMPDEST SWAP3 POP POP DUP2 SWAP1 SSTORE POP DUP1 DUP7 PUSH1 0x5 ADD PUSH0 DUP3 DUP3 SLOAD PUSH2 0xEFF SWAP2 SWAP1 PUSH2 0x2B42 JUMP JUMPDEST SWAP3 POP POP DUP2 SWAP1 SSTORE POP DUP1 PUSH1 0xA PUSH0 DUP10 DUP2 MSTORE PUSH1 0x20 ADD SWAP1 DUP2 MSTORE PUSH1 0x20 ADD PUSH0 KECCAK256 PUSH0 CALLER PUSH20 0xFFFFFFFFFFFFFFFFFFFFFFFFFFFFFFFFFFFFFFFF AND PUSH20 0xFFFFFFFFFFFFFFFFFFFFFFFFFFFFFFFFFFFFFFFF AND DUP2 MSTORE PUSH1 0x20 ADD SWAP1 DUP2 MSTORE PUSH1 0x20 ADD PUSH0 KECCAK256 DUP2 SWAP1 SSTORE POP DUP1 PUSH1 0x1 PUSH0 DUP3 DUP3 SLOAD PUSH2 0xF68 SWAP2 SWAP1 PUSH2 0x2B42 JUMP JUMPDEST SWAP3 POP POP DUP2 SWAP1 SSTORE POP PUSH0 DUP4 GT ISZERO PUSH2 0x1021 JUMPI PUSH0 CALLER PUSH20 0xFFFFFFFFFFFFFFFFFFFFFFFFFFFFFFFFFFFFFFFF AND DUP5 PUSH1 0x40 MLOAD PUSH2 0xF9C SWAP1 PUSH2 0x2973 JUMP JUMPDEST PUSH0 PUSH1 0x40 MLOAD DUP1 DUP4 SUB DUP2 DUP6 DUP8 GAS CALL SWAP3 POP POP POP RETURNDATASIZE DUP1 PUSH0 DUP2 EQ PUSH2 0xFD6 JUMPI PUSH1 0x40 MLOAD SWAP2 POP PUSH1 0x1F NOT PUSH1 0x3F RETURNDATASIZE ADD AND DUP3 ADD PUSH1 0x40 MSTORE RETURNDATASIZE DUP3 MSTORE RETURNDATASIZE PUSH0 PUSH1 0x20 DUP5 ADD RETURNDATACOPY PUSH2 0xFDB JUMP JUMPDEST PUSH1 0x60 SWAP2 POP JUMPDEST POP POP SWAP1 POP DUP1 PUSH2 0x101F JUMPI PUSH1 0x40 MLOAD PUSH32 0x8C379A000000000000000000000000000000000000000000000000000000000 DUP2 MSTORE PUSH1 0x4 ADD PUSH2 0x1016 SWAP1 PUSH2 0x2DD1 JUMP JUMPDEST PUSH1 0x40 MLOAD DUP1 SWAP2 SUB SWAP1 REVERT JUMPDEST POP JUMPDEST PUSH0 PUSH1 0xA PUSH0 DUP10 DUP2 MSTORE PUSH1 0x20 ADD SWAP1 DUP2 MSTORE PUSH1 0x20 ADD PUSH0 KECCAK256 PUSH0 CALLER PUSH20 0xFFFFFFFFFFFFFFFFFFFFFFFFFFFFFFFFFFFFFFFF AND PUSH20 0xFFFFFFFFFFFFFFFFFFFFFFFFFFFFFFFFFFFFFFFF AND DUP2 MSTORE PUSH1 0x20 ADD SWAP1 DUP2 MSTORE PUSH1 0x20 ADD PUSH0 KECCAK256 SLOAD SWAP1 POP DUP7 PUSH1 0x7 ADD SLOAD DUP2 GT ISZERO PUSH2 0x10CA JUMPI DUP1 DUP8 PUSH1 0x7 ADD DUP2 SWAP1 SSTORE POP CALLER DUP8 PUSH1 0x6 ADD PUSH1 0x1 PUSH2 0x100 EXP DUP2 SLOAD DUP2 PUSH20 0xFFFFFFFFFFFFFFFFFFFFFFFFFFFFFFFFFFFFFFFF MUL NOT AND SWAP1 DUP4 PUSH20 0xFFFFFFFFFFFFFFFFFFFFFFFFFFFFFFFFFFFFFFFF AND MUL OR SWAP1 SSTORE POP JUMPDEST DUP8 PUSH32 0x7DD983E9D08B449D571F3583275E98423857F3FFBE9EF56F927EB02B1C8AB599 CALLER DUP8 DUP8 PUSH1 0x40 MLOAD PUSH2 0x10FE SWAP4 SWAP3 SWAP2 SWAP1 PUSH2 0x2DEF JUMP JUMPDEST PUSH1 0x40 MLOAD DUP1 SWAP2 SUB SWAP1 LOG2 DUP7 PUSH1 0x3 ADD SLOAD DUP8 PUSH1 0x5 ADD SLOAD LT ISZERO DUP1 ISZERO PUSH2 0x112D JUMPI POP DUP7 PUSH1 0x8 ADD PUSH1 0x1 SWAP1 SLOAD SWAP1 PUSH2 0x100 EXP SWAP1 DIV PUSH1 0xFF AND ISZERO JUMPDEST ISZERO PUSH2 0x1183 JUMPI PUSH1 0x1 DUP8 PUSH1 0x6 ADD PUSH0 PUSH2 0x100 EXP DUP2 SLOAD DUP2 PUSH1 0xFF MUL NOT AND SWAP1 DUP4 ISZERO ISZERO MUL OR SWAP1 SSTORE POP PUSH1 0x1 DUP8 PUSH1 0x8 ADD PUSH1 0x1 PUSH2 0x100 EXP DUP2 SLOAD DUP2 PUSH1 0xFF MUL NOT AND SWAP1 DUP4 ISZERO ISZERO MUL OR SWAP1 SSTORE POP PUSH1 0x5 PUSH0 DUP2 SLOAD DUP1 SWAP3 SWAP2 SWAP1 PUSH2 0x117D SWAP1 PUSH2 0x2E24 JUMP JUMPDEST SWAP2 SWAP1 POP SSTORE POP JUMPDEST POP POP POP POP POP POP POP PUSH2 0x1192 PUSH2 0x2026 JUMP JUMPDEST POP JUMP JUMPDEST PUSH0 PUSH1 0x9 PUSH0 DUP4 DUP2 MSTORE PUSH1 0x20 ADD SWAP1 DUP2 MSTORE PUSH1 0x20 ADD PUSH0 KECCAK256 SWAP1 POP PUSH0 DUP2 PUSH1 0x5 ADD SLOAD SWAP1 POP DUP2 PUSH1 0x6 ADD PUSH0 SWAP1 SLOAD SWAP1 PUSH2 0x100 EXP SWAP1 DIV PUSH1 0xFF AND PUSH2 0x1201 JUMPI PUSH1 0x40 MLOAD PUSH32 0x8C379A000000000000000000000000000000000000000000000000000000000 DUP2 MSTORE PUSH1 0x4 ADD PUSH2 0x11F8 SWAP1 PUSH2 0x2EDB JUMP JUMPDEST PUSH1 0x40 MLOAD DUP1 SWAP2 SUB SWAP1 REVERT JUMPDEST CALLER PUSH20 0xFFFFFFFFFFFFFFFFFFFFFFFFFFFFFFFFFFFFFFFF AND DUP3 PUSH0 ADD PUSH0 SWAP1 SLOAD SWAP1 PUSH2 0x100 EXP SWAP1 DIV PUSH20 0xFFFFFFFFFFFFFFFFFFFFFFFFFFFFFFFFFFFFFFFF AND PUSH20 0xFFFFFFFFFFFFFFFFFFFFFFFFFFFFFFFFFFFFFFFF AND EQ PUSH2 0x1291 JUMPI PUSH1 0x40 MLOAD PUSH32 0x8C379A000000000000000000000000000000000000000000000000000000000 DUP2 MSTORE PUSH1 0x4 ADD PUSH2 0x1288 SWAP1 PUSH2 0x2F43 JUMP JUMPDEST PUSH1 0x40 MLOAD DUP1 SWAP2 SUB SWAP1 REVERT JUMPDEST TIMESTAMP DUP3 PUSH1 0x4 ADD SLOAD GT ISZERO PUSH2 0x12D8 JUMPI PUSH1 0x40 MLOAD PUSH32 0x8C379A000000000000000000000000000000000000000000000000000000000 DUP2 MSTORE PUSH1 0x4 ADD PUSH2 0x12CF SWAP1 PUSH2 0x2FD1 JUMP JUMPDEST PUSH1 0x40 MLOAD DUP1 SWAP2 SUB SWAP1 REVERT JUMPDEST CALLER PUSH20 0xFFFFFFFFFFFFFFFFFFFFFFFFFFFFFFFFFFFFFFFF AND PUSH2 0x8FC DUP3 SWAP1 DUP2 ISZERO MUL SWAP1 PUSH1 0x40 MLOAD PUSH0 PUSH1 0x40 MLOAD DUP1 DUP4 SUB DUP2 DUP6 DUP9 DUP9 CALL SWAP4 POP POP POP POP ISZERO DUP1 ISZERO PUSH2 0x131B JUMPI RETURNDATASIZE PUSH0 PUSH0 RETURNDATACOPY RETURNDATASIZE PUSH0 REVERT JUMPDEST POP DUP3 PUSH32 0xCAE030E1A3C6B0011E7009BD65734E2E1E330528F6983497631FABD47FA7A281 CALLER CALLVALUE PUSH1 0x40 MLOAD PUSH2 0x134E SWAP3 SWAP2 SWAP1 PUSH2 0x29EF JUMP JUMPDEST PUSH1 0x40 MLOAD DUP1 SWAP2 SUB SWAP1 LOG2 POP POP POP JUMP JUMPDEST CALLER PUSH20 0xFFFFFFFFFFFFFFFFFFFFFFFFFFFFFFFFFFFFFFFF AND PUSH1 0x3 PUSH0 SWAP1 SLOAD SWAP1 PUSH2 0x100 EXP SWAP1 DIV PUSH20 0xFFFFFFFFFFFFFFFFFFFFFFFFFFFFFFFFFFFFFFFF AND PUSH20 0xFFFFFFFFFFFFFFFFFFFFFFFFFFFFFFFFFFFFFFFF AND EQ PUSH2 0x13EA JUMPI PUSH1 0x40 MLOAD PUSH32 0x8C379A000000000000000000000000000000000000000000000000000000000 DUP2 MSTORE PUSH1 0x4 ADD PUSH2 0x13E1 SWAP1 PUSH2 0x3039 JUMP JUMPDEST PUSH1 0x40 MLOAD DUP1 SWAP2 SUB SWAP1 REVERT JUMPDEST PUSH0 PUSH1 0x7 PUSH0 DUP4 PUSH20 0xFFFFFFFFFFFFFFFFFFFFFFFFFFFFFFFFFFFFFFFF AND PUSH20 0xFFFFFFFFFFFFFFFFFFFFFFFFFFFFFFFFFFFFFFFF AND DUP2 MSTORE PUSH1 0x20 ADD SWAP1 DUP2 MSTORE PUSH1 0x20 ADD PUSH0 KECCAK256 PUSH0 PUSH2 0x100 EXP DUP2 SLOAD DUP2 PUSH1 0xFF MUL NOT AND SWAP1 DUP4 ISZERO ISZERO MUL OR SWAP1 SSTORE POP DUP1 PUSH20 0xFFFFFFFFFFFFFFFFFFFFFFFFFFFFFFFFFFFFFFFF AND PUSH32 0x925D0E195CC39B7ADE3FD58FDF494022E37BFD6242C2BE09C0B2863977C1879 PUSH1 0x40 MLOAD PUSH1 0x40 MLOAD DUP1 SWAP2 SUB SWAP1 LOG2 POP JUMP JUMPDEST CALLER PUSH20 0xFFFFFFFFFFFFFFFFFFFFFFFFFFFFFFFFFFFFFFFF AND PUSH1 0x3 PUSH0 SWAP1 SLOAD SWAP1 PUSH2 0x100 EXP SWAP1 DIV PUSH20 0xFFFFFFFFFFFFFFFFFFFFFFFFFFFFFFFFFFFFFFFF AND PUSH20 0xFFFFFFFFFFFFFFFFFFFFFFFFFFFFFFFFFFFFFFFF AND EQ PUSH2 0x1513 JUMPI PUSH1 0x40 MLOAD PUSH32 0x8C379A000000000000000000000000000000000000000000000000000000000 DUP2 MSTORE PUSH1 0x4 ADD PUSH2 0x150A SWAP1 PUSH2 0x3039 JUMP JUMPDEST PUSH1 0x40 MLOAD DUP1 SWAP2 SUB SWAP1 REVERT JUMPDEST PUSH0 PUSH1 0x4 SLOAD GT PUSH2 0x1557 JUMPI PUSH1 0x40 MLOAD PUSH32 0x8C379A000000000000000000000000000000000000000000000000000000000 DUP2 MSTORE PUSH1 0x4 ADD PUSH2 0x154E SWAP1 PUSH2 0x30A1 JUMP JUMPDEST PUSH1 0x40 MLOAD DUP1 SWAP2 SUB SWAP1 REVERT JUMPDEST PUSH0 PUSH1 0x4 SLOAD SWAP1 POP PUSH0 PUSH1 0x4 DUP2 SWAP1 SSTORE POP PUSH0 CALLER PUSH20 0xFFFFFFFFFFFFFFFFFFFFFFFFFFFFFFFFFFFFFFFF AND DUP3 PUSH1 0x40 MLOAD PUSH2 0x1589 SWAP1 PUSH2 0x2973 JUMP JUMPDEST PUSH0 PUSH1 0x40 MLOAD DUP1 DUP4 SUB DUP2 DUP6 DUP8 GAS CALL SWAP3 POP POP POP RETURNDATASIZE DUP1 PUSH0 DUP2 EQ PUSH2 0x15C3 JUMPI PUSH1 0x40 MLOAD SWAP2 POP PUSH1 0x1F NOT PUSH1 0x3F RETURNDATASIZE ADD AND DUP3 ADD PUSH1 0x40 MSTORE RETURNDATASIZE DUP3 MSTORE RETURNDATASIZE PUSH0 PUSH1 0x20 DUP5 ADD RETURNDATACOPY PUSH2 0x15C8 JUMP JUMPDEST PUSH1 0x60 SWAP2 POP JUMPDEST POP POP SWAP1 POP DUP1 PUSH2 0x160C JUMPI PUSH1 0x40 MLOAD PUSH32 0x8C379A000000000000000000000000000000000000000000000000000000000 DUP2 MSTORE PUSH1 0x4 ADD PUSH2 0x1603 SWAP1 PUSH2 0x3109 JUMP JUMPDEST PUSH1 0x40 MLOAD DUP1 SWAP2 SUB SWAP1 REVERT JUMPDEST POP POP JUMP JUMPDEST PUSH1 0x7 PUSH1 0x20 MSTORE DUP1 PUSH0 MSTORE PUSH1 0x40 PUSH0 KECCAK256 PUSH0 SWAP2 POP SLOAD SWAP1 PUSH2 0x100 EXP SWAP1 DIV PUSH1 0xFF AND DUP2 JUMP JUMPDEST PUSH1 0x2 SLOAD DUP2 JUMP JUMPDEST PUSH1 0x4 SLOAD DUP2 JUMP JUMPDEST PUSH0 PUSH1 0x9 PUSH0 DUP5 DUP2 MSTORE PUSH1 0x20 ADD SWAP1 DUP2 MSTORE PUSH1 0x20 ADD PUSH0 KECCAK256 SWAP1 POP DUP1 PUSH1 0x4 ADD SLOAD TIMESTAMP LT PUSH2 0x1693 JUMPI PUSH1 0x40 MLOAD PUSH32 0x8C379A000000000000000000000000000000000000000000000000000000000 DUP2 MSTORE PUSH1 0x4 ADD PUSH2 0x168A SWAP1 PUSH2 0x3171 JUMP JUMPDEST PUSH1 0x40 MLOAD DUP1 SWAP2 SUB SWAP1 REVERT JUMPDEST PUSH0 PUSH1 0xA PUSH0 DUP6 DUP2 MSTORE PUSH1 0x20 ADD SWAP1 DUP2 MSTORE PUSH1 0x20 ADD PUSH0 KECCAK256 PUSH0 CALLER PUSH20 0xFFFFFFFFFFFFFFFFFFFFFFFFFFFFFFFFFFFFFFFF AND PUSH20 0xFFFFFFFFFFFFFFFFFFFFFFFFFFFFFFFFFFFFFFFF AND DUP2 MSTORE PUSH1 0x20 ADD SWAP1 DUP2 MSTORE PUSH1 0x20 ADD PUSH0 KECCAK256 SLOAD SWAP1 POP PUSH0 DUP2 GT PUSH2 0x1725 JUMPI PUSH1 0x40 MLOAD PUSH32 0x8C379A000000000000000000000000000000000000000000000000000000000 DUP2 MSTORE PUSH1 0x4 ADD PUSH2 0x171C SWAP1 PUSH2 0x31D9 JUMP JUMPDEST PUSH1 0x40 MLOAD DUP1 SWAP2 SUB SWAP1 REVERT JUMPDEST DUP1 DUP4 GT ISZERO PUSH2 0x1768 JUMPI PUSH1 0x40 MLOAD PUSH32 0x8C379A000000000000000000000000000000000000000000000000000000000 DUP2 MSTORE PUSH1 0x4 ADD PUSH2 0x175F SWAP1 PUSH2 0x3267 JUMP JUMPDEST PUSH1 0x40 MLOAD DUP1 SWAP2 SUB SWAP1 REVERT JUMPDEST PUSH0 DUP3 PUSH1 0x6 ADD PUSH0 SWAP1 SLOAD SWAP1 PUSH2 0x100 EXP SWAP1 DIV PUSH1 0xFF AND SWAP1 POP DUP4 DUP4 PUSH1 0x5 ADD PUSH0 DUP3 DUP3 SLOAD PUSH2 0x178F SWAP2 SWAP1 PUSH2 0x2657 JUMP JUMPDEST SWAP3 POP POP DUP2 SWAP1 SSTORE POP DUP4 PUSH1 0xA PUSH0 DUP8 DUP2 MSTORE PUSH1 0x20 ADD SWAP1 DUP2 MSTORE PUSH1 0x20 ADD PUSH0 KECCAK256 PUSH0 CALLER PUSH20 0xFFFFFFFFFFFFFFFFFFFFFFFFFFFFFFFFFFFFFFFF AND PUSH20 0xFFFFFFFFFFFFFFFFFFFFFFFFFFFFFFFFFFFFFFFF AND DUP2 MSTORE PUSH1 0x20 ADD SWAP1 DUP2 MSTORE PUSH1 0x20 ADD PUSH0 KECCAK256 PUSH0 DUP3 DUP3 SLOAD PUSH2 0x17F1 SWAP2 SWAP1 PUSH2 0x2657 JUMP JUMPDEST SWAP3 POP POP DUP2 SWAP1 SSTORE POP DUP4 PUSH1 0x1 PUSH0 DUP3 DUP3 SLOAD PUSH2 0x1809 SWAP2 SWAP1 PUSH2 0x2657 JUMP JUMPDEST SWAP3 POP POP DUP2 SWAP1 SSTORE POP DUP1 DUP1 ISZERO PUSH2 0x1824 JUMPI POP DUP3 PUSH1 0x3 ADD SLOAD DUP4 PUSH1 0x5 ADD SLOAD LT JUMPDEST ISZERO PUSH2 0x1883 JUMPI PUSH0 DUP4 PUSH1 0x6 ADD PUSH0 PUSH2 0x100 EXP DUP2 SLOAD DUP2 PUSH1 0xFF MUL NOT AND SWAP1 DUP4 ISZERO ISZERO MUL OR SWAP1 SSTORE POP PUSH0 DUP4 PUSH1 0x8 ADD PUSH1 0x1 PUSH2 0x100 EXP DUP2 SLOAD DUP2 PUSH1 0xFF MUL NOT AND SWAP1 DUP4 ISZERO ISZERO MUL OR SWAP1 SSTORE POP PUSH0 PUSH1 0x5 SLOAD GT ISZERO PUSH2 0x1882 JUMPI PUSH1 0x5 PUSH0 DUP2 SLOAD DUP1 SWAP3 SWAP2 SWAP1 PUSH2 0x187C SWAP1 PUSH2 0x291F JUMP JUMPDEST SWAP2 SWAP1 POP SSTORE POP JUMPDEST JUMPDEST PUSH0 CALLER PUSH20 0xFFFFFFFFFFFFFFFFFFFFFFFFFFFFFFFFFFFFFFFF AND DUP6 PUSH1 0x40 MLOAD PUSH2 0x18A8 SWAP1 PUSH2 0x2973 JUMP JUMPDEST PUSH0 PUSH1 0x40 MLOAD DUP1 DUP4 SUB DUP2 DUP6 DUP8 GAS CALL SWAP3 POP POP POP RETURNDATASIZE DUP1 PUSH0 DUP2 EQ PUSH2 0x18E2 JUMPI PUSH1 0x40 MLOAD SWAP2 POP PUSH1 0x1F NOT PUSH1 0x3F RETURNDATASIZE ADD AND DUP3 ADD PUSH1 0x40 MSTORE RETURNDATASIZE DUP3 MSTORE RETURNDATASIZE PUSH0 PUSH1 0x20 DUP5 ADD RETURNDATACOPY PUSH2 0x18E7 JUMP JUMPDEST PUSH1 0x60 SWAP2 POP JUMPDEST POP POP SWAP1 POP DUP1 PUSH2 0x192B JUMPI PUSH1 0x40 MLOAD PUSH32 0x8C379A000000000000000000000000000000000000000000000000000000000 DUP2 MSTORE PUSH1 0x4 ADD PUSH2 0x1922 SWAP1 PUSH2 0x32CF JUMP JUMPDEST PUSH1 0x40 MLOAD DUP1 SWAP2 SUB SWAP1 REVERT JUMPDEST DUP6 CALLER PUSH20 0xFFFFFFFFFFFFFFFFFFFFFFFFFFFFFFFFFFFFFFFF AND PUSH32 0xB37480540FFB97FF520A59B38EA1A83AEFBFD3D2A956D958A00214B8B6551F28 DUP8 PUSH1 0x40 MLOAD PUSH2 0x1972 SWAP2 SWAP1 PUSH2 0x2292 JUMP JUMPDEST PUSH1 0x40 MLOAD DUP1 SWAP2 SUB SWAP1 LOG3 POP POP POP POP POP POP JUMP JUMPDEST PUSH0 PUSH0 SWAP1 POP JUMPDEST PUSH1 0xC DUP1 SLOAD SWAP1 POP DUP2 LT ISZERO PUSH2 0x1AC0 JUMPI PUSH0 PUSH1 0xC DUP3 DUP2 SLOAD DUP2 LT PUSH2 0x19A9 JUMPI PUSH2 0x19A8 PUSH2 0x32ED JUMP JUMPDEST JUMPDEST SWAP1 PUSH0 MSTORE PUSH1 0x20 PUSH0 KECCAK256 ADD SLOAD SWAP1 POP PUSH0 PUSH1 0x9 PUSH0 DUP4 DUP2 MSTORE PUSH1 0x20 ADD SWAP1 DUP2 MSTORE PUSH1 0x20 ADD PUSH0 KECCAK256 SWAP1 POP DUP1 PUSH1 0x8 ADD PUSH1 0x1 SWAP1 SLOAD SWAP1 PUSH2 0x100 EXP SWAP1 DIV PUSH1 0xFF AND ISZERO DUP1 ISZERO PUSH2 0x19EB JUMPI POP DUP1 PUSH1 0x4 ADD SLOAD TIMESTAMP LT ISZERO JUMPDEST ISZERO PUSH2 0x1AB1 JUMPI PUSH1 0x1 DUP2 PUSH1 0x8 ADD PUSH1 0x1 PUSH2 0x100 EXP DUP2 SLOAD DUP2 PUSH1 0xFF MUL NOT AND SWAP1 DUP4 ISZERO ISZERO MUL OR SWAP1 SSTORE POP DUP1 PUSH1 0x3 ADD SLOAD DUP2 PUSH1 0x5 ADD SLOAD LT ISZERO DUP1 ISZERO PUSH2 0x1A29 JUMPI POP DUP1 PUSH1 0x4 ADD SLOAD TIMESTAMP LT ISZERO JUMPDEST ISZERO PUSH2 0x1A7C JUMPI DUP1 PUSH1 0x6 ADD PUSH0 SWAP1 SLOAD SWAP1 PUSH2 0x100 EXP SWAP1 DIV PUSH1 0xFF AND PUSH2 0x1A77 JUMPI PUSH1 0x1 DUP2 PUSH1 0x6 ADD PUSH0 PUSH2 0x100 EXP DUP2 SLOAD DUP2 PUSH1 0xFF MUL NOT AND SWAP1 DUP4 ISZERO ISZERO MUL OR SWAP1 SSTORE POP PUSH1 0x5 PUSH0 DUP2 SLOAD DUP1 SWAP3 SWAP2 SWAP1 PUSH2 0x1A71 SWAP1 PUSH2 0x2E24 JUMP JUMPDEST SWAP2 SWAP1 POP SSTORE POP JUMPDEST PUSH2 0x1AB0 JUMP JUMPDEST PUSH1 0x1 DUP2 PUSH1 0x8 ADD PUSH0 PUSH2 0x100 EXP DUP2 SLOAD DUP2 PUSH1 0xFF MUL NOT AND SWAP1 DUP4 ISZERO ISZERO MUL OR SWAP1 SSTORE POP PUSH1 0x6 PUSH0 DUP2 SLOAD DUP1 SWAP3 SWAP2 SWAP1 PUSH2 0x1AAA SWAP1 PUSH2 0x2E24 JUMP JUMPDEST SWAP2 SWAP1 POP SSTORE POP JUMPDEST JUMPDEST POP POP DUP1 DUP1 PUSH1 0x1 ADD SWAP2 POP POP PUSH2 0x1987 JUMP JUMPDEST POP JUMP JUMPDEST PUSH1 0xB PUSH0 DUP3 DUP2 MSTORE PUSH1 0x20 ADD SWAP1 DUP2 MSTORE PUSH1 0x20 ADD PUSH0 KECCAK256 PUSH0 SWAP1 SLOAD SWAP1 PUSH2 0x100 EXP SWAP1 DIV PUSH1 0xFF AND ISZERO PUSH2 0x1B21 JUMPI PUSH1 0x40 MLOAD PUSH32 0x8C379A000000000000000000000000000000000000000000000000000000000 DUP2 MSTORE PUSH1 0x4 ADD PUSH2 0x1B18 SWAP1 PUSH2 0x3364 JUMP JUMPDEST PUSH1 0x40 MLOAD DUP1 SWAP2 SUB SWAP1 REVERT JUMPDEST PUSH1 0x7 PUSH0 CALLER PUSH20 0xFFFFFFFFFFFFFFFFFFFFFFFFFFFFFFFFFFFFFFFF AND PUSH20 0xFFFFFFFFFFFFFFFFFFFFFFFFFFFFFFFFFFFFFFFF AND DUP2 MSTORE PUSH1 0x20 ADD SWAP1 DUP2 MSTORE PUSH1 0x20 ADD PUSH0 KECCAK256 PUSH0 SWAP1 SLOAD SWAP1 PUSH2 0x100 EXP SWAP1 DIV PUSH1 0xFF AND PUSH2 0x1BAA JUMPI PUSH1 0x40 MLOAD PUSH32 0x8C379A000000000000000000000000000000000000000000000000000000000 DUP2 MSTORE PUSH1 0x4 ADD PUSH2 0x1BA1 SWAP1 PUSH2 0x33F2 JUMP JUMPDEST PUSH1 0x40 MLOAD DUP1 SWAP2 SUB SWAP1 REVERT JUMPDEST PUSH1 0x1 PUSH1 0xB PUSH0 DUP4 DUP2 MSTORE PUSH1 0x20 ADD SWAP1 DUP2 MSTORE PUSH1 0x20 ADD PUSH0 KECCAK256 PUSH0 PUSH2 0x100 EXP DUP2 SLOAD DUP2 PUSH1 0xFF MUL NOT AND SWAP1 DUP4 ISZERO ISZERO MUL OR SWAP1 SSTORE POP PUSH1 0x40 MLOAD DUP1 PUSH2 0x160 ADD PUSH1 0x40 MSTORE DUP1 CALLER PUSH20 0xFFFFFFFFFFFFFFFFFFFFFFFFFFFFFFFFFFFFFFFF AND DUP2 MSTORE PUSH1 0x20 ADD DUP7 DUP2 MSTORE PUSH1 0x20 ADD DUP6 DUP2 MSTORE PUSH1 0x20 ADD DUP5 DUP2 MSTORE PUSH1 0x20 ADD DUP4 TIMESTAMP PUSH2 0x1C19 SWAP2 SWAP1 PUSH2 0x2B42 JUMP JUMPDEST DUP2 MSTORE PUSH1 0x20 ADD PUSH0 DUP2 MSTORE PUSH1 0x20 ADD PUSH0 ISZERO ISZERO DUP2 MSTORE PUSH1 0x20 ADD PUSH0 PUSH20 0xFFFFFFFFFFFFFFFFFFFFFFFFFFFFFFFFFFFFFFFF AND DUP2 MSTORE PUSH1 0x20 ADD PUSH0 DUP2 MSTORE PUSH1 0x20 ADD PUSH0 ISZERO ISZERO DUP2 MSTORE PUSH1 0x20 ADD PUSH0 ISZERO ISZERO DUP2 MSTORE POP PUSH1 0x9 PUSH0 DUP4 DUP2 MSTORE PUSH1 0x20 ADD SWAP1 DUP2 MSTORE PUSH1 0x20 ADD PUSH0 KECCAK256 PUSH0 DUP3 ADD MLOAD DUP2 PUSH0 ADD PUSH0 PUSH2 0x100 EXP DUP2 SLOAD DUP2 PUSH20 0xFFFFFFFFFFFFFFFFFFFFFFFFFFFFFFFFFFFFFFFF MUL NOT AND SWAP1 DUP4 PUSH20 0xFFFFFFFFFFFFFFFFFFFFFFFFFFFFFFFFFFFFFFFF AND MUL OR SWAP1 SSTORE POP PUSH1 0x20 DUP3 ADD MLOAD DUP2 PUSH1 0x1 ADD SWAP1 DUP2 PUSH2 0x1CC6 SWAP2 SWAP1 PUSH2 0x35B0 JUMP JUMPDEST POP PUSH1 0x40 DUP3 ADD MLOAD DUP2 PUSH1 0x2 ADD SWAP1 DUP2 PUSH2 0x1CDC SWAP2 SWAP1 PUSH2 0x35B0 JUMP JUMPDEST POP PUSH1 0x60 DUP3 ADD MLOAD DUP2 PUSH1 0x3 ADD SSTORE PUSH1 0x80 DUP3 ADD MLOAD DUP2 PUSH1 0x4 ADD SSTORE PUSH1 0xA0 DUP3 ADD MLOAD DUP2 PUSH1 0x5 ADD SSTORE PUSH1 0xC0 DUP3 ADD MLOAD DUP2 PUSH1 0x6 ADD PUSH0 PUSH2 0x100 EXP DUP2 SLOAD DUP2 PUSH1 0xFF MUL NOT AND SWAP1 DUP4 ISZERO ISZERO MUL OR SWAP1 SSTORE POP PUSH1 0xE0 DUP3 ADD MLOAD DUP2 PUSH1 0x6 ADD PUSH1 0x1 PUSH2 0x100 EXP DUP2 SLOAD DUP2 PUSH20 0xFFFFFFFFFFFFFFFFFFFFFFFFFFFFFFFFFFFFFFFF MUL NOT AND SWAP1 DUP4 PUSH20 0xFFFFFFFFFFFFFFFFFFFFFFFFFFFFFFFFFFFFFFFF AND MUL OR SWAP1 SSTORE POP PUSH2 0x100 DUP3 ADD MLOAD DUP2 PUSH1 0x7 ADD SSTORE PUSH2 0x120 DUP3 ADD MLOAD DUP2 PUSH1 0x8 ADD PUSH0 PUSH2 0x100 EXP DUP2 SLOAD DUP2 PUSH1 0xFF MUL NOT AND SWAP1 DUP4 ISZERO ISZERO MUL OR SWAP1 SSTORE POP PUSH2 0x140 DUP3 ADD MLOAD DUP2 PUSH1 0x8 ADD PUSH1 0x1 PUSH2 0x100 EXP DUP2 SLOAD DUP2 PUSH1 0xFF MUL NOT AND SWAP1 DUP4 ISZERO ISZERO MUL OR SWAP1 SSTORE POP SWAP1 POP POP PUSH1 0x2 PUSH0 DUP2 SLOAD DUP1 SWAP3 SWAP2 SWAP1 PUSH2 0x1DC2 SWAP1 PUSH2 0x2E24 JUMP JUMPDEST SWAP2 SWAP1 POP SSTORE POP PUSH1 0xC DUP2 SWAP1 DUP1 PUSH1 0x1 DUP2 SLOAD ADD DUP1 DUP3 SSTORE DUP1 SWAP2 POP POP PUSH1 0x1 SWAP1 SUB SWAP1 PUSH0 MSTORE PUSH1 0x20 PUSH0 KECCAK256 ADD PUSH0 SWAP1 SWAP2 SWAP1 SWAP2 SWAP1 SWAP2 POP SSTORE CALLER PUSH20 0xFFFFFFFFFFFFFFFFFFFFFFFFFFFFFFFFFFFFFFFF AND DUP2 PUSH32 0xAC9B83534845C9E785A6EA70F2D809DB1D72EF9A1D981753712D922F5CB55F39 DUP8 DUP8 DUP8 DUP8 TIMESTAMP PUSH2 0x1E35 SWAP2 SWAP1 PUSH2 0x2B42 JUMP JUMPDEST PUSH1 0x40 MLOAD PUSH2 0x1E45 SWAP5 SWAP4 SWAP3 SWAP2 SWAP1 PUSH2 0x367F JUMP JUMPDEST PUSH1 0x40 MLOAD DUP1 SWAP2 SUB SWAP1 LOG3 POP POP POP POP POP JUMP JUMPDEST PUSH1 0x3 PUSH0 SWAP1 SLOAD SWAP1 PUSH2 0x100 EXP SWAP1 DIV PUSH20 0xFFFFFFFFFFFFFFFFFFFFFFFFFFFFFFFFFFFFFFFF AND DUP2 JUMP JUMPDEST PUSH0 PUSH0 PUSH0 PUSH0 PUSH0 PUSH1 0x2 SLOAD PUSH1 0x5 SLOAD PUSH1 0x6 SLOAD PUSH1 0x6 SLOAD PUSH1 0x5 SLOAD PUSH1 0x2 SLOAD PUSH2 0x1E9A SWAP2 SWAP1 PUSH2 0x2657 JUMP JUMPDEST PUSH2 0x1EA4 SWAP2 SWAP1 PUSH2 0x2657 JUMP JUMPDEST PUSH1 0x1 SLOAD SWAP5 POP SWAP5 POP SWAP5 POP SWAP5 POP SWAP5 POP SWAP1 SWAP2 SWAP3 SWAP4 SWAP5 JUMP JUMPDEST CALLER PUSH20 0xFFFFFFFFFFFFFFFFFFFFFFFFFFFFFFFFFFFFFFFF AND PUSH1 0x3 PUSH0 SWAP1 SLOAD SWAP1 PUSH2 0x100 EXP SWAP1 DIV PUSH20 0xFFFFFFFFFFFFFFFFFFFFFFFFFFFFFFFFFFFFFFFF AND PUSH20 0xFFFFFFFFFFFFFFFFFFFFFFFFFFFFFFFFFFFFFFFF AND EQ PUSH2 0x1F47 JUMPI PUSH1 0x40 MLOAD PUSH32 0x8C379A000000000000000000000000000000000000000000000000000000000 DUP2 MSTORE PUSH1 0x4 ADD PUSH2 0x1F3E SWAP1 PUSH2 0x3039 JUMP JUMPDEST PUSH1 0x40 MLOAD DUP1 SWAP2 SUB SWAP1 REVERT JUMPDEST PUSH1 0x1 PUSH1 0x7 PUSH0 DUP4 PUSH20 0xFFFFFFFFFFFFFFFFFFFFFFFFFFFFFFFFFFFFFFFF AND PUSH20 0xFFFFFFFFFFFFFFFFFFFFFFFFFFFFFFFFFFFFFFFF AND DUP2 MSTORE PUSH1 0x20 ADD SWAP1 DUP2 MSTORE PUSH1 0x20 ADD PUSH0 KECCAK256 PUSH0 PUSH2 0x100 EXP DUP2 SLOAD DUP2 PUSH1 0xFF MUL NOT AND SWAP1 DUP4 ISZERO ISZERO MUL OR SWAP1 SSTORE POP DUP1 PUSH20 0xFFFFFFFFFFFFFFFFFFFFFFFFFFFFFFFFFFFFFFFF AND PUSH32 0x1F9F86DC4A3CE57EE42E33C59DEF65713163420D0AB979169EF129299FF2B85E PUSH1 0x40 MLOAD PUSH1 0x40 MLOAD DUP1 SWAP2 SUB SWAP1 LOG2 POP JUMP JUMPDEST PUSH1 0x2 PUSH0 SLOAD SUB PUSH2 0x201D JUMPI PUSH1 0x40 MLOAD PUSH32 0x3EE5AEB500000000000000000000000000000000000000000000000000000000 DUP2 MSTORE PUSH1 0x4 ADD PUSH1 0x40 MLOAD DUP1 SWAP2 SUB SWAP1 REVERT JUMPDEST PUSH1 0x2 PUSH0 DUP2 SWAP1 SSTORE POP JUMP JUMPDEST PUSH1 0x1 PUSH0 DUP2 SWAP1 SSTORE POP JUMP JUMPDEST PUSH0 PUSH1 0x40 MLOAD SWAP1 POP SWAP1 JUMP JUMPDEST PUSH0 PUSH0 REVERT JUMPDEST PUSH0 PUSH0 REVERT JUMPDEST PUSH0 DUP2 SWAP1 POP SWAP2 SWAP1 POP JUMP JUMPDEST PUSH2 0x2052 DUP2 PUSH2 0x2040 JUMP JUMPDEST DUP2 EQ PUSH2 0x205C JUMPI PUSH0 PUSH0 REVERT JUMPDEST POP JUMP JUMPDEST PUSH0 DUP2 CALLDATALOAD SWAP1 POP PUSH2 0x206D DUP2 PUSH2 0x2049 JUMP JUMPDEST SWAP3 SWAP2 POP POP JUMP JUMPDEST PUSH0 PUSH1 0x20 DUP3 DUP5 SUB SLT ISZERO PUSH2 0x2088 JUMPI PUSH2 0x2087 PUSH2 0x2038 JUMP JUMPDEST JUMPDEST PUSH0 PUSH2 0x2095 DUP5 DUP3 DUP6 ADD PUSH2 0x205F JUMP JUMPDEST SWAP2 POP POP SWAP3 SWAP2 POP POP JUMP JUMPDEST PUSH2 0x20A7 DUP2 PUSH2 0x2040 JUMP JUMPDEST DUP3 MSTORE POP POP JUMP JUMPDEST PUSH0 PUSH1 0x40 DUP3 ADD SWAP1 POP PUSH2 0x20C0 PUSH0 DUP4 ADD DUP6 PUSH2 0x209E JUMP JUMPDEST PUSH2 0x20CD PUSH1 0x20 DUP4 ADD DUP5 PUSH2 0x209E JUMP JUMPDEST SWAP4 SWAP3 POP POP POP JUMP JUMPDEST PUSH0 PUSH0 PUSH1 0x40 DUP4 DUP6 SUB SLT ISZERO PUSH2 0x20EA JUMPI PUSH2 0x20E9 PUSH2 0x2038 JUMP JUMPDEST JUMPDEST PUSH0 PUSH2 0x20F7 DUP6 DUP3 DUP7 ADD PUSH2 0x205F JUMP JUMPDEST SWAP3 POP POP PUSH1 0x20 PUSH2 0x2108 DUP6 DUP3 DUP7 ADD PUSH2 0x205F JUMP JUMPDEST SWAP2 POP POP SWAP3 POP SWAP3 SWAP1 POP JUMP JUMPDEST PUSH0 PUSH20 0xFFFFFFFFFFFFFFFFFFFFFFFFFFFFFFFFFFFFFFFF DUP3 AND SWAP1 POP SWAP2 SWAP1 POP JUMP JUMPDEST PUSH0 PUSH2 0x213B DUP3 PUSH2 0x2112 JUMP JUMPDEST SWAP1 POP SWAP2 SWAP1 POP JUMP JUMPDEST PUSH2 0x214B DUP2 PUSH2 0x2131 JUMP JUMPDEST DUP3 MSTORE POP POP JUMP JUMPDEST PUSH0 DUP2 MLOAD SWAP1 POP SWAP2 SWAP1 POP JUMP JUMPDEST PUSH0 DUP3 DUP3 MSTORE PUSH1 0x20 DUP3 ADD SWAP1 POP SWAP3 SWAP2 POP POP JUMP JUMPDEST DUP3 DUP2 DUP4 MCOPY PUSH0 DUP4 DUP4 ADD MSTORE POP POP POP JUMP JUMPDEST PUSH0 PUSH1 0x1F NOT PUSH1 0x1F DUP4 ADD AND SWAP1 POP SWAP2 SWAP1 POP JUMP JUMPDEST PUSH0 PUSH2 0x2193 DUP3 PUSH2 0x2151 JUMP JUMPDEST PUSH2 0x219D DUP2 DUP6 PUSH2 0x215B JUMP JUMPDEST SWAP4 POP PUSH2 0x21AD DUP2 DUP6 PUSH1 0x20 DUP7 ADD PUSH2 0x216B JUMP JUMPDEST PUSH2 0x21B6 DUP2 PUSH2 0x2179 JUMP JUMPDEST DUP5 ADD SWAP2 POP POP SWAP3 SWAP2 POP POP JUMP JUMPDEST PUSH0 DUP2 ISZERO ISZERO SWAP1 POP SWAP2 SWAP1 POP JUMP JUMPDEST PUSH2 0x21D5 DUP2 PUSH2 0x21C1 JUMP JUMPDEST DUP3 MSTORE POP POP JUMP JUMPDEST PUSH0 PUSH2 0x160 DUP3 ADD SWAP1 POP PUSH2 0x21EF PUSH0 DUP4 ADD DUP15 PUSH2 0x2142 JUMP JUMPDEST DUP2 DUP2 SUB PUSH1 0x20 DUP4 ADD MSTORE PUSH2 0x2201 DUP2 DUP14 PUSH2 0x2189 JUMP JUMPDEST SWAP1 POP DUP2 DUP2 SUB PUSH1 0x40 DUP4 ADD MSTORE PUSH2 0x2215 DUP2 DUP13 PUSH2 0x2189 JUMP JUMPDEST SWAP1 POP PUSH2 0x2224 PUSH1 0x60 DUP4 ADD DUP12 PUSH2 0x209E JUMP JUMPDEST PUSH2 0x2231 PUSH1 0x80 DUP4 ADD DUP11 PUSH2 0x209E JUMP JUMPDEST PUSH2 0x223E PUSH1 0xA0 DUP4 ADD DUP10 PUSH2 0x209E JUMP JUMPDEST PUSH2 0x224B PUSH1 0xC0 DUP4 ADD DUP9 PUSH2 0x21CC JUMP JUMPDEST PUSH2 0x2258 PUSH1 0xE0 DUP4 ADD DUP8 PUSH2 0x2142 JUMP JUMPDEST PUSH2 0x2266 PUSH2 0x100 DUP4 ADD DUP7 PUSH2 0x209E JUMP JUMPDEST PUSH2 0x2274 PUSH2 0x120 DUP4 ADD DUP6 PUSH2 0x21CC JUMP JUMPDEST PUSH2 0x2282 PUSH2 0x140 DUP4 ADD DUP5 PUSH2 0x21CC JUMP JUMPDEST SWAP13 SWAP12 POP POP POP POP POP POP POP POP POP POP POP POP JUMP JUMPDEST PUSH0 PUSH1 0x20 DUP3 ADD SWAP1 POP PUSH2 0x22A5 PUSH0 DUP4 ADD DUP5 PUSH2 0x209E JUMP JUMPDEST SWAP3 SWAP2 POP POP JUMP JUMPDEST PUSH2 0x22B4 DUP2 PUSH2 0x2131 JUMP JUMPDEST DUP2 EQ PUSH2 0x22BE JUMPI PUSH0 PUSH0 REVERT JUMPDEST POP JUMP JUMPDEST PUSH0 DUP2 CALLDATALOAD SWAP1 POP PUSH2 0x22CF DUP2 PUSH2 0x22AB JUMP JUMPDEST SWAP3 SWAP2 POP POP JUMP JUMPDEST PUSH0 PUSH0 PUSH1 0x40 DUP4 DUP6 SUB SLT ISZERO PUSH2 0x22EB JUMPI PUSH2 0x22EA PUSH2 0x2038 JUMP JUMPDEST JUMPDEST PUSH0 PUSH2 0x22F8 DUP6 DUP3 DUP7 ADD PUSH2 0x205F JUMP JUMPDEST SWAP3 POP POP PUSH1 0x20 PUSH2 0x2309 DUP6 DUP3 DUP7 ADD PUSH2 0x22C1 JUMP JUMPDEST SWAP2 POP POP SWAP3 POP SWAP3 SWAP1 POP JUMP JUMPDEST PUSH0 PUSH1 0x20 DUP3 DUP5 SUB SLT ISZERO PUSH2 0x2328 JUMPI PUSH2 0x2327 PUSH2 0x2038 JUMP JUMPDEST JUMPDEST PUSH0 PUSH2 0x2335 DUP5 DUP3 DUP6 ADD PUSH2 0x22C1 JUMP JUMPDEST SWAP2 POP POP SWAP3 SWAP2 POP POP JUMP JUMPDEST PUSH0 PUSH1 0x20 DUP3 ADD SWAP1 POP PUSH2 0x2351 PUSH0 DUP4 ADD DUP5 PUSH2 0x21CC JUMP JUMPDEST SWAP3 SWAP2 POP POP JUMP JUMPDEST PUSH0 PUSH0 REVERT JUMPDEST PUSH0 PUSH0 REVERT JUMPDEST PUSH32 0x4E487B7100000000000000000000000000000000000000000000000000000000 PUSH0 MSTORE PUSH1 0x41 PUSH1 0x4 MSTORE PUSH1 0x24 PUSH0 REVERT JUMPDEST PUSH2 0x2395 DUP3 PUSH2 0x2179 JUMP JUMPDEST DUP2 ADD DUP2 DUP2 LT PUSH8 0xFFFFFFFFFFFFFFFF DUP3 GT OR ISZERO PUSH2 0x23B4 JUMPI PUSH2 0x23B3 PUSH2 0x235F JUMP JUMPDEST JUMPDEST DUP1 PUSH1 0x40 MSTORE POP POP POP JUMP JUMPDEST PUSH0 PUSH2 0x23C6 PUSH2 0x202F JUMP JUMPDEST SWAP1 POP PUSH2 0x23D2 DUP3 DUP3 PUSH2 0x238C JUMP JUMPDEST SWAP2 SWAP1 POP JUMP JUMPDEST PUSH0 PUSH8 0xFFFFFFFFFFFFFFFF DUP3 GT ISZERO PUSH2 0x23F1 JUMPI PUSH2 0x23F0 PUSH2 0x235F JUMP JUMPDEST JUMPDEST PUSH2 0x23FA DUP3 PUSH2 0x2179 JUMP JUMPDEST SWAP1 POP PUSH1 0x20 DUP2 ADD SWAP1 POP SWAP2 SWAP1 POP JUMP JUMPDEST DUP3 DUP2 DUP4 CALLDATACOPY PUSH0 DUP4 DUP4 ADD MSTORE POP POP POP JUMP JUMPDEST PUSH0 PUSH2 0x2427 PUSH2 0x2422 DUP5 PUSH2 0x23D7 JUMP JUMPDEST PUSH2 0x23BD JUMP JUMPDEST SWAP1 POP DUP3 DUP2 MSTORE PUSH1 0x20 DUP2 ADD DUP5 DUP5 DUP5 ADD GT ISZERO PUSH2 0x2443 JUMPI PUSH2 0x2442 PUSH2 0x235B JUMP JUMPDEST JUMPDEST PUSH2 0x244E DUP5 DUP3 DUP6 PUSH2 0x2407 JUMP JUMPDEST POP SWAP4 SWAP3 POP POP POP JUMP JUMPDEST PUSH0 DUP3 PUSH1 0x1F DUP4 ADD SLT PUSH2 0x246A JUMPI PUSH2 0x2469 PUSH2 0x2357 JUMP JUMPDEST JUMPDEST DUP2 CALLDATALOAD PUSH2 0x247A DUP5 DUP3 PUSH1 0x20 DUP7 ADD PUSH2 0x2415 JUMP JUMPDEST SWAP2 POP POP SWAP3 SWAP2 POP POP JUMP JUMPDEST PUSH0 PUSH0 PUSH0 PUSH0 PUSH0 PUSH1 0xA0 DUP7 DUP9 SUB SLT ISZERO PUSH2 0x249C JUMPI PUSH2 0x249B PUSH2 0x2038 JUMP JUMPDEST JUMPDEST PUSH0 DUP7 ADD CALLDATALOAD PUSH8 0xFFFFFFFFFFFFFFFF DUP2 GT ISZERO PUSH2 0x24B9 JUMPI PUSH2 0x24B8 PUSH2 0x203C JUMP JUMPDEST JUMPDEST PUSH2 0x24C5 DUP9 DUP3 DUP10 ADD PUSH2 0x2456 JUMP JUMPDEST SWAP6 POP POP PUSH1 0x20 DUP7 ADD CALLDATALOAD PUSH8 0xFFFFFFFFFFFFFFFF DUP2 GT ISZERO PUSH2 0x24E6 JUMPI PUSH2 0x24E5 PUSH2 0x203C JUMP JUMPDEST JUMPDEST PUSH2 0x24F2 DUP9 DUP3 DUP10 ADD PUSH2 0x2456 JUMP JUMPDEST SWAP5 POP POP PUSH1 0x40 PUSH2 0x2503 DUP9 DUP3 DUP10 ADD PUSH2 0x205F JUMP JUMPDEST SWAP4 POP POP PUSH1 0x60 PUSH2 0x2514 DUP9 DUP3 DUP10 ADD PUSH2 0x205F JUMP JUMPDEST SWAP3 POP POP PUSH1 0x80 PUSH2 0x2525 DUP9 DUP3 DUP10 ADD PUSH2 0x205F JUMP JUMPDEST SWAP2 POP POP SWAP3 SWAP6 POP SWAP3 SWAP6 SWAP1 SWAP4 POP JUMP JUMPDEST PUSH0 PUSH1 0x20 DUP3 ADD SWAP1 POP PUSH2 0x2545 PUSH0 DUP4 ADD DUP5 PUSH2 0x2142 JUMP JUMPDEST SWAP3 SWAP2 POP POP JUMP JUMPDEST PUSH0 PUSH1 0xA0 DUP3 ADD SWAP1 POP PUSH2 0x255E PUSH0 DUP4 ADD DUP9 PUSH2 0x209E JUMP JUMPDEST PUSH2 0x256B PUSH1 0x20 DUP4 ADD DUP8 PUSH2 0x209E JUMP JUMPDEST PUSH2 0x2578 PUSH1 0x40 DUP4 ADD DUP7 PUSH2 0x209E JUMP JUMPDEST PUSH2 0x2585 PUSH1 0x60 DUP4 ADD DUP6 PUSH2 0x209E JUMP JUMPDEST PUSH2 0x2592 PUSH1 0x80 DUP4 ADD DUP5 PUSH2 0x209E JUMP JUMPDEST SWAP7 SWAP6 POP POP POP POP POP POP JUMP JUMPDEST PUSH32 0x70726F6A65637420686173206E6F74206265656E206372656174656420796574 PUSH0 DUP3 ADD MSTORE PUSH32 0x2100000000000000000000000000000000000000000000000000000000000000 PUSH1 0x20 DUP3 ADD MSTORE POP JUMP JUMPDEST PUSH0 PUSH2 0x25F6 PUSH1 0x21 DUP4 PUSH2 0x215B JUMP JUMPDEST SWAP2 POP PUSH2 0x2601 DUP3 PUSH2 0x259C JUMP JUMPDEST PUSH1 0x40 DUP3 ADD SWAP1 POP SWAP2 SWAP1 POP JUMP JUMPDEST PUSH0 PUSH1 0x20 DUP3 ADD SWAP1 POP DUP2 DUP2 SUB PUSH0 DUP4 ADD MSTORE PUSH2 0x2623 DUP2 PUSH2 0x25EA JUMP JUMPDEST SWAP1 POP SWAP2 SWAP1 POP JUMP JUMPDEST PUSH32 0x4E487B7100000000000000000000000000000000000000000000000000000000 PUSH0 MSTORE PUSH1 0x11 PUSH1 0x4 MSTORE PUSH1 0x24 PUSH0 REVERT JUMPDEST PUSH0 PUSH2 0x2661 DUP3 PUSH2 0x2040 JUMP JUMPDEST SWAP2 POP PUSH2 0x266C DUP4 PUSH2 0x2040 JUMP JUMPDEST SWAP3 POP DUP3 DUP3 SUB SWAP1 POP DUP2 DUP2 GT ISZERO PUSH2 0x2684 JUMPI PUSH2 0x2683 PUSH2 0x262A JUMP JUMPDEST JUMPDEST SWAP3 SWAP2 POP POP JUMP JUMPDEST PUSH32 0x446561646C696E65206973206F766572202C20796F752043616E277420636861 PUSH0 DUP3 ADD MSTORE PUSH32 0x6E6765207468652066756E64696E6720676F616C202121000000000000000000 PUSH1 0x20 DUP3 ADD MSTORE POP JUMP JUMPDEST PUSH0 PUSH2 0x26E4 PUSH1 0x37 DUP4 PUSH2 0x215B JUMP JUMPDEST SWAP2 POP PUSH2 0x26EF DUP3 PUSH2 0x268A JUMP JUMPDEST PUSH1 0x40 DUP3 ADD SWAP1 POP SWAP2 SWAP1 POP JUMP JUMPDEST PUSH0 PUSH1 0x20 DUP3 ADD SWAP1 POP DUP2 DUP2 SUB PUSH0 DUP4 ADD MSTORE PUSH2 0x2711 DUP2 PUSH2 0x26D8 JUMP JUMPDEST SWAP1 POP SWAP2 SWAP1 POP JUMP JUMPDEST PUSH32 0x596F7520617265206E6F74207468652070726F6A6563742063726561746F7220 PUSH0 DUP3 ADD MSTORE PUSH32 0x2C204F6E6C7920506F726A6563742063726561746F722063616E204368616E67 PUSH1 0x20 DUP3 ADD MSTORE PUSH32 0x6520212100000000000000000000000000000000000000000000000000000000 PUSH1 0x40 DUP3 ADD MSTORE POP JUMP JUMPDEST PUSH0 PUSH2 0x2798 PUSH1 0x44 DUP4 PUSH2 0x215B JUMP JUMPDEST SWAP2 POP PUSH2 0x27A3 DUP3 PUSH2 0x2718 JUMP JUMPDEST PUSH1 0x60 DUP3 ADD SWAP1 POP SWAP2 SWAP1 POP JUMP JUMPDEST PUSH0 PUSH1 0x20 DUP3 ADD SWAP1 POP DUP2 DUP2 SUB PUSH0 DUP4 ADD MSTORE PUSH2 0x27C5 DUP2 PUSH2 0x278C JUMP JUMPDEST SWAP1 POP SWAP2 SWAP1 POP JUMP JUMPDEST PUSH32 0x4E487B7100000000000000000000000000000000000000000000000000000000 PUSH0 MSTORE PUSH1 0x22 PUSH1 0x4 MSTORE PUSH1 0x24 PUSH0 REVERT JUMPDEST PUSH0 PUSH1 0x2 DUP3 DIV SWAP1 POP PUSH1 0x1 DUP3 AND DUP1 PUSH2 0x2810 JUMPI PUSH1 0x7F DUP3 AND SWAP2 POP JUMPDEST PUSH1 0x20 DUP3 LT DUP2 SUB PUSH2 0x2823 JUMPI PUSH2 0x2822 PUSH2 0x27CC JUMP JUMPDEST JUMPDEST POP SWAP2 SWAP1 POP JUMP JUMPDEST PUSH32 0x46756E64696E6720676F616C206861732072656163686564202C207573657220 PUSH0 DUP3 ADD MSTORE PUSH32 0x63616E2774207769746864726177000000000000000000000000000000000000 PUSH1 0x20 DUP3 ADD MSTORE POP JUMP JUMPDEST PUSH0 PUSH2 0x2883 PUSH1 0x2E DUP4 PUSH2 0x215B JUMP JUMPDEST SWAP2 POP PUSH2 0x288E DUP3 PUSH2 0x2829 JUMP JUMPDEST PUSH1 0x40 DUP3 ADD SWAP1 POP SWAP2 SWAP1 POP JUMP JUMPDEST PUSH0 PUSH1 0x20 DUP3 ADD SWAP1 POP DUP2 DUP2 SUB PUSH0 DUP4 ADD MSTORE PUSH2 0x28B0 DUP2 PUSH2 0x2877 JUMP JUMPDEST SWAP1 POP SWAP2 SWAP1 POP JUMP JUMPDEST PUSH32 0x4E6F2066756E647320746F207769746864726177000000000000000000000000 PUSH0 DUP3 ADD MSTORE POP JUMP JUMPDEST PUSH0 PUSH2 0x28EB PUSH1 0x14 DUP4 PUSH2 0x215B JUMP JUMPDEST SWAP2 POP PUSH2 0x28F6 DUP3 PUSH2 0x28B7 JUMP JUMPDEST PUSH1 0x20 DUP3 ADD SWAP1 POP SWAP2 SWAP1 POP JUMP JUMPDEST PUSH0 PUSH1 0x20 DUP3 ADD SWAP1 POP DUP2 DUP2 SUB PUSH0 DUP4 ADD MSTORE PUSH2 0x2918 DUP2 PUSH2 0x28DF JUMP JUMPDEST SWAP1 POP SWAP2 SWAP1 POP JUMP JUMPDEST PUSH0 PUSH2 0x2929 DUP3 PUSH2 0x2040 JUMP JUMPDEST SWAP2 POP PUSH0 DUP3 SUB PUSH2 0x293B JUMPI PUSH2 0x293A PUSH2 0x262A JUMP JUMPDEST JUMPDEST PUSH1 0x1 DUP3 SUB SWAP1 POP SWAP2 SWAP1 POP JUMP JUMPDEST PUSH0 DUP2 SWAP1 POP SWAP3 SWAP2 POP POP JUMP JUMPDEST POP JUMP JUMPDEST PUSH0 PUSH2 0x295E PUSH0 DUP4 PUSH2 0x2946 JUMP JUMPDEST SWAP2 POP PUSH2 0x2969 DUP3 PUSH2 0x2950 JUMP JUMPDEST PUSH0 DUP3 ADD SWAP1 POP SWAP2 SWAP1 POP JUMP JUMPDEST PUSH0 PUSH2 0x297D DUP3 PUSH2 0x2953 JUMP JUMPDEST SWAP2 POP DUP2 SWAP1 POP SWAP2 SWAP1 POP JUMP JUMPDEST PUSH32 0x5769746864726177616C204661696C6564000000000000000000000000000000 PUSH0 DUP3 ADD MSTORE POP JUMP JUMPDEST PUSH0 PUSH2 0x29BB PUSH1 0x11 DUP4 PUSH2 0x215B JUMP JUMPDEST SWAP2 POP PUSH2 0x29C6 DUP3 PUSH2 0x2987 JUMP JUMPDEST PUSH1 0x20 DUP3 ADD SWAP1 POP SWAP2 SWAP1 POP JUMP JUMPDEST PUSH0 PUSH1 0x20 DUP3 ADD SWAP1 POP DUP2 DUP2 SUB PUSH0 DUP4 ADD MSTORE PUSH2 0x29E8 DUP2 PUSH2 0x29AF JUMP JUMPDEST SWAP1 POP SWAP2 SWAP1 POP JUMP JUMPDEST PUSH0 PUSH1 0x40 DUP3 ADD SWAP1 POP PUSH2 0x2A02 PUSH0 DUP4 ADD DUP6 PUSH2 0x2142 JUMP JUMPDEST PUSH2 0x2A0F PUSH1 0x20 DUP4 ADD DUP5 PUSH2 0x209E JUMP JUMPDEST SWAP4 SWAP3 POP POP POP JUMP JUMPDEST PUSH0 PUSH2 0x2A20 DUP3 PUSH2 0x2040 JUMP JUMPDEST SWAP2 POP PUSH2 0x2A2B DUP4 PUSH2 0x2040 JUMP JUMPDEST SWAP3 POP DUP3 DUP3 MUL PUSH2 0x2A39 DUP2 PUSH2 0x2040 JUMP JUMPDEST SWAP2 POP DUP3 DUP3 DIV DUP5 EQ DUP4 ISZERO OR PUSH2 0x2A50 JUMPI PUSH2 0x2A4F PUSH2 0x262A JUMP JUMPDEST JUMPDEST POP SWAP3 SWAP2 POP POP JUMP JUMPDEST PUSH32 0x4E487B7100000000000000000000000000000000000000000000000000000000 PUSH0 MSTORE PUSH1 0x12 PUSH1 0x4 MSTORE PUSH1 0x24 PUSH0 REVERT JUMPDEST PUSH0 PUSH2 0x2A8E DUP3 PUSH2 0x2040 JUMP JUMPDEST SWAP2 POP PUSH2 0x2A99 DUP4 PUSH2 0x2040 JUMP JUMPDEST SWAP3 POP DUP3 PUSH2 0x2AA9 JUMPI PUSH2 0x2AA8 PUSH2 0x2A57 JUMP JUMPDEST JUMPDEST DUP3 DUP3 DIV SWAP1 POP SWAP3 SWAP2 POP POP JUMP JUMPDEST PUSH32 0x4F6E6C792050726F6A6563742063726561746F722063616E20657874656E6420 PUSH0 DUP3 ADD MSTORE PUSH32 0x74686520646561646C696E652121000000000000000000000000000000000000 PUSH1 0x20 DUP3 ADD MSTORE POP JUMP JUMPDEST PUSH0 PUSH2 0x2B0E PUSH1 0x2E DUP4 PUSH2 0x215B JUMP JUMPDEST SWAP2 POP PUSH2 0x2B19 DUP3 PUSH2 0x2AB4 JUMP JUMPDEST PUSH1 0x40 DUP3 ADD SWAP1 POP SWAP2 SWAP1 POP JUMP JUMPDEST PUSH0 PUSH1 0x20 DUP3 ADD SWAP1 POP DUP2 DUP2 SUB PUSH0 DUP4 ADD MSTORE PUSH2 0x2B3B DUP2 PUSH2 0x2B02 JUMP JUMPDEST SWAP1 POP SWAP2 SWAP1 POP JUMP JUMPDEST PUSH0 PUSH2 0x2B4C DUP3 PUSH2 0x2040 JUMP JUMPDEST SWAP2 POP PUSH2 0x2B57 DUP4 PUSH2 0x2040 JUMP JUMPDEST SWAP3 POP DUP3 DUP3 ADD SWAP1 POP DUP1 DUP3 GT ISZERO PUSH2 0x2B6F JUMPI PUSH2 0x2B6E PUSH2 0x262A JUMP JUMPDEST JUMPDEST SWAP3 SWAP2 POP POP JUMP JUMPDEST PUSH32 0x50726F6A65637420646561646C696E65206973206F7665722100000000000000 PUSH0 DUP3 ADD MSTORE POP JUMP JUMPDEST PUSH0 PUSH2 0x2BA9 PUSH1 0x19 DUP4 PUSH2 0x215B JUMP JUMPDEST SWAP2 POP PUSH2 0x2BB4 DUP3 PUSH2 0x2B75 JUMP JUMPDEST PUSH1 0x20 DUP3 ADD SWAP1 POP SWAP2 SWAP1 POP JUMP JUMPDEST PUSH0 PUSH1 0x20 DUP3 ADD SWAP1 POP DUP2 DUP2 SUB PUSH0 DUP4 ADD MSTORE PUSH2 0x2BD6 DUP2 PUSH2 0x2B9D JUMP JUMPDEST SWAP1 POP SWAP2 SWAP1 POP JUMP JUMPDEST PUSH32 0x50726F6A6563742052656163686564206974732046756E64696E672072657175 PUSH0 DUP3 ADD MSTORE PUSH32 0x6972656D656E7400000000000000000000000000000000000000000000000000 PUSH1 0x20 DUP3 ADD MSTORE POP JUMP JUMPDEST PUSH0 PUSH2 0x2C37 PUSH1 0x27 DUP4 PUSH2 0x215B JUMP JUMPDEST SWAP2 POP PUSH2 0x2C42 DUP3 PUSH2 0x2BDD JUMP JUMPDEST PUSH1 0x40 DUP3 ADD SWAP1 POP SWAP2 SWAP1 POP JUMP JUMPDEST PUSH0 PUSH1 0x20 DUP3 ADD SWAP1 POP DUP2 DUP2 SUB PUSH0 DUP4 ADD MSTORE PUSH2 0x2C64 DUP2 PUSH2 0x2C2B JUMP JUMPDEST SWAP1 POP SWAP2 SWAP1 POP JUMP JUMPDEST PUSH32 0x73656E6420736F6D6520657468657220746F20636F6E7472696275746520696E PUSH0 DUP3 ADD MSTORE PUSH32 0x207468652070726F6A6563740000000000000000000000000000000000000000 PUSH1 0x20 DUP3 ADD MSTORE POP JUMP JUMPDEST PUSH0 PUSH2 0x2CC5 PUSH1 0x2C DUP4 PUSH2 0x215B JUMP JUMPDEST SWAP2 POP PUSH2 0x2CD0 DUP3 PUSH2 0x2C6B JUMP JUMPDEST PUSH1 0x40 DUP3 ADD SWAP1 POP SWAP2 SWAP1 POP JUMP JUMPDEST PUSH0 PUSH1 0x20 DUP3 ADD SWAP1 POP DUP2 DUP2 SUB PUSH0 DUP4 ADD MSTORE PUSH2 0x2CF2 DUP2 PUSH2 0x2CB9 JUMP JUMPDEST SWAP1 POP SWAP2 SWAP1 POP JUMP JUMPDEST PUSH32 0x416D6F756E7420436F6E7472696275746564206973206D6F7265207468616E20 PUSH0 DUP3 ADD MSTORE PUSH32 0x476F616C00000000000000000000000000000000000000000000000000000000 PUSH1 0x20 DUP3 ADD MSTORE POP JUMP JUMPDEST PUSH0 PUSH2 0x2D53 PUSH1 0x24 DUP4 PUSH2 0x215B JUMP JUMPDEST SWAP2 POP PUSH2 0x2D5E DUP3 PUSH2 0x2CF9 JUMP JUMPDEST PUSH1 0x40 DUP3 ADD SWAP1 POP SWAP2 SWAP1 POP JUMP JUMPDEST PUSH0 PUSH1 0x20 DUP3 ADD SWAP1 POP DUP2 DUP2 SUB PUSH0 DUP4 ADD MSTORE PUSH2 0x2D80 DUP2 PUSH2 0x2D47 JUMP JUMPDEST SWAP1 POP SWAP2 SWAP1 POP JUMP JUMPDEST PUSH32 0x526566756E64204661696C656400000000000000000000000000000000000000 PUSH0 DUP3 ADD MSTORE POP JUMP JUMPDEST PUSH0 PUSH2 0x2DBB PUSH1 0xD DUP4 PUSH2 0x215B JUMP JUMPDEST SWAP2 POP PUSH2 0x2DC6 DUP3 PUSH2 0x2D87 JUMP JUMPDEST PUSH1 0x20 DUP3 ADD SWAP1 POP SWAP2 SWAP1 POP JUMP JUMPDEST PUSH0 PUSH1 0x20 DUP3 ADD SWAP1 POP DUP2 DUP2 SUB PUSH0 DUP4 ADD MSTORE PUSH2 0x2DE8 DUP2 PUSH2 0x2DAF JUMP JUMPDEST SWAP1 POP SWAP2 SWAP1 POP JUMP JUMPDEST PUSH0 PUSH1 0x60 DUP3 ADD SWAP1 POP PUSH2 0x2E02 PUSH0 DUP4 ADD DUP7 PUSH2 0x2142 JUMP JUMPDEST PUSH2 0x2E0F PUSH1 0x20 DUP4 ADD DUP6 PUSH2 0x209E JUMP JUMPDEST PUSH2 0x2E1C PUSH1 0x40 DUP4 ADD DUP5 PUSH2 0x209E JUMP JUMPDEST SWAP5 SWAP4 POP POP POP POP JUMP JUMPDEST PUSH0 PUSH2 0x2E2E DUP3 PUSH2 0x2040 JUMP JUMPDEST SWAP2 POP PUSH32 0xFFFFFFFFFFFFFFFFFFFFFFFFFFFFFFFFFFFFFFFFFFFFFFFFFFFFFFFFFFFFFFFF DUP3 SUB PUSH2 0x2E60 JUMPI PUSH2 0x2E5F PUSH2 0x262A JUMP JUMPDEST JUMPDEST PUSH1 0x1 DUP3 ADD SWAP1 POP SWAP2 SWAP1 POP JUMP JUMPDEST PUSH32 0x66756E64696E6720676F616C20686173206E6F742072656163686564202C2061 PUSH0 DUP3 ADD MSTORE PUSH32 0x646D696E2063616E277420776974686472617700000000000000000000000000 PUSH1 0x20 DUP3 ADD MSTORE POP JUMP JUMPDEST PUSH0 PUSH2 0x2EC5 PUSH1 0x33 DUP4 PUSH2 0x215B JUMP JUMPDEST SWAP2 POP PUSH2 0x2ED0 DUP3 PUSH2 0x2E6B JUMP JUMPDEST PUSH1 0x40 DUP3 ADD SWAP1 POP SWAP2 SWAP1 POP JUMP JUMPDEST PUSH0 PUSH1 0x20 DUP3 ADD SWAP1 POP DUP2 DUP2 SUB PUSH0 DUP4 ADD MSTORE PUSH2 0x2EF2 DUP2 PUSH2 0x2EB9 JUMP JUMPDEST SWAP1 POP SWAP2 SWAP1 POP JUMP JUMPDEST PUSH32 0x6F6E6C792061646D696E2063616E207769746864726177000000000000000000 PUSH0 DUP3 ADD MSTORE POP JUMP JUMPDEST PUSH0 PUSH2 0x2F2D PUSH1 0x17 DUP4 PUSH2 0x215B JUMP JUMPDEST SWAP2 POP PUSH2 0x2F38 DUP3 PUSH2 0x2EF9 JUMP JUMPDEST PUSH1 0x20 DUP3 ADD SWAP1 POP SWAP2 SWAP1 POP JUMP JUMPDEST PUSH0 PUSH1 0x20 DUP3 ADD SWAP1 POP DUP2 DUP2 SUB PUSH0 DUP4 ADD MSTORE PUSH2 0x2F5A DUP2 PUSH2 0x2F21 JUMP JUMPDEST SWAP1 POP SWAP2 SWAP1 POP JUMP JUMPDEST PUSH32 0x646561646C696E6520686173206E6F742072656163686564202C2061646D696E PUSH0 DUP3 ADD MSTORE PUSH32 0x2063616E27742077697468647261770000000000000000000000000000000000 PUSH1 0x20 DUP3 ADD MSTORE POP JUMP JUMPDEST PUSH0 PUSH2 0x2FBB PUSH1 0x2F DUP4 PUSH2 0x215B JUMP JUMPDEST SWAP2 POP PUSH2 0x2FC6 DUP3 PUSH2 0x2F61 JUMP JUMPDEST PUSH1 0x40 DUP3 ADD SWAP1 POP SWAP2 SWAP1 POP JUMP JUMPDEST PUSH0 PUSH1 0x20 DUP3 ADD SWAP1 POP DUP2 DUP2 SUB PUSH0 DUP4 ADD MSTORE PUSH2 0x2FE8 DUP2 PUSH2 0x2FAF JUMP JUMPDEST SWAP1 POP SWAP2 SWAP1 POP JUMP JUMPDEST PUSH32 0x4F6E6C792041646D696E2063616E206163636573730000000000000000000000 PUSH0 DUP3 ADD MSTORE POP JUMP JUMPDEST PUSH0 PUSH2 0x3023 PUSH1 0x15 DUP4 PUSH2 0x215B JUMP JUMPDEST SWAP2 POP PUSH2 0x302E DUP3 PUSH2 0x2FEF JUMP JUMPDEST PUSH1 0x20 DUP3 ADD SWAP1 POP SWAP2 SWAP1 POP JUMP JUMPDEST PUSH0 PUSH1 0x20 DUP3 ADD SWAP1 POP DUP2 DUP2 SUB PUSH0 DUP4 ADD MSTORE PUSH2 0x3050 DUP2 PUSH2 0x3017 JUMP JUMPDEST SWAP1 POP SWAP2 SWAP1 POP JUMP JUMPDEST PUSH32 0x4E6F20636F6D6D697373696F6E20746F20776974686472617700000000000000 PUSH0 DUP3 ADD MSTORE POP JUMP JUMPDEST PUSH0 PUSH2 0x308B PUSH1 0x19 DUP4 PUSH2 0x215B JUMP JUMPDEST SWAP2 POP PUSH2 0x3096 DUP3 PUSH2 0x3057 JUMP JUMPDEST PUSH1 0x20 DUP3 ADD SWAP1 POP SWAP2 SWAP1 POP JUMP JUMPDEST PUSH0 PUSH1 0x20 DUP3 ADD SWAP1 POP DUP2 DUP2 SUB PUSH0 DUP4 ADD MSTORE PUSH2 0x30B8 DUP2 PUSH2 0x307F JUMP JUMPDEST SWAP1 POP SWAP2 SWAP1 POP JUMP JUMPDEST PUSH32 0x5769746864726177616C204661696C6564210000000000000000000000000000 PUSH0 DUP3 ADD MSTORE POP JUMP JUMPDEST PUSH0 PUSH2 0x30F3 PUSH1 0x12 DUP4 PUSH2 0x215B JUMP JUMPDEST SWAP2 POP PUSH2 0x30FE DUP3 PUSH2 0x30BF JUMP JUMPDEST PUSH1 0x20 DUP3 ADD SWAP1 POP SWAP2 SWAP1 POP JUMP JUMPDEST PUSH0 PUSH1 0x20 DUP3 ADD SWAP1 POP DUP2 DUP2 SUB PUSH0 DUP4 ADD MSTORE PUSH2 0x3120 DUP2 PUSH2 0x30E7 JUMP JUMPDEST SWAP1 POP SWAP2 SWAP1 POP JUMP JUMPDEST PUSH32 0x43616E6E6F7420776974686472617720616674657220646561646C696E650000 PUSH0 DUP3 ADD MSTORE POP JUMP JUMPDEST PUSH0 PUSH2 0x315B PUSH1 0x1E DUP4 PUSH2 0x215B JUMP JUMPDEST SWAP2 POP PUSH2 0x3166 DUP3 PUSH2 0x3127 JUMP JUMPDEST PUSH1 0x20 DUP3 ADD SWAP1 POP SWAP2 SWAP1 POP JUMP JUMPDEST PUSH0 PUSH1 0x20 DUP3 ADD SWAP1 POP DUP2 DUP2 SUB PUSH0 DUP4 ADD MSTORE PUSH2 0x3188 DUP2 PUSH2 0x314F JUMP JUMPDEST SWAP1 POP SWAP2 SWAP1 POP JUMP JUMPDEST PUSH32 0x4E6F2046756E647320746F207769746864726177212100000000000000000000 PUSH0 DUP3 ADD MSTORE POP JUMP JUMPDEST PUSH0 PUSH2 0x31C3 PUSH1 0x16 DUP4 PUSH2 0x215B JUMP JUMPDEST SWAP2 POP PUSH2 0x31CE DUP3 PUSH2 0x318F JUMP JUMPDEST PUSH1 0x20 DUP3 ADD SWAP1 POP SWAP2 SWAP1 POP JUMP JUMPDEST PUSH0 PUSH1 0x20 DUP3 ADD SWAP1 POP DUP2 DUP2 SUB PUSH0 DUP4 ADD MSTORE PUSH2 0x31F0 DUP2 PUSH2 0x31B7 JUMP JUMPDEST SWAP1 POP SWAP2 SWAP1 POP JUMP JUMPDEST PUSH32 0x576974686472617720616D6F756E74206578636565647320796F757220636F6E PUSH0 DUP3 ADD MSTORE PUSH32 0x747269627574696F6E0000000000000000000000000000000000000000000000 PUSH1 0x20 DUP3 ADD MSTORE POP JUMP JUMPDEST PUSH0 PUSH2 0x3251 PUSH1 0x29 DUP4 PUSH2 0x215B JUMP JUMPDEST SWAP2 POP PUSH2 0x325C DUP3 PUSH2 0x31F7 JUMP JUMPDEST PUSH1 0x40 DUP3 ADD SWAP1 POP SWAP2 SWAP1 POP JUMP JUMPDEST PUSH0 PUSH1 0x20 DUP3 ADD SWAP1 POP DUP2 DUP2 SUB PUSH0 DUP4 ADD MSTORE PUSH2 0x327E DUP2 PUSH2 0x3245 JUMP JUMPDEST SWAP1 POP SWAP2 SWAP1 POP JUMP JUMPDEST PUSH32 0x7769746864726177206661696C65642121212100000000000000000000000000 PUSH0 DUP3 ADD MSTORE POP JUMP JUMPDEST PUSH0 PUSH2 0x32B9 PUSH1 0x13 DUP4 PUSH2 0x215B JUMP JUMPDEST SWAP2 POP PUSH2 0x32C4 DUP3 PUSH2 0x3285 JUMP JUMPDEST PUSH1 0x20 DUP3 ADD SWAP1 POP SWAP2 SWAP1 POP JUMP JUMPDEST PUSH0 PUSH1 0x20 DUP3 ADD SWAP1 POP DUP2 DUP2 SUB PUSH0 DUP4 ADD MSTORE PUSH2 0x32E6 DUP2 PUSH2 0x32AD JUMP JUMPDEST SWAP1 POP SWAP2 SWAP1 POP JUMP JUMPDEST PUSH32 0x4E487B7100000000000000000000000000000000000000000000000000000000 PUSH0 MSTORE PUSH1 0x32 PUSH1 0x4 MSTORE PUSH1 0x24 PUSH0 REVERT JUMPDEST PUSH32 0x50726F6A65637420494420697320616C726561647920696E2075736521000000 PUSH0 DUP3 ADD MSTORE POP JUMP JUMPDEST PUSH0 PUSH2 0x334E PUSH1 0x1D DUP4 PUSH2 0x215B JUMP JUMPDEST SWAP2 POP PUSH2 0x3359 DUP3 PUSH2 0x331A JUMP JUMPDEST PUSH1 0x20 DUP3 ADD SWAP1 POP SWAP2 SWAP1 POP JUMP JUMPDEST PUSH0 PUSH1 0x20 DUP3 ADD SWAP1 POP DUP2 DUP2 SUB PUSH0 DUP4 ADD MSTORE PUSH2 0x337B DUP2 PUSH2 0x3342 JUMP JUMPDEST SWAP1 POP SWAP2 SWAP1 POP JUMP JUMPDEST PUSH32 0x4F6E6C7920417574686F72697A65642063726561746F72732063616E20616363 PUSH0 DUP3 ADD MSTORE PUSH32 0x6573732121000000000000000000000000000000000000000000000000000000 PUSH1 0x20 DUP3 ADD MSTORE POP JUMP JUMPDEST PUSH0 PUSH2 0x33DC PUSH1 0x25 DUP4 PUSH2 0x215B JUMP JUMPDEST SWAP2 POP PUSH2 0x33E7 DUP3 PUSH2 0x3382 JUMP JUMPDEST PUSH1 0x40 DUP3 ADD SWAP1 POP SWAP2 SWAP1 POP JUMP JUMPDEST PUSH0 PUSH1 0x20 DUP3 ADD SWAP1 POP DUP2 DUP2 SUB PUSH0 DUP4 ADD MSTORE PUSH2 0x3409 DUP2 PUSH2 0x33D0 JUMP JUMPDEST SWAP1 POP SWAP2 SWAP1 POP JUMP JUMPDEST PUSH0 DUP2 SWAP1 POP DUP2 PUSH0 MSTORE PUSH1 0x20 PUSH0 KECCAK256 SWAP1 POP SWAP2 SWAP1 POP JUMP JUMPDEST PUSH0 PUSH1 0x20 PUSH1 0x1F DUP4 ADD DIV SWAP1 POP SWAP2 SWAP1 POP JUMP JUMPDEST PUSH0 DUP3 DUP3 SHL SWAP1 POP SWAP3 SWAP2 POP POP JUMP JUMPDEST PUSH0 PUSH1 0x8 DUP4 MUL PUSH2 0x346C PUSH32 0xFFFFFFFFFFFFFFFFFFFFFFFFFFFFFFFFFFFFFFFFFFFFFFFFFFFFFFFFFFFFFFFF DUP3 PUSH2 0x3431 JUMP JUMPDEST PUSH2 0x3476 DUP7 DUP4 PUSH2 0x3431 JUMP JUMPDEST SWAP6 POP DUP1 NOT DUP5 AND SWAP4 POP DUP1 DUP7 AND DUP5 OR SWAP3 POP POP POP SWAP4 SWAP3 POP POP POP JUMP JUMPDEST PUSH0 DUP2 SWAP1 POP SWAP2 SWAP1 POP JUMP JUMPDEST PUSH0 PUSH2 0x34B1 PUSH2 0x34AC PUSH2 0x34A7 DUP5 PUSH2 0x2040 JUMP JUMPDEST PUSH2 0x348E JUMP JUMPDEST PUSH2 0x2040 JUMP JUMPDEST SWAP1 POP SWAP2 SWAP1 POP JUMP JUMPDEST PUSH0 DUP2 SWAP1 POP SWAP2 SWAP1 POP JUMP JUMPDEST PUSH2 0x34CA DUP4 PUSH2 0x3497 JUMP JUMPDEST PUSH2 0x34DE PUSH2 0x34D6 DUP3 PUSH2 0x34B8 JUMP JUMPDEST DUP5 DUP5 SLOAD PUSH2 0x343D JUMP JUMPDEST DUP3 SSTORE POP POP POP POP JUMP JUMPDEST PUSH0 PUSH0 SWAP1 POP SWAP1 JUMP JUMPDEST PUSH2 0x34F5 PUSH2 0x34E6 JUMP JUMPDEST PUSH2 0x3500 DUP2 DUP5 DUP5 PUSH2 0x34C1 JUMP JUMPDEST POP POP POP JUMP JUMPDEST JUMPDEST DUP2 DUP2 LT ISZERO PUSH2 0x3523 JUMPI PUSH2 0x3518 PUSH0 DUP3 PUSH2 0x34ED JUMP JUMPDEST PUSH1 0x1 DUP2 ADD SWAP1 POP PUSH2 0x3506 JUMP JUMPDEST POP POP JUMP JUMPDEST PUSH1 0x1F DUP3 GT ISZERO PUSH2 0x3568 JUMPI PUSH2 0x3539 DUP2 PUSH2 0x3410 JUMP JUMPDEST PUSH2 0x3542 DUP5 PUSH2 0x3422 JUMP JUMPDEST DUP2 ADD PUSH1 0x20 DUP6 LT ISZERO PUSH2 0x3551 JUMPI DUP2 SWAP1 POP JUMPDEST PUSH2 0x3565 PUSH2 0x355D DUP6 PUSH2 0x3422 JUMP JUMPDEST DUP4 ADD DUP3 PUSH2 0x3505 JUMP JUMPDEST POP POP JUMPDEST POP POP POP JUMP JUMPDEST PUSH0 DUP3 DUP3 SHR SWAP1 POP SWAP3 SWAP2 POP POP JUMP JUMPDEST PUSH0 PUSH2 0x3588 PUSH0 NOT DUP5 PUSH1 0x8 MUL PUSH2 0x356D JUMP JUMPDEST NOT DUP1 DUP4 AND SWAP2 POP POP SWAP3 SWAP2 POP POP JUMP JUMPDEST PUSH0 PUSH2 0x35A0 DUP4 DUP4 PUSH2 0x3579 JUMP JUMPDEST SWAP2 POP DUP3 PUSH1 0x2 MUL DUP3 OR SWAP1 POP SWAP3 SWAP2 POP POP JUMP JUMPDEST PUSH2 0x35B9 DUP3 PUSH2 0x2151 JUMP JUMPDEST PUSH8 0xFFFFFFFFFFFFFFFF DUP2 GT ISZERO PUSH2 0x35D2 JUMPI PUSH2 0x35D1 PUSH2 0x235F JUMP JUMPDEST JUMPDEST PUSH2 0x35DC DUP3 SLOAD PUSH2 0x27F9 JUMP JUMPDEST PUSH2 0x35E7 DUP3 DUP3 DUP6 PUSH2 0x3527 JUMP JUMPDEST PUSH0 PUSH1 0x20 SWAP1 POP PUSH1 0x1F DUP4 GT PUSH1 0x1 DUP2 EQ PUSH2 0x3618 JUMPI PUSH0 DUP5 ISZERO PUSH2 0x3606 JUMPI DUP3 DUP8 ADD MLOAD SWAP1 POP JUMPDEST PUSH2 0x3610 DUP6 DUP3 PUSH2 0x3595 JUMP JUMPDEST DUP7 SSTORE POP PUSH2 0x3677 JUMP JUMPDEST PUSH1 0x1F NOT DUP5 AND PUSH2 0x3626 DUP7 PUSH2 0x3410 JUMP JUMPDEST PUSH0 JUMPDEST DUP3 DUP2 LT ISZERO PUSH2 0x364D JUMPI DUP5 DUP10 ADD MLOAD DUP3 SSTORE PUSH1 0x1 DUP3 ADD SWAP2 POP PUSH1 0x20 DUP6 ADD SWAP5 POP PUSH1 0x20 DUP2 ADD SWAP1 POP PUSH2 0x3628 JUMP JUMPDEST DUP7 DUP4 LT ISZERO PUSH2 0x366A JUMPI DUP5 DUP10 ADD MLOAD PUSH2 0x3666 PUSH1 0x1F DUP10 AND DUP3 PUSH2 0x3579 JUMP JUMPDEST DUP4 SSTORE POP JUMPDEST PUSH1 0x1 PUSH1 0x2 DUP9 MUL ADD DUP9 SSTORE POP POP POP JUMPDEST POP POP POP POP POP POP JUMP JUMPDEST PUSH0 PUSH1 0x80 DUP3 ADD SWAP1 POP DUP2 DUP2 SUB PUSH0 DUP4 ADD MSTORE PUSH2 0x3697 DUP2 DUP8 PUSH2 0x2189 JUMP JUMPDEST SWAP1 POP DUP2 DUP2 SUB PUSH1 0x20 DUP4 ADD MSTORE PUSH2 0x36AB DUP2 DUP7 PUSH2 0x2189 JUMP JUMPDEST SWAP1 POP PUSH2 0x36BA PUSH1 0x40 DUP4 ADD DUP6 PUSH2 0x209E JUMP JUMPDEST PUSH2 0x36C7 PUSH1 0x60 DUP4 ADD DUP5 PUSH2 0x209E JUMP JUMPDEST SWAP6 SWAP5 POP POP POP POP POP JUMP INVALID LOG2 PUSH5 0x6970667358 0x22 SLT KECCAK256 DUP16 EXTCODEHASH JUMPDEST 0xBC 0xAA DUP14 0xB6 PUSH11 0xCCCB5208BD1CA511212336 PUSH13 0x2CE91B79FA76D69EA91F16CC64 PUSH20 0x6F6C634300081E00330000000000000000000000 "
				},
				"gasEstimates": {
					"creation": {
						"codeDepositCost": "2817200",
						"executionCost": "49452",
						"totalCost": "2866652"
					},
					"external": {
						"Add_Creators(address)": "28265",
						"AdminWithdrawCommission()": "infinite",
						"AuthorizedCreators(address)": "2922",
						"Change_FundingGoal(uint256,uint256)": "infinite",
						"Contributions(uint256,address)": "infinite",
						"Extend_Deadline(uint256,uint256)": "infinite",
						"Funding_Raised_Percentage(uint256)": "infinite",
						"GetProjectStatus()": "infinite",
						"Get_Total_Raised_Funding()": "2499",
						"ProjectStatistics()": "infinite",
						"Projects(uint256)": "infinite",
						"Remaining_Fund(uint256)": "infinite",
						"Remove_Creators(address)": "28177",
						"Time_Left(uint256)": "infinite",
						"TotalProjects()": "2536",
						"UpdateProjectStatus()": "infinite",
						"admin()": "2596",
						"createProject(string,string,uint256,uint256,uint256)": "infinite",
						"creatorWithdraw(uint256)": "infinite",
						"fundProject(uint256)": "infinite",
						"systemCommission()": "2558",
						"userEarlyWithdraw(uint256,uint256)": "infinite",
						"userWithdraw(uint256)": "infinite"
					}
				},
				"methodIdentifiers": {
					"Add_Creators(address)": "fee2f1c9",
					"AdminWithdrawCommission()": "85f24ee6",
					"AuthorizedCreators(address)": "88283c0f",
					"Change_FundingGoal(uint256,uint256)": "1392ebfe",
					"Contributions(uint256,address)": "5d4e5d78",
					"Extend_Deadline(uint256,uint256)": "629b2647",
					"Funding_Raised_Percentage(uint256)": "42d844a5",
					"GetProjectStatus()": "520f45b7",
					"Get_Total_Raised_Funding()": "54a5bcc5",
					"ProjectStatistics()": "fcdf1238",
					"Projects(uint256)": "21b2416c",
					"Remaining_Fund(uint256)": "0dbac135",
					"Remove_Creators(address)": "7299baeb",
					"Time_Left(uint256)": "370c36b4",
					"TotalProjects()": "9ab761c7",
					"UpdateProjectStatus()": "e81a6786",
					"admin()": "f851a440",
					"createProject(string,string,uint256,uint256,uint256)": "f81bf601",
					"creatorWithdraw(uint256)": "71eb89f3",
					"fundProject(uint256)": "6c563abe",
					"systemCommission()": "c49f597b",
					"userEarlyWithdraw(uint256,uint256)": "cd4ac98c",
					"userWithdraw(uint256)": "3b9056bf"
				}
			},
			"storageLayout": {
				"storage": [
					{
						"astId": 10,
						"contract": "contracts/CrowdTank.sol:CrowdTank",
						"label": "_status",
						"offset": 0,
						"slot": "0",
						"type": "t_uint256"
					},
					{
						"astId": 75,
						"contract": "contracts/CrowdTank.sol:CrowdTank",
						"label": "TotalRaisedFunding",
						"offset": 0,
						"slot": "1",
						"type": "t_uint256"
					},
					{
						"astId": 77,
						"contract": "contracts/CrowdTank.sol:CrowdTank",
						"label": "TotalProjects",
						"offset": 0,
						"slot": "2",
						"type": "t_uint256"
					},
					{
						"astId": 79,
						"contract": "contracts/CrowdTank.sol:CrowdTank",
						"label": "admin",
						"offset": 0,
						"slot": "3",
						"type": "t_address"
					},
					{
						"astId": 81,
						"contract": "contracts/CrowdTank.sol:CrowdTank",
						"label": "systemCommission",
						"offset": 0,
						"slot": "4",
						"type": "t_uint256"
					},
					{
						"astId": 83,
						"contract": "contracts/CrowdTank.sol:CrowdTank",
						"label": "Successful_Funded_Projects",
						"offset": 0,
						"slot": "5",
						"type": "t_uint256"
					},
					{
						"astId": 85,
						"contract": "contracts/CrowdTank.sol:CrowdTank",
						"label": "Failed_Funded_Projects",
						"offset": 0,
						"slot": "6",
						"type": "t_uint256"
					},
					{
						"astId": 118,
						"contract": "contracts/CrowdTank.sol:CrowdTank",
						"label": "AuthorizedCreators",
						"offset": 0,
						"slot": "7",
						"type": "t_mapping(t_address,t_bool)"
					},
					{
						"astId": 181,
						"contract": "contracts/CrowdTank.sol:CrowdTank",
						"label": "project_results",
						"offset": 0,
						"slot": "8",
						"type": "t_mapping(t_uint256,t_bool)"
					},
					{
						"astId": 186,
						"contract": "contracts/CrowdTank.sol:CrowdTank",
						"label": "Projects",
						"offset": 0,
						"slot": "9",
						"type": "t_mapping(t_uint256,t_struct(project)177_storage)"
					},
					{
						"astId": 192,
						"contract": "contracts/CrowdTank.sol:CrowdTank",
						"label": "Contributions",
						"offset": 0,
						"slot": "10",
						"type": "t_mapping(t_uint256,t_mapping(t_address,t_uint256))"
					},
					{
						"astId": 196,
						"contract": "contracts/CrowdTank.sol:CrowdTank",
						"label": "isIdUsed",
						"offset": 0,
						"slot": "11",
						"type": "t_mapping(t_uint256,t_bool)"
					},
					{
						"astId": 199,
						"contract": "contracts/CrowdTank.sol:CrowdTank",
						"label": "projectIDs",
						"offset": 0,
						"slot": "12",
						"type": "t_array(t_uint256)dyn_storage"
					}
				],
				"types": {
					"t_address": {
						"encoding": "inplace",
						"label": "address",
						"numberOfBytes": "20"
					},
					"t_array(t_uint256)dyn_storage": {
						"base": "t_uint256",
						"encoding": "dynamic_array",
						"label": "uint256[]",
						"numberOfBytes": "32"
					},
					"t_bool": {
						"encoding": "inplace",
						"label": "bool",
						"numberOfBytes": "1"
					},
					"t_mapping(t_address,t_bool)": {
						"encoding": "mapping",
						"key": "t_address",
						"label": "mapping(address => bool)",
						"numberOfBytes": "32",
						"value": "t_bool"
					},
					"t_mapping(t_address,t_uint256)": {
						"encoding": "mapping",
						"key": "t_address",
						"label": "mapping(address => uint256)",
						"numberOfBytes": "32",
						"value": "t_uint256"
					},
					"t_mapping(t_uint256,t_bool)": {
						"encoding": "mapping",
						"key": "t_uint256",
						"label": "mapping(uint256 => bool)",
						"numberOfBytes": "32",
						"value": "t_bool"
					},
					"t_mapping(t_uint256,t_mapping(t_address,t_uint256))": {
						"encoding": "mapping",
						"key": "t_uint256",
						"label": "mapping(uint256 => mapping(address => uint256))",
						"numberOfBytes": "32",
						"value": "t_mapping(t_address,t_uint256)"
					},
					"t_mapping(t_uint256,t_struct(project)177_storage)": {
						"encoding": "mapping",
						"key": "t_uint256",
						"label": "mapping(uint256 => struct CrowdTank.project)",
						"numberOfBytes": "32",
						"value": "t_struct(project)177_storage"
					},
					"t_string_storage": {
						"encoding": "bytes",
						"label": "string",
						"numberOfBytes": "32"
					},
					"t_struct(project)177_storage": {
						"encoding": "inplace",
						"label": "struct CrowdTank.project",
						"members": [
							{
								"astId": 156,
								"contract": "contracts/CrowdTank.sol:CrowdTank",
								"label": "creator",
								"offset": 0,
								"slot": "0",
								"type": "t_address"
							},
							{
								"astId": 158,
								"contract": "contracts/CrowdTank.sol:CrowdTank",
								"label": "name",
								"offset": 0,
								"slot": "1",
								"type": "t_string_storage"
							},
							{
								"astId": 160,
								"contract": "contracts/CrowdTank.sol:CrowdTank",
								"label": "description",
								"offset": 0,
								"slot": "2",
								"type": "t_string_storage"
							},
							{
								"astId": 162,
								"contract": "contracts/CrowdTank.sol:CrowdTank",
								"label": "fundingGoal",
								"offset": 0,
								"slot": "3",
								"type": "t_uint256"
							},
							{
								"astId": 164,
								"contract": "contracts/CrowdTank.sol:CrowdTank",
								"label": "deadline",
								"offset": 0,
								"slot": "4",
								"type": "t_uint256"
							},
							{
								"astId": 166,
								"contract": "contracts/CrowdTank.sol:CrowdTank",
								"label": "amountRaised",
								"offset": 0,
								"slot": "5",
								"type": "t_uint256"
							},
							{
								"astId": 168,
								"contract": "contracts/CrowdTank.sol:CrowdTank",
								"label": "funded",
								"offset": 0,
								"slot": "6",
								"type": "t_bool"
							},
							{
								"astId": 170,
								"contract": "contracts/CrowdTank.sol:CrowdTank",
								"label": "highest_Funder",
								"offset": 1,
								"slot": "6",
								"type": "t_address"
							},
							{
								"astId": 172,
								"contract": "contracts/CrowdTank.sol:CrowdTank",
								"label": "highest_contribution",
								"offset": 0,
								"slot": "7",
								"type": "t_uint256"
							},
							{
								"astId": 174,
								"contract": "contracts/CrowdTank.sol:CrowdTank",
								"label": "failed_projects",
								"offset": 0,
								"slot": "8",
								"type": "t_bool"
							},
							{
								"astId": 176,
								"contract": "contracts/CrowdTank.sol:CrowdTank",
								"label": "status_processed",
								"offset": 1,
								"slot": "8",
								"type": "t_bool"
							}
						],
						"numberOfBytes": "288"
					},
					"t_uint256": {
						"encoding": "inplace",
						"label": "uint256",
						"numberOfBytes": "32"
					}
				}
			},
			"userdoc": {
				"kind": "user",
				"methods": {},
				"version": 1
			}
		}
	}
}